{"contracts/BillHavenEscrowV3.sol":{"BillHavenEscrowV3":{"abi":[{"inputs":[{"internalType":"address","name":"_feeWallet","type":"address"}],"stateMutability":"nonpayable","type":"constructor"},{"inputs":[],"name":"AccessControlBadConfirmation","type":"error"},{"inputs":[{"internalType":"address","name":"account","type":"address"},{"internalType":"bytes32","name":"neededRole","type":"bytes32"}],"name":"AccessControlUnauthorizedAccount","type":"error"},{"inputs":[],"name":"BillAlreadyClaimed","type":"error"},{"inputs":[],"name":"BillExpired","type":"error"},{"inputs":[],"name":"BillNotClaimed","type":"error"},{"inputs":[],"name":"BillNotExpired","type":"error"},{"inputs":[],"name":"BillNotFound","type":"error"},{"inputs":[],"name":"ECDSAInvalidSignature","type":"error"},{"inputs":[{"internalType":"uint256","name":"length","type":"uint256"}],"name":"ECDSAInvalidSignatureLength","type":"error"},{"inputs":[{"internalType":"bytes32","name":"s","type":"bytes32"}],"name":"ECDSAInvalidSignatureS","type":"error"},{"inputs":[],"name":"EnforcedPause","type":"error"},{"inputs":[],"name":"ExpectedPause","type":"error"},{"inputs":[],"name":"HoldPeriodNotElapsed","type":"error"},{"inputs":[],"name":"InvalidAddress","type":"error"},{"inputs":[],"name":"InvalidAmount","type":"error"},{"inputs":[],"name":"InvalidPaymentMethod","type":"error"},{"inputs":[],"name":"InvalidSignature","type":"error"},{"inputs":[],"name":"InvalidState","type":"error"},{"inputs":[],"name":"NotAuthorized","type":"error"},{"inputs":[],"name":"NotBillMaker","type":"error"},{"inputs":[],"name":"NotBillPayer","type":"error"},{"inputs":[],"name":"PaymentMethodBlocked","type":"error"},{"inputs":[],"name":"PaymentReferenceUsed","type":"error"},{"inputs":[],"name":"ReentrancyGuardReentrantCall","type":"error"},{"inputs":[{"internalType":"address","name":"token","type":"address"}],"name":"SafeERC20FailedOperation","type":"error"},{"inputs":[],"name":"TokenNotSupported","type":"error"},{"inputs":[],"name":"UserBlacklisted","type":"error"},{"inputs":[{"internalType":"string","name":"limitType","type":"string"}],"name":"VelocityLimitExceededError","type":"error"},{"anonymous":false,"inputs":[{"indexed":true,"internalType":"uint256","name":"billId","type":"uint256"},{"indexed":true,"internalType":"address","name":"billMaker","type":"address"}],"name":"BillCancelled","type":"event"},{"anonymous":false,"inputs":[{"indexed":true,"internalType":"uint256","name":"billId","type":"uint256"},{"indexed":true,"internalType":"address","name":"payer","type":"address"}],"name":"BillClaimed","type":"event"},{"anonymous":false,"inputs":[{"indexed":true,"internalType":"uint256","name":"billId","type":"uint256"},{"indexed":true,"internalType":"address","name":"billMaker","type":"address"},{"indexed":true,"internalType":"address","name":"token","type":"address"},{"indexed":false,"internalType":"uint256","name":"amount","type":"uint256"},{"indexed":false,"internalType":"uint256","name":"fee","type":"uint256"},{"indexed":false,"internalType":"enum BillHavenEscrowV3.PaymentMethod","name":"paymentMethod","type":"uint8"}],"name":"BillCreated","type":"event"},{"anonymous":false,"inputs":[{"indexed":true,"internalType":"uint256","name":"billId","type":"uint256"},{"indexed":true,"internalType":"address","name":"by","type":"address"}],"name":"BillDisputed","type":"event"},{"anonymous":false,"inputs":[{"indexed":true,"internalType":"uint256","name":"billId","type":"uint256"},{"indexed":false,"internalType":"uint256","name":"totalAmount","type":"uint256"}],"name":"BillFunded","type":"event"},{"anonymous":false,"inputs":[{"indexed":true,"internalType":"uint256","name":"billId","type":"uint256"},{"indexed":true,"internalType":"address","name":"billMaker","type":"address"},{"indexed":false,"internalType":"uint256","name":"amount","type":"uint256"}],"name":"BillRefunded","type":"event"},{"anonymous":false,"inputs":[{"indexed":true,"internalType":"uint256","name":"billId","type":"uint256"},{"indexed":true,"internalType":"address","name":"payer","type":"address"},{"indexed":false,"internalType":"uint256","name":"amount","type":"uint256"},{"indexed":false,"internalType":"uint256","name":"fee","type":"uint256"}],"name":"CryptoReleased","type":"event"},{"anonymous":false,"inputs":[{"indexed":true,"internalType":"uint256","name":"billId","type":"uint256"},{"indexed":false,"internalType":"bool","name":"releasedToPayer","type":"bool"},{"indexed":false,"internalType":"address","name":"resolver","type":"address"}],"name":"DisputeResolved","type":"event"},{"anonymous":false,"inputs":[{"indexed":true,"internalType":"uint256","name":"billId","type":"uint256"},{"indexed":false,"internalType":"uint256","name":"releaseTime","type":"uint256"}],"name":"HoldPeriodComplete","type":"event"},{"anonymous":false,"inputs":[{"indexed":true,"internalType":"address","name":"oracle","type":"address"}],"name":"OracleAdded","type":"event"},{"anonymous":false,"inputs":[{"indexed":true,"internalType":"address","name":"oracle","type":"address"}],"name":"OracleRemoved","type":"event"},{"anonymous":false,"inputs":[{"indexed":false,"internalType":"address","name":"account","type":"address"}],"name":"Paused","type":"event"},{"anonymous":false,"inputs":[{"indexed":true,"internalType":"uint256","name":"billId","type":"uint256"},{"indexed":false,"internalType":"bytes32","name":"paymentReference","type":"bytes32"}],"name":"PaymentMarkedSent","type":"event"},{"anonymous":false,"inputs":[{"indexed":true,"internalType":"uint256","name":"billId","type":"uint256"},{"indexed":false,"internalType":"address","name":"verifiedBy","type":"address"},{"indexed":false,"internalType":"bool","name":"isOracle","type":"bool"}],"name":"PaymentVerified","type":"event"},{"anonymous":false,"inputs":[{"indexed":true,"internalType":"bytes32","name":"role","type":"bytes32"},{"indexed":true,"internalType":"bytes32","name":"previousAdminRole","type":"bytes32"},{"indexed":true,"internalType":"bytes32","name":"newAdminRole","type":"bytes32"}],"name":"RoleAdminChanged","type":"event"},{"anonymous":false,"inputs":[{"indexed":true,"internalType":"bytes32","name":"role","type":"bytes32"},{"indexed":true,"internalType":"address","name":"account","type":"address"},{"indexed":true,"internalType":"address","name":"sender","type":"address"}],"name":"RoleGranted","type":"event"},{"anonymous":false,"inputs":[{"indexed":true,"internalType":"bytes32","name":"role","type":"bytes32"},{"indexed":true,"internalType":"address","name":"account","type":"address"},{"indexed":true,"internalType":"address","name":"sender","type":"address"}],"name":"RoleRevoked","type":"event"},{"anonymous":false,"inputs":[{"indexed":false,"internalType":"address","name":"account","type":"address"}],"name":"Unpaused","type":"event"},{"anonymous":false,"inputs":[{"indexed":true,"internalType":"address","name":"user","type":"address"},{"indexed":false,"internalType":"enum BillHavenEscrowV3.TrustLevel","name":"newLevel","type":"uint8"}],"name":"UserUpgraded","type":"event"},{"anonymous":false,"inputs":[{"indexed":true,"internalType":"address","name":"user","type":"address"},{"indexed":false,"internalType":"string","name":"limitType","type":"string"}],"name":"VelocityLimitExceeded","type":"event"},{"inputs":[],"name":"ADMIN_ROLE","outputs":[{"internalType":"bytes32","name":"","type":"bytes32"}],"stateMutability":"view","type":"function"},{"inputs":[],"name":"ARBITRATOR_ROLE","outputs":[{"internalType":"bytes32","name":"","type":"bytes32"}],"stateMutability":"view","type":"function"},{"inputs":[],"name":"BASIS_POINTS","outputs":[{"internalType":"uint256","name":"","type":"uint256"}],"stateMutability":"view","type":"function"},{"inputs":[],"name":"DEFAULT_ADMIN_ROLE","outputs":[{"internalType":"bytes32","name":"","type":"bytes32"}],"stateMutability":"view","type":"function"},{"inputs":[],"name":"MAX_FEE","outputs":[{"internalType":"uint256","name":"","type":"uint256"}],"stateMutability":"view","type":"function"},{"inputs":[],"name":"ORACLE_ROLE","outputs":[{"internalType":"bytes32","name":"","type":"bytes32"}],"stateMutability":"view","type":"function"},{"inputs":[{"internalType":"address","name":"_oracle","type":"address"}],"name":"addOracle","outputs":[],"stateMutability":"nonpayable","type":"function"},{"inputs":[{"internalType":"address","name":"_token","type":"address"}],"name":"addSupportedToken","outputs":[],"stateMutability":"nonpayable","type":"function"},{"inputs":[{"internalType":"uint256","name":"_billId","type":"uint256"}],"name":"autoRelease","outputs":[],"stateMutability":"nonpayable","type":"function"},{"inputs":[],"name":"billCounter","outputs":[{"internalType":"uint256","name":"","type":"uint256"}],"stateMutability":"view","type":"function"},{"inputs":[{"internalType":"uint256","name":"","type":"uint256"}],"name":"bills","outputs":[{"internalType":"address","name":"billMaker","type":"address"},{"internalType":"address","name":"payer","type":"address"},{"internalType":"address","name":"token","type":"address"},{"internalType":"uint256","name":"amount","type":"uint256"},{"internalType":"uint256","name":"platformFee","type":"uint256"},{"internalType":"uint256","name":"fiatAmount","type":"uint256"},{"internalType":"enum BillHavenEscrowV3.ConfirmationStatus","name":"status","type":"uint8"},{"internalType":"enum BillHavenEscrowV3.PaymentMethod","name":"paymentMethod","type":"uint8"},{"internalType":"bool","name":"payerConfirmed","type":"bool"},{"internalType":"bool","name":"oracleVerified","type":"bool"},{"internalType":"bool","name":"makerConfirmed","type":"bool"},{"internalType":"uint256","name":"createdAt","type":"uint256"},{"internalType":"uint256","name":"fundedAt","type":"uint256"},{"internalType":"uint256","name":"paymentSentAt","type":"uint256"},{"internalType":"uint256","name":"verifiedAt","type":"uint256"},{"internalType":"uint256","name":"releaseTime","type":"uint256"},{"internalType":"uint256","name":"expiresAt","type":"uint256"},{"internalType":"bytes32","name":"paymentReference","type":"bytes32"}],"stateMutability":"view","type":"function"},{"inputs":[{"internalType":"enum BillHavenEscrowV3.PaymentMethod","name":"","type":"uint8"}],"name":"blockedMethods","outputs":[{"internalType":"bool","name":"","type":"bool"}],"stateMutability":"view","type":"function"},{"inputs":[{"internalType":"uint256","name":"_fiatAmount","type":"uint256"},{"internalType":"bool","name":"_hasAffiliateDiscount","type":"bool"}],"name":"calculateTieredFee","outputs":[{"internalType":"uint256","name":"feeInBasisPoints","type":"uint256"},{"internalType":"uint256","name":"feeAmount","type":"uint256"}],"stateMutability":"pure","type":"function"},{"inputs":[{"internalType":"uint256","name":"_billId","type":"uint256"}],"name":"canRelease","outputs":[{"internalType":"bool","name":"","type":"bool"},{"internalType":"string","name":"","type":"string"}],"stateMutability":"view","type":"function"},{"inputs":[{"internalType":"uint256","name":"_billId","type":"uint256"}],"name":"cancelBill","outputs":[],"stateMutability":"nonpayable","type":"function"},{"inputs":[{"internalType":"uint256","name":"_billId","type":"uint256"}],"name":"claimBill","outputs":[],"stateMutability":"nonpayable","type":"function"},{"inputs":[{"internalType":"uint256","name":"_billId","type":"uint256"},{"internalType":"bytes32","name":"_paymentReference","type":"bytes32"}],"name":"confirmPaymentSent","outputs":[],"stateMutability":"nonpayable","type":"function"},{"inputs":[{"internalType":"uint256","name":"_fiatAmount","type":"uint256"},{"internalType":"enum BillHavenEscrowV3.PaymentMethod","name":"_paymentMethod","type":"uint8"}],"name":"createBill","outputs":[{"internalType":"uint256","name":"","type":"uint256"}],"stateMutability":"payable","type":"function"},{"inputs":[{"internalType":"address","name":"_token","type":"address"},{"internalType":"uint256","name":"_amount","type":"uint256"},{"internalType":"uint256","name":"_fiatAmount","type":"uint256"},{"internalType":"enum BillHavenEscrowV3.PaymentMethod","name":"_paymentMethod","type":"uint8"}],"name":"createBillWithToken","outputs":[{"internalType":"uint256","name":"","type":"uint256"}],"stateMutability":"nonpayable","type":"function"},{"inputs":[],"name":"feeWallet","outputs":[{"internalType":"address","name":"","type":"address"}],"stateMutability":"view","type":"function"},{"inputs":[{"internalType":"uint256","name":"_billId","type":"uint256"}],"name":"getBill","outputs":[{"components":[{"internalType":"address","name":"billMaker","type":"address"},{"internalType":"address","name":"payer","type":"address"},{"internalType":"address","name":"token","type":"address"},{"internalType":"uint256","name":"amount","type":"uint256"},{"internalType":"uint256","name":"platformFee","type":"uint256"},{"internalType":"uint256","name":"fiatAmount","type":"uint256"},{"internalType":"enum BillHavenEscrowV3.ConfirmationStatus","name":"status","type":"uint8"},{"internalType":"enum BillHavenEscrowV3.PaymentMethod","name":"paymentMethod","type":"uint8"},{"internalType":"bool","name":"payerConfirmed","type":"bool"},{"internalType":"bool","name":"oracleVerified","type":"bool"},{"internalType":"bool","name":"makerConfirmed","type":"bool"},{"internalType":"uint256","name":"createdAt","type":"uint256"},{"internalType":"uint256","name":"fundedAt","type":"uint256"},{"internalType":"uint256","name":"paymentSentAt","type":"uint256"},{"internalType":"uint256","name":"verifiedAt","type":"uint256"},{"internalType":"uint256","name":"releaseTime","type":"uint256"},{"internalType":"uint256","name":"expiresAt","type":"uint256"},{"internalType":"bytes32","name":"paymentReference","type":"bytes32"}],"internalType":"struct BillHavenEscrowV3.Bill","name":"","type":"tuple"}],"stateMutability":"view","type":"function"},{"inputs":[{"internalType":"enum BillHavenEscrowV3.PaymentMethod","name":"_method","type":"uint8"}],"name":"getHoldPeriod","outputs":[{"internalType":"uint256","name":"","type":"uint256"}],"stateMutability":"view","type":"function"},{"inputs":[{"internalType":"bytes32","name":"role","type":"bytes32"}],"name":"getRoleAdmin","outputs":[{"internalType":"bytes32","name":"","type":"bytes32"}],"stateMutability":"view","type":"function"},{"inputs":[{"internalType":"address","name":"_user","type":"address"}],"name":"getUserLimits","outputs":[{"components":[{"internalType":"uint256","name":"maxDailyVolume","type":"uint256"},{"internalType":"uint256","name":"maxWeeklyVolume","type":"uint256"},{"internalType":"uint256","name":"maxTradeSize","type":"uint256"},{"internalType":"uint256","name":"maxDailyTrades","type":"uint256"}],"internalType":"struct BillHavenEscrowV3.VelocityLimits","name":"","type":"tuple"}],"stateMutability":"view","type":"function"},{"inputs":[{"internalType":"address","name":"_user","type":"address"}],"name":"getUserStats","outputs":[{"components":[{"internalType":"uint256","name":"totalTrades","type":"uint256"},{"internalType":"uint256","name":"successfulTrades","type":"uint256"},{"internalType":"uint256","name":"disputedTrades","type":"uint256"},{"internalType":"uint256","name":"dailyVolume","type":"uint256"},{"internalType":"uint256","name":"weeklyVolume","type":"uint256"},{"internalType":"uint256","name":"lastTradeDate","type":"uint256"},{"internalType":"uint256","name":"lastWeekStart","type":"uint256"},{"internalType":"enum BillHavenEscrowV3.TrustLevel","name":"trustLevel","type":"uint8"},{"internalType":"bool","name":"isBlacklisted","type":"bool"}],"internalType":"struct BillHavenEscrowV3.UserStats","name":"","type":"tuple"}],"stateMutability":"view","type":"function"},{"inputs":[{"internalType":"bytes32","name":"role","type":"bytes32"},{"internalType":"address","name":"account","type":"address"}],"name":"grantRole","outputs":[],"stateMutability":"nonpayable","type":"function"},{"inputs":[{"internalType":"bytes32","name":"role","type":"bytes32"},{"internalType":"address","name":"account","type":"address"}],"name":"hasRole","outputs":[{"internalType":"bool","name":"","type":"bool"}],"stateMutability":"view","type":"function"},{"inputs":[{"internalType":"enum BillHavenEscrowV3.PaymentMethod","name":"","type":"uint8"}],"name":"holdPeriods","outputs":[{"internalType":"uint256","name":"","type":"uint256"}],"stateMutability":"view","type":"function"},{"inputs":[{"internalType":"enum BillHavenEscrowV3.PaymentMethod","name":"_method","type":"uint8"}],"name":"isMethodBlocked","outputs":[{"internalType":"bool","name":"","type":"bool"}],"stateMutability":"view","type":"function"},{"inputs":[{"internalType":"uint256","name":"_billId","type":"uint256"}],"name":"makerConfirmAndRelease","outputs":[],"stateMutability":"nonpayable","type":"function"},{"inputs":[{"internalType":"uint256","name":"_billId","type":"uint256"}],"name":"makerConfirmPayment","outputs":[],"stateMutability":"nonpayable","type":"function"},{"inputs":[],"name":"minConfirmations","outputs":[{"internalType":"uint256","name":"","type":"uint256"}],"stateMutability":"view","type":"function"},{"inputs":[],"name":"pause","outputs":[],"stateMutability":"nonpayable","type":"function"},{"inputs":[],"name":"paused","outputs":[{"internalType":"bool","name":"","type":"bool"}],"stateMutability":"view","type":"function"},{"inputs":[],"name":"platformFeePercent","outputs":[{"internalType":"uint256","name":"","type":"uint256"}],"stateMutability":"view","type":"function"},{"inputs":[{"internalType":"uint256","name":"_billId","type":"uint256"}],"name":"raiseDispute","outputs":[],"stateMutability":"nonpayable","type":"function"},{"inputs":[{"internalType":"uint256","name":"_billId","type":"uint256"}],"name":"refundExpiredBill","outputs":[],"stateMutability":"nonpayable","type":"function"},{"inputs":[{"internalType":"uint256","name":"_billId","type":"uint256"}],"name":"releaseFunds","outputs":[],"stateMutability":"nonpayable","type":"function"},{"inputs":[{"internalType":"address","name":"_oracle","type":"address"}],"name":"removeOracle","outputs":[],"stateMutability":"nonpayable","type":"function"},{"inputs":[{"internalType":"address","name":"_token","type":"address"}],"name":"removeSupportedToken","outputs":[],"stateMutability":"nonpayable","type":"function"},{"inputs":[{"internalType":"bytes32","name":"role","type":"bytes32"},{"internalType":"address","name":"callerConfirmation","type":"address"}],"name":"renounceRole","outputs":[],"stateMutability":"nonpayable","type":"function"},{"inputs":[],"name":"rescueStuckFunds","outputs":[],"stateMutability":"nonpayable","type":"function"},{"inputs":[{"internalType":"address","name":"_token","type":"address"}],"name":"rescueStuckTokens","outputs":[],"stateMutability":"nonpayable","type":"function"},{"inputs":[{"internalType":"uint256","name":"_billId","type":"uint256"},{"internalType":"bool","name":"_releaseToPayer","type":"bool"}],"name":"resolveDispute","outputs":[],"stateMutability":"nonpayable","type":"function"},{"inputs":[{"internalType":"bytes32","name":"role","type":"bytes32"},{"internalType":"address","name":"account","type":"address"}],"name":"revokeRole","outputs":[],"stateMutability":"nonpayable","type":"function"},{"inputs":[{"internalType":"enum BillHavenEscrowV3.PaymentMethod","name":"_method","type":"uint8"},{"internalType":"bool","name":"_blocked","type":"bool"}],"name":"setMethodBlocked","outputs":[],"stateMutability":"nonpayable","type":"function"},{"inputs":[{"internalType":"address","name":"_user","type":"address"},{"internalType":"bool","name":"_blacklisted","type":"bool"}],"name":"setUserBlacklist","outputs":[],"stateMutability":"nonpayable","type":"function"},{"inputs":[{"internalType":"address","name":"_user","type":"address"},{"internalType":"enum BillHavenEscrowV3.TrustLevel","name":"_level","type":"uint8"}],"name":"setUserTrustLevel","outputs":[],"stateMutability":"nonpayable","type":"function"},{"inputs":[{"internalType":"address","name":"","type":"address"}],"name":"supportedTokens","outputs":[{"internalType":"bool","name":"","type":"bool"}],"stateMutability":"view","type":"function"},{"inputs":[{"internalType":"bytes4","name":"interfaceId","type":"bytes4"}],"name":"supportsInterface","outputs":[{"internalType":"bool","name":"","type":"bool"}],"stateMutability":"view","type":"function"},{"inputs":[{"internalType":"address","name":"","type":"address"}],"name":"trustedOracles","outputs":[{"internalType":"bool","name":"","type":"bool"}],"stateMutability":"view","type":"function"},{"inputs":[],"name":"unpause","outputs":[],"stateMutability":"nonpayable","type":"function"},{"inputs":[{"internalType":"address","name":"_newWallet","type":"address"}],"name":"updateFeeWallet","outputs":[],"stateMutability":"nonpayable","type":"function"},{"inputs":[{"internalType":"enum BillHavenEscrowV3.PaymentMethod","name":"_method","type":"uint8"},{"internalType":"uint256","name":"_period","type":"uint256"}],"name":"updateHoldPeriod","outputs":[],"stateMutability":"nonpayable","type":"function"},{"inputs":[{"internalType":"uint256","name":"_newFeePercent","type":"uint256"}],"name":"updatePlatformFee","outputs":[],"stateMutability":"nonpayable","type":"function"},{"inputs":[{"internalType":"enum BillHavenEscrowV3.TrustLevel","name":"_level","type":"uint8"},{"internalType":"uint256","name":"_maxDaily","type":"uint256"},{"internalType":"uint256","name":"_maxWeekly","type":"uint256"},{"internalType":"uint256","name":"_maxTrade","type":"uint256"},{"internalType":"uint256","name":"_maxDailyTrades","type":"uint256"}],"name":"updateVelocityLimits","outputs":[],"stateMutability":"nonpayable","type":"function"},{"inputs":[{"internalType":"bytes32","name":"","type":"bytes32"}],"name":"usedPaymentReferences","outputs":[{"internalType":"bool","name":"","type":"bool"}],"stateMutability":"view","type":"function"},{"inputs":[{"internalType":"address","name":"","type":"address"}],"name":"userStats","outputs":[{"internalType":"uint256","name":"totalTrades","type":"uint256"},{"internalType":"uint256","name":"successfulTrades","type":"uint256"},{"internalType":"uint256","name":"disputedTrades","type":"uint256"},{"internalType":"uint256","name":"dailyVolume","type":"uint256"},{"internalType":"uint256","name":"weeklyVolume","type":"uint256"},{"internalType":"uint256","name":"lastTradeDate","type":"uint256"},{"internalType":"uint256","name":"lastWeekStart","type":"uint256"},{"internalType":"enum BillHavenEscrowV3.TrustLevel","name":"trustLevel","type":"uint8"},{"internalType":"bool","name":"isBlacklisted","type":"bool"}],"stateMutability":"view","type":"function"},{"inputs":[{"internalType":"enum BillHavenEscrowV3.TrustLevel","name":"","type":"uint8"}],"name":"velocityLimits","outputs":[{"internalType":"uint256","name":"maxDailyVolume","type":"uint256"},{"internalType":"uint256","name":"maxWeeklyVolume","type":"uint256"},{"internalType":"uint256","name":"maxTradeSize","type":"uint256"},{"internalType":"uint256","name":"maxDailyTrades","type":"uint256"}],"stateMutability":"view","type":"function"},{"inputs":[{"internalType":"uint256","name":"_billId","type":"uint256"},{"internalType":"bytes32","name":"_paymentReference","type":"bytes32"},{"internalType":"uint256","name":"_fiatAmount","type":"uint256"},{"internalType":"uint256","name":"_timestamp","type":"uint256"},{"internalType":"bytes","name":"_signature","type":"bytes"}],"name":"verifyPaymentReceived","outputs":[],"stateMutability":"nonpayable","type":"function"},{"stateMutability":"payable","type":"receive"}],"evm":{"bytecode":{"linkReferences":{},"object":"6080346200027f57601f62003ddc38819003918201601f1916830192916001600160401b038411838510176200028457808392604095865283396020928391810103126200027f57516001600160a01b038116908190036200027f576001916000918383556101b8600d5583600e5580156200026e57600c80546001600160a01b0319169190911790556200009433620002ba565b50620000a0336200033b565b50620000ac33620003de565b50818052600581528382209160ff19928484825416179055600982528085812055838152610e10858220556002908181526202a300868220556003938482526201518087832055600482526203f480808884205560058352620697808884205560068352878320556009825262093a808783205560078252600a845286822086828254161790556008825285878320918254161790556200014c6200029a565b94620186a0865283860195856207a1209788815289830161c35081526060840191838352868052600889528b8720945185555185850155518684015551910155620001966200029a565b9586528386019585621e84809788815289830162030d4081526060840191600a8352858752600889528b8720945185555185850155518684015551910155620001de6200029a565b95865283860195856298968097888152898301620f42408152606084019160148352878752600889528b8720945185555185850155518684015551910155620002266200029a565b9586528386016302faf08081528780880193624c4b408552600860608a01976032895289835252209651875551908601555190840155519101555161393f90816200047d8239f35b845163e6c4247b60e01b8152600490fd5b600080fd5b634e487b7160e01b600052604160045260246000fd5b60405190608082016001600160401b038111838210176200028457604052565b6001600160a01b031660008181527fac33ff75c19e70fe83507db0d683fd3465c996598dc972688b7ace676c89077b602052604081205490919060ff16620003375781805260026020526040822081835260205260408220600160ff19825416179055339160008051602062003dbc8339815191528180a4600190565b5090565b6001600160a01b031660008181527fe5ebfa64fca8d502a8e50c1edffd2c31ef4dad5b396e65d9f397fb028f74abc560205260408120549091907fa49807205ce4d355092ef5a8a18f56e8913cf4a201fbe287825b095693c217759060ff16620003d95780835260026020526040832082845260205260408320600160ff1982541617905560008051602062003dbc833981519152339380a4600190565b505090565b6001600160a01b031660008181527f824854fce2b26a685510a23e94ce095a99e4d883af92f3bad8a69b2ed000be4160205260408120549091907f16ceee8289685dd2a02b9c8ae81d2df373176ce53519e6284e2a2950d6546ffa9060ff16620003d95780835260026020526040832082845260205260408320600160ff1982541617905560008051602062003dbc833981519152339380a460019056fe608080604052600436101561001d575b50361561001b57600080fd5b005b60003560e01c90816301ffc9a7146128d95750806302e9264e1461289557806307e2cea51461285a5780630a5c722f146126cd5780630b86fb0f146126485780630c1fe80c146124855780631930eae71461238a5780631fbee6c51461041b578063248a9ca31461235b57806328bdcde81461223f5780632b3b4752146121a95780632f2ff15d1461216a57806334b25ee21461203257806336568abe14611feb57806338dd40c01461070b5780633f4ba83a14611f94578063459b860e14611f185780634d68282f14611e185780634e43603a14611cd45780635c975abb14611cb15780636179862414611bd457806362e87b8c1461194657806366718524146118fe578063677629881461185c57806368c4ac261461181d5780636d69fcaf146117d257806372baa6381461156157806374ee23e61461146b57806375b238fc1461143057806376319190146113e85780638456cb591461138f5780638a65d874146112ee5780638c639a85146112d057806391d14854146112835780639c078c3a146111f65780639cea0787146111bb5780639d7a03391461119d578063a217fddf14611181578063a5c1674e1461104f578063a73222fb14610fef578063a81ea0e514610c15578063aa0b598814610bd9578063b1cd06e61461094d578063b2f70e96146108d6578063bc063e1a146108b9578063c5c8010a146107a6578063ca440b9f1461074e578063cc73bab41461070b578063ccddf0b0146106ae578063cd2cb46d146105d0578063d547741f14610591578063db29660214610552578063df5dd1a5146104c5578063e1d239db14610494578063e1f1c4a714610477578063e7c4393e14610459578063f06edf291461041b578063f25f4b56146103f2578063f562e122146103365763fdc85fc4146102be573861000f565b34610331576020366003190112610331576102d761292c565b6102df612991565b6001600160a01b0381166000818152600660205260409020805460ff191690559061030990612b41565b507f9c8e7d83025bef8a04c664b2f753f64b8814bdb7e27291d7e50935f18cc3c712600080a2005b600080fd5b34610331576020806003193601126103315760809061035361292c565b6000606060405161036381612ca0565b8281528285820152826040820152015260018060a01b03166000526004815260ff6007604060002001541661039781612987565b600052600881526040600020604051906103b082612ca0565b80549283835260018201548184019081526060600360028501549460408701958652015494019384526040519485525190840152516040830152516060820152f35b3461033157600036600319011261033157600c546040516001600160a01b039091168152602090f35b3461033157602036600319011261033157600435600a8110156103315761044181612958565b60005260096020526020604060002054604051908152f35b34610331576000366003190112610331576020600e54604051908152f35b346103315760003660031901126103315760206040516127108152f35b34610331576020366003190112610331576004356000526007602052602060ff604060002054166040519015158152f35b34610331576020366003190112610331576104de61292c565b6104e6612991565b6001600160a01b03811690811561054057610519908260005260066020526040600020600160ff19825416179055612a13565b507e47706786c922d17b39285dc59d696bafea72c0b003d3841ae1202076f4c2e4600080a2005b60405163e6c4247b60e01b8152600490fd5b34610331576020366003190112610331576001600160a01b0361057361292c565b166000526006602052602060ff604060002054166040519015158152f35b346103315760403660031901126103315761001b6004356105b0612942565b908060005260026020526105cb6001604060002001546129ed565b612bed565b34610331576020366003190112610331576004356105ec612d89565b6105f4612d6b565b600081815260036020526040902080546001600160a01b0316330361069c576006019081549160ff831661062781612958565b60038114159081610686575b81610671575b5061065f576401000000006106589364ff000000001916179055612fab565b6001600055005b60405163baf3f0f760e01b8152600490fd5b6005915061067e81612958565b141584610639565b905061069181612958565b600481141590610633565b6040516337ac59f760e11b8152600490fd5b34610331576040366003190112610331576106c761292c565b6106cf612978565b906106d8612991565b6001600160a01b03166000908152600460205260409020600701805461ff00191691151560081b61ff0016919091179055005b3461033157602036600319011261033157600435600a8110156103315761073181612958565b600052600a602052602060ff604060002054166040519015158152f35b3461033157604036600319011261033157600435600a81101561033157610773612978565b9061077c612991565b61078581612958565b600052600a60205260406000209060ff801983541691151516179055600080f35b34610331576020366003190112610331576004356107c2612d6b565b600081815260036020526040902080546001600160a01b0316330361069c576006810180549060ff82166107f581612958565b60038114908115806108a5575b61065f5764ff0000000019841664010000000017835561082190612958565b610859575b837ff6290085419aef756daab446f349a2b978fb567dcfc918f5d5dac67d2021076d6040805133815260006020820152a2005b64010000000460ff9264ff000000ff19161780915542600a84015560081c1661088181612958565b6000526009602052600b61089a60406000205442612c93565b910155818080610826565b506108af81612958565b6004811415610802565b346103315760003660031901126103315760206040516103e88152f35b3461033157602080600319360112610331576108f36004356137bb565b90604051928391151582526040818301528251908160408401526000935b828510610934575050606092506000838284010152601f80199101168101030190f35b8481018201518686016060015293810193859350610911565b3461033157602036600319011261033157600061022060405161096f81612cd9565b8281528260208201528260408201528260608201528260808201528260a08201528260c08201528260e08201528261010082015282610120820152826101408201528261016082015282610180820152826101a0820152826101c0820152826101e082015282610200820152015260043560005260036020526102406040600020600d604051916109ff83612cd9565b80546001600160a01b03908116845260018201548116602085015260028201541660408401526003810154606084015260048101546080840152600581015460a0840152600681015460ff90808216610a5781612958565b60c0860152818160081c16610a6b81612958565b60e0860152818160101c161515610100860152818160181c16151561012086015260201c1615156101408401526007810154610160840152600881015461018084015260098101546101a0840152600a8101546101c0840152600b8101546101e0840152600c81015461020084015201546102208201526102206040519160018060a01b03815116835260018060a01b03602082015116602084015260018060a01b036040820151166040840152606081015160608401526080810151608084015260a081015160a084015260c0810151610b4581612958565b60c084015260e0810151610b5881612958565b60e08401526101008101511515610100840152610120810151151561012084015261014081015115156101408401526101608101516101608401526101808101516101808401526101a08101516101a08401526101c08101516101c08401526101e08101516101e08401526102008101516102008401520151610220820152f35b3461033157602036600319011261033157600435610bf5612991565b6103e88111610c0357600d55005b60405163162908e360e11b8152600490fd5b3461033157608036600319011261033157610c2e61292c565b602435906044359060643590600a82101561033157610c4b612d89565b610c53612d6b565b6001600160a01b03169182156105405782600052600560205260ff6040600020541615610fdd578315610c0357610c8982612958565b81600052600a60205260ff60406000205416610fcb57610ca981336132a4565b612710610cb8600d5486612c64565b0492610cc48486612c77565b946040516323b872dd60e01b60208201523360248201523060448201528160648201526064815260a081019080821067ffffffffffffffff831117610fb557610d109160405283612dac565b610d1b600b54612c84565b9182600b5562093a8042014211610f9f576020967f2469925ccefb03acd27c12d788551eb22b1874ded2deb93e787464c9a3f3d83c967f2f7de55139de6fc244276fea13cfd810747cea11cb889582d3966aef80cc6f6095899560405191610d8283612cd9565b33835260008884015285604084015284606084015283608084015260a0830152600160c0830152610db289612958565b8860e0830152600061010083015260006101208301526000610140830152426101608301524261018083015260006101a083015260006101c083015260006101e083015262093a804201610200830152600061022083015260005260038652600d61022060406000209260018060a01b038151166001600160601b0360a01b90818654161785556001850160018060a01b038b8401511682825416179055600285019060018060a01b0360408401511690825416179055606081015160038501556080810151600485015560a08101516005850155610f2860068501610ea560c0840151610e9f81612958565b82612d34565b60e0830151610eb381612958565b610ebc81612958565b815461010085015162ffff001990911660089290921b61ff00169190911790151560101b62ff000016178155610120830151815463ff000000191690151560181b63ff00000016178155610140830151815464ff00000000191690151560201b64ff0000000016179055565b610160810151600785015561018081015160088501556101a081015160098501556101c0810151600a8501556101e0810151600b850155610200810151600c8501550151910155600b549788978892610f88604051928392339784612d4c565b0390a4604051908152a26001600055604051908152f35b634e487b7160e01b600052601160045260246000fd5b634e487b7160e01b600052604160045260246000fd5b60405163176fa74160e21b8152600490fd5b604051633dd1b30560e01b8152600490fd5b346103315760203660031901126103315760043560048110156103315761101581612987565b6000526008602052608060406000208054906001810154906003600282015491015491604051938452602084015260408301526060820152f35b346103315760203660031901126103315760043561106b612d6b565b600081815260036020526040902080546001600160a01b0391908216903382141580611171575b61115f57600681019182549060ff82166110ab81612958565b6006811490811561114a575b8115611135575b8115611121575b5061065f5760019360076110df9360ff1916179055613687565b01541680611112575b5033907f5af9d49f4a6a457555195a3b1d151b29d9708c5cc9074c9b3b08ec68d17f8cde600080a3005b61111b90613687565b816110e8565b6007915061112e81612958565b14876110c5565b905061114081612958565b60098114906110be565b905061115581612958565b60088114906110b7565b60405163ea8e4eb560e01b8152600490fd5b5082600182015416331415611092565b3461033157600036600319011261033157602060405160008152f35b34610331576000366003190112610331576020600b54604051908152f35b346103315760003660031901126103315760206040517f16ceee8289685dd2a02b9c8ae81d2df373176ce53519e6284e2a2950d6546ffa8152f35b3461033157602036600319011261033157600435611212612d89565b8060005260036020526040600020600c8101544211156112715760018101546001600160a01b031661125f5760ff600660019201541661125181612958565b0361065f576106589061319c565b6040516322e36a8760e21b8152600490fd5b604051631c1a054b60e01b8152600490fd5b346103315760403660031901126103315761129c612942565b600435600052600260205260406000209060018060a01b0316600052602052602060ff604060002054166040519015158152f35b34610331576000366003190112610331576020600d54604051908152f35b34610331576020366003190112610331576001600160a01b0361130f61292c565b166000526004602052610120604060002060ff815491600181015460028201549160038101546004820154600583015491600760068501549401549587871695604051998a5260208a015260408901526060880152608087015260a086015260c085015261137c81612987565b60e084015260081c161515610100820152f35b34610331576000366003190112610331576113a8612991565b6113b0612d6b565b600160ff19815416176001557f62e78cea01bee320cd4e420270b5ea74000d11b0c9f74754ebdbfc544b05a2586020604051338152a1005b346103315760203660031901126103315761140161292c565b611409612991565b6001600160a01b03168015610540576000908152600560205260409020805460ff19169055005b346103315760003660031901126103315760206040517fa49807205ce4d355092ef5a8a18f56e8913cf4a201fbe287825b095693c217758152f35b346103315760403660031901126103315760043560243561148a612d6b565b600082815260036020526040902060018101546001600160a01b0316330361154f576006810191825492600260ff85166114c381612958565b0361065f5781600052600760205260ff6040600020541661153d57600d6020938392620100037fec2ddc8c49b05b6a2c186d6f1481d3167f08de1c5a5de04f94a9f6e800b335529762ff00ff1916179055426009820155015580600052600782526040600020600160ff19825416179055604051908152a2005b6040516304f6343d60e21b8152600490fd5b60405163ed6f48a160e01b8152600490fd5b604036600319011261033157600435600a602435101561033157611583612d89565b61158b612d6b565b3415610c035761159c602435612958565b602435600052600a60205260ff60406000205416610fcb576115be81336132a4565b6127106115cd600d5434612c64565b04906115d98234612c77565b916115e5600b54612c84565b9081600b5562093a8042014211610f9f57602093611798936000936040519161160d83612cd9565b338352858884015285604084015283606084015284608084015260a0830152600160c083015261163e602435612958565b60243560e08301528461010083015284610120830152846101408301524261016083015242610180830152846101a0830152846101c0830152846101e083015262093a80420161020083015284610220830152845260038652600d610220604086209260018060a01b03808251166001600160601b0360a01b908187541617865560018601828c8501511682825416179055600286019160408401511690825416179055606081015160038501556080810151600485015560a0810151600585015561171860068501610ea560c0840151610e9f81612958565b610160810151600785015561018081015160088501556101a081015160098501556101c0810151600a8501556101e0810151600b850155610200810151600c85015501519101557f2469925ccefb03acd27c12d788551eb22b1874ded2deb93e787464c9a3f3d83c600b5494859260405191829133966024359184612d4c565b0390a4807f2f7de55139de6fc244276fea13cfd810747cea11cb889582d3966aef80cc6f6083604051348152a26001600055604051908152f35b34610331576020366003190112610331576117eb61292c565b6117f3612991565b6001600160a01b03168015610540576000908152600560205260409020805460ff19166001179055005b34610331576020366003190112610331576001600160a01b0361183e61292c565b166000526005602052602060ff604060002054166040519015158152f35b3461033157602036600319011261033157600435611878612d89565b600081815260036020526040902080546001600160a01b03908116330361069c576006820191600160ff8454166118ae81612958565b0361065f57600101541661125f576118c58261319c565b805460ff1916600917905533907f041d0e14dd8abcd72311b1c9267065414e8c2c246ad9914a60cc99ccea19446d600080a36001600055005b346103315760203660031901126103315761191761292c565b61191f612991565b6001600160a01b03168015610540576001600160601b0360a01b600c541617600c55600080f35b346103315760a03660031901126103315760043567ffffffffffffffff608435606435602435604435848411610331573660238501121561033157836004013594808611610331573660248787010111610331576119a2612d89565b6119aa612d6b565b86600052602094600386526040600020966006880194855496600360ff89166119d281612958565b0361065f5781600d8b015403611bc2578560058b015403610c0357428111611bc257610e0f194201428111610f9f578110611bc2578a9160018b0154968b5497604051988c8a019586526001600160601b0319809260601b1660408b015260601b1660548901526068880152608887015260a886015260a8855260e085019385851090851117610fb557611acd94611ac4946040525190207f19457468657265756d205369676e6564204d6573736167653a0a333200000000600052601c52600087603c822092806024611aa582612e08565b96611ab36040519889612d12565b828852018387013784010152612e24565b90929192612ef0565b6001600160a01b0316600081815260068552604090205490949060ff1615611bc257857ff6290085419aef756daab446f349a2b978fb567dcfc918f5d5dac67d2021076d6040600b9563ff0000ff19169760ff63010000048a1780885542600a88015560081c1694611b3e86612958565b8560005260098952611b54836000205442612c93565b97889101558151908152600188820152a2611b6e81612958565b6000526009835260406000205415611b87576001600055005b63010000057fb3712c80285d461d18d6dd4780227a6b6f17bf80b7064d9055d932bb28b18fc794179055604051908152a28080808080610658565b604051638baa579f60e01b8152600490fd5b34610331576040366003190112610331576040600435611bf2612978565b60648204620f42408110611c1e575050612710611c1160508093612c64565b0482519182526020820152f35b6207a1208110611c39575050612710611c1160788093612c64565b61c3508110611c53575050612710611c1160aa8093612c64565b614e208110611c6e575050612710611c116101188093612c64565b61271011611c875750612710611c1161015e8093612c64565b15611ca057612710611c1161ffff60dc5b168093612c64565b612710611c1161ffff6101b8611c98565b3461033157600036600319011261033157602060ff600154166040519015158152f35b3461033157602036600319011261033157610120611cf061292c565b60405190611cfd82612cbc565b6000825260006020830152600060408301526000606083015260006080830152600060a0830152600060c0830152600060e083015260006101008093015260018060a01b0316600052600460205260406000209060405191611d5e83612cbc565b805483526001810154602084019081526002820154916040850192835260038101546060860190815260048201546080870190815260058301549160a08801928352600760068501549460c08a0195865201549560ff87169560e08a0196611dc581612987565b875260ff898b019860081c161515885260405199518a525160208a01525160408901525160608801525160808701525160a08601525160c085015251611e0a81612987565b60e084015251151590820152f35b3461033157602036600319011261033157600435611e34612d89565b611e3c612d6b565b806000526003602052604060002060ff600682015416611e5b81612958565b60048114159081611f03575b5061065f57600b8101544210611eee578054336001600160a01b0391821614159182611edc575b505080611ea3575b61115f5761065890612fab565b503360009081527fe5ebfa64fca8d502a8e50c1edffd2c31ef4dad5b396e65d9f397fb028f74abc5602052604090205460ff1615611e96565b60019192500154163314158280611e8e565b604051600162a6d88760e01b03198152600490fd5b60059150611f1081612958565b141583611e67565b3461033157602036600319011261033157600435611f34612d89565b611f3c612d6b565b806000526003602052604060002060ff600682015416611f5b81612958565b60048114159081611f7f575b5061065f57600b01544210611eee5761065890612fab565b60059150611f8c81612958565b141583611f67565b3461033157600036600319011261033157611fad612991565b611fb56138ea565b60ff19600154166001557f5db9ee0a495bf2e6ff9c91a7834c1ba4fdd244a5e8aa4e537bd38aeae4b073aa6020604051338152a1005b3461033157604036600319011261033157612004612942565b336001600160a01b038216036120205761001b90600435612bed565b60405163334bd91960e11b8152600490fd5b346103315760403660031901126103315760043561204e612978565b3360009081527f824854fce2b26a685510a23e94ce095a99e4d883af92f3bad8a69b2ed000be4160205260409020547f16ceee8289685dd2a02b9c8ae81d2df373176ce53519e6284e2a2950d6546ffa9060ff161561214c57506120b0612d89565b8160005260036020526040600020600760ff6006830154166120d181612958565b0361065f5781806040927fe4869990df273a675df63cd0acf961e8cac9e8c47748a9d71c02c21e510e850c9491612135575b50156121275761211284612fab565b81519015158152336020820152a26001600055005b6121308461319c565b612112565b600101546001600160a01b03161515905085612103565b6044906040519063e2517d3f60e01b82523360048301526024820152fd5b346103315760403660031901126103315761001b600435612189612942565b908060005260026020526121a46001604060002001546129ed565b612ac6565b34610331576040366003190112610331576121c261292c565b6024359060048210156103315760207f506ec58ef84fdef2d0f37be02d5a6bfce019136479212ed8425b4d4910fcb5de916121fb612991565b6001600160a01b03166000818152600483526040902090939060070161222082612987565b60ff1981541660ff83161790556040519061223a81612987565b8152a2005b346103315760203660031901126103315760043560005260036020526040600020600160a01b60019003808254169181600182015416916002820154166003820154600483015460058401546006850154600786015490600887015492600988015494600a89015496600b8a015498600c8b01549a600d01549b604051809e81526020015260408d015260608c015260808b015260a08a015260ff81166122e581612958565b60c08a01528060081c60ff166122fa81612958565b60e08a01528060101c60ff1615156101008a01528060181c60ff1615156101208a015260201c60ff1615156101408901526101608801526101808701526101a08601526101c08501526101e084015261020083015261022082015261024090f35b346103315760203660031901126103315760043560005260026020526020600160406000200154604051908152f35b34610331576020366003190112610331576004356123a6612d89565b6123ae612d6b565b600081815260036020526040902080546001600160a01b03908116918215612473576006810192600160ff8554166123e581612958565b0361065f57600182019283541661125f57331461115f57600c810154421015612461576005612416910154336132a4565b336001600160601b0360a01b825416179055600260ff1982541617905533907f0b32da9354607796544422f364ca1aec8a7b6e85fdb196e204bf0ed62cb620ae600080a36001600055005b604051631390df2960e01b8152600490fd5b60405163cf897cfb60e01b8152600490fd5b34610331576020806003193601126103315761249f61292c565b6124a7612991565b6124af6138ea565b6001600160a01b0390811680156105405760006001600b54905b818111156125905750506040516370a0823160e01b8152306004820152908482602481865afa801561258457600090612555575b6125079250612c77565b91821561251d5761001b9350600c54169061315c565b60405162461bcd60e51b815260048101859052601060248201526f4e6f2065786365737320746f6b656e7360801b6044820152606490fd5b508482813d831161257d575b61256b8183612d12565b810103126103315761250791516124fd565b503d612561565b6040513d6000823e3d90fd5b8060005260038087526040600020908587600284015416148061262e575b80612613575b806125f8575b6125cf575b50506125ca90612c84565b6124c9565b936125ea8260046125ca95976125f095015491015490612c93565b90612c93565b9290876125bf565b50600960ff60068401541661260c81612958565b14156125ba565b50600860ff60068401541661262781612958565b14156125b4565b50600660ff818401541661264181612958565b14156125ae565b346103315760a03660031901126103315760043560048110156103315761266d612991565b60036040519161267c83612ca0565b602435835260208301604435815260408401906064358252606085019260843584526126a781612987565b600052600860205260406000209451855551600185015551600284015551910155600080f35b34610331576000366003190112610331576126e6612991565b6126ee6138ea565b60006001600b54905b818111156127a2576127098347612c77565b801561276b57600c546000918291829182916001600160a01b03165af161272e612f7b565b501561273657005b60405162461bcd60e51b815260206004820152600d60248201526c14995cd8dd594819985a5b1959609a1b6044820152606490fd5b60405162461bcd60e51b815260206004820152600f60248201526e4e6f206578636573732066756e647360881b6044820152606490fd5b8060005260038060205260406000209060018060a01b036002830154161580612840575b80612825575b8061280a575b6127e7575b50506127e290612c84565b6126f7565b936125ea8260046127e2959761280295015491015490612c93565b9290846127d7565b50600960ff60068401541661281e81612958565b14156127d2565b50600860ff60068401541661283981612958565b14156127cc565b50600660ff818401541661285381612958565b14156127c6565b346103315760003660031901126103315760206040517f68e79a7bf1e0bc45d0a330c573bc367f9cf464fd326078812f301165fbda4ef18152f35b3461033157604036600319011261033157600435600a811015610331576128ba612991565b6128c381612958565b6000526009602052602435604060002055600080f35b34610331576020366003190112610331576004359063ffffffff60e01b821680920361033157602091637965db0b60e01b811490811561291b575b5015158152f35b6301ffc9a760e01b14905083612914565b600435906001600160a01b038216820361033157565b602435906001600160a01b038216820361033157565b600a111561296257565b634e487b7160e01b600052602160045260246000fd5b60243590811515820361033157565b6004111561296257565b3360009081527fe5ebfa64fca8d502a8e50c1edffd2c31ef4dad5b396e65d9f397fb028f74abc560205260409020547fa49807205ce4d355092ef5a8a18f56e8913cf4a201fbe287825b095693c217759060ff161561214c5750565b80600052600260205260406000203360005260205260ff604060002054161561214c5750565b6001600160a01b031660008181527f4c5dd14cc36ac74df3f3035fa8453ebdbc47c888eb74d355b623b33097c65a4b60205260408120549091907f68e79a7bf1e0bc45d0a330c573bc367f9cf464fd326078812f301165fbda4ef19060ff16612ac15780835260026020526040832082845260205260408320600160ff198254161790557f2f8788117e7eff1d82e926ec794901d17c78024a50270940304540a733656f0d339380a4600190565b505090565b906000918083526002602052604083209160018060a01b03169182845260205260ff60408420541615600014612ac15780835260026020526040832082845260205260408320600160ff198254161790557f2f8788117e7eff1d82e926ec794901d17c78024a50270940304540a733656f0d339380a4600190565b6001600160a01b031660008181527f4c5dd14cc36ac74df3f3035fa8453ebdbc47c888eb74d355b623b33097c65a4b60205260408120549091907f68e79a7bf1e0bc45d0a330c573bc367f9cf464fd326078812f301165fbda4ef19060ff1615612ac1578083526002602052604083208284526020526040832060ff1981541690557ff6391f5c32d9c69d2a47ea670b442974b53935d1edc7fd64eb21e047a839171b339380a4600190565b906000918083526002602052604083209160018060a01b03169182845260205260ff604084205416600014612ac1578083526002602052604083208284526020526040832060ff1981541690557ff6391f5c32d9c69d2a47ea670b442974b53935d1edc7fd64eb21e047a839171b339380a4600190565b81810292918115918404141715610f9f57565b91908203918211610f9f57565b6000198114610f9f5760010190565b91908201809211610f9f57565b6080810190811067ffffffffffffffff821117610fb557604052565b610120810190811067ffffffffffffffff821117610fb557604052565b610240810190811067ffffffffffffffff821117610fb557604052565b6040810190811067ffffffffffffffff821117610fb557604052565b90601f8019910116810190811067ffffffffffffffff821117610fb557604052565b90612d3e81612958565b60ff80198354169116179055565b604091949392606082019582526020820152612d6783612958565b0152565b60ff60015416612d7757565b60405163d93c066560e01b8152600490fd5b600260005414612d9a576002600055565b604051633ee5aeb560e01b8152600490fd5b906000602091828151910182855af115612584576000513d612dff57506001600160a01b0381163b155b612ddd5750565b604051635274afe760e01b81526001600160a01b039091166004820152602490fd5b60011415612dd6565b67ffffffffffffffff8111610fb557601f01601f191660200190565b8151919060418303612e5557612e4e92506020820151906060604084015193015160001a90612e60565b9192909190565b505060009160029190565b91907f7fffffffffffffffffffffffffffffff5d576e7357a4501ddfe92f46681b20a08411612ee457926020929160ff608095604051948552168484015260408301526060820152600092839182805260015afa15612ed85780516001600160a01b03811615612ecf57918190565b50809160019190565b604051903d90823e3d90fd5b50505060009160039190565b612ef981612987565b80612f02575050565b612f0b81612987565b60018103612f255760405163f645eedf60e01b8152600490fd5b612f2e81612987565b60028103612f4f5760405163fce698f760e01b815260048101839052602490fd5b80612f5b600392612987565b14612f635750565b602490604051906335e2f38360e21b82526004820152fd5b3d15612fa6573d90612f8c82612e08565b91612f9a6040519384612d12565b82523d6000602084013e565b606090565b60009080825260036020526040822060038101928354906004830180549160018060a01b0391818360028801541691818560018a0154169a555560068601600660ff198254161790558015600014613100575080808080878b5af161300e612f7b565b50156130c35782613063575b509061304d604093927fb95bf48b1faeba00e56c6b81df0ae8e0d8f9c79da9364726f8dcc38687927aa2955b54166135a5565b613056866135a5565b82519182526020820152a3565b8080808585600c9897969854165af161307a612f7b565b50156130885790913861301a565b60405162461bcd60e51b8152602060048201526013602482015272119959481d1c985b9cd9995c8819985a5b1959606a1b6044820152606490fd5b60405162461bcd60e51b815260206004820152601560248201527414185e595c881d1c985b9cd9995c8819985a5b1959605a1b6044820152606490fd5b61304d9150917fb95bf48b1faeba00e56c6b81df0ae8e0d8f9c79da9364726f8dcc38687927aa29583613138878b604099989761315c565b8480613146575b5050613046565b6131559184600c54169061315c565b388461313f565b60405163a9059cbb60e01b60208201526001600160a01b03909216602483015260448083019390935291815261319a9161319582612ca0565b612dac565b565b6000908082526003602052604082208260038201805460066131c46004860192835490612c93565b600286015486549890945591849055909301805460ff191660081790556001600160a01b03948516948591168061326e575081808481935af1613205612f7b565b50156132395760207fa518f3c62f75851a21351fe44dbc9092bd179acc1461cb6bb1a10243ff55c433915b604051908152a3565b60405162461bcd60e51b815260206004820152600d60248201526c1499599d5b990819985a5b1959609a1b6044820152606490fd5b60209250837fa518f3c62f75851a21351fe44dbc9092bd179acc1461cb6bb1a10243ff55c433949261329f9261315c565b613230565b6001600160a01b031660008181526004602081905260408083206007810154919695939091600881901c60ff166135955760058301805462015180810180911161357357421015613586575b5060068301805462093a808101809111613573579160ff918a9493421015613565575b501661331e81612987565b81526008602052209186519661333388612ca0565b8354885260018401549360208901948552600360028201549182848c0152015460608a015285116134d6576003830192835498613370878b612c93565b905110613443578201958654946133878787612c93565b9051106133ab575050506133a0836133a7959697612c93565b9055612c93565b9055565b61343f93507f74867b7aa517ebee563b6c06d367476d8bfe46339d59015b0b075bee2b478dee8251806134028160609060208152600f60208201526e6d61785765656b6c79566f6c756d6560881b60408201520190565b0390a251918291631fa036e760e01b8352820160609060208152600f60208201526e6d61785765656b6c79566f6c756d6560881b60408201520190565b0390fd5b61343f8383897f74867b7aa517ebee563b6c06d367476d8bfe46339d59015b0b075bee2b478dee82518061349a8160609060208152600e60208201526d6d61784461696c79566f6c756d6560901b60408201520190565b0390a251918291631fa036e760e01b8352820160609060208152600e60208201526d6d61784461696c79566f6c756d6560901b60408201520190565b61343f9250857f74867b7aa517ebee563b6c06d367476d8bfe46339d59015b0b075bee2b478dee82518061352b8160609060208152600c60208201526b6d6178547261646553697a6560a01b60408201520190565b0390a251918291631fa036e760e01b8352820160609060208152600c60208201526b6d6178547261646553697a6560a01b60408201520190565b838787015542905538613313565b634e487b7160e01b845260118652602484fd5b826003850155429055386132f0565b875163473250af60e01b81528490fd5b6001600160a01b0316600081815260046020526040902080546135c790612c84565b815560ff600760018301926135dc8454612c84565b938490550180548281169360328110613651575050600382198254161781555b54169061360881612987565b61361182612987565b810361361b575050565b60207f506ec58ef84fdef2d0f37be02d5a6bfce019136479212ed8425b4d4910fcb5de916040519061364c81612987565b8152a2565b6015811061366a575050600282198254161781556135fc565b60061115613679575b506135fc565b821916600117815538613673565b6001600160a01b0316600090815260046020526040812080549091906136ac90612c84565b9081835560028301906136bf8254612c84565b809255600583116136d1575b50505050565b6064820291808304606414901517156137a7578215613793575090603291046014811161371d575b11613707575b8080806136cb565b600701805461ff001916610100179055386136ff565b60078301805460ff811661373081612987565b6003810361374a575050805460ff191660021790556136f9565b61375381612987565b6002810361376d575050805460ff191660011790556136f9565b80613779600192612987565b14613786575b50506136f9565b60ff19169055388061377f565b634e487b7160e01b81526012600452602490fd5b634e487b7160e01b81526011600452602490fd5b6000526003602052604060002060ff6006820154166137d981612958565b600681146138b9576137ea81612958565b600481141590816138a4575b5061387057600b015442106138345760019060405161381481612cf6565b601081526f526561647920746f2072656c6561736560801b602082015290565b60009060405161384381612cf6565b601781527f486f6c6420706572696f64206e6f7420656c6170736564000000000000000000602082015290565b5060009060405161388081612cf6565b601481527314185e5b595b9d081b9bdd081d995c9a599a595960621b602082015290565b600591506138b181612958565b1415386137f6565b50506000906040516138ca81612cf6565b601081526f105b1c9958591e481c995b19585cd95960821b602082015290565b60ff60015416156138f757565b604051638dfc202b60e01b8152600490fdfea2646970667358221220c05b756b082005f39b38328553de32b8c049a5466fc22cf45aa851577d2349ba64736f6c634300081400332f8788117e7eff1d82e926ec794901d17c78024a50270940304540a733656f0d","opcodes":"PUSH1 0x80 CALLVALUE PUSH3 0x27F JUMPI PUSH1 0x1F PUSH3 0x3DDC CODESIZE DUP2 SWAP1 SUB SWAP2 DUP3 ADD PUSH1 0x1F NOT AND DUP4 ADD SWAP3 SWAP2 PUSH1 0x1 PUSH1 0x1 PUSH1 0x40 SHL SUB DUP5 GT DUP4 DUP6 LT OR PUSH3 0x284 JUMPI DUP1 DUP4 SWAP3 PUSH1 0x40 SWAP6 DUP7 MSTORE DUP4 CODECOPY PUSH1 0x20 SWAP3 DUP4 SWAP2 DUP2 ADD SUB SLT PUSH3 0x27F JUMPI MLOAD PUSH1 0x1 PUSH1 0x1 PUSH1 0xA0 SHL SUB DUP2 AND SWAP1 DUP2 SWAP1 SUB PUSH3 0x27F JUMPI PUSH1 0x1 SWAP2 PUSH1 0x0 SWAP2 DUP4 DUP4 SSTORE PUSH2 0x1B8 PUSH1 0xD SSTORE DUP4 PUSH1 0xE SSTORE DUP1 ISZERO PUSH3 0x26E JUMPI PUSH1 0xC DUP1 SLOAD PUSH1 0x1 PUSH1 0x1 PUSH1 0xA0 SHL SUB NOT AND SWAP2 SWAP1 SWAP2 OR SWAP1 SSTORE PUSH3 0x94 CALLER PUSH3 0x2BA JUMP JUMPDEST POP PUSH3 0xA0 CALLER PUSH3 0x33B JUMP JUMPDEST POP PUSH3 0xAC CALLER PUSH3 0x3DE JUMP JUMPDEST POP DUP2 DUP1 MSTORE PUSH1 0x5 DUP2 MSTORE DUP4 DUP3 KECCAK256 SWAP2 PUSH1 0xFF NOT SWAP3 DUP5 DUP5 DUP3 SLOAD AND OR SWAP1 SSTORE PUSH1 0x9 DUP3 MSTORE DUP1 DUP6 DUP2 KECCAK256 SSTORE DUP4 DUP2 MSTORE PUSH2 0xE10 DUP6 DUP3 KECCAK256 SSTORE PUSH1 0x2 SWAP1 DUP2 DUP2 MSTORE PUSH3 0x2A300 DUP7 DUP3 KECCAK256 SSTORE PUSH1 0x3 SWAP4 DUP5 DUP3 MSTORE PUSH3 0x15180 DUP8 DUP4 KECCAK256 SSTORE PUSH1 0x4 DUP3 MSTORE PUSH3 0x3F480 DUP1 DUP9 DUP5 KECCAK256 SSTORE PUSH1 0x5 DUP4 MSTORE PUSH3 0x69780 DUP9 DUP5 KECCAK256 SSTORE PUSH1 0x6 DUP4 MSTORE DUP8 DUP4 KECCAK256 SSTORE PUSH1 0x9 DUP3 MSTORE PUSH3 0x93A80 DUP8 DUP4 KECCAK256 SSTORE PUSH1 0x7 DUP3 MSTORE PUSH1 0xA DUP5 MSTORE DUP7 DUP3 KECCAK256 DUP7 DUP3 DUP3 SLOAD AND OR SWAP1 SSTORE PUSH1 0x8 DUP3 MSTORE DUP6 DUP8 DUP4 KECCAK256 SWAP2 DUP3 SLOAD AND OR SWAP1 SSTORE PUSH3 0x14C PUSH3 0x29A JUMP JUMPDEST SWAP5 PUSH3 0x186A0 DUP7 MSTORE DUP4 DUP7 ADD SWAP6 DUP6 PUSH3 0x7A120 SWAP8 DUP9 DUP2 MSTORE DUP10 DUP4 ADD PUSH2 0xC350 DUP2 MSTORE PUSH1 0x60 DUP5 ADD SWAP2 DUP4 DUP4 MSTORE DUP7 DUP1 MSTORE PUSH1 0x8 DUP10 MSTORE DUP12 DUP8 KECCAK256 SWAP5 MLOAD DUP6 SSTORE MLOAD DUP6 DUP6 ADD SSTORE MLOAD DUP7 DUP5 ADD SSTORE MLOAD SWAP2 ADD SSTORE PUSH3 0x196 PUSH3 0x29A JUMP JUMPDEST SWAP6 DUP7 MSTORE DUP4 DUP7 ADD SWAP6 DUP6 PUSH3 0x1E8480 SWAP8 DUP9 DUP2 MSTORE DUP10 DUP4 ADD PUSH3 0x30D40 DUP2 MSTORE PUSH1 0x60 DUP5 ADD SWAP2 PUSH1 0xA DUP4 MSTORE DUP6 DUP8 MSTORE PUSH1 0x8 DUP10 MSTORE DUP12 DUP8 KECCAK256 SWAP5 MLOAD DUP6 SSTORE MLOAD DUP6 DUP6 ADD SSTORE MLOAD DUP7 DUP5 ADD SSTORE MLOAD SWAP2 ADD SSTORE PUSH3 0x1DE PUSH3 0x29A JUMP JUMPDEST SWAP6 DUP7 MSTORE DUP4 DUP7 ADD SWAP6 DUP6 PUSH3 0x989680 SWAP8 DUP9 DUP2 MSTORE DUP10 DUP4 ADD PUSH3 0xF4240 DUP2 MSTORE PUSH1 0x60 DUP5 ADD SWAP2 PUSH1 0x14 DUP4 MSTORE DUP8 DUP8 MSTORE PUSH1 0x8 DUP10 MSTORE DUP12 DUP8 KECCAK256 SWAP5 MLOAD DUP6 SSTORE MLOAD DUP6 DUP6 ADD SSTORE MLOAD DUP7 DUP5 ADD SSTORE MLOAD SWAP2 ADD SSTORE PUSH3 0x226 PUSH3 0x29A JUMP JUMPDEST SWAP6 DUP7 MSTORE DUP4 DUP7 ADD PUSH4 0x2FAF080 DUP2 MSTORE DUP8 DUP1 DUP9 ADD SWAP4 PUSH3 0x4C4B40 DUP6 MSTORE PUSH1 0x8 PUSH1 0x60 DUP11 ADD SWAP8 PUSH1 0x32 DUP10 MSTORE DUP10 DUP4 MSTORE MSTORE KECCAK256 SWAP7 MLOAD DUP8 SSTORE MLOAD SWAP1 DUP7 ADD SSTORE MLOAD SWAP1 DUP5 ADD SSTORE MLOAD SWAP2 ADD SSTORE MLOAD PUSH2 0x393F SWAP1 DUP2 PUSH3 0x47D DUP3 CODECOPY RETURN JUMPDEST DUP5 MLOAD PUSH4 0xE6C4247B PUSH1 0xE0 SHL DUP2 MSTORE PUSH1 0x4 SWAP1 REVERT JUMPDEST PUSH1 0x0 DUP1 REVERT JUMPDEST PUSH4 0x4E487B71 PUSH1 0xE0 SHL PUSH1 0x0 MSTORE PUSH1 0x41 PUSH1 0x4 MSTORE PUSH1 0x24 PUSH1 0x0 REVERT JUMPDEST PUSH1 0x40 MLOAD SWAP1 PUSH1 0x80 DUP3 ADD PUSH1 0x1 PUSH1 0x1 PUSH1 0x40 SHL SUB DUP2 GT DUP4 DUP3 LT OR PUSH3 0x284 JUMPI PUSH1 0x40 MSTORE JUMP JUMPDEST PUSH1 0x1 PUSH1 0x1 PUSH1 0xA0 SHL SUB AND PUSH1 0x0 DUP2 DUP2 MSTORE PUSH32 0xAC33FF75C19E70FE83507DB0D683FD3465C996598DC972688B7ACE676C89077B PUSH1 0x20 MSTORE PUSH1 0x40 DUP2 KECCAK256 SLOAD SWAP1 SWAP2 SWAP1 PUSH1 0xFF AND PUSH3 0x337 JUMPI DUP2 DUP1 MSTORE PUSH1 0x2 PUSH1 0x20 MSTORE PUSH1 0x40 DUP3 KECCAK256 DUP2 DUP4 MSTORE PUSH1 0x20 MSTORE PUSH1 0x40 DUP3 KECCAK256 PUSH1 0x1 PUSH1 0xFF NOT DUP3 SLOAD AND OR SWAP1 SSTORE CALLER SWAP2 PUSH1 0x0 DUP1 MLOAD PUSH1 0x20 PUSH3 0x3DBC DUP4 CODECOPY DUP2 MLOAD SWAP2 MSTORE DUP2 DUP1 LOG4 PUSH1 0x1 SWAP1 JUMP JUMPDEST POP SWAP1 JUMP JUMPDEST PUSH1 0x1 PUSH1 0x1 PUSH1 0xA0 SHL SUB AND PUSH1 0x0 DUP2 DUP2 MSTORE PUSH32 0xE5EBFA64FCA8D502A8E50C1EDFFD2C31EF4DAD5B396E65D9F397FB028F74ABC5 PUSH1 0x20 MSTORE PUSH1 0x40 DUP2 KECCAK256 SLOAD SWAP1 SWAP2 SWAP1 PUSH32 0xA49807205CE4D355092EF5A8A18F56E8913CF4A201FBE287825B095693C21775 SWAP1 PUSH1 0xFF AND PUSH3 0x3D9 JUMPI DUP1 DUP4 MSTORE PUSH1 0x2 PUSH1 0x20 MSTORE PUSH1 0x40 DUP4 KECCAK256 DUP3 DUP5 MSTORE PUSH1 0x20 MSTORE PUSH1 0x40 DUP4 KECCAK256 PUSH1 0x1 PUSH1 0xFF NOT DUP3 SLOAD AND OR SWAP1 SSTORE PUSH1 0x0 DUP1 MLOAD PUSH1 0x20 PUSH3 0x3DBC DUP4 CODECOPY DUP2 MLOAD SWAP2 MSTORE CALLER SWAP4 DUP1 LOG4 PUSH1 0x1 SWAP1 JUMP JUMPDEST POP POP SWAP1 JUMP JUMPDEST PUSH1 0x1 PUSH1 0x1 PUSH1 0xA0 SHL SUB AND PUSH1 0x0 DUP2 DUP2 MSTORE PUSH32 0x824854FCE2B26A685510A23E94CE095A99E4D883AF92F3BAD8A69B2ED000BE41 PUSH1 0x20 MSTORE PUSH1 0x40 DUP2 KECCAK256 SLOAD SWAP1 SWAP2 SWAP1 PUSH32 0x16CEEE8289685DD2A02B9C8AE81D2DF373176CE53519E6284E2A2950D6546FFA SWAP1 PUSH1 0xFF AND PUSH3 0x3D9 JUMPI DUP1 DUP4 MSTORE PUSH1 0x2 PUSH1 0x20 MSTORE PUSH1 0x40 DUP4 KECCAK256 DUP3 DUP5 MSTORE PUSH1 0x20 MSTORE PUSH1 0x40 DUP4 KECCAK256 PUSH1 0x1 PUSH1 0xFF NOT DUP3 SLOAD AND OR SWAP1 SSTORE PUSH1 0x0 DUP1 MLOAD PUSH1 0x20 PUSH3 0x3DBC DUP4 CODECOPY DUP2 MLOAD SWAP2 MSTORE CALLER SWAP4 DUP1 LOG4 PUSH1 0x1 SWAP1 JUMP INVALID PUSH1 0x80 DUP1 PUSH1 0x40 MSTORE PUSH1 0x4 CALLDATASIZE LT ISZERO PUSH2 0x1D JUMPI JUMPDEST POP CALLDATASIZE ISZERO PUSH2 0x1B JUMPI PUSH1 0x0 DUP1 REVERT JUMPDEST STOP JUMPDEST PUSH1 0x0 CALLDATALOAD PUSH1 0xE0 SHR SWAP1 DUP2 PUSH4 0x1FFC9A7 EQ PUSH2 0x28D9 JUMPI POP DUP1 PUSH4 0x2E9264E EQ PUSH2 0x2895 JUMPI DUP1 PUSH4 0x7E2CEA5 EQ PUSH2 0x285A JUMPI DUP1 PUSH4 0xA5C722F EQ PUSH2 0x26CD JUMPI DUP1 PUSH4 0xB86FB0F EQ PUSH2 0x2648 JUMPI DUP1 PUSH4 0xC1FE80C EQ PUSH2 0x2485 JUMPI DUP1 PUSH4 0x1930EAE7 EQ PUSH2 0x238A JUMPI DUP1 PUSH4 0x1FBEE6C5 EQ PUSH2 0x41B JUMPI DUP1 PUSH4 0x248A9CA3 EQ PUSH2 0x235B JUMPI DUP1 PUSH4 0x28BDCDE8 EQ PUSH2 0x223F JUMPI DUP1 PUSH4 0x2B3B4752 EQ PUSH2 0x21A9 JUMPI DUP1 PUSH4 0x2F2FF15D EQ PUSH2 0x216A JUMPI DUP1 PUSH4 0x34B25EE2 EQ PUSH2 0x2032 JUMPI DUP1 PUSH4 0x36568ABE EQ PUSH2 0x1FEB JUMPI DUP1 PUSH4 0x38DD40C0 EQ PUSH2 0x70B JUMPI DUP1 PUSH4 0x3F4BA83A EQ PUSH2 0x1F94 JUMPI DUP1 PUSH4 0x459B860E EQ PUSH2 0x1F18 JUMPI DUP1 PUSH4 0x4D68282F EQ PUSH2 0x1E18 JUMPI DUP1 PUSH4 0x4E43603A EQ PUSH2 0x1CD4 JUMPI DUP1 PUSH4 0x5C975ABB EQ PUSH2 0x1CB1 JUMPI DUP1 PUSH4 0x61798624 EQ PUSH2 0x1BD4 JUMPI DUP1 PUSH4 0x62E87B8C EQ PUSH2 0x1946 JUMPI DUP1 PUSH4 0x66718524 EQ PUSH2 0x18FE JUMPI DUP1 PUSH4 0x67762988 EQ PUSH2 0x185C JUMPI DUP1 PUSH4 0x68C4AC26 EQ PUSH2 0x181D JUMPI DUP1 PUSH4 0x6D69FCAF EQ PUSH2 0x17D2 JUMPI DUP1 PUSH4 0x72BAA638 EQ PUSH2 0x1561 JUMPI DUP1 PUSH4 0x74EE23E6 EQ PUSH2 0x146B JUMPI DUP1 PUSH4 0x75B238FC EQ PUSH2 0x1430 JUMPI DUP1 PUSH4 0x76319190 EQ PUSH2 0x13E8 JUMPI DUP1 PUSH4 0x8456CB59 EQ PUSH2 0x138F JUMPI DUP1 PUSH4 0x8A65D874 EQ PUSH2 0x12EE JUMPI DUP1 PUSH4 0x8C639A85 EQ PUSH2 0x12D0 JUMPI DUP1 PUSH4 0x91D14854 EQ PUSH2 0x1283 JUMPI DUP1 PUSH4 0x9C078C3A EQ PUSH2 0x11F6 JUMPI DUP1 PUSH4 0x9CEA0787 EQ PUSH2 0x11BB JUMPI DUP1 PUSH4 0x9D7A0339 EQ PUSH2 0x119D JUMPI DUP1 PUSH4 0xA217FDDF EQ PUSH2 0x1181 JUMPI DUP1 PUSH4 0xA5C1674E EQ PUSH2 0x104F JUMPI DUP1 PUSH4 0xA73222FB EQ PUSH2 0xFEF JUMPI DUP1 PUSH4 0xA81EA0E5 EQ PUSH2 0xC15 JUMPI DUP1 PUSH4 0xAA0B5988 EQ PUSH2 0xBD9 JUMPI DUP1 PUSH4 0xB1CD06E6 EQ PUSH2 0x94D JUMPI DUP1 PUSH4 0xB2F70E96 EQ PUSH2 0x8D6 JUMPI DUP1 PUSH4 0xBC063E1A EQ PUSH2 0x8B9 JUMPI DUP1 PUSH4 0xC5C8010A EQ PUSH2 0x7A6 JUMPI DUP1 PUSH4 0xCA440B9F EQ PUSH2 0x74E JUMPI DUP1 PUSH4 0xCC73BAB4 EQ PUSH2 0x70B JUMPI DUP1 PUSH4 0xCCDDF0B0 EQ PUSH2 0x6AE JUMPI DUP1 PUSH4 0xCD2CB46D EQ PUSH2 0x5D0 JUMPI DUP1 PUSH4 0xD547741F EQ PUSH2 0x591 JUMPI DUP1 PUSH4 0xDB296602 EQ PUSH2 0x552 JUMPI DUP1 PUSH4 0xDF5DD1A5 EQ PUSH2 0x4C5 JUMPI DUP1 PUSH4 0xE1D239DB EQ PUSH2 0x494 JUMPI DUP1 PUSH4 0xE1F1C4A7 EQ PUSH2 0x477 JUMPI DUP1 PUSH4 0xE7C4393E EQ PUSH2 0x459 JUMPI DUP1 PUSH4 0xF06EDF29 EQ PUSH2 0x41B JUMPI DUP1 PUSH4 0xF25F4B56 EQ PUSH2 0x3F2 JUMPI DUP1 PUSH4 0xF562E122 EQ PUSH2 0x336 JUMPI PUSH4 0xFDC85FC4 EQ PUSH2 0x2BE JUMPI CODESIZE PUSH2 0xF JUMP JUMPDEST CALLVALUE PUSH2 0x331 JUMPI PUSH1 0x20 CALLDATASIZE PUSH1 0x3 NOT ADD SLT PUSH2 0x331 JUMPI PUSH2 0x2D7 PUSH2 0x292C JUMP JUMPDEST PUSH2 0x2DF PUSH2 0x2991 JUMP JUMPDEST PUSH1 0x1 PUSH1 0x1 PUSH1 0xA0 SHL SUB DUP2 AND PUSH1 0x0 DUP2 DUP2 MSTORE PUSH1 0x6 PUSH1 0x20 MSTORE PUSH1 0x40 SWAP1 KECCAK256 DUP1 SLOAD PUSH1 0xFF NOT AND SWAP1 SSTORE SWAP1 PUSH2 0x309 SWAP1 PUSH2 0x2B41 JUMP JUMPDEST POP PUSH32 0x9C8E7D83025BEF8A04C664B2F753F64B8814BDB7E27291D7E50935F18CC3C712 PUSH1 0x0 DUP1 LOG2 STOP JUMPDEST PUSH1 0x0 DUP1 REVERT JUMPDEST CALLVALUE PUSH2 0x331 JUMPI PUSH1 0x20 DUP1 PUSH1 0x3 NOT CALLDATASIZE ADD SLT PUSH2 0x331 JUMPI PUSH1 0x80 SWAP1 PUSH2 0x353 PUSH2 0x292C JUMP JUMPDEST PUSH1 0x0 PUSH1 0x60 PUSH1 0x40 MLOAD PUSH2 0x363 DUP2 PUSH2 0x2CA0 JUMP JUMPDEST DUP3 DUP2 MSTORE DUP3 DUP6 DUP3 ADD MSTORE DUP3 PUSH1 0x40 DUP3 ADD MSTORE ADD MSTORE PUSH1 0x1 DUP1 PUSH1 0xA0 SHL SUB AND PUSH1 0x0 MSTORE PUSH1 0x4 DUP2 MSTORE PUSH1 0xFF PUSH1 0x7 PUSH1 0x40 PUSH1 0x0 KECCAK256 ADD SLOAD AND PUSH2 0x397 DUP2 PUSH2 0x2987 JUMP JUMPDEST PUSH1 0x0 MSTORE PUSH1 0x8 DUP2 MSTORE PUSH1 0x40 PUSH1 0x0 KECCAK256 PUSH1 0x40 MLOAD SWAP1 PUSH2 0x3B0 DUP3 PUSH2 0x2CA0 JUMP JUMPDEST DUP1 SLOAD SWAP3 DUP4 DUP4 MSTORE PUSH1 0x1 DUP3 ADD SLOAD DUP2 DUP5 ADD SWAP1 DUP2 MSTORE PUSH1 0x60 PUSH1 0x3 PUSH1 0x2 DUP6 ADD SLOAD SWAP5 PUSH1 0x40 DUP8 ADD SWAP6 DUP7 MSTORE ADD SLOAD SWAP5 ADD SWAP4 DUP5 MSTORE PUSH1 0x40 MLOAD SWAP5 DUP6 MSTORE MLOAD SWAP1 DUP5 ADD MSTORE MLOAD PUSH1 0x40 DUP4 ADD MSTORE MLOAD PUSH1 0x60 DUP3 ADD MSTORE RETURN JUMPDEST CALLVALUE PUSH2 0x331 JUMPI PUSH1 0x0 CALLDATASIZE PUSH1 0x3 NOT ADD SLT PUSH2 0x331 JUMPI PUSH1 0xC SLOAD PUSH1 0x40 MLOAD PUSH1 0x1 PUSH1 0x1 PUSH1 0xA0 SHL SUB SWAP1 SWAP2 AND DUP2 MSTORE PUSH1 0x20 SWAP1 RETURN JUMPDEST CALLVALUE PUSH2 0x331 JUMPI PUSH1 0x20 CALLDATASIZE PUSH1 0x3 NOT ADD SLT PUSH2 0x331 JUMPI PUSH1 0x4 CALLDATALOAD PUSH1 0xA DUP2 LT ISZERO PUSH2 0x331 JUMPI PUSH2 0x441 DUP2 PUSH2 0x2958 JUMP JUMPDEST PUSH1 0x0 MSTORE PUSH1 0x9 PUSH1 0x20 MSTORE PUSH1 0x20 PUSH1 0x40 PUSH1 0x0 KECCAK256 SLOAD PUSH1 0x40 MLOAD SWAP1 DUP2 MSTORE RETURN JUMPDEST CALLVALUE PUSH2 0x331 JUMPI PUSH1 0x0 CALLDATASIZE PUSH1 0x3 NOT ADD SLT PUSH2 0x331 JUMPI PUSH1 0x20 PUSH1 0xE SLOAD PUSH1 0x40 MLOAD SWAP1 DUP2 MSTORE RETURN JUMPDEST CALLVALUE PUSH2 0x331 JUMPI PUSH1 0x0 CALLDATASIZE PUSH1 0x3 NOT ADD SLT PUSH2 0x331 JUMPI PUSH1 0x20 PUSH1 0x40 MLOAD PUSH2 0x2710 DUP2 MSTORE RETURN JUMPDEST CALLVALUE PUSH2 0x331 JUMPI PUSH1 0x20 CALLDATASIZE PUSH1 0x3 NOT ADD SLT PUSH2 0x331 JUMPI PUSH1 0x4 CALLDATALOAD PUSH1 0x0 MSTORE PUSH1 0x7 PUSH1 0x20 MSTORE PUSH1 0x20 PUSH1 0xFF PUSH1 0x40 PUSH1 0x0 KECCAK256 SLOAD AND PUSH1 0x40 MLOAD SWAP1 ISZERO ISZERO DUP2 MSTORE RETURN JUMPDEST CALLVALUE PUSH2 0x331 JUMPI PUSH1 0x20 CALLDATASIZE PUSH1 0x3 NOT ADD SLT PUSH2 0x331 JUMPI PUSH2 0x4DE PUSH2 0x292C JUMP JUMPDEST PUSH2 0x4E6 PUSH2 0x2991 JUMP JUMPDEST PUSH1 0x1 PUSH1 0x1 PUSH1 0xA0 SHL SUB DUP2 AND SWAP1 DUP2 ISZERO PUSH2 0x540 JUMPI PUSH2 0x519 SWAP1 DUP3 PUSH1 0x0 MSTORE PUSH1 0x6 PUSH1 0x20 MSTORE PUSH1 0x40 PUSH1 0x0 KECCAK256 PUSH1 0x1 PUSH1 0xFF NOT DUP3 SLOAD AND OR SWAP1 SSTORE PUSH2 0x2A13 JUMP JUMPDEST POP PUSH31 0x47706786C922D17B39285DC59D696BAFEA72C0B003D3841AE1202076F4C2E4 PUSH1 0x0 DUP1 LOG2 STOP JUMPDEST PUSH1 0x40 MLOAD PUSH4 0xE6C4247B PUSH1 0xE0 SHL DUP2 MSTORE PUSH1 0x4 SWAP1 REVERT JUMPDEST CALLVALUE PUSH2 0x331 JUMPI PUSH1 0x20 CALLDATASIZE PUSH1 0x3 NOT ADD SLT PUSH2 0x331 JUMPI PUSH1 0x1 PUSH1 0x1 PUSH1 0xA0 SHL SUB PUSH2 0x573 PUSH2 0x292C JUMP JUMPDEST AND PUSH1 0x0 MSTORE PUSH1 0x6 PUSH1 0x20 MSTORE PUSH1 0x20 PUSH1 0xFF PUSH1 0x40 PUSH1 0x0 KECCAK256 SLOAD AND PUSH1 0x40 MLOAD SWAP1 ISZERO ISZERO DUP2 MSTORE RETURN JUMPDEST CALLVALUE PUSH2 0x331 JUMPI PUSH1 0x40 CALLDATASIZE PUSH1 0x3 NOT ADD SLT PUSH2 0x331 JUMPI PUSH2 0x1B PUSH1 0x4 CALLDATALOAD PUSH2 0x5B0 PUSH2 0x2942 JUMP JUMPDEST SWAP1 DUP1 PUSH1 0x0 MSTORE PUSH1 0x2 PUSH1 0x20 MSTORE PUSH2 0x5CB PUSH1 0x1 PUSH1 0x40 PUSH1 0x0 KECCAK256 ADD SLOAD PUSH2 0x29ED JUMP JUMPDEST PUSH2 0x2BED JUMP JUMPDEST CALLVALUE PUSH2 0x331 JUMPI PUSH1 0x20 CALLDATASIZE PUSH1 0x3 NOT ADD SLT PUSH2 0x331 JUMPI PUSH1 0x4 CALLDATALOAD PUSH2 0x5EC PUSH2 0x2D89 JUMP JUMPDEST PUSH2 0x5F4 PUSH2 0x2D6B JUMP JUMPDEST PUSH1 0x0 DUP2 DUP2 MSTORE PUSH1 0x3 PUSH1 0x20 MSTORE PUSH1 0x40 SWAP1 KECCAK256 DUP1 SLOAD PUSH1 0x1 PUSH1 0x1 PUSH1 0xA0 SHL SUB AND CALLER SUB PUSH2 0x69C JUMPI PUSH1 0x6 ADD SWAP1 DUP2 SLOAD SWAP2 PUSH1 0xFF DUP4 AND PUSH2 0x627 DUP2 PUSH2 0x2958 JUMP JUMPDEST PUSH1 0x3 DUP2 EQ ISZERO SWAP1 DUP2 PUSH2 0x686 JUMPI JUMPDEST DUP2 PUSH2 0x671 JUMPI JUMPDEST POP PUSH2 0x65F JUMPI PUSH5 0x100000000 PUSH2 0x658 SWAP4 PUSH5 0xFF00000000 NOT AND OR SWAP1 SSTORE PUSH2 0x2FAB JUMP JUMPDEST PUSH1 0x1 PUSH1 0x0 SSTORE STOP JUMPDEST PUSH1 0x40 MLOAD PUSH4 0xBAF3F0F7 PUSH1 0xE0 SHL DUP2 MSTORE PUSH1 0x4 SWAP1 REVERT JUMPDEST PUSH1 0x5 SWAP2 POP PUSH2 0x67E DUP2 PUSH2 0x2958 JUMP JUMPDEST EQ ISZERO DUP5 PUSH2 0x639 JUMP JUMPDEST SWAP1 POP PUSH2 0x691 DUP2 PUSH2 0x2958 JUMP JUMPDEST PUSH1 0x4 DUP2 EQ ISZERO SWAP1 PUSH2 0x633 JUMP JUMPDEST PUSH1 0x40 MLOAD PUSH4 0x37AC59F7 PUSH1 0xE1 SHL DUP2 MSTORE PUSH1 0x4 SWAP1 REVERT JUMPDEST CALLVALUE PUSH2 0x331 JUMPI PUSH1 0x40 CALLDATASIZE PUSH1 0x3 NOT ADD SLT PUSH2 0x331 JUMPI PUSH2 0x6C7 PUSH2 0x292C JUMP JUMPDEST PUSH2 0x6CF PUSH2 0x2978 JUMP JUMPDEST SWAP1 PUSH2 0x6D8 PUSH2 0x2991 JUMP JUMPDEST PUSH1 0x1 PUSH1 0x1 PUSH1 0xA0 SHL SUB AND PUSH1 0x0 SWAP1 DUP2 MSTORE PUSH1 0x4 PUSH1 0x20 MSTORE PUSH1 0x40 SWAP1 KECCAK256 PUSH1 0x7 ADD DUP1 SLOAD PUSH2 0xFF00 NOT AND SWAP2 ISZERO ISZERO PUSH1 0x8 SHL PUSH2 0xFF00 AND SWAP2 SWAP1 SWAP2 OR SWAP1 SSTORE STOP JUMPDEST CALLVALUE PUSH2 0x331 JUMPI PUSH1 0x20 CALLDATASIZE PUSH1 0x3 NOT ADD SLT PUSH2 0x331 JUMPI PUSH1 0x4 CALLDATALOAD PUSH1 0xA DUP2 LT ISZERO PUSH2 0x331 JUMPI PUSH2 0x731 DUP2 PUSH2 0x2958 JUMP JUMPDEST PUSH1 0x0 MSTORE PUSH1 0xA PUSH1 0x20 MSTORE PUSH1 0x20 PUSH1 0xFF PUSH1 0x40 PUSH1 0x0 KECCAK256 SLOAD AND PUSH1 0x40 MLOAD SWAP1 ISZERO ISZERO DUP2 MSTORE RETURN JUMPDEST CALLVALUE PUSH2 0x331 JUMPI PUSH1 0x40 CALLDATASIZE PUSH1 0x3 NOT ADD SLT PUSH2 0x331 JUMPI PUSH1 0x4 CALLDATALOAD PUSH1 0xA DUP2 LT ISZERO PUSH2 0x331 JUMPI PUSH2 0x773 PUSH2 0x2978 JUMP JUMPDEST SWAP1 PUSH2 0x77C PUSH2 0x2991 JUMP JUMPDEST PUSH2 0x785 DUP2 PUSH2 0x2958 JUMP JUMPDEST PUSH1 0x0 MSTORE PUSH1 0xA PUSH1 0x20 MSTORE PUSH1 0x40 PUSH1 0x0 KECCAK256 SWAP1 PUSH1 0xFF DUP1 NOT DUP4 SLOAD AND SWAP2 ISZERO ISZERO AND OR SWAP1 SSTORE PUSH1 0x0 DUP1 RETURN JUMPDEST CALLVALUE PUSH2 0x331 JUMPI PUSH1 0x20 CALLDATASIZE PUSH1 0x3 NOT ADD SLT PUSH2 0x331 JUMPI PUSH1 0x4 CALLDATALOAD PUSH2 0x7C2 PUSH2 0x2D6B JUMP JUMPDEST PUSH1 0x0 DUP2 DUP2 MSTORE PUSH1 0x3 PUSH1 0x20 MSTORE PUSH1 0x40 SWAP1 KECCAK256 DUP1 SLOAD PUSH1 0x1 PUSH1 0x1 PUSH1 0xA0 SHL SUB AND CALLER SUB PUSH2 0x69C JUMPI PUSH1 0x6 DUP2 ADD DUP1 SLOAD SWAP1 PUSH1 0xFF DUP3 AND PUSH2 0x7F5 DUP2 PUSH2 0x2958 JUMP JUMPDEST PUSH1 0x3 DUP2 EQ SWAP1 DUP2 ISZERO DUP1 PUSH2 0x8A5 JUMPI JUMPDEST PUSH2 0x65F JUMPI PUSH5 0xFF00000000 NOT DUP5 AND PUSH5 0x100000000 OR DUP4 SSTORE PUSH2 0x821 SWAP1 PUSH2 0x2958 JUMP JUMPDEST PUSH2 0x859 JUMPI JUMPDEST DUP4 PUSH32 0xF6290085419AEF756DAAB446F349A2B978FB567DCFC918F5D5DAC67D2021076D PUSH1 0x40 DUP1 MLOAD CALLER DUP2 MSTORE PUSH1 0x0 PUSH1 0x20 DUP3 ADD MSTORE LOG2 STOP JUMPDEST PUSH5 0x100000004 PUSH1 0xFF SWAP3 PUSH5 0xFF000000FF NOT AND OR DUP1 SWAP2 SSTORE TIMESTAMP PUSH1 0xA DUP5 ADD SSTORE PUSH1 0x8 SHR AND PUSH2 0x881 DUP2 PUSH2 0x2958 JUMP JUMPDEST PUSH1 0x0 MSTORE PUSH1 0x9 PUSH1 0x20 MSTORE PUSH1 0xB PUSH2 0x89A PUSH1 0x40 PUSH1 0x0 KECCAK256 SLOAD TIMESTAMP PUSH2 0x2C93 JUMP JUMPDEST SWAP2 ADD SSTORE DUP2 DUP1 DUP1 PUSH2 0x826 JUMP JUMPDEST POP PUSH2 0x8AF DUP2 PUSH2 0x2958 JUMP JUMPDEST PUSH1 0x4 DUP2 EQ ISZERO PUSH2 0x802 JUMP JUMPDEST CALLVALUE PUSH2 0x331 JUMPI PUSH1 0x0 CALLDATASIZE PUSH1 0x3 NOT ADD SLT PUSH2 0x331 JUMPI PUSH1 0x20 PUSH1 0x40 MLOAD PUSH2 0x3E8 DUP2 MSTORE RETURN JUMPDEST CALLVALUE PUSH2 0x331 JUMPI PUSH1 0x20 DUP1 PUSH1 0x3 NOT CALLDATASIZE ADD SLT PUSH2 0x331 JUMPI PUSH2 0x8F3 PUSH1 0x4 CALLDATALOAD PUSH2 0x37BB JUMP JUMPDEST SWAP1 PUSH1 0x40 MLOAD SWAP3 DUP4 SWAP2 ISZERO ISZERO DUP3 MSTORE PUSH1 0x40 DUP2 DUP4 ADD MSTORE DUP3 MLOAD SWAP1 DUP2 PUSH1 0x40 DUP5 ADD MSTORE PUSH1 0x0 SWAP4 JUMPDEST DUP3 DUP6 LT PUSH2 0x934 JUMPI POP POP PUSH1 0x60 SWAP3 POP PUSH1 0x0 DUP4 DUP3 DUP5 ADD ADD MSTORE PUSH1 0x1F DUP1 NOT SWAP2 ADD AND DUP2 ADD SUB ADD SWAP1 RETURN JUMPDEST DUP5 DUP2 ADD DUP3 ADD MLOAD DUP7 DUP7 ADD PUSH1 0x60 ADD MSTORE SWAP4 DUP2 ADD SWAP4 DUP6 SWAP4 POP PUSH2 0x911 JUMP JUMPDEST CALLVALUE PUSH2 0x331 JUMPI PUSH1 0x20 CALLDATASIZE PUSH1 0x3 NOT ADD SLT PUSH2 0x331 JUMPI PUSH1 0x0 PUSH2 0x220 PUSH1 0x40 MLOAD PUSH2 0x96F DUP2 PUSH2 0x2CD9 JUMP JUMPDEST DUP3 DUP2 MSTORE DUP3 PUSH1 0x20 DUP3 ADD MSTORE DUP3 PUSH1 0x40 DUP3 ADD MSTORE DUP3 PUSH1 0x60 DUP3 ADD MSTORE DUP3 PUSH1 0x80 DUP3 ADD MSTORE DUP3 PUSH1 0xA0 DUP3 ADD MSTORE DUP3 PUSH1 0xC0 DUP3 ADD MSTORE DUP3 PUSH1 0xE0 DUP3 ADD MSTORE DUP3 PUSH2 0x100 DUP3 ADD MSTORE DUP3 PUSH2 0x120 DUP3 ADD MSTORE DUP3 PUSH2 0x140 DUP3 ADD MSTORE DUP3 PUSH2 0x160 DUP3 ADD MSTORE DUP3 PUSH2 0x180 DUP3 ADD MSTORE DUP3 PUSH2 0x1A0 DUP3 ADD MSTORE DUP3 PUSH2 0x1C0 DUP3 ADD MSTORE DUP3 PUSH2 0x1E0 DUP3 ADD MSTORE DUP3 PUSH2 0x200 DUP3 ADD MSTORE ADD MSTORE PUSH1 0x4 CALLDATALOAD PUSH1 0x0 MSTORE PUSH1 0x3 PUSH1 0x20 MSTORE PUSH2 0x240 PUSH1 0x40 PUSH1 0x0 KECCAK256 PUSH1 0xD PUSH1 0x40 MLOAD SWAP2 PUSH2 0x9FF DUP4 PUSH2 0x2CD9 JUMP JUMPDEST DUP1 SLOAD PUSH1 0x1 PUSH1 0x1 PUSH1 0xA0 SHL SUB SWAP1 DUP2 AND DUP5 MSTORE PUSH1 0x1 DUP3 ADD SLOAD DUP2 AND PUSH1 0x20 DUP6 ADD MSTORE PUSH1 0x2 DUP3 ADD SLOAD AND PUSH1 0x40 DUP5 ADD MSTORE PUSH1 0x3 DUP2 ADD SLOAD PUSH1 0x60 DUP5 ADD MSTORE PUSH1 0x4 DUP2 ADD SLOAD PUSH1 0x80 DUP5 ADD MSTORE PUSH1 0x5 DUP2 ADD SLOAD PUSH1 0xA0 DUP5 ADD MSTORE PUSH1 0x6 DUP2 ADD SLOAD PUSH1 0xFF SWAP1 DUP1 DUP3 AND PUSH2 0xA57 DUP2 PUSH2 0x2958 JUMP JUMPDEST PUSH1 0xC0 DUP7 ADD MSTORE DUP2 DUP2 PUSH1 0x8 SHR AND PUSH2 0xA6B DUP2 PUSH2 0x2958 JUMP JUMPDEST PUSH1 0xE0 DUP7 ADD MSTORE DUP2 DUP2 PUSH1 0x10 SHR AND ISZERO ISZERO PUSH2 0x100 DUP7 ADD MSTORE DUP2 DUP2 PUSH1 0x18 SHR AND ISZERO ISZERO PUSH2 0x120 DUP7 ADD MSTORE PUSH1 0x20 SHR AND ISZERO ISZERO PUSH2 0x140 DUP5 ADD MSTORE PUSH1 0x7 DUP2 ADD SLOAD PUSH2 0x160 DUP5 ADD MSTORE PUSH1 0x8 DUP2 ADD SLOAD PUSH2 0x180 DUP5 ADD MSTORE PUSH1 0x9 DUP2 ADD SLOAD PUSH2 0x1A0 DUP5 ADD MSTORE PUSH1 0xA DUP2 ADD SLOAD PUSH2 0x1C0 DUP5 ADD MSTORE PUSH1 0xB DUP2 ADD SLOAD PUSH2 0x1E0 DUP5 ADD MSTORE PUSH1 0xC DUP2 ADD SLOAD PUSH2 0x200 DUP5 ADD MSTORE ADD SLOAD PUSH2 0x220 DUP3 ADD MSTORE PUSH2 0x220 PUSH1 0x40 MLOAD SWAP2 PUSH1 0x1 DUP1 PUSH1 0xA0 SHL SUB DUP2 MLOAD AND DUP4 MSTORE PUSH1 0x1 DUP1 PUSH1 0xA0 SHL SUB PUSH1 0x20 DUP3 ADD MLOAD AND PUSH1 0x20 DUP5 ADD MSTORE PUSH1 0x1 DUP1 PUSH1 0xA0 SHL SUB PUSH1 0x40 DUP3 ADD MLOAD AND PUSH1 0x40 DUP5 ADD MSTORE PUSH1 0x60 DUP2 ADD MLOAD PUSH1 0x60 DUP5 ADD MSTORE PUSH1 0x80 DUP2 ADD MLOAD PUSH1 0x80 DUP5 ADD MSTORE PUSH1 0xA0 DUP2 ADD MLOAD PUSH1 0xA0 DUP5 ADD MSTORE PUSH1 0xC0 DUP2 ADD MLOAD PUSH2 0xB45 DUP2 PUSH2 0x2958 JUMP JUMPDEST PUSH1 0xC0 DUP5 ADD MSTORE PUSH1 0xE0 DUP2 ADD MLOAD PUSH2 0xB58 DUP2 PUSH2 0x2958 JUMP JUMPDEST PUSH1 0xE0 DUP5 ADD MSTORE PUSH2 0x100 DUP2 ADD MLOAD ISZERO ISZERO PUSH2 0x100 DUP5 ADD MSTORE PUSH2 0x120 DUP2 ADD MLOAD ISZERO ISZERO PUSH2 0x120 DUP5 ADD MSTORE PUSH2 0x140 DUP2 ADD MLOAD ISZERO ISZERO PUSH2 0x140 DUP5 ADD MSTORE PUSH2 0x160 DUP2 ADD MLOAD PUSH2 0x160 DUP5 ADD MSTORE PUSH2 0x180 DUP2 ADD MLOAD PUSH2 0x180 DUP5 ADD MSTORE PUSH2 0x1A0 DUP2 ADD MLOAD PUSH2 0x1A0 DUP5 ADD MSTORE PUSH2 0x1C0 DUP2 ADD MLOAD PUSH2 0x1C0 DUP5 ADD MSTORE PUSH2 0x1E0 DUP2 ADD MLOAD PUSH2 0x1E0 DUP5 ADD MSTORE PUSH2 0x200 DUP2 ADD MLOAD PUSH2 0x200 DUP5 ADD MSTORE ADD MLOAD PUSH2 0x220 DUP3 ADD MSTORE RETURN JUMPDEST CALLVALUE PUSH2 0x331 JUMPI PUSH1 0x20 CALLDATASIZE PUSH1 0x3 NOT ADD SLT PUSH2 0x331 JUMPI PUSH1 0x4 CALLDATALOAD PUSH2 0xBF5 PUSH2 0x2991 JUMP JUMPDEST PUSH2 0x3E8 DUP2 GT PUSH2 0xC03 JUMPI PUSH1 0xD SSTORE STOP JUMPDEST PUSH1 0x40 MLOAD PUSH4 0x162908E3 PUSH1 0xE1 SHL DUP2 MSTORE PUSH1 0x4 SWAP1 REVERT JUMPDEST CALLVALUE PUSH2 0x331 JUMPI PUSH1 0x80 CALLDATASIZE PUSH1 0x3 NOT ADD SLT PUSH2 0x331 JUMPI PUSH2 0xC2E PUSH2 0x292C JUMP JUMPDEST PUSH1 0x24 CALLDATALOAD SWAP1 PUSH1 0x44 CALLDATALOAD SWAP1 PUSH1 0x64 CALLDATALOAD SWAP1 PUSH1 0xA DUP3 LT ISZERO PUSH2 0x331 JUMPI PUSH2 0xC4B PUSH2 0x2D89 JUMP JUMPDEST PUSH2 0xC53 PUSH2 0x2D6B JUMP JUMPDEST PUSH1 0x1 PUSH1 0x1 PUSH1 0xA0 SHL SUB AND SWAP2 DUP3 ISZERO PUSH2 0x540 JUMPI DUP3 PUSH1 0x0 MSTORE PUSH1 0x5 PUSH1 0x20 MSTORE PUSH1 0xFF PUSH1 0x40 PUSH1 0x0 KECCAK256 SLOAD AND ISZERO PUSH2 0xFDD JUMPI DUP4 ISZERO PUSH2 0xC03 JUMPI PUSH2 0xC89 DUP3 PUSH2 0x2958 JUMP JUMPDEST DUP2 PUSH1 0x0 MSTORE PUSH1 0xA PUSH1 0x20 MSTORE PUSH1 0xFF PUSH1 0x40 PUSH1 0x0 KECCAK256 SLOAD AND PUSH2 0xFCB JUMPI PUSH2 0xCA9 DUP2 CALLER PUSH2 0x32A4 JUMP JUMPDEST PUSH2 0x2710 PUSH2 0xCB8 PUSH1 0xD SLOAD DUP7 PUSH2 0x2C64 JUMP JUMPDEST DIV SWAP3 PUSH2 0xCC4 DUP5 DUP7 PUSH2 0x2C77 JUMP JUMPDEST SWAP5 PUSH1 0x40 MLOAD PUSH4 0x23B872DD PUSH1 0xE0 SHL PUSH1 0x20 DUP3 ADD MSTORE CALLER PUSH1 0x24 DUP3 ADD MSTORE ADDRESS PUSH1 0x44 DUP3 ADD MSTORE DUP2 PUSH1 0x64 DUP3 ADD MSTORE PUSH1 0x64 DUP2 MSTORE PUSH1 0xA0 DUP2 ADD SWAP1 DUP1 DUP3 LT PUSH8 0xFFFFFFFFFFFFFFFF DUP4 GT OR PUSH2 0xFB5 JUMPI PUSH2 0xD10 SWAP2 PUSH1 0x40 MSTORE DUP4 PUSH2 0x2DAC JUMP JUMPDEST PUSH2 0xD1B PUSH1 0xB SLOAD PUSH2 0x2C84 JUMP JUMPDEST SWAP2 DUP3 PUSH1 0xB SSTORE PUSH3 0x93A80 TIMESTAMP ADD TIMESTAMP GT PUSH2 0xF9F JUMPI PUSH1 0x20 SWAP7 PUSH32 0x2469925CCEFB03ACD27C12D788551EB22B1874DED2DEB93E787464C9A3F3D83C SWAP7 PUSH32 0x2F7DE55139DE6FC244276FEA13CFD810747CEA11CB889582D3966AEF80CC6F60 SWAP6 DUP10 SWAP6 PUSH1 0x40 MLOAD SWAP2 PUSH2 0xD82 DUP4 PUSH2 0x2CD9 JUMP JUMPDEST CALLER DUP4 MSTORE PUSH1 0x0 DUP9 DUP5 ADD MSTORE DUP6 PUSH1 0x40 DUP5 ADD MSTORE DUP5 PUSH1 0x60 DUP5 ADD MSTORE DUP4 PUSH1 0x80 DUP5 ADD MSTORE PUSH1 0xA0 DUP4 ADD MSTORE PUSH1 0x1 PUSH1 0xC0 DUP4 ADD MSTORE PUSH2 0xDB2 DUP10 PUSH2 0x2958 JUMP JUMPDEST DUP9 PUSH1 0xE0 DUP4 ADD MSTORE PUSH1 0x0 PUSH2 0x100 DUP4 ADD MSTORE PUSH1 0x0 PUSH2 0x120 DUP4 ADD MSTORE PUSH1 0x0 PUSH2 0x140 DUP4 ADD MSTORE TIMESTAMP PUSH2 0x160 DUP4 ADD MSTORE TIMESTAMP PUSH2 0x180 DUP4 ADD MSTORE PUSH1 0x0 PUSH2 0x1A0 DUP4 ADD MSTORE PUSH1 0x0 PUSH2 0x1C0 DUP4 ADD MSTORE PUSH1 0x0 PUSH2 0x1E0 DUP4 ADD MSTORE PUSH3 0x93A80 TIMESTAMP ADD PUSH2 0x200 DUP4 ADD MSTORE PUSH1 0x0 PUSH2 0x220 DUP4 ADD MSTORE PUSH1 0x0 MSTORE PUSH1 0x3 DUP7 MSTORE PUSH1 0xD PUSH2 0x220 PUSH1 0x40 PUSH1 0x0 KECCAK256 SWAP3 PUSH1 0x1 DUP1 PUSH1 0xA0 SHL SUB DUP2 MLOAD AND PUSH1 0x1 PUSH1 0x1 PUSH1 0x60 SHL SUB PUSH1 0xA0 SHL SWAP1 DUP2 DUP7 SLOAD AND OR DUP6 SSTORE PUSH1 0x1 DUP6 ADD PUSH1 0x1 DUP1 PUSH1 0xA0 SHL SUB DUP12 DUP5 ADD MLOAD AND DUP3 DUP3 SLOAD AND OR SWAP1 SSTORE PUSH1 0x2 DUP6 ADD SWAP1 PUSH1 0x1 DUP1 PUSH1 0xA0 SHL SUB PUSH1 0x40 DUP5 ADD MLOAD AND SWAP1 DUP3 SLOAD AND OR SWAP1 SSTORE PUSH1 0x60 DUP2 ADD MLOAD PUSH1 0x3 DUP6 ADD SSTORE PUSH1 0x80 DUP2 ADD MLOAD PUSH1 0x4 DUP6 ADD SSTORE PUSH1 0xA0 DUP2 ADD MLOAD PUSH1 0x5 DUP6 ADD SSTORE PUSH2 0xF28 PUSH1 0x6 DUP6 ADD PUSH2 0xEA5 PUSH1 0xC0 DUP5 ADD MLOAD PUSH2 0xE9F DUP2 PUSH2 0x2958 JUMP JUMPDEST DUP3 PUSH2 0x2D34 JUMP JUMPDEST PUSH1 0xE0 DUP4 ADD MLOAD PUSH2 0xEB3 DUP2 PUSH2 0x2958 JUMP JUMPDEST PUSH2 0xEBC DUP2 PUSH2 0x2958 JUMP JUMPDEST DUP2 SLOAD PUSH2 0x100 DUP6 ADD MLOAD PUSH3 0xFFFF00 NOT SWAP1 SWAP2 AND PUSH1 0x8 SWAP3 SWAP1 SWAP3 SHL PUSH2 0xFF00 AND SWAP2 SWAP1 SWAP2 OR SWAP1 ISZERO ISZERO PUSH1 0x10 SHL PUSH3 0xFF0000 AND OR DUP2 SSTORE PUSH2 0x120 DUP4 ADD MLOAD DUP2 SLOAD PUSH4 0xFF000000 NOT AND SWAP1 ISZERO ISZERO PUSH1 0x18 SHL PUSH4 0xFF000000 AND OR DUP2 SSTORE PUSH2 0x140 DUP4 ADD MLOAD DUP2 SLOAD PUSH5 0xFF00000000 NOT AND SWAP1 ISZERO ISZERO PUSH1 0x20 SHL PUSH5 0xFF00000000 AND OR SWAP1 SSTORE JUMP JUMPDEST PUSH2 0x160 DUP2 ADD MLOAD PUSH1 0x7 DUP6 ADD SSTORE PUSH2 0x180 DUP2 ADD MLOAD PUSH1 0x8 DUP6 ADD SSTORE PUSH2 0x1A0 DUP2 ADD MLOAD PUSH1 0x9 DUP6 ADD SSTORE PUSH2 0x1C0 DUP2 ADD MLOAD PUSH1 0xA DUP6 ADD SSTORE PUSH2 0x1E0 DUP2 ADD MLOAD PUSH1 0xB DUP6 ADD SSTORE PUSH2 0x200 DUP2 ADD MLOAD PUSH1 0xC DUP6 ADD SSTORE ADD MLOAD SWAP2 ADD SSTORE PUSH1 0xB SLOAD SWAP8 DUP9 SWAP8 DUP9 SWAP3 PUSH2 0xF88 PUSH1 0x40 MLOAD SWAP3 DUP4 SWAP3 CALLER SWAP8 DUP5 PUSH2 0x2D4C JUMP JUMPDEST SUB SWAP1 LOG4 PUSH1 0x40 MLOAD SWAP1 DUP2 MSTORE LOG2 PUSH1 0x1 PUSH1 0x0 SSTORE PUSH1 0x40 MLOAD SWAP1 DUP2 MSTORE RETURN JUMPDEST PUSH4 0x4E487B71 PUSH1 0xE0 SHL PUSH1 0x0 MSTORE PUSH1 0x11 PUSH1 0x4 MSTORE PUSH1 0x24 PUSH1 0x0 REVERT JUMPDEST PUSH4 0x4E487B71 PUSH1 0xE0 SHL PUSH1 0x0 MSTORE PUSH1 0x41 PUSH1 0x4 MSTORE PUSH1 0x24 PUSH1 0x0 REVERT JUMPDEST PUSH1 0x40 MLOAD PUSH4 0x176FA741 PUSH1 0xE2 SHL DUP2 MSTORE PUSH1 0x4 SWAP1 REVERT JUMPDEST PUSH1 0x40 MLOAD PUSH4 0x3DD1B305 PUSH1 0xE0 SHL DUP2 MSTORE PUSH1 0x4 SWAP1 REVERT JUMPDEST CALLVALUE PUSH2 0x331 JUMPI PUSH1 0x20 CALLDATASIZE PUSH1 0x3 NOT ADD SLT PUSH2 0x331 JUMPI PUSH1 0x4 CALLDATALOAD PUSH1 0x4 DUP2 LT ISZERO PUSH2 0x331 JUMPI PUSH2 0x1015 DUP2 PUSH2 0x2987 JUMP JUMPDEST PUSH1 0x0 MSTORE PUSH1 0x8 PUSH1 0x20 MSTORE PUSH1 0x80 PUSH1 0x40 PUSH1 0x0 KECCAK256 DUP1 SLOAD SWAP1 PUSH1 0x1 DUP2 ADD SLOAD SWAP1 PUSH1 0x3 PUSH1 0x2 DUP3 ADD SLOAD SWAP2 ADD SLOAD SWAP2 PUSH1 0x40 MLOAD SWAP4 DUP5 MSTORE PUSH1 0x20 DUP5 ADD MSTORE PUSH1 0x40 DUP4 ADD MSTORE PUSH1 0x60 DUP3 ADD MSTORE RETURN JUMPDEST CALLVALUE PUSH2 0x331 JUMPI PUSH1 0x20 CALLDATASIZE PUSH1 0x3 NOT ADD SLT PUSH2 0x331 JUMPI PUSH1 0x4 CALLDATALOAD PUSH2 0x106B PUSH2 0x2D6B JUMP JUMPDEST PUSH1 0x0 DUP2 DUP2 MSTORE PUSH1 0x3 PUSH1 0x20 MSTORE PUSH1 0x40 SWAP1 KECCAK256 DUP1 SLOAD PUSH1 0x1 PUSH1 0x1 PUSH1 0xA0 SHL SUB SWAP2 SWAP1 DUP3 AND SWAP1 CALLER DUP3 EQ ISZERO DUP1 PUSH2 0x1171 JUMPI JUMPDEST PUSH2 0x115F JUMPI PUSH1 0x6 DUP2 ADD SWAP2 DUP3 SLOAD SWAP1 PUSH1 0xFF DUP3 AND PUSH2 0x10AB DUP2 PUSH2 0x2958 JUMP JUMPDEST PUSH1 0x6 DUP2 EQ SWAP1 DUP2 ISZERO PUSH2 0x114A JUMPI JUMPDEST DUP2 ISZERO PUSH2 0x1135 JUMPI JUMPDEST DUP2 ISZERO PUSH2 0x1121 JUMPI JUMPDEST POP PUSH2 0x65F JUMPI PUSH1 0x1 SWAP4 PUSH1 0x7 PUSH2 0x10DF SWAP4 PUSH1 0xFF NOT AND OR SWAP1 SSTORE PUSH2 0x3687 JUMP JUMPDEST ADD SLOAD AND DUP1 PUSH2 0x1112 JUMPI JUMPDEST POP CALLER SWAP1 PUSH32 0x5AF9D49F4A6A457555195A3B1D151B29D9708C5CC9074C9B3B08EC68D17F8CDE PUSH1 0x0 DUP1 LOG3 STOP JUMPDEST PUSH2 0x111B SWAP1 PUSH2 0x3687 JUMP JUMPDEST DUP2 PUSH2 0x10E8 JUMP JUMPDEST PUSH1 0x7 SWAP2 POP PUSH2 0x112E DUP2 PUSH2 0x2958 JUMP JUMPDEST EQ DUP8 PUSH2 0x10C5 JUMP JUMPDEST SWAP1 POP PUSH2 0x1140 DUP2 PUSH2 0x2958 JUMP JUMPDEST PUSH1 0x9 DUP2 EQ SWAP1 PUSH2 0x10BE JUMP JUMPDEST SWAP1 POP PUSH2 0x1155 DUP2 PUSH2 0x2958 JUMP JUMPDEST PUSH1 0x8 DUP2 EQ SWAP1 PUSH2 0x10B7 JUMP JUMPDEST PUSH1 0x40 MLOAD PUSH4 0xEA8E4EB5 PUSH1 0xE0 SHL DUP2 MSTORE PUSH1 0x4 SWAP1 REVERT JUMPDEST POP DUP3 PUSH1 0x1 DUP3 ADD SLOAD AND CALLER EQ ISZERO PUSH2 0x1092 JUMP JUMPDEST CALLVALUE PUSH2 0x331 JUMPI PUSH1 0x0 CALLDATASIZE PUSH1 0x3 NOT ADD SLT PUSH2 0x331 JUMPI PUSH1 0x20 PUSH1 0x40 MLOAD PUSH1 0x0 DUP2 MSTORE RETURN JUMPDEST CALLVALUE PUSH2 0x331 JUMPI PUSH1 0x0 CALLDATASIZE PUSH1 0x3 NOT ADD SLT PUSH2 0x331 JUMPI PUSH1 0x20 PUSH1 0xB SLOAD PUSH1 0x40 MLOAD SWAP1 DUP2 MSTORE RETURN JUMPDEST CALLVALUE PUSH2 0x331 JUMPI PUSH1 0x0 CALLDATASIZE PUSH1 0x3 NOT ADD SLT PUSH2 0x331 JUMPI PUSH1 0x20 PUSH1 0x40 MLOAD PUSH32 0x16CEEE8289685DD2A02B9C8AE81D2DF373176CE53519E6284E2A2950D6546FFA DUP2 MSTORE RETURN JUMPDEST CALLVALUE PUSH2 0x331 JUMPI PUSH1 0x20 CALLDATASIZE PUSH1 0x3 NOT ADD SLT PUSH2 0x331 JUMPI PUSH1 0x4 CALLDATALOAD PUSH2 0x1212 PUSH2 0x2D89 JUMP JUMPDEST DUP1 PUSH1 0x0 MSTORE PUSH1 0x3 PUSH1 0x20 MSTORE PUSH1 0x40 PUSH1 0x0 KECCAK256 PUSH1 0xC DUP2 ADD SLOAD TIMESTAMP GT ISZERO PUSH2 0x1271 JUMPI PUSH1 0x1 DUP2 ADD SLOAD PUSH1 0x1 PUSH1 0x1 PUSH1 0xA0 SHL SUB AND PUSH2 0x125F JUMPI PUSH1 0xFF PUSH1 0x6 PUSH1 0x1 SWAP3 ADD SLOAD AND PUSH2 0x1251 DUP2 PUSH2 0x2958 JUMP JUMPDEST SUB PUSH2 0x65F JUMPI PUSH2 0x658 SWAP1 PUSH2 0x319C JUMP JUMPDEST PUSH1 0x40 MLOAD PUSH4 0x22E36A87 PUSH1 0xE2 SHL DUP2 MSTORE PUSH1 0x4 SWAP1 REVERT JUMPDEST PUSH1 0x40 MLOAD PUSH4 0x1C1A054B PUSH1 0xE0 SHL DUP2 MSTORE PUSH1 0x4 SWAP1 REVERT JUMPDEST CALLVALUE PUSH2 0x331 JUMPI PUSH1 0x40 CALLDATASIZE PUSH1 0x3 NOT ADD SLT PUSH2 0x331 JUMPI PUSH2 0x129C PUSH2 0x2942 JUMP JUMPDEST PUSH1 0x4 CALLDATALOAD PUSH1 0x0 MSTORE PUSH1 0x2 PUSH1 0x20 MSTORE PUSH1 0x40 PUSH1 0x0 KECCAK256 SWAP1 PUSH1 0x1 DUP1 PUSH1 0xA0 SHL SUB AND PUSH1 0x0 MSTORE PUSH1 0x20 MSTORE PUSH1 0x20 PUSH1 0xFF PUSH1 0x40 PUSH1 0x0 KECCAK256 SLOAD AND PUSH1 0x40 MLOAD SWAP1 ISZERO ISZERO DUP2 MSTORE RETURN JUMPDEST CALLVALUE PUSH2 0x331 JUMPI PUSH1 0x0 CALLDATASIZE PUSH1 0x3 NOT ADD SLT PUSH2 0x331 JUMPI PUSH1 0x20 PUSH1 0xD SLOAD PUSH1 0x40 MLOAD SWAP1 DUP2 MSTORE RETURN JUMPDEST CALLVALUE PUSH2 0x331 JUMPI PUSH1 0x20 CALLDATASIZE PUSH1 0x3 NOT ADD SLT PUSH2 0x331 JUMPI PUSH1 0x1 PUSH1 0x1 PUSH1 0xA0 SHL SUB PUSH2 0x130F PUSH2 0x292C JUMP JUMPDEST AND PUSH1 0x0 MSTORE PUSH1 0x4 PUSH1 0x20 MSTORE PUSH2 0x120 PUSH1 0x40 PUSH1 0x0 KECCAK256 PUSH1 0xFF DUP2 SLOAD SWAP2 PUSH1 0x1 DUP2 ADD SLOAD PUSH1 0x2 DUP3 ADD SLOAD SWAP2 PUSH1 0x3 DUP2 ADD SLOAD PUSH1 0x4 DUP3 ADD SLOAD PUSH1 0x5 DUP4 ADD SLOAD SWAP2 PUSH1 0x7 PUSH1 0x6 DUP6 ADD SLOAD SWAP5 ADD SLOAD SWAP6 DUP8 DUP8 AND SWAP6 PUSH1 0x40 MLOAD SWAP10 DUP11 MSTORE PUSH1 0x20 DUP11 ADD MSTORE PUSH1 0x40 DUP10 ADD MSTORE PUSH1 0x60 DUP9 ADD MSTORE PUSH1 0x80 DUP8 ADD MSTORE PUSH1 0xA0 DUP7 ADD MSTORE PUSH1 0xC0 DUP6 ADD MSTORE PUSH2 0x137C DUP2 PUSH2 0x2987 JUMP JUMPDEST PUSH1 0xE0 DUP5 ADD MSTORE PUSH1 0x8 SHR AND ISZERO ISZERO PUSH2 0x100 DUP3 ADD MSTORE RETURN JUMPDEST CALLVALUE PUSH2 0x331 JUMPI PUSH1 0x0 CALLDATASIZE PUSH1 0x3 NOT ADD SLT PUSH2 0x331 JUMPI PUSH2 0x13A8 PUSH2 0x2991 JUMP JUMPDEST PUSH2 0x13B0 PUSH2 0x2D6B JUMP JUMPDEST PUSH1 0x1 PUSH1 0xFF NOT DUP2 SLOAD AND OR PUSH1 0x1 SSTORE PUSH32 0x62E78CEA01BEE320CD4E420270B5EA74000D11B0C9F74754EBDBFC544B05A258 PUSH1 0x20 PUSH1 0x40 MLOAD CALLER DUP2 MSTORE LOG1 STOP JUMPDEST CALLVALUE PUSH2 0x331 JUMPI PUSH1 0x20 CALLDATASIZE PUSH1 0x3 NOT ADD SLT PUSH2 0x331 JUMPI PUSH2 0x1401 PUSH2 0x292C JUMP JUMPDEST PUSH2 0x1409 PUSH2 0x2991 JUMP JUMPDEST PUSH1 0x1 PUSH1 0x1 PUSH1 0xA0 SHL SUB AND DUP1 ISZERO PUSH2 0x540 JUMPI PUSH1 0x0 SWAP1 DUP2 MSTORE PUSH1 0x5 PUSH1 0x20 MSTORE PUSH1 0x40 SWAP1 KECCAK256 DUP1 SLOAD PUSH1 0xFF NOT AND SWAP1 SSTORE STOP JUMPDEST CALLVALUE PUSH2 0x331 JUMPI PUSH1 0x0 CALLDATASIZE PUSH1 0x3 NOT ADD SLT PUSH2 0x331 JUMPI PUSH1 0x20 PUSH1 0x40 MLOAD PUSH32 0xA49807205CE4D355092EF5A8A18F56E8913CF4A201FBE287825B095693C21775 DUP2 MSTORE RETURN JUMPDEST CALLVALUE PUSH2 0x331 JUMPI PUSH1 0x40 CALLDATASIZE PUSH1 0x3 NOT ADD SLT PUSH2 0x331 JUMPI PUSH1 0x4 CALLDATALOAD PUSH1 0x24 CALLDATALOAD PUSH2 0x148A PUSH2 0x2D6B JUMP JUMPDEST PUSH1 0x0 DUP3 DUP2 MSTORE PUSH1 0x3 PUSH1 0x20 MSTORE PUSH1 0x40 SWAP1 KECCAK256 PUSH1 0x1 DUP2 ADD SLOAD PUSH1 0x1 PUSH1 0x1 PUSH1 0xA0 SHL SUB AND CALLER SUB PUSH2 0x154F JUMPI PUSH1 0x6 DUP2 ADD SWAP2 DUP3 SLOAD SWAP3 PUSH1 0x2 PUSH1 0xFF DUP6 AND PUSH2 0x14C3 DUP2 PUSH2 0x2958 JUMP JUMPDEST SUB PUSH2 0x65F JUMPI DUP2 PUSH1 0x0 MSTORE PUSH1 0x7 PUSH1 0x20 MSTORE PUSH1 0xFF PUSH1 0x40 PUSH1 0x0 KECCAK256 SLOAD AND PUSH2 0x153D JUMPI PUSH1 0xD PUSH1 0x20 SWAP4 DUP4 SWAP3 PUSH3 0x10003 PUSH32 0xEC2DDC8C49B05B6A2C186D6F1481D3167F08DE1C5A5DE04F94A9F6E800B33552 SWAP8 PUSH3 0xFF00FF NOT AND OR SWAP1 SSTORE TIMESTAMP PUSH1 0x9 DUP3 ADD SSTORE ADD SSTORE DUP1 PUSH1 0x0 MSTORE PUSH1 0x7 DUP3 MSTORE PUSH1 0x40 PUSH1 0x0 KECCAK256 PUSH1 0x1 PUSH1 0xFF NOT DUP3 SLOAD AND OR SWAP1 SSTORE PUSH1 0x40 MLOAD SWAP1 DUP2 MSTORE LOG2 STOP JUMPDEST PUSH1 0x40 MLOAD PUSH4 0x4F6343D PUSH1 0xE2 SHL DUP2 MSTORE PUSH1 0x4 SWAP1 REVERT JUMPDEST PUSH1 0x40 MLOAD PUSH4 0xED6F48A1 PUSH1 0xE0 SHL DUP2 MSTORE PUSH1 0x4 SWAP1 REVERT JUMPDEST PUSH1 0x40 CALLDATASIZE PUSH1 0x3 NOT ADD SLT PUSH2 0x331 JUMPI PUSH1 0x4 CALLDATALOAD PUSH1 0xA PUSH1 0x24 CALLDATALOAD LT ISZERO PUSH2 0x331 JUMPI PUSH2 0x1583 PUSH2 0x2D89 JUMP JUMPDEST PUSH2 0x158B PUSH2 0x2D6B JUMP JUMPDEST CALLVALUE ISZERO PUSH2 0xC03 JUMPI PUSH2 0x159C PUSH1 0x24 CALLDATALOAD PUSH2 0x2958 JUMP JUMPDEST PUSH1 0x24 CALLDATALOAD PUSH1 0x0 MSTORE PUSH1 0xA PUSH1 0x20 MSTORE PUSH1 0xFF PUSH1 0x40 PUSH1 0x0 KECCAK256 SLOAD AND PUSH2 0xFCB JUMPI PUSH2 0x15BE DUP2 CALLER PUSH2 0x32A4 JUMP JUMPDEST PUSH2 0x2710 PUSH2 0x15CD PUSH1 0xD SLOAD CALLVALUE PUSH2 0x2C64 JUMP JUMPDEST DIV SWAP1 PUSH2 0x15D9 DUP3 CALLVALUE PUSH2 0x2C77 JUMP JUMPDEST SWAP2 PUSH2 0x15E5 PUSH1 0xB SLOAD PUSH2 0x2C84 JUMP JUMPDEST SWAP1 DUP2 PUSH1 0xB SSTORE PUSH3 0x93A80 TIMESTAMP ADD TIMESTAMP GT PUSH2 0xF9F JUMPI PUSH1 0x20 SWAP4 PUSH2 0x1798 SWAP4 PUSH1 0x0 SWAP4 PUSH1 0x40 MLOAD SWAP2 PUSH2 0x160D DUP4 PUSH2 0x2CD9 JUMP JUMPDEST CALLER DUP4 MSTORE DUP6 DUP9 DUP5 ADD MSTORE DUP6 PUSH1 0x40 DUP5 ADD MSTORE DUP4 PUSH1 0x60 DUP5 ADD MSTORE DUP5 PUSH1 0x80 DUP5 ADD MSTORE PUSH1 0xA0 DUP4 ADD MSTORE PUSH1 0x1 PUSH1 0xC0 DUP4 ADD MSTORE PUSH2 0x163E PUSH1 0x24 CALLDATALOAD PUSH2 0x2958 JUMP JUMPDEST PUSH1 0x24 CALLDATALOAD PUSH1 0xE0 DUP4 ADD MSTORE DUP5 PUSH2 0x100 DUP4 ADD MSTORE DUP5 PUSH2 0x120 DUP4 ADD MSTORE DUP5 PUSH2 0x140 DUP4 ADD MSTORE TIMESTAMP PUSH2 0x160 DUP4 ADD MSTORE TIMESTAMP PUSH2 0x180 DUP4 ADD MSTORE DUP5 PUSH2 0x1A0 DUP4 ADD MSTORE DUP5 PUSH2 0x1C0 DUP4 ADD MSTORE DUP5 PUSH2 0x1E0 DUP4 ADD MSTORE PUSH3 0x93A80 TIMESTAMP ADD PUSH2 0x200 DUP4 ADD MSTORE DUP5 PUSH2 0x220 DUP4 ADD MSTORE DUP5 MSTORE PUSH1 0x3 DUP7 MSTORE PUSH1 0xD PUSH2 0x220 PUSH1 0x40 DUP7 KECCAK256 SWAP3 PUSH1 0x1 DUP1 PUSH1 0xA0 SHL SUB DUP1 DUP3 MLOAD AND PUSH1 0x1 PUSH1 0x1 PUSH1 0x60 SHL SUB PUSH1 0xA0 SHL SWAP1 DUP2 DUP8 SLOAD AND OR DUP7 SSTORE PUSH1 0x1 DUP7 ADD DUP3 DUP13 DUP6 ADD MLOAD AND DUP3 DUP3 SLOAD AND OR SWAP1 SSTORE PUSH1 0x2 DUP7 ADD SWAP2 PUSH1 0x40 DUP5 ADD MLOAD AND SWAP1 DUP3 SLOAD AND OR SWAP1 SSTORE PUSH1 0x60 DUP2 ADD MLOAD PUSH1 0x3 DUP6 ADD SSTORE PUSH1 0x80 DUP2 ADD MLOAD PUSH1 0x4 DUP6 ADD SSTORE PUSH1 0xA0 DUP2 ADD MLOAD PUSH1 0x5 DUP6 ADD SSTORE PUSH2 0x1718 PUSH1 0x6 DUP6 ADD PUSH2 0xEA5 PUSH1 0xC0 DUP5 ADD MLOAD PUSH2 0xE9F DUP2 PUSH2 0x2958 JUMP JUMPDEST PUSH2 0x160 DUP2 ADD MLOAD PUSH1 0x7 DUP6 ADD SSTORE PUSH2 0x180 DUP2 ADD MLOAD PUSH1 0x8 DUP6 ADD SSTORE PUSH2 0x1A0 DUP2 ADD MLOAD PUSH1 0x9 DUP6 ADD SSTORE PUSH2 0x1C0 DUP2 ADD MLOAD PUSH1 0xA DUP6 ADD SSTORE PUSH2 0x1E0 DUP2 ADD MLOAD PUSH1 0xB DUP6 ADD SSTORE PUSH2 0x200 DUP2 ADD MLOAD PUSH1 0xC DUP6 ADD SSTORE ADD MLOAD SWAP2 ADD SSTORE PUSH32 0x2469925CCEFB03ACD27C12D788551EB22B1874DED2DEB93E787464C9A3F3D83C PUSH1 0xB SLOAD SWAP5 DUP6 SWAP3 PUSH1 0x40 MLOAD SWAP2 DUP3 SWAP2 CALLER SWAP7 PUSH1 0x24 CALLDATALOAD SWAP2 DUP5 PUSH2 0x2D4C JUMP JUMPDEST SUB SWAP1 LOG4 DUP1 PUSH32 0x2F7DE55139DE6FC244276FEA13CFD810747CEA11CB889582D3966AEF80CC6F60 DUP4 PUSH1 0x40 MLOAD CALLVALUE DUP2 MSTORE LOG2 PUSH1 0x1 PUSH1 0x0 SSTORE PUSH1 0x40 MLOAD SWAP1 DUP2 MSTORE RETURN JUMPDEST CALLVALUE PUSH2 0x331 JUMPI PUSH1 0x20 CALLDATASIZE PUSH1 0x3 NOT ADD SLT PUSH2 0x331 JUMPI PUSH2 0x17EB PUSH2 0x292C JUMP JUMPDEST PUSH2 0x17F3 PUSH2 0x2991 JUMP JUMPDEST PUSH1 0x1 PUSH1 0x1 PUSH1 0xA0 SHL SUB AND DUP1 ISZERO PUSH2 0x540 JUMPI PUSH1 0x0 SWAP1 DUP2 MSTORE PUSH1 0x5 PUSH1 0x20 MSTORE PUSH1 0x40 SWAP1 KECCAK256 DUP1 SLOAD PUSH1 0xFF NOT AND PUSH1 0x1 OR SWAP1 SSTORE STOP JUMPDEST CALLVALUE PUSH2 0x331 JUMPI PUSH1 0x20 CALLDATASIZE PUSH1 0x3 NOT ADD SLT PUSH2 0x331 JUMPI PUSH1 0x1 PUSH1 0x1 PUSH1 0xA0 SHL SUB PUSH2 0x183E PUSH2 0x292C JUMP JUMPDEST AND PUSH1 0x0 MSTORE PUSH1 0x5 PUSH1 0x20 MSTORE PUSH1 0x20 PUSH1 0xFF PUSH1 0x40 PUSH1 0x0 KECCAK256 SLOAD AND PUSH1 0x40 MLOAD SWAP1 ISZERO ISZERO DUP2 MSTORE RETURN JUMPDEST CALLVALUE PUSH2 0x331 JUMPI PUSH1 0x20 CALLDATASIZE PUSH1 0x3 NOT ADD SLT PUSH2 0x331 JUMPI PUSH1 0x4 CALLDATALOAD PUSH2 0x1878 PUSH2 0x2D89 JUMP JUMPDEST PUSH1 0x0 DUP2 DUP2 MSTORE PUSH1 0x3 PUSH1 0x20 MSTORE PUSH1 0x40 SWAP1 KECCAK256 DUP1 SLOAD PUSH1 0x1 PUSH1 0x1 PUSH1 0xA0 SHL SUB SWAP1 DUP2 AND CALLER SUB PUSH2 0x69C JUMPI PUSH1 0x6 DUP3 ADD SWAP2 PUSH1 0x1 PUSH1 0xFF DUP5 SLOAD AND PUSH2 0x18AE DUP2 PUSH2 0x2958 JUMP JUMPDEST SUB PUSH2 0x65F JUMPI PUSH1 0x1 ADD SLOAD AND PUSH2 0x125F JUMPI PUSH2 0x18C5 DUP3 PUSH2 0x319C JUMP JUMPDEST DUP1 SLOAD PUSH1 0xFF NOT AND PUSH1 0x9 OR SWAP1 SSTORE CALLER SWAP1 PUSH32 0x41D0E14DD8ABCD72311B1C9267065414E8C2C246AD9914A60CC99CCEA19446D PUSH1 0x0 DUP1 LOG3 PUSH1 0x1 PUSH1 0x0 SSTORE STOP JUMPDEST CALLVALUE PUSH2 0x331 JUMPI PUSH1 0x20 CALLDATASIZE PUSH1 0x3 NOT ADD SLT PUSH2 0x331 JUMPI PUSH2 0x1917 PUSH2 0x292C JUMP JUMPDEST PUSH2 0x191F PUSH2 0x2991 JUMP JUMPDEST PUSH1 0x1 PUSH1 0x1 PUSH1 0xA0 SHL SUB AND DUP1 ISZERO PUSH2 0x540 JUMPI PUSH1 0x1 PUSH1 0x1 PUSH1 0x60 SHL SUB PUSH1 0xA0 SHL PUSH1 0xC SLOAD AND OR PUSH1 0xC SSTORE PUSH1 0x0 DUP1 RETURN JUMPDEST CALLVALUE PUSH2 0x331 JUMPI PUSH1 0xA0 CALLDATASIZE PUSH1 0x3 NOT ADD SLT PUSH2 0x331 JUMPI PUSH1 0x4 CALLDATALOAD PUSH8 0xFFFFFFFFFFFFFFFF PUSH1 0x84 CALLDATALOAD PUSH1 0x64 CALLDATALOAD PUSH1 0x24 CALLDATALOAD PUSH1 0x44 CALLDATALOAD DUP5 DUP5 GT PUSH2 0x331 JUMPI CALLDATASIZE PUSH1 0x23 DUP6 ADD SLT ISZERO PUSH2 0x331 JUMPI DUP4 PUSH1 0x4 ADD CALLDATALOAD SWAP5 DUP1 DUP7 GT PUSH2 0x331 JUMPI CALLDATASIZE PUSH1 0x24 DUP8 DUP8 ADD ADD GT PUSH2 0x331 JUMPI PUSH2 0x19A2 PUSH2 0x2D89 JUMP JUMPDEST PUSH2 0x19AA PUSH2 0x2D6B JUMP JUMPDEST DUP7 PUSH1 0x0 MSTORE PUSH1 0x20 SWAP5 PUSH1 0x3 DUP7 MSTORE PUSH1 0x40 PUSH1 0x0 KECCAK256 SWAP7 PUSH1 0x6 DUP9 ADD SWAP5 DUP6 SLOAD SWAP7 PUSH1 0x3 PUSH1 0xFF DUP10 AND PUSH2 0x19D2 DUP2 PUSH2 0x2958 JUMP JUMPDEST SUB PUSH2 0x65F JUMPI DUP2 PUSH1 0xD DUP12 ADD SLOAD SUB PUSH2 0x1BC2 JUMPI DUP6 PUSH1 0x5 DUP12 ADD SLOAD SUB PUSH2 0xC03 JUMPI TIMESTAMP DUP2 GT PUSH2 0x1BC2 JUMPI PUSH2 0xE0F NOT TIMESTAMP ADD TIMESTAMP DUP2 GT PUSH2 0xF9F JUMPI DUP2 LT PUSH2 0x1BC2 JUMPI DUP11 SWAP2 PUSH1 0x1 DUP12 ADD SLOAD SWAP7 DUP12 SLOAD SWAP8 PUSH1 0x40 MLOAD SWAP9 DUP13 DUP11 ADD SWAP6 DUP7 MSTORE PUSH1 0x1 PUSH1 0x1 PUSH1 0x60 SHL SUB NOT DUP1 SWAP3 PUSH1 0x60 SHL AND PUSH1 0x40 DUP12 ADD MSTORE PUSH1 0x60 SHL AND PUSH1 0x54 DUP10 ADD MSTORE PUSH1 0x68 DUP9 ADD MSTORE PUSH1 0x88 DUP8 ADD MSTORE PUSH1 0xA8 DUP7 ADD MSTORE PUSH1 0xA8 DUP6 MSTORE PUSH1 0xE0 DUP6 ADD SWAP4 DUP6 DUP6 LT SWAP1 DUP6 GT OR PUSH2 0xFB5 JUMPI PUSH2 0x1ACD SWAP5 PUSH2 0x1AC4 SWAP5 PUSH1 0x40 MSTORE MLOAD SWAP1 KECCAK256 PUSH32 0x19457468657265756D205369676E6564204D6573736167653A0A333200000000 PUSH1 0x0 MSTORE PUSH1 0x1C MSTORE PUSH1 0x0 DUP8 PUSH1 0x3C DUP3 KECCAK256 SWAP3 DUP1 PUSH1 0x24 PUSH2 0x1AA5 DUP3 PUSH2 0x2E08 JUMP JUMPDEST SWAP7 PUSH2 0x1AB3 PUSH1 0x40 MLOAD SWAP9 DUP10 PUSH2 0x2D12 JUMP JUMPDEST DUP3 DUP9 MSTORE ADD DUP4 DUP8 ADD CALLDATACOPY DUP5 ADD ADD MSTORE PUSH2 0x2E24 JUMP JUMPDEST SWAP1 SWAP3 SWAP2 SWAP3 PUSH2 0x2EF0 JUMP JUMPDEST PUSH1 0x1 PUSH1 0x1 PUSH1 0xA0 SHL SUB AND PUSH1 0x0 DUP2 DUP2 MSTORE PUSH1 0x6 DUP6 MSTORE PUSH1 0x40 SWAP1 KECCAK256 SLOAD SWAP1 SWAP5 SWAP1 PUSH1 0xFF AND ISZERO PUSH2 0x1BC2 JUMPI DUP6 PUSH32 0xF6290085419AEF756DAAB446F349A2B978FB567DCFC918F5D5DAC67D2021076D PUSH1 0x40 PUSH1 0xB SWAP6 PUSH4 0xFF0000FF NOT AND SWAP8 PUSH1 0xFF PUSH4 0x1000004 DUP11 OR DUP1 DUP9 SSTORE TIMESTAMP PUSH1 0xA DUP9 ADD SSTORE PUSH1 0x8 SHR AND SWAP5 PUSH2 0x1B3E DUP7 PUSH2 0x2958 JUMP JUMPDEST DUP6 PUSH1 0x0 MSTORE PUSH1 0x9 DUP10 MSTORE PUSH2 0x1B54 DUP4 PUSH1 0x0 KECCAK256 SLOAD TIMESTAMP PUSH2 0x2C93 JUMP JUMPDEST SWAP8 DUP9 SWAP2 ADD SSTORE DUP2 MLOAD SWAP1 DUP2 MSTORE PUSH1 0x1 DUP9 DUP3 ADD MSTORE LOG2 PUSH2 0x1B6E DUP2 PUSH2 0x2958 JUMP JUMPDEST PUSH1 0x0 MSTORE PUSH1 0x9 DUP4 MSTORE PUSH1 0x40 PUSH1 0x0 KECCAK256 SLOAD ISZERO PUSH2 0x1B87 JUMPI PUSH1 0x1 PUSH1 0x0 SSTORE STOP JUMPDEST PUSH4 0x1000005 PUSH32 0xB3712C80285D461D18D6DD4780227A6B6F17BF80B7064D9055D932BB28B18FC7 SWAP5 OR SWAP1 SSTORE PUSH1 0x40 MLOAD SWAP1 DUP2 MSTORE LOG2 DUP1 DUP1 DUP1 DUP1 DUP1 PUSH2 0x658 JUMP JUMPDEST PUSH1 0x40 MLOAD PUSH4 0x8BAA579F PUSH1 0xE0 SHL DUP2 MSTORE PUSH1 0x4 SWAP1 REVERT JUMPDEST CALLVALUE PUSH2 0x331 JUMPI PUSH1 0x40 CALLDATASIZE PUSH1 0x3 NOT ADD SLT PUSH2 0x331 JUMPI PUSH1 0x40 PUSH1 0x4 CALLDATALOAD PUSH2 0x1BF2 PUSH2 0x2978 JUMP JUMPDEST PUSH1 0x64 DUP3 DIV PUSH3 0xF4240 DUP2 LT PUSH2 0x1C1E JUMPI POP POP PUSH2 0x2710 PUSH2 0x1C11 PUSH1 0x50 DUP1 SWAP4 PUSH2 0x2C64 JUMP JUMPDEST DIV DUP3 MLOAD SWAP2 DUP3 MSTORE PUSH1 0x20 DUP3 ADD MSTORE RETURN JUMPDEST PUSH3 0x7A120 DUP2 LT PUSH2 0x1C39 JUMPI POP POP PUSH2 0x2710 PUSH2 0x1C11 PUSH1 0x78 DUP1 SWAP4 PUSH2 0x2C64 JUMP JUMPDEST PUSH2 0xC350 DUP2 LT PUSH2 0x1C53 JUMPI POP POP PUSH2 0x2710 PUSH2 0x1C11 PUSH1 0xAA DUP1 SWAP4 PUSH2 0x2C64 JUMP JUMPDEST PUSH2 0x4E20 DUP2 LT PUSH2 0x1C6E JUMPI POP POP PUSH2 0x2710 PUSH2 0x1C11 PUSH2 0x118 DUP1 SWAP4 PUSH2 0x2C64 JUMP JUMPDEST PUSH2 0x2710 GT PUSH2 0x1C87 JUMPI POP PUSH2 0x2710 PUSH2 0x1C11 PUSH2 0x15E DUP1 SWAP4 PUSH2 0x2C64 JUMP JUMPDEST ISZERO PUSH2 0x1CA0 JUMPI PUSH2 0x2710 PUSH2 0x1C11 PUSH2 0xFFFF PUSH1 0xDC JUMPDEST AND DUP1 SWAP4 PUSH2 0x2C64 JUMP JUMPDEST PUSH2 0x2710 PUSH2 0x1C11 PUSH2 0xFFFF PUSH2 0x1B8 PUSH2 0x1C98 JUMP JUMPDEST CALLVALUE PUSH2 0x331 JUMPI PUSH1 0x0 CALLDATASIZE PUSH1 0x3 NOT ADD SLT PUSH2 0x331 JUMPI PUSH1 0x20 PUSH1 0xFF PUSH1 0x1 SLOAD AND PUSH1 0x40 MLOAD SWAP1 ISZERO ISZERO DUP2 MSTORE RETURN JUMPDEST CALLVALUE PUSH2 0x331 JUMPI PUSH1 0x20 CALLDATASIZE PUSH1 0x3 NOT ADD SLT PUSH2 0x331 JUMPI PUSH2 0x120 PUSH2 0x1CF0 PUSH2 0x292C JUMP JUMPDEST PUSH1 0x40 MLOAD SWAP1 PUSH2 0x1CFD DUP3 PUSH2 0x2CBC JUMP JUMPDEST PUSH1 0x0 DUP3 MSTORE PUSH1 0x0 PUSH1 0x20 DUP4 ADD MSTORE PUSH1 0x0 PUSH1 0x40 DUP4 ADD MSTORE PUSH1 0x0 PUSH1 0x60 DUP4 ADD MSTORE PUSH1 0x0 PUSH1 0x80 DUP4 ADD MSTORE PUSH1 0x0 PUSH1 0xA0 DUP4 ADD MSTORE PUSH1 0x0 PUSH1 0xC0 DUP4 ADD MSTORE PUSH1 0x0 PUSH1 0xE0 DUP4 ADD MSTORE PUSH1 0x0 PUSH2 0x100 DUP1 SWAP4 ADD MSTORE PUSH1 0x1 DUP1 PUSH1 0xA0 SHL SUB AND PUSH1 0x0 MSTORE PUSH1 0x4 PUSH1 0x20 MSTORE PUSH1 0x40 PUSH1 0x0 KECCAK256 SWAP1 PUSH1 0x40 MLOAD SWAP2 PUSH2 0x1D5E DUP4 PUSH2 0x2CBC JUMP JUMPDEST DUP1 SLOAD DUP4 MSTORE PUSH1 0x1 DUP2 ADD SLOAD PUSH1 0x20 DUP5 ADD SWAP1 DUP2 MSTORE PUSH1 0x2 DUP3 ADD SLOAD SWAP2 PUSH1 0x40 DUP6 ADD SWAP3 DUP4 MSTORE PUSH1 0x3 DUP2 ADD SLOAD PUSH1 0x60 DUP7 ADD SWAP1 DUP2 MSTORE PUSH1 0x4 DUP3 ADD SLOAD PUSH1 0x80 DUP8 ADD SWAP1 DUP2 MSTORE PUSH1 0x5 DUP4 ADD SLOAD SWAP2 PUSH1 0xA0 DUP9 ADD SWAP3 DUP4 MSTORE PUSH1 0x7 PUSH1 0x6 DUP6 ADD SLOAD SWAP5 PUSH1 0xC0 DUP11 ADD SWAP6 DUP7 MSTORE ADD SLOAD SWAP6 PUSH1 0xFF DUP8 AND SWAP6 PUSH1 0xE0 DUP11 ADD SWAP7 PUSH2 0x1DC5 DUP2 PUSH2 0x2987 JUMP JUMPDEST DUP8 MSTORE PUSH1 0xFF DUP10 DUP12 ADD SWAP9 PUSH1 0x8 SHR AND ISZERO ISZERO DUP9 MSTORE PUSH1 0x40 MLOAD SWAP10 MLOAD DUP11 MSTORE MLOAD PUSH1 0x20 DUP11 ADD MSTORE MLOAD PUSH1 0x40 DUP10 ADD MSTORE MLOAD PUSH1 0x60 DUP9 ADD MSTORE MLOAD PUSH1 0x80 DUP8 ADD MSTORE MLOAD PUSH1 0xA0 DUP7 ADD MSTORE MLOAD PUSH1 0xC0 DUP6 ADD MSTORE MLOAD PUSH2 0x1E0A DUP2 PUSH2 0x2987 JUMP JUMPDEST PUSH1 0xE0 DUP5 ADD MSTORE MLOAD ISZERO ISZERO SWAP1 DUP3 ADD MSTORE RETURN JUMPDEST CALLVALUE PUSH2 0x331 JUMPI PUSH1 0x20 CALLDATASIZE PUSH1 0x3 NOT ADD SLT PUSH2 0x331 JUMPI PUSH1 0x4 CALLDATALOAD PUSH2 0x1E34 PUSH2 0x2D89 JUMP JUMPDEST PUSH2 0x1E3C PUSH2 0x2D6B JUMP JUMPDEST DUP1 PUSH1 0x0 MSTORE PUSH1 0x3 PUSH1 0x20 MSTORE PUSH1 0x40 PUSH1 0x0 KECCAK256 PUSH1 0xFF PUSH1 0x6 DUP3 ADD SLOAD AND PUSH2 0x1E5B DUP2 PUSH2 0x2958 JUMP JUMPDEST PUSH1 0x4 DUP2 EQ ISZERO SWAP1 DUP2 PUSH2 0x1F03 JUMPI JUMPDEST POP PUSH2 0x65F JUMPI PUSH1 0xB DUP2 ADD SLOAD TIMESTAMP LT PUSH2 0x1EEE JUMPI DUP1 SLOAD CALLER PUSH1 0x1 PUSH1 0x1 PUSH1 0xA0 SHL SUB SWAP2 DUP3 AND EQ ISZERO SWAP2 DUP3 PUSH2 0x1EDC JUMPI JUMPDEST POP POP DUP1 PUSH2 0x1EA3 JUMPI JUMPDEST PUSH2 0x115F JUMPI PUSH2 0x658 SWAP1 PUSH2 0x2FAB JUMP JUMPDEST POP CALLER PUSH1 0x0 SWAP1 DUP2 MSTORE PUSH32 0xE5EBFA64FCA8D502A8E50C1EDFFD2C31EF4DAD5B396E65D9F397FB028F74ABC5 PUSH1 0x20 MSTORE PUSH1 0x40 SWAP1 KECCAK256 SLOAD PUSH1 0xFF AND ISZERO PUSH2 0x1E96 JUMP JUMPDEST PUSH1 0x1 SWAP2 SWAP3 POP ADD SLOAD AND CALLER EQ ISZERO DUP3 DUP1 PUSH2 0x1E8E JUMP JUMPDEST PUSH1 0x40 MLOAD PUSH1 0x1 PUSH3 0xA6D887 PUSH1 0xE0 SHL SUB NOT DUP2 MSTORE PUSH1 0x4 SWAP1 REVERT JUMPDEST PUSH1 0x5 SWAP2 POP PUSH2 0x1F10 DUP2 PUSH2 0x2958 JUMP JUMPDEST EQ ISZERO DUP4 PUSH2 0x1E67 JUMP JUMPDEST CALLVALUE PUSH2 0x331 JUMPI PUSH1 0x20 CALLDATASIZE PUSH1 0x3 NOT ADD SLT PUSH2 0x331 JUMPI PUSH1 0x4 CALLDATALOAD PUSH2 0x1F34 PUSH2 0x2D89 JUMP JUMPDEST PUSH2 0x1F3C PUSH2 0x2D6B JUMP JUMPDEST DUP1 PUSH1 0x0 MSTORE PUSH1 0x3 PUSH1 0x20 MSTORE PUSH1 0x40 PUSH1 0x0 KECCAK256 PUSH1 0xFF PUSH1 0x6 DUP3 ADD SLOAD AND PUSH2 0x1F5B DUP2 PUSH2 0x2958 JUMP JUMPDEST PUSH1 0x4 DUP2 EQ ISZERO SWAP1 DUP2 PUSH2 0x1F7F JUMPI JUMPDEST POP PUSH2 0x65F JUMPI PUSH1 0xB ADD SLOAD TIMESTAMP LT PUSH2 0x1EEE JUMPI PUSH2 0x658 SWAP1 PUSH2 0x2FAB JUMP JUMPDEST PUSH1 0x5 SWAP2 POP PUSH2 0x1F8C DUP2 PUSH2 0x2958 JUMP JUMPDEST EQ ISZERO DUP4 PUSH2 0x1F67 JUMP JUMPDEST CALLVALUE PUSH2 0x331 JUMPI PUSH1 0x0 CALLDATASIZE PUSH1 0x3 NOT ADD SLT PUSH2 0x331 JUMPI PUSH2 0x1FAD PUSH2 0x2991 JUMP JUMPDEST PUSH2 0x1FB5 PUSH2 0x38EA JUMP JUMPDEST PUSH1 0xFF NOT PUSH1 0x1 SLOAD AND PUSH1 0x1 SSTORE PUSH32 0x5DB9EE0A495BF2E6FF9C91A7834C1BA4FDD244A5E8AA4E537BD38AEAE4B073AA PUSH1 0x20 PUSH1 0x40 MLOAD CALLER DUP2 MSTORE LOG1 STOP JUMPDEST CALLVALUE PUSH2 0x331 JUMPI PUSH1 0x40 CALLDATASIZE PUSH1 0x3 NOT ADD SLT PUSH2 0x331 JUMPI PUSH2 0x2004 PUSH2 0x2942 JUMP JUMPDEST CALLER PUSH1 0x1 PUSH1 0x1 PUSH1 0xA0 SHL SUB DUP3 AND SUB PUSH2 0x2020 JUMPI PUSH2 0x1B SWAP1 PUSH1 0x4 CALLDATALOAD PUSH2 0x2BED JUMP JUMPDEST PUSH1 0x40 MLOAD PUSH4 0x334BD919 PUSH1 0xE1 SHL DUP2 MSTORE PUSH1 0x4 SWAP1 REVERT JUMPDEST CALLVALUE PUSH2 0x331 JUMPI PUSH1 0x40 CALLDATASIZE PUSH1 0x3 NOT ADD SLT PUSH2 0x331 JUMPI PUSH1 0x4 CALLDATALOAD PUSH2 0x204E PUSH2 0x2978 JUMP JUMPDEST CALLER PUSH1 0x0 SWAP1 DUP2 MSTORE PUSH32 0x824854FCE2B26A685510A23E94CE095A99E4D883AF92F3BAD8A69B2ED000BE41 PUSH1 0x20 MSTORE PUSH1 0x40 SWAP1 KECCAK256 SLOAD PUSH32 0x16CEEE8289685DD2A02B9C8AE81D2DF373176CE53519E6284E2A2950D6546FFA SWAP1 PUSH1 0xFF AND ISZERO PUSH2 0x214C JUMPI POP PUSH2 0x20B0 PUSH2 0x2D89 JUMP JUMPDEST DUP2 PUSH1 0x0 MSTORE PUSH1 0x3 PUSH1 0x20 MSTORE PUSH1 0x40 PUSH1 0x0 KECCAK256 PUSH1 0x7 PUSH1 0xFF PUSH1 0x6 DUP4 ADD SLOAD AND PUSH2 0x20D1 DUP2 PUSH2 0x2958 JUMP JUMPDEST SUB PUSH2 0x65F JUMPI DUP2 DUP1 PUSH1 0x40 SWAP3 PUSH32 0xE4869990DF273A675DF63CD0ACF961E8CAC9E8C47748A9D71C02C21E510E850C SWAP5 SWAP2 PUSH2 0x2135 JUMPI JUMPDEST POP ISZERO PUSH2 0x2127 JUMPI PUSH2 0x2112 DUP5 PUSH2 0x2FAB JUMP JUMPDEST DUP2 MLOAD SWAP1 ISZERO ISZERO DUP2 MSTORE CALLER PUSH1 0x20 DUP3 ADD MSTORE LOG2 PUSH1 0x1 PUSH1 0x0 SSTORE STOP JUMPDEST PUSH2 0x2130 DUP5 PUSH2 0x319C JUMP JUMPDEST PUSH2 0x2112 JUMP JUMPDEST PUSH1 0x1 ADD SLOAD PUSH1 0x1 PUSH1 0x1 PUSH1 0xA0 SHL SUB AND ISZERO ISZERO SWAP1 POP DUP6 PUSH2 0x2103 JUMP JUMPDEST PUSH1 0x44 SWAP1 PUSH1 0x40 MLOAD SWAP1 PUSH4 0xE2517D3F PUSH1 0xE0 SHL DUP3 MSTORE CALLER PUSH1 0x4 DUP4 ADD MSTORE PUSH1 0x24 DUP3 ADD MSTORE REVERT JUMPDEST CALLVALUE PUSH2 0x331 JUMPI PUSH1 0x40 CALLDATASIZE PUSH1 0x3 NOT ADD SLT PUSH2 0x331 JUMPI PUSH2 0x1B PUSH1 0x4 CALLDATALOAD PUSH2 0x2189 PUSH2 0x2942 JUMP JUMPDEST SWAP1 DUP1 PUSH1 0x0 MSTORE PUSH1 0x2 PUSH1 0x20 MSTORE PUSH2 0x21A4 PUSH1 0x1 PUSH1 0x40 PUSH1 0x0 KECCAK256 ADD SLOAD PUSH2 0x29ED JUMP JUMPDEST PUSH2 0x2AC6 JUMP JUMPDEST CALLVALUE PUSH2 0x331 JUMPI PUSH1 0x40 CALLDATASIZE PUSH1 0x3 NOT ADD SLT PUSH2 0x331 JUMPI PUSH2 0x21C2 PUSH2 0x292C JUMP JUMPDEST PUSH1 0x24 CALLDATALOAD SWAP1 PUSH1 0x4 DUP3 LT ISZERO PUSH2 0x331 JUMPI PUSH1 0x20 PUSH32 0x506EC58EF84FDEF2D0F37BE02D5A6BFCE019136479212ED8425B4D4910FCB5DE SWAP2 PUSH2 0x21FB PUSH2 0x2991 JUMP JUMPDEST PUSH1 0x1 PUSH1 0x1 PUSH1 0xA0 SHL SUB AND PUSH1 0x0 DUP2 DUP2 MSTORE PUSH1 0x4 DUP4 MSTORE PUSH1 0x40 SWAP1 KECCAK256 SWAP1 SWAP4 SWAP1 PUSH1 0x7 ADD PUSH2 0x2220 DUP3 PUSH2 0x2987 JUMP JUMPDEST PUSH1 0xFF NOT DUP2 SLOAD AND PUSH1 0xFF DUP4 AND OR SWAP1 SSTORE PUSH1 0x40 MLOAD SWAP1 PUSH2 0x223A DUP2 PUSH2 0x2987 JUMP JUMPDEST DUP2 MSTORE LOG2 STOP JUMPDEST CALLVALUE PUSH2 0x331 JUMPI PUSH1 0x20 CALLDATASIZE PUSH1 0x3 NOT ADD SLT PUSH2 0x331 JUMPI PUSH1 0x4 CALLDATALOAD PUSH1 0x0 MSTORE PUSH1 0x3 PUSH1 0x20 MSTORE PUSH1 0x40 PUSH1 0x0 KECCAK256 PUSH1 0x1 PUSH1 0xA0 SHL PUSH1 0x1 SWAP1 SUB DUP1 DUP3 SLOAD AND SWAP2 DUP2 PUSH1 0x1 DUP3 ADD SLOAD AND SWAP2 PUSH1 0x2 DUP3 ADD SLOAD AND PUSH1 0x3 DUP3 ADD SLOAD PUSH1 0x4 DUP4 ADD SLOAD PUSH1 0x5 DUP5 ADD SLOAD PUSH1 0x6 DUP6 ADD SLOAD PUSH1 0x7 DUP7 ADD SLOAD SWAP1 PUSH1 0x8 DUP8 ADD SLOAD SWAP3 PUSH1 0x9 DUP9 ADD SLOAD SWAP5 PUSH1 0xA DUP10 ADD SLOAD SWAP7 PUSH1 0xB DUP11 ADD SLOAD SWAP9 PUSH1 0xC DUP12 ADD SLOAD SWAP11 PUSH1 0xD ADD SLOAD SWAP12 PUSH1 0x40 MLOAD DUP1 SWAP15 DUP2 MSTORE PUSH1 0x20 ADD MSTORE PUSH1 0x40 DUP14 ADD MSTORE PUSH1 0x60 DUP13 ADD MSTORE PUSH1 0x80 DUP12 ADD MSTORE PUSH1 0xA0 DUP11 ADD MSTORE PUSH1 0xFF DUP2 AND PUSH2 0x22E5 DUP2 PUSH2 0x2958 JUMP JUMPDEST PUSH1 0xC0 DUP11 ADD MSTORE DUP1 PUSH1 0x8 SHR PUSH1 0xFF AND PUSH2 0x22FA DUP2 PUSH2 0x2958 JUMP JUMPDEST PUSH1 0xE0 DUP11 ADD MSTORE DUP1 PUSH1 0x10 SHR PUSH1 0xFF AND ISZERO ISZERO PUSH2 0x100 DUP11 ADD MSTORE DUP1 PUSH1 0x18 SHR PUSH1 0xFF AND ISZERO ISZERO PUSH2 0x120 DUP11 ADD MSTORE PUSH1 0x20 SHR PUSH1 0xFF AND ISZERO ISZERO PUSH2 0x140 DUP10 ADD MSTORE PUSH2 0x160 DUP9 ADD MSTORE PUSH2 0x180 DUP8 ADD MSTORE PUSH2 0x1A0 DUP7 ADD MSTORE PUSH2 0x1C0 DUP6 ADD MSTORE PUSH2 0x1E0 DUP5 ADD MSTORE PUSH2 0x200 DUP4 ADD MSTORE PUSH2 0x220 DUP3 ADD MSTORE PUSH2 0x240 SWAP1 RETURN JUMPDEST CALLVALUE PUSH2 0x331 JUMPI PUSH1 0x20 CALLDATASIZE PUSH1 0x3 NOT ADD SLT PUSH2 0x331 JUMPI PUSH1 0x4 CALLDATALOAD PUSH1 0x0 MSTORE PUSH1 0x2 PUSH1 0x20 MSTORE PUSH1 0x20 PUSH1 0x1 PUSH1 0x40 PUSH1 0x0 KECCAK256 ADD SLOAD PUSH1 0x40 MLOAD SWAP1 DUP2 MSTORE RETURN JUMPDEST CALLVALUE PUSH2 0x331 JUMPI PUSH1 0x20 CALLDATASIZE PUSH1 0x3 NOT ADD SLT PUSH2 0x331 JUMPI PUSH1 0x4 CALLDATALOAD PUSH2 0x23A6 PUSH2 0x2D89 JUMP JUMPDEST PUSH2 0x23AE PUSH2 0x2D6B JUMP JUMPDEST PUSH1 0x0 DUP2 DUP2 MSTORE PUSH1 0x3 PUSH1 0x20 MSTORE PUSH1 0x40 SWAP1 KECCAK256 DUP1 SLOAD PUSH1 0x1 PUSH1 0x1 PUSH1 0xA0 SHL SUB SWAP1 DUP2 AND SWAP2 DUP3 ISZERO PUSH2 0x2473 JUMPI PUSH1 0x6 DUP2 ADD SWAP3 PUSH1 0x1 PUSH1 0xFF DUP6 SLOAD AND PUSH2 0x23E5 DUP2 PUSH2 0x2958 JUMP JUMPDEST SUB PUSH2 0x65F JUMPI PUSH1 0x1 DUP3 ADD SWAP3 DUP4 SLOAD AND PUSH2 0x125F JUMPI CALLER EQ PUSH2 0x115F JUMPI PUSH1 0xC DUP2 ADD SLOAD TIMESTAMP LT ISZERO PUSH2 0x2461 JUMPI PUSH1 0x5 PUSH2 0x2416 SWAP2 ADD SLOAD CALLER PUSH2 0x32A4 JUMP JUMPDEST CALLER PUSH1 0x1 PUSH1 0x1 PUSH1 0x60 SHL SUB PUSH1 0xA0 SHL DUP3 SLOAD AND OR SWAP1 SSTORE PUSH1 0x2 PUSH1 0xFF NOT DUP3 SLOAD AND OR SWAP1 SSTORE CALLER SWAP1 PUSH32 0xB32DA9354607796544422F364CA1AEC8A7B6E85FDB196E204BF0ED62CB620AE PUSH1 0x0 DUP1 LOG3 PUSH1 0x1 PUSH1 0x0 SSTORE STOP JUMPDEST PUSH1 0x40 MLOAD PUSH4 0x1390DF29 PUSH1 0xE0 SHL DUP2 MSTORE PUSH1 0x4 SWAP1 REVERT JUMPDEST PUSH1 0x40 MLOAD PUSH4 0xCF897CFB PUSH1 0xE0 SHL DUP2 MSTORE PUSH1 0x4 SWAP1 REVERT JUMPDEST CALLVALUE PUSH2 0x331 JUMPI PUSH1 0x20 DUP1 PUSH1 0x3 NOT CALLDATASIZE ADD SLT PUSH2 0x331 JUMPI PUSH2 0x249F PUSH2 0x292C JUMP JUMPDEST PUSH2 0x24A7 PUSH2 0x2991 JUMP JUMPDEST PUSH2 0x24AF PUSH2 0x38EA JUMP JUMPDEST PUSH1 0x1 PUSH1 0x1 PUSH1 0xA0 SHL SUB SWAP1 DUP2 AND DUP1 ISZERO PUSH2 0x540 JUMPI PUSH1 0x0 PUSH1 0x1 PUSH1 0xB SLOAD SWAP1 JUMPDEST DUP2 DUP2 GT ISZERO PUSH2 0x2590 JUMPI POP POP PUSH1 0x40 MLOAD PUSH4 0x70A08231 PUSH1 0xE0 SHL DUP2 MSTORE ADDRESS PUSH1 0x4 DUP3 ADD MSTORE SWAP1 DUP5 DUP3 PUSH1 0x24 DUP2 DUP7 GAS STATICCALL DUP1 ISZERO PUSH2 0x2584 JUMPI PUSH1 0x0 SWAP1 PUSH2 0x2555 JUMPI JUMPDEST PUSH2 0x2507 SWAP3 POP PUSH2 0x2C77 JUMP JUMPDEST SWAP2 DUP3 ISZERO PUSH2 0x251D JUMPI PUSH2 0x1B SWAP4 POP PUSH1 0xC SLOAD AND SWAP1 PUSH2 0x315C JUMP JUMPDEST PUSH1 0x40 MLOAD PUSH3 0x461BCD PUSH1 0xE5 SHL DUP2 MSTORE PUSH1 0x4 DUP2 ADD DUP6 SWAP1 MSTORE PUSH1 0x10 PUSH1 0x24 DUP3 ADD MSTORE PUSH16 0x4E6F2065786365737320746F6B656E73 PUSH1 0x80 SHL PUSH1 0x44 DUP3 ADD MSTORE PUSH1 0x64 SWAP1 REVERT JUMPDEST POP DUP5 DUP3 DUP2 RETURNDATASIZE DUP4 GT PUSH2 0x257D JUMPI JUMPDEST PUSH2 0x256B DUP2 DUP4 PUSH2 0x2D12 JUMP JUMPDEST DUP2 ADD SUB SLT PUSH2 0x331 JUMPI PUSH2 0x2507 SWAP2 MLOAD PUSH2 0x24FD JUMP JUMPDEST POP RETURNDATASIZE PUSH2 0x2561 JUMP JUMPDEST PUSH1 0x40 MLOAD RETURNDATASIZE PUSH1 0x0 DUP3 RETURNDATACOPY RETURNDATASIZE SWAP1 REVERT JUMPDEST DUP1 PUSH1 0x0 MSTORE PUSH1 0x3 DUP1 DUP8 MSTORE PUSH1 0x40 PUSH1 0x0 KECCAK256 SWAP1 DUP6 DUP8 PUSH1 0x2 DUP5 ADD SLOAD AND EQ DUP1 PUSH2 0x262E JUMPI JUMPDEST DUP1 PUSH2 0x2613 JUMPI JUMPDEST DUP1 PUSH2 0x25F8 JUMPI JUMPDEST PUSH2 0x25CF JUMPI JUMPDEST POP POP PUSH2 0x25CA SWAP1 PUSH2 0x2C84 JUMP JUMPDEST PUSH2 0x24C9 JUMP JUMPDEST SWAP4 PUSH2 0x25EA DUP3 PUSH1 0x4 PUSH2 0x25CA SWAP6 SWAP8 PUSH2 0x25F0 SWAP6 ADD SLOAD SWAP2 ADD SLOAD SWAP1 PUSH2 0x2C93 JUMP JUMPDEST SWAP1 PUSH2 0x2C93 JUMP JUMPDEST SWAP3 SWAP1 DUP8 PUSH2 0x25BF JUMP JUMPDEST POP PUSH1 0x9 PUSH1 0xFF PUSH1 0x6 DUP5 ADD SLOAD AND PUSH2 0x260C DUP2 PUSH2 0x2958 JUMP JUMPDEST EQ ISZERO PUSH2 0x25BA JUMP JUMPDEST POP PUSH1 0x8 PUSH1 0xFF PUSH1 0x6 DUP5 ADD SLOAD AND PUSH2 0x2627 DUP2 PUSH2 0x2958 JUMP JUMPDEST EQ ISZERO PUSH2 0x25B4 JUMP JUMPDEST POP PUSH1 0x6 PUSH1 0xFF DUP2 DUP5 ADD SLOAD AND PUSH2 0x2641 DUP2 PUSH2 0x2958 JUMP JUMPDEST EQ ISZERO PUSH2 0x25AE JUMP JUMPDEST CALLVALUE PUSH2 0x331 JUMPI PUSH1 0xA0 CALLDATASIZE PUSH1 0x3 NOT ADD SLT PUSH2 0x331 JUMPI PUSH1 0x4 CALLDATALOAD PUSH1 0x4 DUP2 LT ISZERO PUSH2 0x331 JUMPI PUSH2 0x266D PUSH2 0x2991 JUMP JUMPDEST PUSH1 0x3 PUSH1 0x40 MLOAD SWAP2 PUSH2 0x267C DUP4 PUSH2 0x2CA0 JUMP JUMPDEST PUSH1 0x24 CALLDATALOAD DUP4 MSTORE PUSH1 0x20 DUP4 ADD PUSH1 0x44 CALLDATALOAD DUP2 MSTORE PUSH1 0x40 DUP5 ADD SWAP1 PUSH1 0x64 CALLDATALOAD DUP3 MSTORE PUSH1 0x60 DUP6 ADD SWAP3 PUSH1 0x84 CALLDATALOAD DUP5 MSTORE PUSH2 0x26A7 DUP2 PUSH2 0x2987 JUMP JUMPDEST PUSH1 0x0 MSTORE PUSH1 0x8 PUSH1 0x20 MSTORE PUSH1 0x40 PUSH1 0x0 KECCAK256 SWAP5 MLOAD DUP6 SSTORE MLOAD PUSH1 0x1 DUP6 ADD SSTORE MLOAD PUSH1 0x2 DUP5 ADD SSTORE MLOAD SWAP2 ADD SSTORE PUSH1 0x0 DUP1 RETURN JUMPDEST CALLVALUE PUSH2 0x331 JUMPI PUSH1 0x0 CALLDATASIZE PUSH1 0x3 NOT ADD SLT PUSH2 0x331 JUMPI PUSH2 0x26E6 PUSH2 0x2991 JUMP JUMPDEST PUSH2 0x26EE PUSH2 0x38EA JUMP JUMPDEST PUSH1 0x0 PUSH1 0x1 PUSH1 0xB SLOAD SWAP1 JUMPDEST DUP2 DUP2 GT ISZERO PUSH2 0x27A2 JUMPI PUSH2 0x2709 DUP4 SELFBALANCE PUSH2 0x2C77 JUMP JUMPDEST DUP1 ISZERO PUSH2 0x276B JUMPI PUSH1 0xC SLOAD PUSH1 0x0 SWAP2 DUP3 SWAP2 DUP3 SWAP2 DUP3 SWAP2 PUSH1 0x1 PUSH1 0x1 PUSH1 0xA0 SHL SUB AND GAS CALL PUSH2 0x272E PUSH2 0x2F7B JUMP JUMPDEST POP ISZERO PUSH2 0x2736 JUMPI STOP JUMPDEST PUSH1 0x40 MLOAD PUSH3 0x461BCD PUSH1 0xE5 SHL DUP2 MSTORE PUSH1 0x20 PUSH1 0x4 DUP3 ADD MSTORE PUSH1 0xD PUSH1 0x24 DUP3 ADD MSTORE PUSH13 0x14995CD8DD594819985A5B1959 PUSH1 0x9A SHL PUSH1 0x44 DUP3 ADD MSTORE PUSH1 0x64 SWAP1 REVERT JUMPDEST PUSH1 0x40 MLOAD PUSH3 0x461BCD PUSH1 0xE5 SHL DUP2 MSTORE PUSH1 0x20 PUSH1 0x4 DUP3 ADD MSTORE PUSH1 0xF PUSH1 0x24 DUP3 ADD MSTORE PUSH15 0x4E6F206578636573732066756E6473 PUSH1 0x88 SHL PUSH1 0x44 DUP3 ADD MSTORE PUSH1 0x64 SWAP1 REVERT JUMPDEST DUP1 PUSH1 0x0 MSTORE PUSH1 0x3 DUP1 PUSH1 0x20 MSTORE PUSH1 0x40 PUSH1 0x0 KECCAK256 SWAP1 PUSH1 0x1 DUP1 PUSH1 0xA0 SHL SUB PUSH1 0x2 DUP4 ADD SLOAD AND ISZERO DUP1 PUSH2 0x2840 JUMPI JUMPDEST DUP1 PUSH2 0x2825 JUMPI JUMPDEST DUP1 PUSH2 0x280A JUMPI JUMPDEST PUSH2 0x27E7 JUMPI JUMPDEST POP POP PUSH2 0x27E2 SWAP1 PUSH2 0x2C84 JUMP JUMPDEST PUSH2 0x26F7 JUMP JUMPDEST SWAP4 PUSH2 0x25EA DUP3 PUSH1 0x4 PUSH2 0x27E2 SWAP6 SWAP8 PUSH2 0x2802 SWAP6 ADD SLOAD SWAP2 ADD SLOAD SWAP1 PUSH2 0x2C93 JUMP JUMPDEST SWAP3 SWAP1 DUP5 PUSH2 0x27D7 JUMP JUMPDEST POP PUSH1 0x9 PUSH1 0xFF PUSH1 0x6 DUP5 ADD SLOAD AND PUSH2 0x281E DUP2 PUSH2 0x2958 JUMP JUMPDEST EQ ISZERO PUSH2 0x27D2 JUMP JUMPDEST POP PUSH1 0x8 PUSH1 0xFF PUSH1 0x6 DUP5 ADD SLOAD AND PUSH2 0x2839 DUP2 PUSH2 0x2958 JUMP JUMPDEST EQ ISZERO PUSH2 0x27CC JUMP JUMPDEST POP PUSH1 0x6 PUSH1 0xFF DUP2 DUP5 ADD SLOAD AND PUSH2 0x2853 DUP2 PUSH2 0x2958 JUMP JUMPDEST EQ ISZERO PUSH2 0x27C6 JUMP JUMPDEST CALLVALUE PUSH2 0x331 JUMPI PUSH1 0x0 CALLDATASIZE PUSH1 0x3 NOT ADD SLT PUSH2 0x331 JUMPI PUSH1 0x20 PUSH1 0x40 MLOAD PUSH32 0x68E79A7BF1E0BC45D0A330C573BC367F9CF464FD326078812F301165FBDA4EF1 DUP2 MSTORE RETURN JUMPDEST CALLVALUE PUSH2 0x331 JUMPI PUSH1 0x40 CALLDATASIZE PUSH1 0x3 NOT ADD SLT PUSH2 0x331 JUMPI PUSH1 0x4 CALLDATALOAD PUSH1 0xA DUP2 LT ISZERO PUSH2 0x331 JUMPI PUSH2 0x28BA PUSH2 0x2991 JUMP JUMPDEST PUSH2 0x28C3 DUP2 PUSH2 0x2958 JUMP JUMPDEST PUSH1 0x0 MSTORE PUSH1 0x9 PUSH1 0x20 MSTORE PUSH1 0x24 CALLDATALOAD PUSH1 0x40 PUSH1 0x0 KECCAK256 SSTORE PUSH1 0x0 DUP1 RETURN JUMPDEST CALLVALUE PUSH2 0x331 JUMPI PUSH1 0x20 CALLDATASIZE PUSH1 0x3 NOT ADD SLT PUSH2 0x331 JUMPI PUSH1 0x4 CALLDATALOAD SWAP1 PUSH4 0xFFFFFFFF PUSH1 0xE0 SHL DUP3 AND DUP1 SWAP3 SUB PUSH2 0x331 JUMPI PUSH1 0x20 SWAP2 PUSH4 0x7965DB0B PUSH1 0xE0 SHL DUP2 EQ SWAP1 DUP2 ISZERO PUSH2 0x291B JUMPI JUMPDEST POP ISZERO ISZERO DUP2 MSTORE RETURN JUMPDEST PUSH4 0x1FFC9A7 PUSH1 0xE0 SHL EQ SWAP1 POP DUP4 PUSH2 0x2914 JUMP JUMPDEST PUSH1 0x4 CALLDATALOAD SWAP1 PUSH1 0x1 PUSH1 0x1 PUSH1 0xA0 SHL SUB DUP3 AND DUP3 SUB PUSH2 0x331 JUMPI JUMP JUMPDEST PUSH1 0x24 CALLDATALOAD SWAP1 PUSH1 0x1 PUSH1 0x1 PUSH1 0xA0 SHL SUB DUP3 AND DUP3 SUB PUSH2 0x331 JUMPI JUMP JUMPDEST PUSH1 0xA GT ISZERO PUSH2 0x2962 JUMPI JUMP JUMPDEST PUSH4 0x4E487B71 PUSH1 0xE0 SHL PUSH1 0x0 MSTORE PUSH1 0x21 PUSH1 0x4 MSTORE PUSH1 0x24 PUSH1 0x0 REVERT JUMPDEST PUSH1 0x24 CALLDATALOAD SWAP1 DUP2 ISZERO ISZERO DUP3 SUB PUSH2 0x331 JUMPI JUMP JUMPDEST PUSH1 0x4 GT ISZERO PUSH2 0x2962 JUMPI JUMP JUMPDEST CALLER PUSH1 0x0 SWAP1 DUP2 MSTORE PUSH32 0xE5EBFA64FCA8D502A8E50C1EDFFD2C31EF4DAD5B396E65D9F397FB028F74ABC5 PUSH1 0x20 MSTORE PUSH1 0x40 SWAP1 KECCAK256 SLOAD PUSH32 0xA49807205CE4D355092EF5A8A18F56E8913CF4A201FBE287825B095693C21775 SWAP1 PUSH1 0xFF AND ISZERO PUSH2 0x214C JUMPI POP JUMP JUMPDEST DUP1 PUSH1 0x0 MSTORE PUSH1 0x2 PUSH1 0x20 MSTORE PUSH1 0x40 PUSH1 0x0 KECCAK256 CALLER PUSH1 0x0 MSTORE PUSH1 0x20 MSTORE PUSH1 0xFF PUSH1 0x40 PUSH1 0x0 KECCAK256 SLOAD AND ISZERO PUSH2 0x214C JUMPI POP JUMP JUMPDEST PUSH1 0x1 PUSH1 0x1 PUSH1 0xA0 SHL SUB AND PUSH1 0x0 DUP2 DUP2 MSTORE PUSH32 0x4C5DD14CC36AC74DF3F3035FA8453EBDBC47C888EB74D355B623B33097C65A4B PUSH1 0x20 MSTORE PUSH1 0x40 DUP2 KECCAK256 SLOAD SWAP1 SWAP2 SWAP1 PUSH32 0x68E79A7BF1E0BC45D0A330C573BC367F9CF464FD326078812F301165FBDA4EF1 SWAP1 PUSH1 0xFF AND PUSH2 0x2AC1 JUMPI DUP1 DUP4 MSTORE PUSH1 0x2 PUSH1 0x20 MSTORE PUSH1 0x40 DUP4 KECCAK256 DUP3 DUP5 MSTORE PUSH1 0x20 MSTORE PUSH1 0x40 DUP4 KECCAK256 PUSH1 0x1 PUSH1 0xFF NOT DUP3 SLOAD AND OR SWAP1 SSTORE PUSH32 0x2F8788117E7EFF1D82E926EC794901D17C78024A50270940304540A733656F0D CALLER SWAP4 DUP1 LOG4 PUSH1 0x1 SWAP1 JUMP JUMPDEST POP POP SWAP1 JUMP JUMPDEST SWAP1 PUSH1 0x0 SWAP2 DUP1 DUP4 MSTORE PUSH1 0x2 PUSH1 0x20 MSTORE PUSH1 0x40 DUP4 KECCAK256 SWAP2 PUSH1 0x1 DUP1 PUSH1 0xA0 SHL SUB AND SWAP2 DUP3 DUP5 MSTORE PUSH1 0x20 MSTORE PUSH1 0xFF PUSH1 0x40 DUP5 KECCAK256 SLOAD AND ISZERO PUSH1 0x0 EQ PUSH2 0x2AC1 JUMPI DUP1 DUP4 MSTORE PUSH1 0x2 PUSH1 0x20 MSTORE PUSH1 0x40 DUP4 KECCAK256 DUP3 DUP5 MSTORE PUSH1 0x20 MSTORE PUSH1 0x40 DUP4 KECCAK256 PUSH1 0x1 PUSH1 0xFF NOT DUP3 SLOAD AND OR SWAP1 SSTORE PUSH32 0x2F8788117E7EFF1D82E926EC794901D17C78024A50270940304540A733656F0D CALLER SWAP4 DUP1 LOG4 PUSH1 0x1 SWAP1 JUMP JUMPDEST PUSH1 0x1 PUSH1 0x1 PUSH1 0xA0 SHL SUB AND PUSH1 0x0 DUP2 DUP2 MSTORE PUSH32 0x4C5DD14CC36AC74DF3F3035FA8453EBDBC47C888EB74D355B623B33097C65A4B PUSH1 0x20 MSTORE PUSH1 0x40 DUP2 KECCAK256 SLOAD SWAP1 SWAP2 SWAP1 PUSH32 0x68E79A7BF1E0BC45D0A330C573BC367F9CF464FD326078812F301165FBDA4EF1 SWAP1 PUSH1 0xFF AND ISZERO PUSH2 0x2AC1 JUMPI DUP1 DUP4 MSTORE PUSH1 0x2 PUSH1 0x20 MSTORE PUSH1 0x40 DUP4 KECCAK256 DUP3 DUP5 MSTORE PUSH1 0x20 MSTORE PUSH1 0x40 DUP4 KECCAK256 PUSH1 0xFF NOT DUP2 SLOAD AND SWAP1 SSTORE PUSH32 0xF6391F5C32D9C69D2A47EA670B442974B53935D1EDC7FD64EB21E047A839171B CALLER SWAP4 DUP1 LOG4 PUSH1 0x1 SWAP1 JUMP JUMPDEST SWAP1 PUSH1 0x0 SWAP2 DUP1 DUP4 MSTORE PUSH1 0x2 PUSH1 0x20 MSTORE PUSH1 0x40 DUP4 KECCAK256 SWAP2 PUSH1 0x1 DUP1 PUSH1 0xA0 SHL SUB AND SWAP2 DUP3 DUP5 MSTORE PUSH1 0x20 MSTORE PUSH1 0xFF PUSH1 0x40 DUP5 KECCAK256 SLOAD AND PUSH1 0x0 EQ PUSH2 0x2AC1 JUMPI DUP1 DUP4 MSTORE PUSH1 0x2 PUSH1 0x20 MSTORE PUSH1 0x40 DUP4 KECCAK256 DUP3 DUP5 MSTORE PUSH1 0x20 MSTORE PUSH1 0x40 DUP4 KECCAK256 PUSH1 0xFF NOT DUP2 SLOAD AND SWAP1 SSTORE PUSH32 0xF6391F5C32D9C69D2A47EA670B442974B53935D1EDC7FD64EB21E047A839171B CALLER SWAP4 DUP1 LOG4 PUSH1 0x1 SWAP1 JUMP JUMPDEST DUP2 DUP2 MUL SWAP3 SWAP2 DUP2 ISZERO SWAP2 DUP5 DIV EQ OR ISZERO PUSH2 0xF9F JUMPI JUMP JUMPDEST SWAP2 SWAP1 DUP3 SUB SWAP2 DUP3 GT PUSH2 0xF9F JUMPI JUMP JUMPDEST PUSH1 0x0 NOT DUP2 EQ PUSH2 0xF9F JUMPI PUSH1 0x1 ADD SWAP1 JUMP JUMPDEST SWAP2 SWAP1 DUP3 ADD DUP1 SWAP3 GT PUSH2 0xF9F JUMPI JUMP JUMPDEST PUSH1 0x80 DUP2 ADD SWAP1 DUP2 LT PUSH8 0xFFFFFFFFFFFFFFFF DUP3 GT OR PUSH2 0xFB5 JUMPI PUSH1 0x40 MSTORE JUMP JUMPDEST PUSH2 0x120 DUP2 ADD SWAP1 DUP2 LT PUSH8 0xFFFFFFFFFFFFFFFF DUP3 GT OR PUSH2 0xFB5 JUMPI PUSH1 0x40 MSTORE JUMP JUMPDEST PUSH2 0x240 DUP2 ADD SWAP1 DUP2 LT PUSH8 0xFFFFFFFFFFFFFFFF DUP3 GT OR PUSH2 0xFB5 JUMPI PUSH1 0x40 MSTORE JUMP JUMPDEST PUSH1 0x40 DUP2 ADD SWAP1 DUP2 LT PUSH8 0xFFFFFFFFFFFFFFFF DUP3 GT OR PUSH2 0xFB5 JUMPI PUSH1 0x40 MSTORE JUMP JUMPDEST SWAP1 PUSH1 0x1F DUP1 NOT SWAP2 ADD AND DUP2 ADD SWAP1 DUP2 LT PUSH8 0xFFFFFFFFFFFFFFFF DUP3 GT OR PUSH2 0xFB5 JUMPI PUSH1 0x40 MSTORE JUMP JUMPDEST SWAP1 PUSH2 0x2D3E DUP2 PUSH2 0x2958 JUMP JUMPDEST PUSH1 0xFF DUP1 NOT DUP4 SLOAD AND SWAP2 AND OR SWAP1 SSTORE JUMP JUMPDEST PUSH1 0x40 SWAP2 SWAP5 SWAP4 SWAP3 PUSH1 0x60 DUP3 ADD SWAP6 DUP3 MSTORE PUSH1 0x20 DUP3 ADD MSTORE PUSH2 0x2D67 DUP4 PUSH2 0x2958 JUMP JUMPDEST ADD MSTORE JUMP JUMPDEST PUSH1 0xFF PUSH1 0x1 SLOAD AND PUSH2 0x2D77 JUMPI JUMP JUMPDEST PUSH1 0x40 MLOAD PUSH4 0xD93C0665 PUSH1 0xE0 SHL DUP2 MSTORE PUSH1 0x4 SWAP1 REVERT JUMPDEST PUSH1 0x2 PUSH1 0x0 SLOAD EQ PUSH2 0x2D9A JUMPI PUSH1 0x2 PUSH1 0x0 SSTORE JUMP JUMPDEST PUSH1 0x40 MLOAD PUSH4 0x3EE5AEB5 PUSH1 0xE0 SHL DUP2 MSTORE PUSH1 0x4 SWAP1 REVERT JUMPDEST SWAP1 PUSH1 0x0 PUSH1 0x20 SWAP2 DUP3 DUP2 MLOAD SWAP2 ADD DUP3 DUP6 GAS CALL ISZERO PUSH2 0x2584 JUMPI PUSH1 0x0 MLOAD RETURNDATASIZE PUSH2 0x2DFF JUMPI POP PUSH1 0x1 PUSH1 0x1 PUSH1 0xA0 SHL SUB DUP2 AND EXTCODESIZE ISZERO JUMPDEST PUSH2 0x2DDD JUMPI POP JUMP JUMPDEST PUSH1 0x40 MLOAD PUSH4 0x5274AFE7 PUSH1 0xE0 SHL DUP2 MSTORE PUSH1 0x1 PUSH1 0x1 PUSH1 0xA0 SHL SUB SWAP1 SWAP2 AND PUSH1 0x4 DUP3 ADD MSTORE PUSH1 0x24 SWAP1 REVERT JUMPDEST PUSH1 0x1 EQ ISZERO PUSH2 0x2DD6 JUMP JUMPDEST PUSH8 0xFFFFFFFFFFFFFFFF DUP2 GT PUSH2 0xFB5 JUMPI PUSH1 0x1F ADD PUSH1 0x1F NOT AND PUSH1 0x20 ADD SWAP1 JUMP JUMPDEST DUP2 MLOAD SWAP2 SWAP1 PUSH1 0x41 DUP4 SUB PUSH2 0x2E55 JUMPI PUSH2 0x2E4E SWAP3 POP PUSH1 0x20 DUP3 ADD MLOAD SWAP1 PUSH1 0x60 PUSH1 0x40 DUP5 ADD MLOAD SWAP4 ADD MLOAD PUSH1 0x0 BYTE SWAP1 PUSH2 0x2E60 JUMP JUMPDEST SWAP2 SWAP3 SWAP1 SWAP2 SWAP1 JUMP JUMPDEST POP POP PUSH1 0x0 SWAP2 PUSH1 0x2 SWAP2 SWAP1 JUMP JUMPDEST SWAP2 SWAP1 PUSH32 0x7FFFFFFFFFFFFFFFFFFFFFFFFFFFFFFF5D576E7357A4501DDFE92F46681B20A0 DUP5 GT PUSH2 0x2EE4 JUMPI SWAP3 PUSH1 0x20 SWAP3 SWAP2 PUSH1 0xFF PUSH1 0x80 SWAP6 PUSH1 0x40 MLOAD SWAP5 DUP6 MSTORE AND DUP5 DUP5 ADD MSTORE PUSH1 0x40 DUP4 ADD MSTORE PUSH1 0x60 DUP3 ADD MSTORE PUSH1 0x0 SWAP3 DUP4 SWAP2 DUP3 DUP1 MSTORE PUSH1 0x1 GAS STATICCALL ISZERO PUSH2 0x2ED8 JUMPI DUP1 MLOAD PUSH1 0x1 PUSH1 0x1 PUSH1 0xA0 SHL SUB DUP2 AND ISZERO PUSH2 0x2ECF JUMPI SWAP2 DUP2 SWAP1 JUMP JUMPDEST POP DUP1 SWAP2 PUSH1 0x1 SWAP2 SWAP1 JUMP JUMPDEST PUSH1 0x40 MLOAD SWAP1 RETURNDATASIZE SWAP1 DUP3 RETURNDATACOPY RETURNDATASIZE SWAP1 REVERT JUMPDEST POP POP POP PUSH1 0x0 SWAP2 PUSH1 0x3 SWAP2 SWAP1 JUMP JUMPDEST PUSH2 0x2EF9 DUP2 PUSH2 0x2987 JUMP JUMPDEST DUP1 PUSH2 0x2F02 JUMPI POP POP JUMP JUMPDEST PUSH2 0x2F0B DUP2 PUSH2 0x2987 JUMP JUMPDEST PUSH1 0x1 DUP2 SUB PUSH2 0x2F25 JUMPI PUSH1 0x40 MLOAD PUSH4 0xF645EEDF PUSH1 0xE0 SHL DUP2 MSTORE PUSH1 0x4 SWAP1 REVERT JUMPDEST PUSH2 0x2F2E DUP2 PUSH2 0x2987 JUMP JUMPDEST PUSH1 0x2 DUP2 SUB PUSH2 0x2F4F JUMPI PUSH1 0x40 MLOAD PUSH4 0xFCE698F7 PUSH1 0xE0 SHL DUP2 MSTORE PUSH1 0x4 DUP2 ADD DUP4 SWAP1 MSTORE PUSH1 0x24 SWAP1 REVERT JUMPDEST DUP1 PUSH2 0x2F5B PUSH1 0x3 SWAP3 PUSH2 0x2987 JUMP JUMPDEST EQ PUSH2 0x2F63 JUMPI POP JUMP JUMPDEST PUSH1 0x24 SWAP1 PUSH1 0x40 MLOAD SWAP1 PUSH4 0x35E2F383 PUSH1 0xE2 SHL DUP3 MSTORE PUSH1 0x4 DUP3 ADD MSTORE REVERT JUMPDEST RETURNDATASIZE ISZERO PUSH2 0x2FA6 JUMPI RETURNDATASIZE SWAP1 PUSH2 0x2F8C DUP3 PUSH2 0x2E08 JUMP JUMPDEST SWAP2 PUSH2 0x2F9A PUSH1 0x40 MLOAD SWAP4 DUP5 PUSH2 0x2D12 JUMP JUMPDEST DUP3 MSTORE RETURNDATASIZE PUSH1 0x0 PUSH1 0x20 DUP5 ADD RETURNDATACOPY JUMP JUMPDEST PUSH1 0x60 SWAP1 JUMP JUMPDEST PUSH1 0x0 SWAP1 DUP1 DUP3 MSTORE PUSH1 0x3 PUSH1 0x20 MSTORE PUSH1 0x40 DUP3 KECCAK256 PUSH1 0x3 DUP2 ADD SWAP3 DUP4 SLOAD SWAP1 PUSH1 0x4 DUP4 ADD DUP1 SLOAD SWAP2 PUSH1 0x1 DUP1 PUSH1 0xA0 SHL SUB SWAP2 DUP2 DUP4 PUSH1 0x2 DUP9 ADD SLOAD AND SWAP2 DUP2 DUP6 PUSH1 0x1 DUP11 ADD SLOAD AND SWAP11 SSTORE SSTORE PUSH1 0x6 DUP7 ADD PUSH1 0x6 PUSH1 0xFF NOT DUP3 SLOAD AND OR SWAP1 SSTORE DUP1 ISZERO PUSH1 0x0 EQ PUSH2 0x3100 JUMPI POP DUP1 DUP1 DUP1 DUP1 DUP8 DUP12 GAS CALL PUSH2 0x300E PUSH2 0x2F7B JUMP JUMPDEST POP ISZERO PUSH2 0x30C3 JUMPI DUP3 PUSH2 0x3063 JUMPI JUMPDEST POP SWAP1 PUSH2 0x304D PUSH1 0x40 SWAP4 SWAP3 PUSH32 0xB95BF48B1FAEBA00E56C6B81DF0AE8E0D8F9C79DA9364726F8DCC38687927AA2 SWAP6 JUMPDEST SLOAD AND PUSH2 0x35A5 JUMP JUMPDEST PUSH2 0x3056 DUP7 PUSH2 0x35A5 JUMP JUMPDEST DUP3 MLOAD SWAP2 DUP3 MSTORE PUSH1 0x20 DUP3 ADD MSTORE LOG3 JUMP JUMPDEST DUP1 DUP1 DUP1 DUP6 DUP6 PUSH1 0xC SWAP9 SWAP8 SWAP7 SWAP9 SLOAD AND GAS CALL PUSH2 0x307A PUSH2 0x2F7B JUMP JUMPDEST POP ISZERO PUSH2 0x3088 JUMPI SWAP1 SWAP2 CODESIZE PUSH2 0x301A JUMP JUMPDEST PUSH1 0x40 MLOAD PUSH3 0x461BCD PUSH1 0xE5 SHL DUP2 MSTORE PUSH1 0x20 PUSH1 0x4 DUP3 ADD MSTORE PUSH1 0x13 PUSH1 0x24 DUP3 ADD MSTORE PUSH19 0x119959481D1C985B9CD9995C8819985A5B1959 PUSH1 0x6A SHL PUSH1 0x44 DUP3 ADD MSTORE PUSH1 0x64 SWAP1 REVERT JUMPDEST PUSH1 0x40 MLOAD PUSH3 0x461BCD PUSH1 0xE5 SHL DUP2 MSTORE PUSH1 0x20 PUSH1 0x4 DUP3 ADD MSTORE PUSH1 0x15 PUSH1 0x24 DUP3 ADD MSTORE PUSH21 0x14185E595C881D1C985B9CD9995C8819985A5B1959 PUSH1 0x5A SHL PUSH1 0x44 DUP3 ADD MSTORE PUSH1 0x64 SWAP1 REVERT JUMPDEST PUSH2 0x304D SWAP2 POP SWAP2 PUSH32 0xB95BF48B1FAEBA00E56C6B81DF0AE8E0D8F9C79DA9364726F8DCC38687927AA2 SWAP6 DUP4 PUSH2 0x3138 DUP8 DUP12 PUSH1 0x40 SWAP10 SWAP9 SWAP8 PUSH2 0x315C JUMP JUMPDEST DUP5 DUP1 PUSH2 0x3146 JUMPI JUMPDEST POP POP PUSH2 0x3046 JUMP JUMPDEST PUSH2 0x3155 SWAP2 DUP5 PUSH1 0xC SLOAD AND SWAP1 PUSH2 0x315C JUMP JUMPDEST CODESIZE DUP5 PUSH2 0x313F JUMP JUMPDEST PUSH1 0x40 MLOAD PUSH4 0xA9059CBB PUSH1 0xE0 SHL PUSH1 0x20 DUP3 ADD MSTORE PUSH1 0x1 PUSH1 0x1 PUSH1 0xA0 SHL SUB SWAP1 SWAP3 AND PUSH1 0x24 DUP4 ADD MSTORE PUSH1 0x44 DUP1 DUP4 ADD SWAP4 SWAP1 SWAP4 MSTORE SWAP2 DUP2 MSTORE PUSH2 0x319A SWAP2 PUSH2 0x3195 DUP3 PUSH2 0x2CA0 JUMP JUMPDEST PUSH2 0x2DAC JUMP JUMPDEST JUMP JUMPDEST PUSH1 0x0 SWAP1 DUP1 DUP3 MSTORE PUSH1 0x3 PUSH1 0x20 MSTORE PUSH1 0x40 DUP3 KECCAK256 DUP3 PUSH1 0x3 DUP3 ADD DUP1 SLOAD PUSH1 0x6 PUSH2 0x31C4 PUSH1 0x4 DUP7 ADD SWAP3 DUP4 SLOAD SWAP1 PUSH2 0x2C93 JUMP JUMPDEST PUSH1 0x2 DUP7 ADD SLOAD DUP7 SLOAD SWAP9 SWAP1 SWAP5 SSTORE SWAP2 DUP5 SWAP1 SSTORE SWAP1 SWAP4 ADD DUP1 SLOAD PUSH1 0xFF NOT AND PUSH1 0x8 OR SWAP1 SSTORE PUSH1 0x1 PUSH1 0x1 PUSH1 0xA0 SHL SUB SWAP5 DUP6 AND SWAP5 DUP6 SWAP2 AND DUP1 PUSH2 0x326E JUMPI POP DUP2 DUP1 DUP5 DUP2 SWAP4 GAS CALL PUSH2 0x3205 PUSH2 0x2F7B JUMP JUMPDEST POP ISZERO PUSH2 0x3239 JUMPI PUSH1 0x20 PUSH32 0xA518F3C62F75851A21351FE44DBC9092BD179ACC1461CB6BB1A10243FF55C433 SWAP2 JUMPDEST PUSH1 0x40 MLOAD SWAP1 DUP2 MSTORE LOG3 JUMP JUMPDEST PUSH1 0x40 MLOAD PUSH3 0x461BCD PUSH1 0xE5 SHL DUP2 MSTORE PUSH1 0x20 PUSH1 0x4 DUP3 ADD MSTORE PUSH1 0xD PUSH1 0x24 DUP3 ADD MSTORE PUSH13 0x1499599D5B990819985A5B1959 PUSH1 0x9A SHL PUSH1 0x44 DUP3 ADD MSTORE PUSH1 0x64 SWAP1 REVERT JUMPDEST PUSH1 0x20 SWAP3 POP DUP4 PUSH32 0xA518F3C62F75851A21351FE44DBC9092BD179ACC1461CB6BB1A10243FF55C433 SWAP5 SWAP3 PUSH2 0x329F SWAP3 PUSH2 0x315C JUMP JUMPDEST PUSH2 0x3230 JUMP JUMPDEST PUSH1 0x1 PUSH1 0x1 PUSH1 0xA0 SHL SUB AND PUSH1 0x0 DUP2 DUP2 MSTORE PUSH1 0x4 PUSH1 0x20 DUP2 SWAP1 MSTORE PUSH1 0x40 DUP1 DUP4 KECCAK256 PUSH1 0x7 DUP2 ADD SLOAD SWAP2 SWAP7 SWAP6 SWAP4 SWAP1 SWAP2 PUSH1 0x8 DUP2 SWAP1 SHR PUSH1 0xFF AND PUSH2 0x3595 JUMPI PUSH1 0x5 DUP4 ADD DUP1 SLOAD PUSH3 0x15180 DUP2 ADD DUP1 SWAP2 GT PUSH2 0x3573 JUMPI TIMESTAMP LT ISZERO PUSH2 0x3586 JUMPI JUMPDEST POP PUSH1 0x6 DUP4 ADD DUP1 SLOAD PUSH3 0x93A80 DUP2 ADD DUP1 SWAP2 GT PUSH2 0x3573 JUMPI SWAP2 PUSH1 0xFF SWAP2 DUP11 SWAP5 SWAP4 TIMESTAMP LT ISZERO PUSH2 0x3565 JUMPI JUMPDEST POP AND PUSH2 0x331E DUP2 PUSH2 0x2987 JUMP JUMPDEST DUP2 MSTORE PUSH1 0x8 PUSH1 0x20 MSTORE KECCAK256 SWAP2 DUP7 MLOAD SWAP7 PUSH2 0x3333 DUP9 PUSH2 0x2CA0 JUMP JUMPDEST DUP4 SLOAD DUP9 MSTORE PUSH1 0x1 DUP5 ADD SLOAD SWAP4 PUSH1 0x20 DUP10 ADD SWAP5 DUP6 MSTORE PUSH1 0x3 PUSH1 0x2 DUP3 ADD SLOAD SWAP2 DUP3 DUP5 DUP13 ADD MSTORE ADD SLOAD PUSH1 0x60 DUP11 ADD MSTORE DUP6 GT PUSH2 0x34D6 JUMPI PUSH1 0x3 DUP4 ADD SWAP3 DUP4 SLOAD SWAP9 PUSH2 0x3370 DUP8 DUP12 PUSH2 0x2C93 JUMP JUMPDEST SWAP1 MLOAD LT PUSH2 0x3443 JUMPI DUP3 ADD SWAP6 DUP7 SLOAD SWAP5 PUSH2 0x3387 DUP8 DUP8 PUSH2 0x2C93 JUMP JUMPDEST SWAP1 MLOAD LT PUSH2 0x33AB JUMPI POP POP POP PUSH2 0x33A0 DUP4 PUSH2 0x33A7 SWAP6 SWAP7 SWAP8 PUSH2 0x2C93 JUMP JUMPDEST SWAP1 SSTORE PUSH2 0x2C93 JUMP JUMPDEST SWAP1 SSTORE JUMP JUMPDEST PUSH2 0x343F SWAP4 POP PUSH32 0x74867B7AA517EBEE563B6C06D367476D8BFE46339D59015B0B075BEE2B478DEE DUP3 MLOAD DUP1 PUSH2 0x3402 DUP2 PUSH1 0x60 SWAP1 PUSH1 0x20 DUP2 MSTORE PUSH1 0xF PUSH1 0x20 DUP3 ADD MSTORE PUSH15 0x6D61785765656B6C79566F6C756D65 PUSH1 0x88 SHL PUSH1 0x40 DUP3 ADD MSTORE ADD SWAP1 JUMP JUMPDEST SUB SWAP1 LOG2 MLOAD SWAP2 DUP3 SWAP2 PUSH4 0x1FA036E7 PUSH1 0xE0 SHL DUP4 MSTORE DUP3 ADD PUSH1 0x60 SWAP1 PUSH1 0x20 DUP2 MSTORE PUSH1 0xF PUSH1 0x20 DUP3 ADD MSTORE PUSH15 0x6D61785765656B6C79566F6C756D65 PUSH1 0x88 SHL PUSH1 0x40 DUP3 ADD MSTORE ADD SWAP1 JUMP JUMPDEST SUB SWAP1 REVERT JUMPDEST PUSH2 0x343F DUP4 DUP4 DUP10 PUSH32 0x74867B7AA517EBEE563B6C06D367476D8BFE46339D59015B0B075BEE2B478DEE DUP3 MLOAD DUP1 PUSH2 0x349A DUP2 PUSH1 0x60 SWAP1 PUSH1 0x20 DUP2 MSTORE PUSH1 0xE PUSH1 0x20 DUP3 ADD MSTORE PUSH14 0x6D61784461696C79566F6C756D65 PUSH1 0x90 SHL PUSH1 0x40 DUP3 ADD MSTORE ADD SWAP1 JUMP JUMPDEST SUB SWAP1 LOG2 MLOAD SWAP2 DUP3 SWAP2 PUSH4 0x1FA036E7 PUSH1 0xE0 SHL DUP4 MSTORE DUP3 ADD PUSH1 0x60 SWAP1 PUSH1 0x20 DUP2 MSTORE PUSH1 0xE PUSH1 0x20 DUP3 ADD MSTORE PUSH14 0x6D61784461696C79566F6C756D65 PUSH1 0x90 SHL PUSH1 0x40 DUP3 ADD MSTORE ADD SWAP1 JUMP JUMPDEST PUSH2 0x343F SWAP3 POP DUP6 PUSH32 0x74867B7AA517EBEE563B6C06D367476D8BFE46339D59015B0B075BEE2B478DEE DUP3 MLOAD DUP1 PUSH2 0x352B DUP2 PUSH1 0x60 SWAP1 PUSH1 0x20 DUP2 MSTORE PUSH1 0xC PUSH1 0x20 DUP3 ADD MSTORE PUSH12 0x6D6178547261646553697A65 PUSH1 0xA0 SHL PUSH1 0x40 DUP3 ADD MSTORE ADD SWAP1 JUMP JUMPDEST SUB SWAP1 LOG2 MLOAD SWAP2 DUP3 SWAP2 PUSH4 0x1FA036E7 PUSH1 0xE0 SHL DUP4 MSTORE DUP3 ADD PUSH1 0x60 SWAP1 PUSH1 0x20 DUP2 MSTORE PUSH1 0xC PUSH1 0x20 DUP3 ADD MSTORE PUSH12 0x6D6178547261646553697A65 PUSH1 0xA0 SHL PUSH1 0x40 DUP3 ADD MSTORE ADD SWAP1 JUMP JUMPDEST DUP4 DUP8 DUP8 ADD SSTORE TIMESTAMP SWAP1 SSTORE CODESIZE PUSH2 0x3313 JUMP JUMPDEST PUSH4 0x4E487B71 PUSH1 0xE0 SHL DUP5 MSTORE PUSH1 0x11 DUP7 MSTORE PUSH1 0x24 DUP5 REVERT JUMPDEST DUP3 PUSH1 0x3 DUP6 ADD SSTORE TIMESTAMP SWAP1 SSTORE CODESIZE PUSH2 0x32F0 JUMP JUMPDEST DUP8 MLOAD PUSH4 0x473250AF PUSH1 0xE0 SHL DUP2 MSTORE DUP5 SWAP1 REVERT JUMPDEST PUSH1 0x1 PUSH1 0x1 PUSH1 0xA0 SHL SUB AND PUSH1 0x0 DUP2 DUP2 MSTORE PUSH1 0x4 PUSH1 0x20 MSTORE PUSH1 0x40 SWAP1 KECCAK256 DUP1 SLOAD PUSH2 0x35C7 SWAP1 PUSH2 0x2C84 JUMP JUMPDEST DUP2 SSTORE PUSH1 0xFF PUSH1 0x7 PUSH1 0x1 DUP4 ADD SWAP3 PUSH2 0x35DC DUP5 SLOAD PUSH2 0x2C84 JUMP JUMPDEST SWAP4 DUP5 SWAP1 SSTORE ADD DUP1 SLOAD DUP3 DUP2 AND SWAP4 PUSH1 0x32 DUP2 LT PUSH2 0x3651 JUMPI POP POP PUSH1 0x3 DUP3 NOT DUP3 SLOAD AND OR DUP2 SSTORE JUMPDEST SLOAD AND SWAP1 PUSH2 0x3608 DUP2 PUSH2 0x2987 JUMP JUMPDEST PUSH2 0x3611 DUP3 PUSH2 0x2987 JUMP JUMPDEST DUP2 SUB PUSH2 0x361B JUMPI POP POP JUMP JUMPDEST PUSH1 0x20 PUSH32 0x506EC58EF84FDEF2D0F37BE02D5A6BFCE019136479212ED8425B4D4910FCB5DE SWAP2 PUSH1 0x40 MLOAD SWAP1 PUSH2 0x364C DUP2 PUSH2 0x2987 JUMP JUMPDEST DUP2 MSTORE LOG2 JUMP JUMPDEST PUSH1 0x15 DUP2 LT PUSH2 0x366A JUMPI POP POP PUSH1 0x2 DUP3 NOT DUP3 SLOAD AND OR DUP2 SSTORE PUSH2 0x35FC JUMP JUMPDEST PUSH1 0x6 GT ISZERO PUSH2 0x3679 JUMPI JUMPDEST POP PUSH2 0x35FC JUMP JUMPDEST DUP3 NOT AND PUSH1 0x1 OR DUP2 SSTORE CODESIZE PUSH2 0x3673 JUMP JUMPDEST PUSH1 0x1 PUSH1 0x1 PUSH1 0xA0 SHL SUB AND PUSH1 0x0 SWAP1 DUP2 MSTORE PUSH1 0x4 PUSH1 0x20 MSTORE PUSH1 0x40 DUP2 KECCAK256 DUP1 SLOAD SWAP1 SWAP2 SWAP1 PUSH2 0x36AC SWAP1 PUSH2 0x2C84 JUMP JUMPDEST SWAP1 DUP2 DUP4 SSTORE PUSH1 0x2 DUP4 ADD SWAP1 PUSH2 0x36BF DUP3 SLOAD PUSH2 0x2C84 JUMP JUMPDEST DUP1 SWAP3 SSTORE PUSH1 0x5 DUP4 GT PUSH2 0x36D1 JUMPI JUMPDEST POP POP POP POP JUMP JUMPDEST PUSH1 0x64 DUP3 MUL SWAP2 DUP1 DUP4 DIV PUSH1 0x64 EQ SWAP1 ISZERO OR ISZERO PUSH2 0x37A7 JUMPI DUP3 ISZERO PUSH2 0x3793 JUMPI POP SWAP1 PUSH1 0x32 SWAP2 DIV PUSH1 0x14 DUP2 GT PUSH2 0x371D JUMPI JUMPDEST GT PUSH2 0x3707 JUMPI JUMPDEST DUP1 DUP1 DUP1 PUSH2 0x36CB JUMP JUMPDEST PUSH1 0x7 ADD DUP1 SLOAD PUSH2 0xFF00 NOT AND PUSH2 0x100 OR SWAP1 SSTORE CODESIZE PUSH2 0x36FF JUMP JUMPDEST PUSH1 0x7 DUP4 ADD DUP1 SLOAD PUSH1 0xFF DUP2 AND PUSH2 0x3730 DUP2 PUSH2 0x2987 JUMP JUMPDEST PUSH1 0x3 DUP2 SUB PUSH2 0x374A JUMPI POP POP DUP1 SLOAD PUSH1 0xFF NOT AND PUSH1 0x2 OR SWAP1 SSTORE PUSH2 0x36F9 JUMP JUMPDEST PUSH2 0x3753 DUP2 PUSH2 0x2987 JUMP JUMPDEST PUSH1 0x2 DUP2 SUB PUSH2 0x376D JUMPI POP POP DUP1 SLOAD PUSH1 0xFF NOT AND PUSH1 0x1 OR SWAP1 SSTORE PUSH2 0x36F9 JUMP JUMPDEST DUP1 PUSH2 0x3779 PUSH1 0x1 SWAP3 PUSH2 0x2987 JUMP JUMPDEST EQ PUSH2 0x3786 JUMPI JUMPDEST POP POP PUSH2 0x36F9 JUMP JUMPDEST PUSH1 0xFF NOT AND SWAP1 SSTORE CODESIZE DUP1 PUSH2 0x377F JUMP JUMPDEST PUSH4 0x4E487B71 PUSH1 0xE0 SHL DUP2 MSTORE PUSH1 0x12 PUSH1 0x4 MSTORE PUSH1 0x24 SWAP1 REVERT JUMPDEST PUSH4 0x4E487B71 PUSH1 0xE0 SHL DUP2 MSTORE PUSH1 0x11 PUSH1 0x4 MSTORE PUSH1 0x24 SWAP1 REVERT JUMPDEST PUSH1 0x0 MSTORE PUSH1 0x3 PUSH1 0x20 MSTORE PUSH1 0x40 PUSH1 0x0 KECCAK256 PUSH1 0xFF PUSH1 0x6 DUP3 ADD SLOAD AND PUSH2 0x37D9 DUP2 PUSH2 0x2958 JUMP JUMPDEST PUSH1 0x6 DUP2 EQ PUSH2 0x38B9 JUMPI PUSH2 0x37EA DUP2 PUSH2 0x2958 JUMP JUMPDEST PUSH1 0x4 DUP2 EQ ISZERO SWAP1 DUP2 PUSH2 0x38A4 JUMPI JUMPDEST POP PUSH2 0x3870 JUMPI PUSH1 0xB ADD SLOAD TIMESTAMP LT PUSH2 0x3834 JUMPI PUSH1 0x1 SWAP1 PUSH1 0x40 MLOAD PUSH2 0x3814 DUP2 PUSH2 0x2CF6 JUMP JUMPDEST PUSH1 0x10 DUP2 MSTORE PUSH16 0x526561647920746F2072656C65617365 PUSH1 0x80 SHL PUSH1 0x20 DUP3 ADD MSTORE SWAP1 JUMP JUMPDEST PUSH1 0x0 SWAP1 PUSH1 0x40 MLOAD PUSH2 0x3843 DUP2 PUSH2 0x2CF6 JUMP JUMPDEST PUSH1 0x17 DUP2 MSTORE PUSH32 0x486F6C6420706572696F64206E6F7420656C6170736564000000000000000000 PUSH1 0x20 DUP3 ADD MSTORE SWAP1 JUMP JUMPDEST POP PUSH1 0x0 SWAP1 PUSH1 0x40 MLOAD PUSH2 0x3880 DUP2 PUSH2 0x2CF6 JUMP JUMPDEST PUSH1 0x14 DUP2 MSTORE PUSH20 0x14185E5B595B9D081B9BDD081D995C9A599A5959 PUSH1 0x62 SHL PUSH1 0x20 DUP3 ADD MSTORE SWAP1 JUMP JUMPDEST PUSH1 0x5 SWAP2 POP PUSH2 0x38B1 DUP2 PUSH2 0x2958 JUMP JUMPDEST EQ ISZERO CODESIZE PUSH2 0x37F6 JUMP JUMPDEST POP POP PUSH1 0x0 SWAP1 PUSH1 0x40 MLOAD PUSH2 0x38CA DUP2 PUSH2 0x2CF6 JUMP JUMPDEST PUSH1 0x10 DUP2 MSTORE PUSH16 0x105B1C9958591E481C995B19585CD959 PUSH1 0x82 SHL PUSH1 0x20 DUP3 ADD MSTORE SWAP1 JUMP JUMPDEST PUSH1 0xFF PUSH1 0x1 SLOAD AND ISZERO PUSH2 0x38F7 JUMPI JUMP JUMPDEST PUSH1 0x40 MLOAD PUSH4 0x8DFC202B PUSH1 0xE0 SHL DUP2 MSTORE PUSH1 0x4 SWAP1 REVERT INVALID LOG2 PUSH5 0x6970667358 0x22 SLT KECCAK256 0xC0 JUMPDEST PUSH22 0x6B082005F39B38328553DE32B8C049A5466FC22CF45A 0xA8 MLOAD JUMPI PUSH30 0x2349BA64736F6C634300081400332F8788117E7EFF1D82E926EC794901D1 PUSH29 0x78024A50270940304540A733656F0D0000000000000000000000000000 "},"methodIdentifiers":{"ADMIN_ROLE()":"75b238fc","ARBITRATOR_ROLE()":"9cea0787","BASIS_POINTS()":"e1f1c4a7","DEFAULT_ADMIN_ROLE()":"a217fddf","MAX_FEE()":"bc063e1a","ORACLE_ROLE()":"07e2cea5","addOracle(address)":"df5dd1a5","addSupportedToken(address)":"6d69fcaf","autoRelease(uint256)":"459b860e","billCounter()":"9d7a0339","bills(uint256)":"28bdcde8","blockedMethods(uint8)":"cc73bab4","calculateTieredFee(uint256,bool)":"61798624","canRelease(uint256)":"b2f70e96","cancelBill(uint256)":"67762988","claimBill(uint256)":"1930eae7","confirmPaymentSent(uint256,bytes32)":"74ee23e6","createBill(uint256,uint8)":"72baa638","createBillWithToken(address,uint256,uint256,uint8)":"a81ea0e5","feeWallet()":"f25f4b56","getBill(uint256)":"b1cd06e6","getHoldPeriod(uint8)":"1fbee6c5","getRoleAdmin(bytes32)":"248a9ca3","getUserLimits(address)":"f562e122","getUserStats(address)":"4e43603a","grantRole(bytes32,address)":"2f2ff15d","hasRole(bytes32,address)":"91d14854","holdPeriods(uint8)":"f06edf29","isMethodBlocked(uint8)":"38dd40c0","makerConfirmAndRelease(uint256)":"cd2cb46d","makerConfirmPayment(uint256)":"c5c8010a","minConfirmations()":"e7c4393e","pause()":"8456cb59","paused()":"5c975abb","platformFeePercent()":"8c639a85","raiseDispute(uint256)":"a5c1674e","refundExpiredBill(uint256)":"9c078c3a","releaseFunds(uint256)":"4d68282f","removeOracle(address)":"fdc85fc4","removeSupportedToken(address)":"76319190","renounceRole(bytes32,address)":"36568abe","rescueStuckFunds()":"0a5c722f","rescueStuckTokens(address)":"0c1fe80c","resolveDispute(uint256,bool)":"34b25ee2","revokeRole(bytes32,address)":"d547741f","setMethodBlocked(uint8,bool)":"ca440b9f","setUserBlacklist(address,bool)":"ccddf0b0","setUserTrustLevel(address,uint8)":"2b3b4752","supportedTokens(address)":"68c4ac26","supportsInterface(bytes4)":"01ffc9a7","trustedOracles(address)":"db296602","unpause()":"3f4ba83a","updateFeeWallet(address)":"66718524","updateHoldPeriod(uint8,uint256)":"02e9264e","updatePlatformFee(uint256)":"aa0b5988","updateVelocityLimits(uint8,uint256,uint256,uint256,uint256)":"0b86fb0f","usedPaymentReferences(bytes32)":"e1d239db","userStats(address)":"8a65d874","velocityLimits(uint8)":"a73222fb","verifyPaymentReceived(uint256,bytes32,uint256,uint256,bytes)":"62e87b8c"}}}}}