{"contracts/BillHavenEscrow.sol":{"BillHavenEscrow":{"abi":[{"inputs":[{"internalType":"address","name":"_feeWallet","type":"address"}],"stateMutability":"nonpayable","type":"constructor"},{"inputs":[],"name":"EnforcedPause","type":"error"},{"inputs":[],"name":"ExpectedPause","type":"error"},{"inputs":[{"internalType":"address","name":"owner","type":"address"}],"name":"OwnableInvalidOwner","type":"error"},{"inputs":[{"internalType":"address","name":"account","type":"address"}],"name":"OwnableUnauthorizedAccount","type":"error"},{"inputs":[],"name":"ReentrancyGuardReentrantCall","type":"error"},{"anonymous":false,"inputs":[{"indexed":true,"internalType":"uint256","name":"billId","type":"uint256"},{"indexed":true,"internalType":"address","name":"payer","type":"address"}],"name":"BillClaimed","type":"event"},{"anonymous":false,"inputs":[{"indexed":true,"internalType":"uint256","name":"billId","type":"uint256"},{"indexed":true,"internalType":"address","name":"billMaker","type":"address"},{"indexed":false,"internalType":"uint256","name":"amount","type":"uint256"},{"indexed":false,"internalType":"uint256","name":"fee","type":"uint256"}],"name":"BillCreated","type":"event"},{"anonymous":false,"inputs":[{"indexed":true,"internalType":"uint256","name":"billId","type":"uint256"},{"indexed":true,"internalType":"address","name":"payer","type":"address"},{"indexed":false,"internalType":"uint256","name":"amount","type":"uint256"}],"name":"CryptoReleased","type":"event"},{"anonymous":false,"inputs":[{"indexed":true,"internalType":"uint256","name":"billId","type":"uint256"},{"indexed":false,"internalType":"bool","name":"releasedToPayer","type":"bool"}],"name":"DisputeResolved","type":"event"},{"anonymous":false,"inputs":[{"indexed":true,"internalType":"uint256","name":"billId","type":"uint256"},{"indexed":true,"internalType":"address","name":"by","type":"address"}],"name":"Disputed","type":"event"},{"anonymous":false,"inputs":[{"indexed":true,"internalType":"address","name":"oldWallet","type":"address"},{"indexed":true,"internalType":"address","name":"newWallet","type":"address"}],"name":"FeeWalletUpdated","type":"event"},{"anonymous":false,"inputs":[{"indexed":true,"internalType":"uint256","name":"billId","type":"uint256"}],"name":"FiatConfirmed","type":"event"},{"anonymous":false,"inputs":[{"indexed":true,"internalType":"address","name":"previousOwner","type":"address"},{"indexed":true,"internalType":"address","name":"newOwner","type":"address"}],"name":"OwnershipTransferred","type":"event"},{"anonymous":false,"inputs":[{"indexed":false,"internalType":"address","name":"account","type":"address"}],"name":"Paused","type":"event"},{"anonymous":false,"inputs":[{"indexed":true,"internalType":"uint256","name":"billId","type":"uint256"},{"indexed":true,"internalType":"address","name":"billMaker","type":"address"}],"name":"Refunded","type":"event"},{"anonymous":false,"inputs":[{"indexed":false,"internalType":"address","name":"account","type":"address"}],"name":"Unpaused","type":"event"},{"inputs":[],"name":"billCounter","outputs":[{"internalType":"uint256","name":"","type":"uint256"}],"stateMutability":"view","type":"function"},{"inputs":[{"internalType":"uint256","name":"","type":"uint256"}],"name":"bills","outputs":[{"internalType":"address","name":"billMaker","type":"address"},{"internalType":"address","name":"payer","type":"address"},{"internalType":"uint256","name":"amount","type":"uint256"},{"internalType":"uint256","name":"platformFee","type":"uint256"},{"internalType":"bool","name":"fiatConfirmed","type":"bool"},{"internalType":"bool","name":"disputed","type":"bool"},{"internalType":"uint256","name":"createdAt","type":"uint256"},{"internalType":"uint256","name":"expiresAt","type":"uint256"}],"stateMutability":"view","type":"function"},{"inputs":[{"internalType":"uint256","name":"_billId","type":"uint256"}],"name":"cancelBill","outputs":[],"stateMutability":"nonpayable","type":"function"},{"inputs":[{"internalType":"uint256","name":"_billId","type":"uint256"}],"name":"claimBill","outputs":[],"stateMutability":"nonpayable","type":"function"},{"inputs":[{"internalType":"uint256","name":"_billId","type":"uint256"}],"name":"confirmFiatPayment","outputs":[],"stateMutability":"nonpayable","type":"function"},{"inputs":[{"internalType":"uint256","name":"_platformFee","type":"uint256"}],"name":"createBill","outputs":[],"stateMutability":"payable","type":"function"},{"inputs":[],"name":"emergencyWithdraw","outputs":[],"stateMutability":"nonpayable","type":"function"},{"inputs":[],"name":"feeWallet","outputs":[{"internalType":"address","name":"","type":"address"}],"stateMutability":"view","type":"function"},{"inputs":[{"internalType":"uint256","name":"_billId","type":"uint256"}],"name":"getBill","outputs":[{"components":[{"internalType":"address","name":"billMaker","type":"address"},{"internalType":"address","name":"payer","type":"address"},{"internalType":"uint256","name":"amount","type":"uint256"},{"internalType":"uint256","name":"platformFee","type":"uint256"},{"internalType":"bool","name":"fiatConfirmed","type":"bool"},{"internalType":"bool","name":"disputed","type":"bool"},{"internalType":"uint256","name":"createdAt","type":"uint256"},{"internalType":"uint256","name":"expiresAt","type":"uint256"}],"internalType":"struct BillHavenEscrow.Bill","name":"","type":"tuple"}],"stateMutability":"view","type":"function"},{"inputs":[{"internalType":"uint256","name":"_billId","type":"uint256"}],"name":"getBillStatus","outputs":[{"internalType":"bool","name":"exists","type":"bool"},{"internalType":"bool","name":"claimed","type":"bool"},{"internalType":"bool","name":"confirmed","type":"bool"},{"internalType":"bool","name":"disputed","type":"bool"},{"internalType":"bool","name":"expired","type":"bool"}],"stateMutability":"view","type":"function"},{"inputs":[{"internalType":"uint256","name":"_billId","type":"uint256"}],"name":"isLocked","outputs":[{"internalType":"bool","name":"","type":"bool"}],"stateMutability":"view","type":"function"},{"inputs":[],"name":"owner","outputs":[{"internalType":"address","name":"","type":"address"}],"stateMutability":"view","type":"function"},{"inputs":[],"name":"pause","outputs":[],"stateMutability":"nonpayable","type":"function"},{"inputs":[],"name":"paused","outputs":[{"internalType":"bool","name":"","type":"bool"}],"stateMutability":"view","type":"function"},{"inputs":[{"internalType":"uint256","name":"_billId","type":"uint256"}],"name":"raiseDispute","outputs":[],"stateMutability":"nonpayable","type":"function"},{"inputs":[{"internalType":"uint256","name":"_billId","type":"uint256"}],"name":"refundExpiredBill","outputs":[],"stateMutability":"nonpayable","type":"function"},{"inputs":[],"name":"renounceOwnership","outputs":[],"stateMutability":"nonpayable","type":"function"},{"inputs":[{"internalType":"uint256","name":"_billId","type":"uint256"},{"internalType":"bool","name":"_releaseToPayer","type":"bool"}],"name":"resolveDispute","outputs":[],"stateMutability":"nonpayable","type":"function"},{"inputs":[{"internalType":"address","name":"_newFeeWallet","type":"address"}],"name":"setFeeWallet","outputs":[],"stateMutability":"nonpayable","type":"function"},{"inputs":[{"internalType":"address","name":"newOwner","type":"address"}],"name":"transferOwnership","outputs":[],"stateMutability":"nonpayable","type":"function"},{"inputs":[],"name":"unpause","outputs":[],"stateMutability":"nonpayable","type":"function"},{"stateMutability":"payable","type":"receive"}],"evm":{"bytecode":{"linkReferences":{},"object":"60803461012b57601f61155238819003918201601f19168301916001600160401b038311848410176101305780849260209460405283398101031261012b57516001600160a01b038082169182900361012b57600160005533156101125760018054610100600160a81b0319811633600881811b610100600160a81b0316929092179093556040519391901c167f8be0079c531659141344cd1fd0a4f28419497f9722a3daafe3b4186f6b6457e0600080a381156100db5750600480546001600160a01b03191691909117905560405161140b90816101478239f35b62461bcd60e51b8152602060048201526012602482015271125b9d985b1a5908199959481dd85b1b195d60721b6044820152606490fd5b604051631e4fbdf760e01b815260006004820152602490fd5b600080fd5b634e487b7160e01b600052604160045260246000fdfe6080604052600436101561001b575b361561001957600080fd5b005b60e0600035811c9081631930eae714610f825781631c8f078914610d965781632185ab6c14610bad578163286fda3b14610b3d57816328bdcde814610ab357816334b25ee2146108f05781633f4ba83a146108995781635c975abb1461087657816367762988146107d7578163715018a6146107765781638456cb591461071d5781638da5cb5b146106f057816390d49b9d146106425781639c078c3a146105385781639d7a03391461051a578163a5c1674e146103c7578163b1cd06e6146102bf57508063db2e21bc14610204578063f25f4b56146101db578063f2fde38b146101405763f6aacfb10361000e573461013b57602036600319011261013b57600435600052600260205260206002604060002001541515604051908152f35b600080fd5b3461013b57602036600319011261013b576004356001600160a01b038181169182810361013b5761016f61112c565b82156101c25760018054610100600160a81b03198116600893841b610100600160a81b031617909155901c167f8be0079c531659141344cd1fd0a4f28419497f9722a3daafe3b4186f6b6457e0600080a3005b604051631e4fbdf760e01b815260006004820152602490fd5b3461013b57600036600319011261013b576004546040516001600160a01b039091168152602090f35b3461013b57600036600319011261013b5761021d61112c565b6102256113b6565b47801561028d5760015460009182918291829160081c6001600160a01b03165af161024e6112a0565b501561025657005b60405162461bcd60e51b815260206004820152600f60248201526e15da5d1a191c985dc819985a5b1959608a1b6044820152606490fd5b60405162461bcd60e51b815260206004820152600a6024820152694e6f2062616c616e636560b01b6044820152606490fd5b3461013b57602036600319011261013b57806000610100926102df611175565b8281528260208201528260408201528260608201528260808201528260a08201528260c082015201526004356000526002602052604060002090610321611175565b60018060a01b03928381541693848352806001830154166020840190815260028301546040850190815260038401549060608601918252600485015493608087019360ff86161515855260ff60a089019660081c161515865288600660058901549860c08b01998a5201549801978852604051998a5251166020890152516040880152516060870152511515608086015251151560a08501525160c08401525190820152f35b3461013b57602036600319011261013b5760043560008181526002602052604090208054336001600160a01b039182161490811561050a575b50156104d4576004810190815460ff811661049b5760ff8160081c166104635761043260026101009301541515611269565b61ff00191617905533907fcde8e21e97a7f6ec4bbf0ee44450212e0ba73be8fdfbfb2b155e861d86756bac600080a3005b60405162461bcd60e51b815260206004820152601060248201526f105b1c9958591e48191a5cdc1d5d195960821b6044820152606490fd5b60405162461bcd60e51b8152602060048201526011602482015270105b1c9958591e4818dbdb5c1b195d1959607a1b6044820152606490fd5b60405162461bcd60e51b815260206004820152600e60248201526d139bdd08185d5d1a1bdc9a5e995960921b6044820152606490fd5b9050600182015416331483610400565b3461013b57600036600319011261013b576020600354604051908152f35b3461013b57602036600319011261013b576004356105546111ca565b8060005260026020526040600020600681015442111561060f5760018101546001600160a01b039190610589908316156111ed565b6105d36000808080600286018181548015801590610602575b6105ab90611269565b816105bc60038b0192835490611168565b935555878754165af16105cd6112a0565b50611371565b5416907f16e7a7a8fd7c51d6b4d059d6d7eea946bff398eee64dd1894af645edd23d502b600080a36001600055005b50600389015415156105a2565b60405162461bcd60e51b815260206004820152600b60248201526a139bdd08195e1c1a5c995960aa1b6044820152606490fd5b3461013b57602036600319011261013b576004356001600160a01b038181169182900361013b5761067161112c565b81156106b957600454826bffffffffffffffffffffffff60a01b821617600455167f362a006325d32978b283e449d254cfcf93e2cccc321603ead9a74238d8dbf36e600080a3005b60405162461bcd60e51b815260206004820152600f60248201526e496e76616c6964206164647265737360881b6044820152606490fd5b3461013b57600036600319011261013b5760015460405160089190911c6001600160a01b03168152602090f35b3461013b57600036600319011261013b5761073661112c565b61073e6111ac565b600160ff19815416176001557f62e78cea01bee320cd4e420270b5ea74000d11b0c9f74754ebdbfc544b05a2586020604051338152a1005b3461013b57600036600319011261013b5761078f61112c565b60018054610100600160a81b0319811690915560009060081c6001600160a01b03167f8be0079c531659141344cd1fd0a4f28419497f9722a3daafe3b4186f6b6457e08280a3005b3461013b57602036600319011261013b576004356107f36111ca565b806000526002602052604060002060018060a01b03906105d360008080808686541661082081331461122b565b61083088600189015416156111ed565b60028701908282548015801590610869575b61084b90611269565b8161085c60038c0192835490611168565b9455555af16105cd6112a0565b5060038a01541515610842565b3461013b57600036600319011261013b57602060ff600154166040519015158152f35b3461013b57600036600319011261013b576108b261112c565b6108ba6113b6565b60ff19600154166001557f5db9ee0a495bf2e6ff9c91a7834c1ba4fdd244a5e8aa4e537bd38aeae4b073aa6020604051338152a1005b3461013b57604036600319011261013b57600435602435801515810361013b5761091861112c565b6109206111ca565b816000526002602052604060002090600482019081549060ff8260081c1615610a7f5760028401928354928315801590610a72575b61095e90611269565b60006003870181815497555561ff001916905580610a5c575b15610a045760008080806109a494600197888060a01b039889910154165af161099e6112a0565b506112eb565b806109df575b50507f5a87909bff68caaaaf0b3fd9c74eeccc928832f879315e5c6fb7a73612f26c0c602060405160018152a25b6001600055005b6000808080936109fd95600454165af16109f76112a0565b5061132f565b81806109aa565b600080610a2c94610a1782958395611168565b90546001600160a01b03165af16105cd6112a0565b7f5a87909bff68caaaaf0b3fd9c74eeccc928832f879315e5c6fb7a73612f26c0c602060405160008152a26109d8565b5060018301546001600160a01b03161515610977565b5060038601541515610955565b60405162461bcd60e51b815260206004820152600c60248201526b139bdd08191a5cdc1d5d195960a21b6044820152606490fd5b3461013b57602036600319011261013b57610100906004356000526002602052604060002060018060a01b039182825416926001830154169160ff6002820154600383015460048401549160066005860154950154966040519889526020890152604088015260608701528181161515608087015260081c16151560a085015260c0840152820152f35b3461013b57602036600319011261013b57600435600052600260205260a06040600020600180831b039060ff828254161515926001830154161515916006600482015491015442119260405194855260208501528181161515604085015260081c16151560608301526080820152f35b3461013b57602036600319011261013b57610bc66111ca565b610bce6111ac565b60043560005260026020526040600020610bf260018060a01b03825416331461122b565b60018101546001600160a01b0316908115610d635760048101549160ff8316610d2a5760ff8360081c16610cf5576001600283015493610c33851515611269565b60ff1916176004830155610c606000808080876003880196828854988160028c0155555af161099e6112a0565b80610cd1575b50604051906004357fe56e5977b732b68b6c4e6f2e2dc7332c3216577b919ca691580a29e7c31d3857600080a26001808060a01b03910154169181527ff9282af8e11684c310510cff927aec4090ac6433818b2b9331f29223a6decba2602060043592a36001600055005b6000808080610cef9460018060a01b03600454165af16109f76112a0565b82610c66565b60405162461bcd60e51b815260206004820152600d60248201526c109a5b1b08191a5cdc1d5d1959609a1b6044820152606490fd5b60405162461bcd60e51b8152602060048201526011602482015270105b1c9958591e4818dbdb999a5c9b5959607a1b6044820152606490fd5b60405162461bcd60e51b815260206004820152600b60248201526a139bdd0818db185a5b595960aa1b6044820152606490fd5b6020908160031936011261013b5760043590610db06111ca565b610db86111ac565b81341115610f44573415610f0c576003546000198114610ef6576001019081600355610de4833461115b565b9062093a80420190814211610ef657600692610dfe611175565b94338652878601916000835260408701908152606087019088825260808801936000855260a08901936000855260c08a01964288528a0197885260005260028b5260406000209860018060a01b0380915116906bffffffffffffffffffffffff60a01b91828c5416178b5560018b019251169082541617905551600288015551600387015560048601915115159060ff61ff0084549251151560081b1692169061ffff1916171790555160058401555191015560035490610ebf813461115b565b926040519384528301527fcdfdeecd9f301cb609cbfd87c3a7f1e4d3da395ff0ba5084da583d3b6deced2160403393a36001600055005b634e487b7160e01b600052601160045260246000fd5b60405162461bcd60e51b815260048101849052601060248201526f4d7573742073656e642063727970746f60801b6044820152606490fd5b60405162461bcd60e51b8152600481018490526016602482015275416d6f756e74206d757374206578636565642066656560501b6044820152606490fd5b3461013b5760208060031936011261013b5760043590610fa06111ca565b610fa86111ac565b60008281526002825260409020600181018054909290916001600160a01b03610fd3818516156111ed565b6002820154156110e75781541633146110aa5760ff600482015460081c16611072576006015442101561103f57506001600160a01b03191633908117909155907f0b32da9354607796544422f364ca1aec8a7b6e85fdb196e204bf0ed62cb620ae600080a36001600055005b6064906040519062461bcd60e51b82526004820152600c60248201526b109a5b1b08195e1c1a5c995960a21b6044820152fd5b60405162461bcd60e51b815260048101839052601060248201526f109a5b1b081a5cc8191a5cdc1d5d195960821b6044820152606490fd5b60405162461bcd60e51b815260048101839052601560248201527410d85b9b9bdd0818db185a5b481bdddb88189a5b1b605a1b6044820152606490fd5b60405162461bcd60e51b815260048101849052601760248201527f42696c6c206e6f7420666f756e64206f7220656d7074790000000000000000006044820152606490fd5b60015460081c6001600160a01b0316330361114357565b60405163118cdaa760e01b8152336004820152602490fd5b91908203918211610ef657565b91908201809211610ef657565b60405190610100820182811067ffffffffffffffff82111761119657604052565b634e487b7160e01b600052604160045260246000fd5b60ff600154166111b857565b60405163d93c066560e01b8152600490fd5b6002600054146111db576002600055565b604051633ee5aeb560e01b8152600490fd5b156111f457565b60405162461bcd60e51b815260206004820152600f60248201526e105b1c9958591e4818db185a5b5959608a1b6044820152606490fd5b1561123257565b60405162461bcd60e51b815260206004820152600f60248201526e27b7363c903134b6361036b0b5b2b960891b6044820152606490fd5b1561127057565b60405162461bcd60e51b81526020600482015260086024820152674e6f2066756e647360c01b6044820152606490fd5b3d156112e65767ffffffffffffffff903d8281116111965760405192601f8201601f19908116603f01168401908111848210176111965760405282523d6000602084013e565b606090565b156112f257565b60405162461bcd60e51b815260206004820152601560248201527414185e595c881d1c985b9cd9995c8819985a5b1959605a1b6044820152606490fd5b1561133657565b60405162461bcd60e51b8152602060048201526013602482015272119959481d1c985b9cd9995c8819985a5b1959606a1b6044820152606490fd5b1561137857565b60405162461bcd60e51b81526020600482015260166024820152751499599d5b99081d1c985b9cd9995c8819985a5b195960521b6044820152606490fd5b60ff60015416156113c357565b604051638dfc202b60e01b8152600490fdfea264697066735822122065c60dd1eb0c9d6fc234213ebe35f79f3dd5fe3388c1a5e94654865762dc0eb864736f6c63430008140033","opcodes":"PUSH1 0x80 CALLVALUE PUSH2 0x12B JUMPI PUSH1 0x1F PUSH2 0x1552 CODESIZE DUP2 SWAP1 SUB SWAP2 DUP3 ADD PUSH1 0x1F NOT AND DUP4 ADD SWAP2 PUSH1 0x1 PUSH1 0x1 PUSH1 0x40 SHL SUB DUP4 GT DUP5 DUP5 LT OR PUSH2 0x130 JUMPI DUP1 DUP5 SWAP3 PUSH1 0x20 SWAP5 PUSH1 0x40 MSTORE DUP4 CODECOPY DUP2 ADD SUB SLT PUSH2 0x12B JUMPI MLOAD PUSH1 0x1 PUSH1 0x1 PUSH1 0xA0 SHL SUB DUP1 DUP3 AND SWAP2 DUP3 SWAP1 SUB PUSH2 0x12B JUMPI PUSH1 0x1 PUSH1 0x0 SSTORE CALLER ISZERO PUSH2 0x112 JUMPI PUSH1 0x1 DUP1 SLOAD PUSH2 0x100 PUSH1 0x1 PUSH1 0xA8 SHL SUB NOT DUP2 AND CALLER PUSH1 0x8 DUP2 DUP2 SHL PUSH2 0x100 PUSH1 0x1 PUSH1 0xA8 SHL SUB AND SWAP3 SWAP1 SWAP3 OR SWAP1 SWAP4 SSTORE PUSH1 0x40 MLOAD SWAP4 SWAP2 SWAP1 SHR AND PUSH32 0x8BE0079C531659141344CD1FD0A4F28419497F9722A3DAAFE3B4186F6B6457E0 PUSH1 0x0 DUP1 LOG3 DUP2 ISZERO PUSH2 0xDB JUMPI POP PUSH1 0x4 DUP1 SLOAD PUSH1 0x1 PUSH1 0x1 PUSH1 0xA0 SHL SUB NOT AND SWAP2 SWAP1 SWAP2 OR SWAP1 SSTORE PUSH1 0x40 MLOAD PUSH2 0x140B SWAP1 DUP2 PUSH2 0x147 DUP3 CODECOPY RETURN JUMPDEST PUSH3 0x461BCD PUSH1 0xE5 SHL DUP2 MSTORE PUSH1 0x20 PUSH1 0x4 DUP3 ADD MSTORE PUSH1 0x12 PUSH1 0x24 DUP3 ADD MSTORE PUSH18 0x125B9D985B1A5908199959481DD85B1B195D PUSH1 0x72 SHL PUSH1 0x44 DUP3 ADD MSTORE PUSH1 0x64 SWAP1 REVERT JUMPDEST PUSH1 0x40 MLOAD PUSH4 0x1E4FBDF7 PUSH1 0xE0 SHL DUP2 MSTORE PUSH1 0x0 PUSH1 0x4 DUP3 ADD MSTORE PUSH1 0x24 SWAP1 REVERT JUMPDEST PUSH1 0x0 DUP1 REVERT JUMPDEST PUSH4 0x4E487B71 PUSH1 0xE0 SHL PUSH1 0x0 MSTORE PUSH1 0x41 PUSH1 0x4 MSTORE PUSH1 0x24 PUSH1 0x0 REVERT INVALID PUSH1 0x80 PUSH1 0x40 MSTORE PUSH1 0x4 CALLDATASIZE LT ISZERO PUSH2 0x1B JUMPI JUMPDEST CALLDATASIZE ISZERO PUSH2 0x19 JUMPI PUSH1 0x0 DUP1 REVERT JUMPDEST STOP JUMPDEST PUSH1 0xE0 PUSH1 0x0 CALLDATALOAD DUP2 SHR SWAP1 DUP2 PUSH4 0x1930EAE7 EQ PUSH2 0xF82 JUMPI DUP2 PUSH4 0x1C8F0789 EQ PUSH2 0xD96 JUMPI DUP2 PUSH4 0x2185AB6C EQ PUSH2 0xBAD JUMPI DUP2 PUSH4 0x286FDA3B EQ PUSH2 0xB3D JUMPI DUP2 PUSH4 0x28BDCDE8 EQ PUSH2 0xAB3 JUMPI DUP2 PUSH4 0x34B25EE2 EQ PUSH2 0x8F0 JUMPI DUP2 PUSH4 0x3F4BA83A EQ PUSH2 0x899 JUMPI DUP2 PUSH4 0x5C975ABB EQ PUSH2 0x876 JUMPI DUP2 PUSH4 0x67762988 EQ PUSH2 0x7D7 JUMPI DUP2 PUSH4 0x715018A6 EQ PUSH2 0x776 JUMPI DUP2 PUSH4 0x8456CB59 EQ PUSH2 0x71D JUMPI DUP2 PUSH4 0x8DA5CB5B EQ PUSH2 0x6F0 JUMPI DUP2 PUSH4 0x90D49B9D EQ PUSH2 0x642 JUMPI DUP2 PUSH4 0x9C078C3A EQ PUSH2 0x538 JUMPI DUP2 PUSH4 0x9D7A0339 EQ PUSH2 0x51A JUMPI DUP2 PUSH4 0xA5C1674E EQ PUSH2 0x3C7 JUMPI DUP2 PUSH4 0xB1CD06E6 EQ PUSH2 0x2BF JUMPI POP DUP1 PUSH4 0xDB2E21BC EQ PUSH2 0x204 JUMPI DUP1 PUSH4 0xF25F4B56 EQ PUSH2 0x1DB JUMPI DUP1 PUSH4 0xF2FDE38B EQ PUSH2 0x140 JUMPI PUSH4 0xF6AACFB1 SUB PUSH2 0xE JUMPI CALLVALUE PUSH2 0x13B JUMPI PUSH1 0x20 CALLDATASIZE PUSH1 0x3 NOT ADD SLT PUSH2 0x13B JUMPI PUSH1 0x4 CALLDATALOAD PUSH1 0x0 MSTORE PUSH1 0x2 PUSH1 0x20 MSTORE PUSH1 0x20 PUSH1 0x2 PUSH1 0x40 PUSH1 0x0 KECCAK256 ADD SLOAD ISZERO ISZERO PUSH1 0x40 MLOAD SWAP1 DUP2 MSTORE RETURN JUMPDEST PUSH1 0x0 DUP1 REVERT JUMPDEST CALLVALUE PUSH2 0x13B JUMPI PUSH1 0x20 CALLDATASIZE PUSH1 0x3 NOT ADD SLT PUSH2 0x13B JUMPI PUSH1 0x4 CALLDATALOAD PUSH1 0x1 PUSH1 0x1 PUSH1 0xA0 SHL SUB DUP2 DUP2 AND SWAP2 DUP3 DUP2 SUB PUSH2 0x13B JUMPI PUSH2 0x16F PUSH2 0x112C JUMP JUMPDEST DUP3 ISZERO PUSH2 0x1C2 JUMPI PUSH1 0x1 DUP1 SLOAD PUSH2 0x100 PUSH1 0x1 PUSH1 0xA8 SHL SUB NOT DUP2 AND PUSH1 0x8 SWAP4 DUP5 SHL PUSH2 0x100 PUSH1 0x1 PUSH1 0xA8 SHL SUB AND OR SWAP1 SWAP2 SSTORE SWAP1 SHR AND PUSH32 0x8BE0079C531659141344CD1FD0A4F28419497F9722A3DAAFE3B4186F6B6457E0 PUSH1 0x0 DUP1 LOG3 STOP JUMPDEST PUSH1 0x40 MLOAD PUSH4 0x1E4FBDF7 PUSH1 0xE0 SHL DUP2 MSTORE PUSH1 0x0 PUSH1 0x4 DUP3 ADD MSTORE PUSH1 0x24 SWAP1 REVERT JUMPDEST CALLVALUE PUSH2 0x13B JUMPI PUSH1 0x0 CALLDATASIZE PUSH1 0x3 NOT ADD SLT PUSH2 0x13B JUMPI PUSH1 0x4 SLOAD PUSH1 0x40 MLOAD PUSH1 0x1 PUSH1 0x1 PUSH1 0xA0 SHL SUB SWAP1 SWAP2 AND DUP2 MSTORE PUSH1 0x20 SWAP1 RETURN JUMPDEST CALLVALUE PUSH2 0x13B JUMPI PUSH1 0x0 CALLDATASIZE PUSH1 0x3 NOT ADD SLT PUSH2 0x13B JUMPI PUSH2 0x21D PUSH2 0x112C JUMP JUMPDEST PUSH2 0x225 PUSH2 0x13B6 JUMP JUMPDEST SELFBALANCE DUP1 ISZERO PUSH2 0x28D JUMPI PUSH1 0x1 SLOAD PUSH1 0x0 SWAP2 DUP3 SWAP2 DUP3 SWAP2 DUP3 SWAP2 PUSH1 0x8 SHR PUSH1 0x1 PUSH1 0x1 PUSH1 0xA0 SHL SUB AND GAS CALL PUSH2 0x24E PUSH2 0x12A0 JUMP JUMPDEST POP ISZERO PUSH2 0x256 JUMPI STOP JUMPDEST PUSH1 0x40 MLOAD PUSH3 0x461BCD PUSH1 0xE5 SHL DUP2 MSTORE PUSH1 0x20 PUSH1 0x4 DUP3 ADD MSTORE PUSH1 0xF PUSH1 0x24 DUP3 ADD MSTORE PUSH15 0x15DA5D1A191C985DC819985A5B1959 PUSH1 0x8A SHL PUSH1 0x44 DUP3 ADD MSTORE PUSH1 0x64 SWAP1 REVERT JUMPDEST PUSH1 0x40 MLOAD PUSH3 0x461BCD PUSH1 0xE5 SHL DUP2 MSTORE PUSH1 0x20 PUSH1 0x4 DUP3 ADD MSTORE PUSH1 0xA PUSH1 0x24 DUP3 ADD MSTORE PUSH10 0x4E6F2062616C616E6365 PUSH1 0xB0 SHL PUSH1 0x44 DUP3 ADD MSTORE PUSH1 0x64 SWAP1 REVERT JUMPDEST CALLVALUE PUSH2 0x13B JUMPI PUSH1 0x20 CALLDATASIZE PUSH1 0x3 NOT ADD SLT PUSH2 0x13B JUMPI DUP1 PUSH1 0x0 PUSH2 0x100 SWAP3 PUSH2 0x2DF PUSH2 0x1175 JUMP JUMPDEST DUP3 DUP2 MSTORE DUP3 PUSH1 0x20 DUP3 ADD MSTORE DUP3 PUSH1 0x40 DUP3 ADD MSTORE DUP3 PUSH1 0x60 DUP3 ADD MSTORE DUP3 PUSH1 0x80 DUP3 ADD MSTORE DUP3 PUSH1 0xA0 DUP3 ADD MSTORE DUP3 PUSH1 0xC0 DUP3 ADD MSTORE ADD MSTORE PUSH1 0x4 CALLDATALOAD PUSH1 0x0 MSTORE PUSH1 0x2 PUSH1 0x20 MSTORE PUSH1 0x40 PUSH1 0x0 KECCAK256 SWAP1 PUSH2 0x321 PUSH2 0x1175 JUMP JUMPDEST PUSH1 0x1 DUP1 PUSH1 0xA0 SHL SUB SWAP3 DUP4 DUP2 SLOAD AND SWAP4 DUP5 DUP4 MSTORE DUP1 PUSH1 0x1 DUP4 ADD SLOAD AND PUSH1 0x20 DUP5 ADD SWAP1 DUP2 MSTORE PUSH1 0x2 DUP4 ADD SLOAD PUSH1 0x40 DUP6 ADD SWAP1 DUP2 MSTORE PUSH1 0x3 DUP5 ADD SLOAD SWAP1 PUSH1 0x60 DUP7 ADD SWAP2 DUP3 MSTORE PUSH1 0x4 DUP6 ADD SLOAD SWAP4 PUSH1 0x80 DUP8 ADD SWAP4 PUSH1 0xFF DUP7 AND ISZERO ISZERO DUP6 MSTORE PUSH1 0xFF PUSH1 0xA0 DUP10 ADD SWAP7 PUSH1 0x8 SHR AND ISZERO ISZERO DUP7 MSTORE DUP9 PUSH1 0x6 PUSH1 0x5 DUP10 ADD SLOAD SWAP9 PUSH1 0xC0 DUP12 ADD SWAP10 DUP11 MSTORE ADD SLOAD SWAP9 ADD SWAP8 DUP9 MSTORE PUSH1 0x40 MLOAD SWAP10 DUP11 MSTORE MLOAD AND PUSH1 0x20 DUP10 ADD MSTORE MLOAD PUSH1 0x40 DUP9 ADD MSTORE MLOAD PUSH1 0x60 DUP8 ADD MSTORE MLOAD ISZERO ISZERO PUSH1 0x80 DUP7 ADD MSTORE MLOAD ISZERO ISZERO PUSH1 0xA0 DUP6 ADD MSTORE MLOAD PUSH1 0xC0 DUP5 ADD MSTORE MLOAD SWAP1 DUP3 ADD MSTORE RETURN JUMPDEST CALLVALUE PUSH2 0x13B JUMPI PUSH1 0x20 CALLDATASIZE PUSH1 0x3 NOT ADD SLT PUSH2 0x13B JUMPI PUSH1 0x4 CALLDATALOAD PUSH1 0x0 DUP2 DUP2 MSTORE PUSH1 0x2 PUSH1 0x20 MSTORE PUSH1 0x40 SWAP1 KECCAK256 DUP1 SLOAD CALLER PUSH1 0x1 PUSH1 0x1 PUSH1 0xA0 SHL SUB SWAP2 DUP3 AND EQ SWAP1 DUP2 ISZERO PUSH2 0x50A JUMPI JUMPDEST POP ISZERO PUSH2 0x4D4 JUMPI PUSH1 0x4 DUP2 ADD SWAP1 DUP2 SLOAD PUSH1 0xFF DUP2 AND PUSH2 0x49B JUMPI PUSH1 0xFF DUP2 PUSH1 0x8 SHR AND PUSH2 0x463 JUMPI PUSH2 0x432 PUSH1 0x2 PUSH2 0x100 SWAP4 ADD SLOAD ISZERO ISZERO PUSH2 0x1269 JUMP JUMPDEST PUSH2 0xFF00 NOT AND OR SWAP1 SSTORE CALLER SWAP1 PUSH32 0xCDE8E21E97A7F6EC4BBF0EE44450212E0BA73BE8FDFBFB2B155E861D86756BAC PUSH1 0x0 DUP1 LOG3 STOP JUMPDEST PUSH1 0x40 MLOAD PUSH3 0x461BCD PUSH1 0xE5 SHL DUP2 MSTORE PUSH1 0x20 PUSH1 0x4 DUP3 ADD MSTORE PUSH1 0x10 PUSH1 0x24 DUP3 ADD MSTORE PUSH16 0x105B1C9958591E48191A5CDC1D5D1959 PUSH1 0x82 SHL PUSH1 0x44 DUP3 ADD MSTORE PUSH1 0x64 SWAP1 REVERT JUMPDEST PUSH1 0x40 MLOAD PUSH3 0x461BCD PUSH1 0xE5 SHL DUP2 MSTORE PUSH1 0x20 PUSH1 0x4 DUP3 ADD MSTORE PUSH1 0x11 PUSH1 0x24 DUP3 ADD MSTORE PUSH17 0x105B1C9958591E4818DBDB5C1B195D1959 PUSH1 0x7A SHL PUSH1 0x44 DUP3 ADD MSTORE PUSH1 0x64 SWAP1 REVERT JUMPDEST PUSH1 0x40 MLOAD PUSH3 0x461BCD PUSH1 0xE5 SHL DUP2 MSTORE PUSH1 0x20 PUSH1 0x4 DUP3 ADD MSTORE PUSH1 0xE PUSH1 0x24 DUP3 ADD MSTORE PUSH14 0x139BDD08185D5D1A1BDC9A5E9959 PUSH1 0x92 SHL PUSH1 0x44 DUP3 ADD MSTORE PUSH1 0x64 SWAP1 REVERT JUMPDEST SWAP1 POP PUSH1 0x1 DUP3 ADD SLOAD AND CALLER EQ DUP4 PUSH2 0x400 JUMP JUMPDEST CALLVALUE PUSH2 0x13B JUMPI PUSH1 0x0 CALLDATASIZE PUSH1 0x3 NOT ADD SLT PUSH2 0x13B JUMPI PUSH1 0x20 PUSH1 0x3 SLOAD PUSH1 0x40 MLOAD SWAP1 DUP2 MSTORE RETURN JUMPDEST CALLVALUE PUSH2 0x13B JUMPI PUSH1 0x20 CALLDATASIZE PUSH1 0x3 NOT ADD SLT PUSH2 0x13B JUMPI PUSH1 0x4 CALLDATALOAD PUSH2 0x554 PUSH2 0x11CA JUMP JUMPDEST DUP1 PUSH1 0x0 MSTORE PUSH1 0x2 PUSH1 0x20 MSTORE PUSH1 0x40 PUSH1 0x0 KECCAK256 PUSH1 0x6 DUP2 ADD SLOAD TIMESTAMP GT ISZERO PUSH2 0x60F JUMPI PUSH1 0x1 DUP2 ADD SLOAD PUSH1 0x1 PUSH1 0x1 PUSH1 0xA0 SHL SUB SWAP2 SWAP1 PUSH2 0x589 SWAP1 DUP4 AND ISZERO PUSH2 0x11ED JUMP JUMPDEST PUSH2 0x5D3 PUSH1 0x0 DUP1 DUP1 DUP1 PUSH1 0x2 DUP7 ADD DUP2 DUP2 SLOAD DUP1 ISZERO DUP1 ISZERO SWAP1 PUSH2 0x602 JUMPI JUMPDEST PUSH2 0x5AB SWAP1 PUSH2 0x1269 JUMP JUMPDEST DUP2 PUSH2 0x5BC PUSH1 0x3 DUP12 ADD SWAP3 DUP4 SLOAD SWAP1 PUSH2 0x1168 JUMP JUMPDEST SWAP4 SSTORE SSTORE DUP8 DUP8 SLOAD AND GAS CALL PUSH2 0x5CD PUSH2 0x12A0 JUMP JUMPDEST POP PUSH2 0x1371 JUMP JUMPDEST SLOAD AND SWAP1 PUSH32 0x16E7A7A8FD7C51D6B4D059D6D7EEA946BFF398EEE64DD1894AF645EDD23D502B PUSH1 0x0 DUP1 LOG3 PUSH1 0x1 PUSH1 0x0 SSTORE STOP JUMPDEST POP PUSH1 0x3 DUP10 ADD SLOAD ISZERO ISZERO PUSH2 0x5A2 JUMP JUMPDEST PUSH1 0x40 MLOAD PUSH3 0x461BCD PUSH1 0xE5 SHL DUP2 MSTORE PUSH1 0x20 PUSH1 0x4 DUP3 ADD MSTORE PUSH1 0xB PUSH1 0x24 DUP3 ADD MSTORE PUSH11 0x139BDD08195E1C1A5C9959 PUSH1 0xAA SHL PUSH1 0x44 DUP3 ADD MSTORE PUSH1 0x64 SWAP1 REVERT JUMPDEST CALLVALUE PUSH2 0x13B JUMPI PUSH1 0x20 CALLDATASIZE PUSH1 0x3 NOT ADD SLT PUSH2 0x13B JUMPI PUSH1 0x4 CALLDATALOAD PUSH1 0x1 PUSH1 0x1 PUSH1 0xA0 SHL SUB DUP2 DUP2 AND SWAP2 DUP3 SWAP1 SUB PUSH2 0x13B JUMPI PUSH2 0x671 PUSH2 0x112C JUMP JUMPDEST DUP2 ISZERO PUSH2 0x6B9 JUMPI PUSH1 0x4 SLOAD DUP3 PUSH12 0xFFFFFFFFFFFFFFFFFFFFFFFF PUSH1 0xA0 SHL DUP3 AND OR PUSH1 0x4 SSTORE AND PUSH32 0x362A006325D32978B283E449D254CFCF93E2CCCC321603EAD9A74238D8DBF36E PUSH1 0x0 DUP1 LOG3 STOP JUMPDEST PUSH1 0x40 MLOAD PUSH3 0x461BCD PUSH1 0xE5 SHL DUP2 MSTORE PUSH1 0x20 PUSH1 0x4 DUP3 ADD MSTORE PUSH1 0xF PUSH1 0x24 DUP3 ADD MSTORE PUSH15 0x496E76616C69642061646472657373 PUSH1 0x88 SHL PUSH1 0x44 DUP3 ADD MSTORE PUSH1 0x64 SWAP1 REVERT JUMPDEST CALLVALUE PUSH2 0x13B JUMPI PUSH1 0x0 CALLDATASIZE PUSH1 0x3 NOT ADD SLT PUSH2 0x13B JUMPI PUSH1 0x1 SLOAD PUSH1 0x40 MLOAD PUSH1 0x8 SWAP2 SWAP1 SWAP2 SHR PUSH1 0x1 PUSH1 0x1 PUSH1 0xA0 SHL SUB AND DUP2 MSTORE PUSH1 0x20 SWAP1 RETURN JUMPDEST CALLVALUE PUSH2 0x13B JUMPI PUSH1 0x0 CALLDATASIZE PUSH1 0x3 NOT ADD SLT PUSH2 0x13B JUMPI PUSH2 0x736 PUSH2 0x112C JUMP JUMPDEST PUSH2 0x73E PUSH2 0x11AC JUMP JUMPDEST PUSH1 0x1 PUSH1 0xFF NOT DUP2 SLOAD AND OR PUSH1 0x1 SSTORE PUSH32 0x62E78CEA01BEE320CD4E420270B5EA74000D11B0C9F74754EBDBFC544B05A258 PUSH1 0x20 PUSH1 0x40 MLOAD CALLER DUP2 MSTORE LOG1 STOP JUMPDEST CALLVALUE PUSH2 0x13B JUMPI PUSH1 0x0 CALLDATASIZE PUSH1 0x3 NOT ADD SLT PUSH2 0x13B JUMPI PUSH2 0x78F PUSH2 0x112C JUMP JUMPDEST PUSH1 0x1 DUP1 SLOAD PUSH2 0x100 PUSH1 0x1 PUSH1 0xA8 SHL SUB NOT DUP2 AND SWAP1 SWAP2 SSTORE PUSH1 0x0 SWAP1 PUSH1 0x8 SHR PUSH1 0x1 PUSH1 0x1 PUSH1 0xA0 SHL SUB AND PUSH32 0x8BE0079C531659141344CD1FD0A4F28419497F9722A3DAAFE3B4186F6B6457E0 DUP3 DUP1 LOG3 STOP JUMPDEST CALLVALUE PUSH2 0x13B JUMPI PUSH1 0x20 CALLDATASIZE PUSH1 0x3 NOT ADD SLT PUSH2 0x13B JUMPI PUSH1 0x4 CALLDATALOAD PUSH2 0x7F3 PUSH2 0x11CA JUMP JUMPDEST DUP1 PUSH1 0x0 MSTORE PUSH1 0x2 PUSH1 0x20 MSTORE PUSH1 0x40 PUSH1 0x0 KECCAK256 PUSH1 0x1 DUP1 PUSH1 0xA0 SHL SUB SWAP1 PUSH2 0x5D3 PUSH1 0x0 DUP1 DUP1 DUP1 DUP7 DUP7 SLOAD AND PUSH2 0x820 DUP2 CALLER EQ PUSH2 0x122B JUMP JUMPDEST PUSH2 0x830 DUP9 PUSH1 0x1 DUP10 ADD SLOAD AND ISZERO PUSH2 0x11ED JUMP JUMPDEST PUSH1 0x2 DUP8 ADD SWAP1 DUP3 DUP3 SLOAD DUP1 ISZERO DUP1 ISZERO SWAP1 PUSH2 0x869 JUMPI JUMPDEST PUSH2 0x84B SWAP1 PUSH2 0x1269 JUMP JUMPDEST DUP2 PUSH2 0x85C PUSH1 0x3 DUP13 ADD SWAP3 DUP4 SLOAD SWAP1 PUSH2 0x1168 JUMP JUMPDEST SWAP5 SSTORE SSTORE GAS CALL PUSH2 0x5CD PUSH2 0x12A0 JUMP JUMPDEST POP PUSH1 0x3 DUP11 ADD SLOAD ISZERO ISZERO PUSH2 0x842 JUMP JUMPDEST CALLVALUE PUSH2 0x13B JUMPI PUSH1 0x0 CALLDATASIZE PUSH1 0x3 NOT ADD SLT PUSH2 0x13B JUMPI PUSH1 0x20 PUSH1 0xFF PUSH1 0x1 SLOAD AND PUSH1 0x40 MLOAD SWAP1 ISZERO ISZERO DUP2 MSTORE RETURN JUMPDEST CALLVALUE PUSH2 0x13B JUMPI PUSH1 0x0 CALLDATASIZE PUSH1 0x3 NOT ADD SLT PUSH2 0x13B JUMPI PUSH2 0x8B2 PUSH2 0x112C JUMP JUMPDEST PUSH2 0x8BA PUSH2 0x13B6 JUMP JUMPDEST PUSH1 0xFF NOT PUSH1 0x1 SLOAD AND PUSH1 0x1 SSTORE PUSH32 0x5DB9EE0A495BF2E6FF9C91A7834C1BA4FDD244A5E8AA4E537BD38AEAE4B073AA PUSH1 0x20 PUSH1 0x40 MLOAD CALLER DUP2 MSTORE LOG1 STOP JUMPDEST CALLVALUE PUSH2 0x13B JUMPI PUSH1 0x40 CALLDATASIZE PUSH1 0x3 NOT ADD SLT PUSH2 0x13B JUMPI PUSH1 0x4 CALLDATALOAD PUSH1 0x24 CALLDATALOAD DUP1 ISZERO ISZERO DUP2 SUB PUSH2 0x13B JUMPI PUSH2 0x918 PUSH2 0x112C JUMP JUMPDEST PUSH2 0x920 PUSH2 0x11CA JUMP JUMPDEST DUP2 PUSH1 0x0 MSTORE PUSH1 0x2 PUSH1 0x20 MSTORE PUSH1 0x40 PUSH1 0x0 KECCAK256 SWAP1 PUSH1 0x4 DUP3 ADD SWAP1 DUP2 SLOAD SWAP1 PUSH1 0xFF DUP3 PUSH1 0x8 SHR AND ISZERO PUSH2 0xA7F JUMPI PUSH1 0x2 DUP5 ADD SWAP3 DUP4 SLOAD SWAP3 DUP4 ISZERO DUP1 ISZERO SWAP1 PUSH2 0xA72 JUMPI JUMPDEST PUSH2 0x95E SWAP1 PUSH2 0x1269 JUMP JUMPDEST PUSH1 0x0 PUSH1 0x3 DUP8 ADD DUP2 DUP2 SLOAD SWAP8 SSTORE SSTORE PUSH2 0xFF00 NOT AND SWAP1 SSTORE DUP1 PUSH2 0xA5C JUMPI JUMPDEST ISZERO PUSH2 0xA04 JUMPI PUSH1 0x0 DUP1 DUP1 DUP1 PUSH2 0x9A4 SWAP5 PUSH1 0x1 SWAP8 DUP9 DUP1 PUSH1 0xA0 SHL SUB SWAP9 DUP10 SWAP2 ADD SLOAD AND GAS CALL PUSH2 0x99E PUSH2 0x12A0 JUMP JUMPDEST POP PUSH2 0x12EB JUMP JUMPDEST DUP1 PUSH2 0x9DF JUMPI JUMPDEST POP POP PUSH32 0x5A87909BFF68CAAAAF0B3FD9C74EECCC928832F879315E5C6FB7A73612F26C0C PUSH1 0x20 PUSH1 0x40 MLOAD PUSH1 0x1 DUP2 MSTORE LOG2 JUMPDEST PUSH1 0x1 PUSH1 0x0 SSTORE STOP JUMPDEST PUSH1 0x0 DUP1 DUP1 DUP1 SWAP4 PUSH2 0x9FD SWAP6 PUSH1 0x4 SLOAD AND GAS CALL PUSH2 0x9F7 PUSH2 0x12A0 JUMP JUMPDEST POP PUSH2 0x132F JUMP JUMPDEST DUP2 DUP1 PUSH2 0x9AA JUMP JUMPDEST PUSH1 0x0 DUP1 PUSH2 0xA2C SWAP5 PUSH2 0xA17 DUP3 SWAP6 DUP4 SWAP6 PUSH2 0x1168 JUMP JUMPDEST SWAP1 SLOAD PUSH1 0x1 PUSH1 0x1 PUSH1 0xA0 SHL SUB AND GAS CALL PUSH2 0x5CD PUSH2 0x12A0 JUMP JUMPDEST PUSH32 0x5A87909BFF68CAAAAF0B3FD9C74EECCC928832F879315E5C6FB7A73612F26C0C PUSH1 0x20 PUSH1 0x40 MLOAD PUSH1 0x0 DUP2 MSTORE LOG2 PUSH2 0x9D8 JUMP JUMPDEST POP PUSH1 0x1 DUP4 ADD SLOAD PUSH1 0x1 PUSH1 0x1 PUSH1 0xA0 SHL SUB AND ISZERO ISZERO PUSH2 0x977 JUMP JUMPDEST POP PUSH1 0x3 DUP7 ADD SLOAD ISZERO ISZERO PUSH2 0x955 JUMP JUMPDEST PUSH1 0x40 MLOAD PUSH3 0x461BCD PUSH1 0xE5 SHL DUP2 MSTORE PUSH1 0x20 PUSH1 0x4 DUP3 ADD MSTORE PUSH1 0xC PUSH1 0x24 DUP3 ADD MSTORE PUSH12 0x139BDD08191A5CDC1D5D1959 PUSH1 0xA2 SHL PUSH1 0x44 DUP3 ADD MSTORE PUSH1 0x64 SWAP1 REVERT JUMPDEST CALLVALUE PUSH2 0x13B JUMPI PUSH1 0x20 CALLDATASIZE PUSH1 0x3 NOT ADD SLT PUSH2 0x13B JUMPI PUSH2 0x100 SWAP1 PUSH1 0x4 CALLDATALOAD PUSH1 0x0 MSTORE PUSH1 0x2 PUSH1 0x20 MSTORE PUSH1 0x40 PUSH1 0x0 KECCAK256 PUSH1 0x1 DUP1 PUSH1 0xA0 SHL SUB SWAP2 DUP3 DUP3 SLOAD AND SWAP3 PUSH1 0x1 DUP4 ADD SLOAD AND SWAP2 PUSH1 0xFF PUSH1 0x2 DUP3 ADD SLOAD PUSH1 0x3 DUP4 ADD SLOAD PUSH1 0x4 DUP5 ADD SLOAD SWAP2 PUSH1 0x6 PUSH1 0x5 DUP7 ADD SLOAD SWAP6 ADD SLOAD SWAP7 PUSH1 0x40 MLOAD SWAP9 DUP10 MSTORE PUSH1 0x20 DUP10 ADD MSTORE PUSH1 0x40 DUP9 ADD MSTORE PUSH1 0x60 DUP8 ADD MSTORE DUP2 DUP2 AND ISZERO ISZERO PUSH1 0x80 DUP8 ADD MSTORE PUSH1 0x8 SHR AND ISZERO ISZERO PUSH1 0xA0 DUP6 ADD MSTORE PUSH1 0xC0 DUP5 ADD MSTORE DUP3 ADD MSTORE RETURN JUMPDEST CALLVALUE PUSH2 0x13B JUMPI PUSH1 0x20 CALLDATASIZE PUSH1 0x3 NOT ADD SLT PUSH2 0x13B JUMPI PUSH1 0x4 CALLDATALOAD PUSH1 0x0 MSTORE PUSH1 0x2 PUSH1 0x20 MSTORE PUSH1 0xA0 PUSH1 0x40 PUSH1 0x0 KECCAK256 PUSH1 0x1 DUP1 DUP4 SHL SUB SWAP1 PUSH1 0xFF DUP3 DUP3 SLOAD AND ISZERO ISZERO SWAP3 PUSH1 0x1 DUP4 ADD SLOAD AND ISZERO ISZERO SWAP2 PUSH1 0x6 PUSH1 0x4 DUP3 ADD SLOAD SWAP2 ADD SLOAD TIMESTAMP GT SWAP3 PUSH1 0x40 MLOAD SWAP5 DUP6 MSTORE PUSH1 0x20 DUP6 ADD MSTORE DUP2 DUP2 AND ISZERO ISZERO PUSH1 0x40 DUP6 ADD MSTORE PUSH1 0x8 SHR AND ISZERO ISZERO PUSH1 0x60 DUP4 ADD MSTORE PUSH1 0x80 DUP3 ADD MSTORE RETURN JUMPDEST CALLVALUE PUSH2 0x13B JUMPI PUSH1 0x20 CALLDATASIZE PUSH1 0x3 NOT ADD SLT PUSH2 0x13B JUMPI PUSH2 0xBC6 PUSH2 0x11CA JUMP JUMPDEST PUSH2 0xBCE PUSH2 0x11AC JUMP JUMPDEST PUSH1 0x4 CALLDATALOAD PUSH1 0x0 MSTORE PUSH1 0x2 PUSH1 0x20 MSTORE PUSH1 0x40 PUSH1 0x0 KECCAK256 PUSH2 0xBF2 PUSH1 0x1 DUP1 PUSH1 0xA0 SHL SUB DUP3 SLOAD AND CALLER EQ PUSH2 0x122B JUMP JUMPDEST PUSH1 0x1 DUP2 ADD SLOAD PUSH1 0x1 PUSH1 0x1 PUSH1 0xA0 SHL SUB AND SWAP1 DUP2 ISZERO PUSH2 0xD63 JUMPI PUSH1 0x4 DUP2 ADD SLOAD SWAP2 PUSH1 0xFF DUP4 AND PUSH2 0xD2A JUMPI PUSH1 0xFF DUP4 PUSH1 0x8 SHR AND PUSH2 0xCF5 JUMPI PUSH1 0x1 PUSH1 0x2 DUP4 ADD SLOAD SWAP4 PUSH2 0xC33 DUP6 ISZERO ISZERO PUSH2 0x1269 JUMP JUMPDEST PUSH1 0xFF NOT AND OR PUSH1 0x4 DUP4 ADD SSTORE PUSH2 0xC60 PUSH1 0x0 DUP1 DUP1 DUP1 DUP8 PUSH1 0x3 DUP9 ADD SWAP7 DUP3 DUP9 SLOAD SWAP9 DUP2 PUSH1 0x2 DUP13 ADD SSTORE SSTORE GAS CALL PUSH2 0x99E PUSH2 0x12A0 JUMP JUMPDEST DUP1 PUSH2 0xCD1 JUMPI JUMPDEST POP PUSH1 0x40 MLOAD SWAP1 PUSH1 0x4 CALLDATALOAD PUSH32 0xE56E5977B732B68B6C4E6F2E2DC7332C3216577B919CA691580A29E7C31D3857 PUSH1 0x0 DUP1 LOG2 PUSH1 0x1 DUP1 DUP1 PUSH1 0xA0 SHL SUB SWAP2 ADD SLOAD AND SWAP2 DUP2 MSTORE PUSH32 0xF9282AF8E11684C310510CFF927AEC4090AC6433818B2B9331F29223A6DECBA2 PUSH1 0x20 PUSH1 0x4 CALLDATALOAD SWAP3 LOG3 PUSH1 0x1 PUSH1 0x0 SSTORE STOP JUMPDEST PUSH1 0x0 DUP1 DUP1 DUP1 PUSH2 0xCEF SWAP5 PUSH1 0x1 DUP1 PUSH1 0xA0 SHL SUB PUSH1 0x4 SLOAD AND GAS CALL PUSH2 0x9F7 PUSH2 0x12A0 JUMP JUMPDEST DUP3 PUSH2 0xC66 JUMP JUMPDEST PUSH1 0x40 MLOAD PUSH3 0x461BCD PUSH1 0xE5 SHL DUP2 MSTORE PUSH1 0x20 PUSH1 0x4 DUP3 ADD MSTORE PUSH1 0xD PUSH1 0x24 DUP3 ADD MSTORE PUSH13 0x109A5B1B08191A5CDC1D5D1959 PUSH1 0x9A SHL PUSH1 0x44 DUP3 ADD MSTORE PUSH1 0x64 SWAP1 REVERT JUMPDEST PUSH1 0x40 MLOAD PUSH3 0x461BCD PUSH1 0xE5 SHL DUP2 MSTORE PUSH1 0x20 PUSH1 0x4 DUP3 ADD MSTORE PUSH1 0x11 PUSH1 0x24 DUP3 ADD MSTORE PUSH17 0x105B1C9958591E4818DBDB999A5C9B5959 PUSH1 0x7A SHL PUSH1 0x44 DUP3 ADD MSTORE PUSH1 0x64 SWAP1 REVERT JUMPDEST PUSH1 0x40 MLOAD PUSH3 0x461BCD PUSH1 0xE5 SHL DUP2 MSTORE PUSH1 0x20 PUSH1 0x4 DUP3 ADD MSTORE PUSH1 0xB PUSH1 0x24 DUP3 ADD MSTORE PUSH11 0x139BDD0818DB185A5B5959 PUSH1 0xAA SHL PUSH1 0x44 DUP3 ADD MSTORE PUSH1 0x64 SWAP1 REVERT JUMPDEST PUSH1 0x20 SWAP1 DUP2 PUSH1 0x3 NOT CALLDATASIZE ADD SLT PUSH2 0x13B JUMPI PUSH1 0x4 CALLDATALOAD SWAP1 PUSH2 0xDB0 PUSH2 0x11CA JUMP JUMPDEST PUSH2 0xDB8 PUSH2 0x11AC JUMP JUMPDEST DUP2 CALLVALUE GT ISZERO PUSH2 0xF44 JUMPI CALLVALUE ISZERO PUSH2 0xF0C JUMPI PUSH1 0x3 SLOAD PUSH1 0x0 NOT DUP2 EQ PUSH2 0xEF6 JUMPI PUSH1 0x1 ADD SWAP1 DUP2 PUSH1 0x3 SSTORE PUSH2 0xDE4 DUP4 CALLVALUE PUSH2 0x115B JUMP JUMPDEST SWAP1 PUSH3 0x93A80 TIMESTAMP ADD SWAP1 DUP2 TIMESTAMP GT PUSH2 0xEF6 JUMPI PUSH1 0x6 SWAP3 PUSH2 0xDFE PUSH2 0x1175 JUMP JUMPDEST SWAP5 CALLER DUP7 MSTORE DUP8 DUP7 ADD SWAP2 PUSH1 0x0 DUP4 MSTORE PUSH1 0x40 DUP8 ADD SWAP1 DUP2 MSTORE PUSH1 0x60 DUP8 ADD SWAP1 DUP9 DUP3 MSTORE PUSH1 0x80 DUP9 ADD SWAP4 PUSH1 0x0 DUP6 MSTORE PUSH1 0xA0 DUP10 ADD SWAP4 PUSH1 0x0 DUP6 MSTORE PUSH1 0xC0 DUP11 ADD SWAP7 TIMESTAMP DUP9 MSTORE DUP11 ADD SWAP8 DUP9 MSTORE PUSH1 0x0 MSTORE PUSH1 0x2 DUP12 MSTORE PUSH1 0x40 PUSH1 0x0 KECCAK256 SWAP9 PUSH1 0x1 DUP1 PUSH1 0xA0 SHL SUB DUP1 SWAP2 MLOAD AND SWAP1 PUSH12 0xFFFFFFFFFFFFFFFFFFFFFFFF PUSH1 0xA0 SHL SWAP2 DUP3 DUP13 SLOAD AND OR DUP12 SSTORE PUSH1 0x1 DUP12 ADD SWAP3 MLOAD AND SWAP1 DUP3 SLOAD AND OR SWAP1 SSTORE MLOAD PUSH1 0x2 DUP9 ADD SSTORE MLOAD PUSH1 0x3 DUP8 ADD SSTORE PUSH1 0x4 DUP7 ADD SWAP2 MLOAD ISZERO ISZERO SWAP1 PUSH1 0xFF PUSH2 0xFF00 DUP5 SLOAD SWAP3 MLOAD ISZERO ISZERO PUSH1 0x8 SHL AND SWAP3 AND SWAP1 PUSH2 0xFFFF NOT AND OR OR SWAP1 SSTORE MLOAD PUSH1 0x5 DUP5 ADD SSTORE MLOAD SWAP2 ADD SSTORE PUSH1 0x3 SLOAD SWAP1 PUSH2 0xEBF DUP2 CALLVALUE PUSH2 0x115B JUMP JUMPDEST SWAP3 PUSH1 0x40 MLOAD SWAP4 DUP5 MSTORE DUP4 ADD MSTORE PUSH32 0xCDFDEECD9F301CB609CBFD87C3A7F1E4D3DA395FF0BA5084DA583D3B6DECED21 PUSH1 0x40 CALLER SWAP4 LOG3 PUSH1 0x1 PUSH1 0x0 SSTORE STOP JUMPDEST PUSH4 0x4E487B71 PUSH1 0xE0 SHL PUSH1 0x0 MSTORE PUSH1 0x11 PUSH1 0x4 MSTORE PUSH1 0x24 PUSH1 0x0 REVERT JUMPDEST PUSH1 0x40 MLOAD PUSH3 0x461BCD PUSH1 0xE5 SHL DUP2 MSTORE PUSH1 0x4 DUP2 ADD DUP5 SWAP1 MSTORE PUSH1 0x10 PUSH1 0x24 DUP3 ADD MSTORE PUSH16 0x4D7573742073656E642063727970746F PUSH1 0x80 SHL PUSH1 0x44 DUP3 ADD MSTORE PUSH1 0x64 SWAP1 REVERT JUMPDEST PUSH1 0x40 MLOAD PUSH3 0x461BCD PUSH1 0xE5 SHL DUP2 MSTORE PUSH1 0x4 DUP2 ADD DUP5 SWAP1 MSTORE PUSH1 0x16 PUSH1 0x24 DUP3 ADD MSTORE PUSH22 0x416D6F756E74206D7573742065786365656420666565 PUSH1 0x50 SHL PUSH1 0x44 DUP3 ADD MSTORE PUSH1 0x64 SWAP1 REVERT JUMPDEST CALLVALUE PUSH2 0x13B JUMPI PUSH1 0x20 DUP1 PUSH1 0x3 NOT CALLDATASIZE ADD SLT PUSH2 0x13B JUMPI PUSH1 0x4 CALLDATALOAD SWAP1 PUSH2 0xFA0 PUSH2 0x11CA JUMP JUMPDEST PUSH2 0xFA8 PUSH2 0x11AC JUMP JUMPDEST PUSH1 0x0 DUP3 DUP2 MSTORE PUSH1 0x2 DUP3 MSTORE PUSH1 0x40 SWAP1 KECCAK256 PUSH1 0x1 DUP2 ADD DUP1 SLOAD SWAP1 SWAP3 SWAP1 SWAP2 PUSH1 0x1 PUSH1 0x1 PUSH1 0xA0 SHL SUB PUSH2 0xFD3 DUP2 DUP6 AND ISZERO PUSH2 0x11ED JUMP JUMPDEST PUSH1 0x2 DUP3 ADD SLOAD ISZERO PUSH2 0x10E7 JUMPI DUP2 SLOAD AND CALLER EQ PUSH2 0x10AA JUMPI PUSH1 0xFF PUSH1 0x4 DUP3 ADD SLOAD PUSH1 0x8 SHR AND PUSH2 0x1072 JUMPI PUSH1 0x6 ADD SLOAD TIMESTAMP LT ISZERO PUSH2 0x103F JUMPI POP PUSH1 0x1 PUSH1 0x1 PUSH1 0xA0 SHL SUB NOT AND CALLER SWAP1 DUP2 OR SWAP1 SWAP2 SSTORE SWAP1 PUSH32 0xB32DA9354607796544422F364CA1AEC8A7B6E85FDB196E204BF0ED62CB620AE PUSH1 0x0 DUP1 LOG3 PUSH1 0x1 PUSH1 0x0 SSTORE STOP JUMPDEST PUSH1 0x64 SWAP1 PUSH1 0x40 MLOAD SWAP1 PUSH3 0x461BCD PUSH1 0xE5 SHL DUP3 MSTORE PUSH1 0x4 DUP3 ADD MSTORE PUSH1 0xC PUSH1 0x24 DUP3 ADD MSTORE PUSH12 0x109A5B1B08195E1C1A5C9959 PUSH1 0xA2 SHL PUSH1 0x44 DUP3 ADD MSTORE REVERT JUMPDEST PUSH1 0x40 MLOAD PUSH3 0x461BCD PUSH1 0xE5 SHL DUP2 MSTORE PUSH1 0x4 DUP2 ADD DUP4 SWAP1 MSTORE PUSH1 0x10 PUSH1 0x24 DUP3 ADD MSTORE PUSH16 0x109A5B1B081A5CC8191A5CDC1D5D1959 PUSH1 0x82 SHL PUSH1 0x44 DUP3 ADD MSTORE PUSH1 0x64 SWAP1 REVERT JUMPDEST PUSH1 0x40 MLOAD PUSH3 0x461BCD PUSH1 0xE5 SHL DUP2 MSTORE PUSH1 0x4 DUP2 ADD DUP4 SWAP1 MSTORE PUSH1 0x15 PUSH1 0x24 DUP3 ADD MSTORE PUSH21 0x10D85B9B9BDD0818DB185A5B481BDDDB88189A5B1B PUSH1 0x5A SHL PUSH1 0x44 DUP3 ADD MSTORE PUSH1 0x64 SWAP1 REVERT JUMPDEST PUSH1 0x40 MLOAD PUSH3 0x461BCD PUSH1 0xE5 SHL DUP2 MSTORE PUSH1 0x4 DUP2 ADD DUP5 SWAP1 MSTORE PUSH1 0x17 PUSH1 0x24 DUP3 ADD MSTORE PUSH32 0x42696C6C206E6F7420666F756E64206F7220656D707479000000000000000000 PUSH1 0x44 DUP3 ADD MSTORE PUSH1 0x64 SWAP1 REVERT JUMPDEST PUSH1 0x1 SLOAD PUSH1 0x8 SHR PUSH1 0x1 PUSH1 0x1 PUSH1 0xA0 SHL SUB AND CALLER SUB PUSH2 0x1143 JUMPI JUMP JUMPDEST PUSH1 0x40 MLOAD PUSH4 0x118CDAA7 PUSH1 0xE0 SHL DUP2 MSTORE CALLER PUSH1 0x4 DUP3 ADD MSTORE PUSH1 0x24 SWAP1 REVERT JUMPDEST SWAP2 SWAP1 DUP3 SUB SWAP2 DUP3 GT PUSH2 0xEF6 JUMPI JUMP JUMPDEST SWAP2 SWAP1 DUP3 ADD DUP1 SWAP3 GT PUSH2 0xEF6 JUMPI JUMP JUMPDEST PUSH1 0x40 MLOAD SWAP1 PUSH2 0x100 DUP3 ADD DUP3 DUP2 LT PUSH8 0xFFFFFFFFFFFFFFFF DUP3 GT OR PUSH2 0x1196 JUMPI PUSH1 0x40 MSTORE JUMP JUMPDEST PUSH4 0x4E487B71 PUSH1 0xE0 SHL PUSH1 0x0 MSTORE PUSH1 0x41 PUSH1 0x4 MSTORE PUSH1 0x24 PUSH1 0x0 REVERT JUMPDEST PUSH1 0xFF PUSH1 0x1 SLOAD AND PUSH2 0x11B8 JUMPI JUMP JUMPDEST PUSH1 0x40 MLOAD PUSH4 0xD93C0665 PUSH1 0xE0 SHL DUP2 MSTORE PUSH1 0x4 SWAP1 REVERT JUMPDEST PUSH1 0x2 PUSH1 0x0 SLOAD EQ PUSH2 0x11DB JUMPI PUSH1 0x2 PUSH1 0x0 SSTORE JUMP JUMPDEST PUSH1 0x40 MLOAD PUSH4 0x3EE5AEB5 PUSH1 0xE0 SHL DUP2 MSTORE PUSH1 0x4 SWAP1 REVERT JUMPDEST ISZERO PUSH2 0x11F4 JUMPI JUMP JUMPDEST PUSH1 0x40 MLOAD PUSH3 0x461BCD PUSH1 0xE5 SHL DUP2 MSTORE PUSH1 0x20 PUSH1 0x4 DUP3 ADD MSTORE PUSH1 0xF PUSH1 0x24 DUP3 ADD MSTORE PUSH15 0x105B1C9958591E4818DB185A5B5959 PUSH1 0x8A SHL PUSH1 0x44 DUP3 ADD MSTORE PUSH1 0x64 SWAP1 REVERT JUMPDEST ISZERO PUSH2 0x1232 JUMPI JUMP JUMPDEST PUSH1 0x40 MLOAD PUSH3 0x461BCD PUSH1 0xE5 SHL DUP2 MSTORE PUSH1 0x20 PUSH1 0x4 DUP3 ADD MSTORE PUSH1 0xF PUSH1 0x24 DUP3 ADD MSTORE PUSH15 0x27B7363C903134B6361036B0B5B2B9 PUSH1 0x89 SHL PUSH1 0x44 DUP3 ADD MSTORE PUSH1 0x64 SWAP1 REVERT JUMPDEST ISZERO PUSH2 0x1270 JUMPI JUMP JUMPDEST PUSH1 0x40 MLOAD PUSH3 0x461BCD PUSH1 0xE5 SHL DUP2 MSTORE PUSH1 0x20 PUSH1 0x4 DUP3 ADD MSTORE PUSH1 0x8 PUSH1 0x24 DUP3 ADD MSTORE PUSH8 0x4E6F2066756E6473 PUSH1 0xC0 SHL PUSH1 0x44 DUP3 ADD MSTORE PUSH1 0x64 SWAP1 REVERT JUMPDEST RETURNDATASIZE ISZERO PUSH2 0x12E6 JUMPI PUSH8 0xFFFFFFFFFFFFFFFF SWAP1 RETURNDATASIZE DUP3 DUP2 GT PUSH2 0x1196 JUMPI PUSH1 0x40 MLOAD SWAP3 PUSH1 0x1F DUP3 ADD PUSH1 0x1F NOT SWAP1 DUP2 AND PUSH1 0x3F ADD AND DUP5 ADD SWAP1 DUP2 GT DUP5 DUP3 LT OR PUSH2 0x1196 JUMPI PUSH1 0x40 MSTORE DUP3 MSTORE RETURNDATASIZE PUSH1 0x0 PUSH1 0x20 DUP5 ADD RETURNDATACOPY JUMP JUMPDEST PUSH1 0x60 SWAP1 JUMP JUMPDEST ISZERO PUSH2 0x12F2 JUMPI JUMP JUMPDEST PUSH1 0x40 MLOAD PUSH3 0x461BCD PUSH1 0xE5 SHL DUP2 MSTORE PUSH1 0x20 PUSH1 0x4 DUP3 ADD MSTORE PUSH1 0x15 PUSH1 0x24 DUP3 ADD MSTORE PUSH21 0x14185E595C881D1C985B9CD9995C8819985A5B1959 PUSH1 0x5A SHL PUSH1 0x44 DUP3 ADD MSTORE PUSH1 0x64 SWAP1 REVERT JUMPDEST ISZERO PUSH2 0x1336 JUMPI JUMP JUMPDEST PUSH1 0x40 MLOAD PUSH3 0x461BCD PUSH1 0xE5 SHL DUP2 MSTORE PUSH1 0x20 PUSH1 0x4 DUP3 ADD MSTORE PUSH1 0x13 PUSH1 0x24 DUP3 ADD MSTORE PUSH19 0x119959481D1C985B9CD9995C8819985A5B1959 PUSH1 0x6A SHL PUSH1 0x44 DUP3 ADD MSTORE PUSH1 0x64 SWAP1 REVERT JUMPDEST ISZERO PUSH2 0x1378 JUMPI JUMP JUMPDEST PUSH1 0x40 MLOAD PUSH3 0x461BCD PUSH1 0xE5 SHL DUP2 MSTORE PUSH1 0x20 PUSH1 0x4 DUP3 ADD MSTORE PUSH1 0x16 PUSH1 0x24 DUP3 ADD MSTORE PUSH22 0x1499599D5B99081D1C985B9CD9995C8819985A5B1959 PUSH1 0x52 SHL PUSH1 0x44 DUP3 ADD MSTORE PUSH1 0x64 SWAP1 REVERT JUMPDEST PUSH1 0xFF PUSH1 0x1 SLOAD AND ISZERO PUSH2 0x13C3 JUMPI JUMP JUMPDEST PUSH1 0x40 MLOAD PUSH4 0x8DFC202B PUSH1 0xE0 SHL DUP2 MSTORE PUSH1 0x4 SWAP1 REVERT INVALID LOG2 PUSH5 0x6970667358 0x22 SLT KECCAK256 PUSH6 0xC60DD1EB0C9D PUSH16 0xC234213EBE35F79F3DD5FE3388C1A5E9 CHAINID SLOAD DUP7 JUMPI PUSH3 0xDC0EB8 PUSH5 0x736F6C6343 STOP ADDMOD EQ STOP CALLER "},"methodIdentifiers":{"billCounter()":"9d7a0339","bills(uint256)":"28bdcde8","cancelBill(uint256)":"67762988","claimBill(uint256)":"1930eae7","confirmFiatPayment(uint256)":"2185ab6c","createBill(uint256)":"1c8f0789","emergencyWithdraw()":"db2e21bc","feeWallet()":"f25f4b56","getBill(uint256)":"b1cd06e6","getBillStatus(uint256)":"286fda3b","isLocked(uint256)":"f6aacfb1","owner()":"8da5cb5b","pause()":"8456cb59","paused()":"5c975abb","raiseDispute(uint256)":"a5c1674e","refundExpiredBill(uint256)":"9c078c3a","renounceOwnership()":"715018a6","resolveDispute(uint256,bool)":"34b25ee2","setFeeWallet(address)":"90d49b9d","transferOwnership(address)":"f2fde38b","unpause()":"3f4ba83a"}}}}}