{"contracts/BillHavenEscrowV2.sol":{"BillHavenEscrowV2":{"abi":[{"inputs":[{"internalType":"address","name":"_feeWallet","type":"address"}],"stateMutability":"nonpayable","type":"constructor"},{"inputs":[],"name":"EnforcedPause","type":"error"},{"inputs":[],"name":"ExpectedPause","type":"error"},{"inputs":[{"internalType":"address","name":"owner","type":"address"}],"name":"OwnableInvalidOwner","type":"error"},{"inputs":[{"internalType":"address","name":"account","type":"address"}],"name":"OwnableUnauthorizedAccount","type":"error"},{"inputs":[],"name":"ReentrancyGuardReentrantCall","type":"error"},{"inputs":[{"internalType":"address","name":"token","type":"address"}],"name":"SafeERC20FailedOperation","type":"error"},{"anonymous":false,"inputs":[{"indexed":true,"internalType":"uint256","name":"billId","type":"uint256"},{"indexed":true,"internalType":"address","name":"payer","type":"address"}],"name":"BillClaimed","type":"event"},{"anonymous":false,"inputs":[{"indexed":true,"internalType":"uint256","name":"billId","type":"uint256"},{"indexed":true,"internalType":"address","name":"billMaker","type":"address"},{"indexed":true,"internalType":"address","name":"token","type":"address"},{"indexed":false,"internalType":"uint256","name":"amount","type":"uint256"},{"indexed":false,"internalType":"uint256","name":"fee","type":"uint256"}],"name":"BillCreated","type":"event"},{"anonymous":false,"inputs":[{"indexed":true,"internalType":"uint256","name":"billId","type":"uint256"},{"indexed":true,"internalType":"address","name":"payer","type":"address"},{"indexed":true,"internalType":"address","name":"token","type":"address"},{"indexed":false,"internalType":"uint256","name":"amount","type":"uint256"}],"name":"CryptoReleased","type":"event"},{"anonymous":false,"inputs":[{"indexed":true,"internalType":"uint256","name":"billId","type":"uint256"},{"indexed":false,"internalType":"bool","name":"releasedToPayer","type":"bool"}],"name":"DisputeResolved","type":"event"},{"anonymous":false,"inputs":[{"indexed":true,"internalType":"uint256","name":"billId","type":"uint256"},{"indexed":true,"internalType":"address","name":"by","type":"address"}],"name":"Disputed","type":"event"},{"anonymous":false,"inputs":[{"indexed":true,"internalType":"address","name":"oldWallet","type":"address"},{"indexed":true,"internalType":"address","name":"newWallet","type":"address"}],"name":"FeeWalletUpdated","type":"event"},{"anonymous":false,"inputs":[{"indexed":true,"internalType":"uint256","name":"billId","type":"uint256"}],"name":"FiatConfirmed","type":"event"},{"anonymous":false,"inputs":[{"indexed":true,"internalType":"address","name":"previousOwner","type":"address"},{"indexed":true,"internalType":"address","name":"newOwner","type":"address"}],"name":"OwnershipTransferred","type":"event"},{"anonymous":false,"inputs":[{"indexed":false,"internalType":"address","name":"account","type":"address"}],"name":"Paused","type":"event"},{"anonymous":false,"inputs":[{"indexed":true,"internalType":"uint256","name":"billId","type":"uint256"},{"indexed":true,"internalType":"address","name":"billMaker","type":"address"}],"name":"Refunded","type":"event"},{"anonymous":false,"inputs":[{"indexed":true,"internalType":"address","name":"token","type":"address"}],"name":"TokenAdded","type":"event"},{"anonymous":false,"inputs":[{"indexed":true,"internalType":"address","name":"token","type":"address"}],"name":"TokenRemoved","type":"event"},{"anonymous":false,"inputs":[{"indexed":false,"internalType":"address","name":"account","type":"address"}],"name":"Unpaused","type":"event"},{"inputs":[{"internalType":"address","name":"_token","type":"address"}],"name":"addSupportedToken","outputs":[],"stateMutability":"nonpayable","type":"function"},{"inputs":[],"name":"billCounter","outputs":[{"internalType":"uint256","name":"","type":"uint256"}],"stateMutability":"view","type":"function"},{"inputs":[{"internalType":"uint256","name":"","type":"uint256"}],"name":"bills","outputs":[{"internalType":"address","name":"billMaker","type":"address"},{"internalType":"address","name":"payer","type":"address"},{"internalType":"address","name":"token","type":"address"},{"internalType":"uint256","name":"amount","type":"uint256"},{"internalType":"uint256","name":"platformFee","type":"uint256"},{"internalType":"bool","name":"fiatConfirmed","type":"bool"},{"internalType":"bool","name":"disputed","type":"bool"},{"internalType":"uint256","name":"createdAt","type":"uint256"},{"internalType":"uint256","name":"expiresAt","type":"uint256"}],"stateMutability":"view","type":"function"},{"inputs":[{"internalType":"uint256","name":"_billId","type":"uint256"}],"name":"cancelBill","outputs":[],"stateMutability":"nonpayable","type":"function"},{"inputs":[{"internalType":"uint256","name":"_billId","type":"uint256"}],"name":"claimBill","outputs":[],"stateMutability":"nonpayable","type":"function"},{"inputs":[{"internalType":"uint256","name":"_billId","type":"uint256"}],"name":"confirmFiatPayment","outputs":[],"stateMutability":"nonpayable","type":"function"},{"inputs":[{"internalType":"uint256","name":"_platformFee","type":"uint256"}],"name":"createBill","outputs":[],"stateMutability":"payable","type":"function"},{"inputs":[{"internalType":"address","name":"_token","type":"address"},{"internalType":"uint256","name":"_amount","type":"uint256"},{"internalType":"uint256","name":"_platformFee","type":"uint256"}],"name":"createBillWithToken","outputs":[],"stateMutability":"nonpayable","type":"function"},{"inputs":[],"name":"emergencyWithdraw","outputs":[],"stateMutability":"nonpayable","type":"function"},{"inputs":[{"internalType":"address","name":"_token","type":"address"}],"name":"emergencyWithdrawToken","outputs":[],"stateMutability":"nonpayable","type":"function"},{"inputs":[],"name":"feeWallet","outputs":[{"internalType":"address","name":"","type":"address"}],"stateMutability":"view","type":"function"},{"inputs":[{"internalType":"uint256","name":"_billId","type":"uint256"}],"name":"getBill","outputs":[{"components":[{"internalType":"address","name":"billMaker","type":"address"},{"internalType":"address","name":"payer","type":"address"},{"internalType":"address","name":"token","type":"address"},{"internalType":"uint256","name":"amount","type":"uint256"},{"internalType":"uint256","name":"platformFee","type":"uint256"},{"internalType":"bool","name":"fiatConfirmed","type":"bool"},{"internalType":"bool","name":"disputed","type":"bool"},{"internalType":"uint256","name":"createdAt","type":"uint256"},{"internalType":"uint256","name":"expiresAt","type":"uint256"}],"internalType":"struct BillHavenEscrowV2.Bill","name":"","type":"tuple"}],"stateMutability":"view","type":"function"},{"inputs":[{"internalType":"uint256","name":"_billId","type":"uint256"}],"name":"getBillStatus","outputs":[{"internalType":"bool","name":"exists","type":"bool"},{"internalType":"bool","name":"claimed","type":"bool"},{"internalType":"bool","name":"confirmed","type":"bool"},{"internalType":"bool","name":"disputed","type":"bool"},{"internalType":"bool","name":"expired","type":"bool"}],"stateMutability":"view","type":"function"},{"inputs":[{"internalType":"uint256","name":"_billId","type":"uint256"}],"name":"isLocked","outputs":[{"internalType":"bool","name":"","type":"bool"}],"stateMutability":"view","type":"function"},{"inputs":[{"internalType":"address","name":"_token","type":"address"}],"name":"isTokenSupported","outputs":[{"internalType":"bool","name":"","type":"bool"}],"stateMutability":"view","type":"function"},{"inputs":[],"name":"owner","outputs":[{"internalType":"address","name":"","type":"address"}],"stateMutability":"view","type":"function"},{"inputs":[],"name":"pause","outputs":[],"stateMutability":"nonpayable","type":"function"},{"inputs":[],"name":"paused","outputs":[{"internalType":"bool","name":"","type":"bool"}],"stateMutability":"view","type":"function"},{"inputs":[{"internalType":"uint256","name":"_billId","type":"uint256"}],"name":"raiseDispute","outputs":[],"stateMutability":"nonpayable","type":"function"},{"inputs":[{"internalType":"uint256","name":"_billId","type":"uint256"}],"name":"refundExpiredBill","outputs":[],"stateMutability":"nonpayable","type":"function"},{"inputs":[{"internalType":"address","name":"_token","type":"address"}],"name":"removeSupportedToken","outputs":[],"stateMutability":"nonpayable","type":"function"},{"inputs":[],"name":"renounceOwnership","outputs":[],"stateMutability":"nonpayable","type":"function"},{"inputs":[{"internalType":"uint256","name":"_billId","type":"uint256"},{"internalType":"bool","name":"_releaseToPayer","type":"bool"}],"name":"resolveDispute","outputs":[],"stateMutability":"nonpayable","type":"function"},{"inputs":[{"internalType":"address","name":"_newFeeWallet","type":"address"}],"name":"setFeeWallet","outputs":[],"stateMutability":"nonpayable","type":"function"},{"inputs":[{"internalType":"address","name":"","type":"address"}],"name":"supportedTokens","outputs":[{"internalType":"bool","name":"","type":"bool"}],"stateMutability":"view","type":"function"},{"inputs":[{"internalType":"address","name":"newOwner","type":"address"}],"name":"transferOwnership","outputs":[],"stateMutability":"nonpayable","type":"function"},{"inputs":[],"name":"unpause","outputs":[],"stateMutability":"nonpayable","type":"function"},{"stateMutability":"payable","type":"receive"}],"evm":{"bytecode":{"linkReferences":{},"object":"60803461014457601f611d4c38819003918201601f19168301916001600160401b038311848410176101495780849260209460405283398101031261014457516001600160a01b0390818116908190036101445760009060018255331561012b5760018054610100600160a81b0319811633600881811b610100600160a81b0316929092179093556040519591901c167f8be0079c531659141344cd1fd0a4f28419497f9722a3daafe3b4186f6b6457e08480a380156100f457600580546001600160a01b0319169190911790558080526003602052604090819020805460ff1916600117905551611bec9150816101608239f35b62461bcd60e51b8352602060048401526012602484015271125b9d985b1a5908199959481dd85b1b195d60721b6044840152606483fd5b604051631e4fbdf760e01b815260048101839052602490fd5b600080fd5b634e487b7160e01b600052604160045260246000fdfe60406080815260049081361015610020575b5050361561001e57600080fd5b005b60009160e08335811c9081631930eae7146116605781631af03203146115265781631c8f0789146113215781632185ab6c1461111c578163286fda3b146110af57816328bdcde81461101a57816334b25ee214610e305781633f4ba83a14610dd75781635c975abb14610db25781636776298814610cc157816368c4ac2614610b6b5781636d69fcaf14610c0e578163715018a614610baa57816375151b6314610b6b5781637631919014610abb5781638456cb5914610a605781638da5cb5b14610a3257816390d49b9d146109885781639c078c3a146108605781639d7a033914610842578163a5c1674e146106f0578163b1cd06e6146105c5578163db2e21bc1461050b578163ee5bdbf51461025157508063f25f4b5614610224578063f2fde38b146101885763f6aacfb1146101595750610011565b3461018457602036600319011261018457816020936003923581526002855220015415159051908152f35b8280fd5b5034610184576020366003190112610184576101a2611800565b6101aa61181b565b6001600160a01b0381811693909290841561020e57505060018054610100600160a81b03198116600893841b610100600160a81b031617909155901c167f8be0079c531659141344cd1fd0a4f28419497f9722a3daafe3b4186f6b6457e08380a380f35b51631e4fbdf760e01b8152908101859052602490fd5b50503461024d578160031936011261024d5760055490516001600160a01b039091168152602090f35b5080fd5b84939150346105075760603660031901126105075761026e611800565b926024803591604435916102806118fc565b6102886118de565b6001600160a01b039687169687156104c5578789526020956003875260ff888b2054161561048d578515610456576102c0858761187c565b8851906323b872dd60e01b89830152338583015230604483015260648201526064815260a0810181811067ffffffffffffffff821117610444578952610306908a61191f565b610310845461184a565b9182855562093a804201938442116104335750918a9186888c8b878e99988a519a8b9961033c8b611889565b338b52848b0194818652828c0196875260608c0197885260808c0198895260a08c019a828c5260c08d019a838c528d019c8d429052610100019d8e52825260029052209a5116916001600160601b0360a01b92838c5416178b558160018c019151168382541617905560028a0192511690825416179055516003870155518686015560058501915115156103dc90839060ff801983541691151516179055565b51815461ff00191690151560081b61ff00161790555160068301555190600701555492845192835282015233927ffdb4c95616fd6687bebc7ddfb5908c80b84098683db171948dd78afd7cc9f97b91a46001815580f35b634e487b7160e01b8c52601186528bfd5b634e487b7160e01b8c5260418652848cfd5b875162461bcd60e51b8152808501889052601281850152710416d6f756e74206d757374206265203e20360741b6044820152606490fd5b875162461bcd60e51b815280850188905260138185015272151bdad95b881b9bdd081cdd5c1c1bdc9d1959606a1b6044820152606490fd5b865162461bcd60e51b81526020818501819052818401527f5573652063726561746542696c6c20666f72206e617469766520746f6b656e736044820152606490fd5b8380fd5b5050903461018457826003193601126101845761052661181b565b61052e611b97565b47801561059557600154849182918291829160081c6001600160a01b03165af1610556611a3a565b5015610560578280f35b906020606492519162461bcd60e51b8352820152600f60248201526e15da5d1a191c985dc819985a5b1959608a1b6044820152fd5b815162461bcd60e51b8152602081850152600a6024820152694e6f2062616c616e636560b01b6044820152606490fd5b9190503461050757602036600319011261050757610120939160ff91848051946105ee86611889565b80865280602087015280828701528060608701528060808701528060a08701528060c08701528084870152806101008097015282358152600260205220908551938492839261063c84611889565b60018060a01b039889835416998a865280600185015416602087019081528180600287015416918489019283528c600760038901549760608c019889528901549860808c01998a528a60c060058301549d8e60a082019e8f911615159052019c60081c1615158c528d60068201549d019c8d5201549c019b8c5284519d8e52511660208d01525116908a015251606089015251608088015251151560a087015251151560c086015251908401525190820152f35b50503461018457602036600319011261018457803580845260026020528284208054919391336001600160a01b0391821614908115610832575b50156107fe57600581019283549260ff84166107c75760ff8460081c166107915750509061076060036101009301541515611a03565b61ff00191617905533907fcde8e21e97a7f6ec4bbf0ee44450212e0ba73be8fdfbfb2b155e861d86756bac8380a380f35b906020606492519162461bcd60e51b8352820152601060248201526f105b1c9958591e48191a5cdc1d5d195960821b6044820152fd5b906020606492519162461bcd60e51b83528201526011602482015270105b1c9958591e4818dbdb5c1b195d1959607a1b6044820152fd5b815162461bcd60e51b8152602081850152600e60248201526d139bdd08185d5d1a1bdc9a5e995960921b6044820152606490fd5b905060018201541633143861072a565b50503461018457826003193601126101845760209250549051908152f35b8385843461024d57602036600319011261024d5780359061087f6118fc565b818352600260205283832090600782015442111561095757839291839160018060a01b03916108b48360018301541615611987565b8360038201926108de845491821580159061094b575b6108d390611a03565b84019182549061187c565b94806002850154169354169788945555801560001461093c57509180808093610911955af161090b611a3a565b50611b52565b7f16e7a7a8fd7c51d6b4d059d6d7eea946bff398eee64dd1894af645edd23d502b8380a36001815580f35b6109469350611b00565b610911565b508481015415156108ca565b606490602086519162461bcd60e51b8352820152600b60248201526a139bdd08195e1c1a5c995960aa1b6044820152fd5b505034610184576020366003190112610184576109a3611800565b906109ac61181b565b6001600160a01b039182169283156109fd575050600554826001600160601b0360a01b821617600555167f362a006325d32978b283e449d254cfcf93e2cccc321603ead9a74238d8dbf36e8380a380f35b906020606492519162461bcd60e51b8352820152600f60248201526e496e76616c6964206164647265737360881b6044820152fd5b5050503461024d578160031936011261024d57600154905160089190911c6001600160a01b03168152602090f35b5050503461024d578160031936011261024d5760207f62e78cea01bee320cd4e420270b5ea74000d11b0c9f74754ebdbfc544b05a25891610a9f61181b565b610aa76118de565b600160ff198154161760015551338152a180f35b5050903461018457602036600319011261018457610ad7611800565b610adf61181b565b6001600160a01b0316918215610b29575081835260036020528220805460ff191690557f4c910b69fe65a61f7531b9c5042b2329ca7179c77290aa7e2eb3afa3c8511fd38280a280f35b6020606492519162461bcd60e51b8352820152601a60248201527f43616e6e6f742072656d6f7665206e617469766520746f6b656e0000000000006044820152fd5b5050503461024d57602036600319011261024d5760209160ff9082906001600160a01b03610b97611800565b1681526003855220541690519015158152f35b8434610c0b5780600319360112610c0b57610bc361181b565b60018054610100600160a81b03198116909155819060081c6001600160a01b03167f8be0079c531659141344cd1fd0a4f28419497f9722a3daafe3b4186f6b6457e08280a380f35b80fd5b5050903461018457602036600319011261018457610c2a611800565b610c3261181b565b6001600160a01b0316918215610c7f575081835260036020528220805460ff191660011790557f784c8f4dbf0ffedd6e72c76501c545a70f8b203b30a26ce542bf92ba87c248a48280a280f35b6020606492519162461bcd60e51b8352820152601c60248201527f557365206e617469766520746f6b656e206164647265737320307830000000006044820152fd5b50503461018457602036600319011261018457803591610cdf6118fc565b8284526002602052832080546001600160a01b039285918416610d033382146119c5565b610d138560018601541615611987565b6003840183610d3c8254948515801590610da6575b610d3190611a03565b87019485549061187c565b9381886002890154169355558015600014610d9757505090808080610d6994878754165af161090b611a3a565b5416907f16e7a7a8fd7c51d6b4d059d6d7eea946bff398eee64dd1894af645edd23d502b8380a36001815580f35b610da19350611b00565b610d69565b50878101541515610d28565b5050503461024d578160031936011261024d5760209060ff6001541690519015158152f35b5050503461024d578160031936011261024d5760207f5db9ee0a495bf2e6ff9c91a7834c1ba4fdd244a5e8aa4e537bd38aeae4b073aa91610e1661181b565b610e1e611b97565b60ff196001541660015551338152a180f35b50509034610184578060031936011261018457813591602435801515810361101657610e5a61181b565b610e626118fc565b838552600260205282852091600583019283549260ff8460081c1615610fe4579260209492827f5a87909bff68caaaaf0b3fd9c74eeccc928832f879315e5c6fb7a73612f26c0c979560038b95018054938415801590610fd8575b610ec690611a03565b83019182549760018060a01b0396888860028801541695818a8060018b01541699541696555561ff001916905580610fcf575b15610f8d575080610f5a5750838080610f1e9481945af1610f18611a3a565b50611a7a565b82610f36575b5050505b5160018152a25b6001815580f35b8180610f52948193600554165af1610f4c611a3a565b50611abe565b388581610f24565b9294935090610f699183611b00565b81610f77575b505050610f28565b610f85926005541690611b00565b388080610f6f565b935093949050610f9c9161187c565b9180610fc057509180808093610fb6955af161090b611a3a565b51848152a2610f2f565b610fca9350611b00565b610fb6565b50821515610ef9565b50838101541515610ebd565b855162461bcd60e51b8152602081850152600c60248201526b139bdd08191a5cdc1d5d195960a21b6044820152606490fd5b8480fd5b8493915034610507576020366003190112610507578161012094843581526002602052209060ff60018060a01b0393848454169585600186015416956002860154169060038601549086015491600587015493600760068901549801549881519a8b5260208b015289015260608801526080870152818116151560a087015260081c16151560c0850152830152610100820152f35b5050346101845760203660031901126101845760a09282913581526002602052209060ff600180851b039283815416151593600182015416151592600760058301549201544211938151958652602086015282821615159085015260081c16151560608301526080820152f35b505034610184576020806003193601126105075781359061113b6118fc565b6111436118de565b818552600281528385209260018060a01b03946111648686541633146119c5565b856001860154169485156112f157600581019687549360ff85166112ba5760ff8560081c166112875782918a809260037f97403cce48bf0c83f4199e651135f4c6eaab37f5f2adb71672b857345a19bef699989796019b60018d54986111cb8a1515611a03565b60ff19161790558401818360028354970154169c555584898b15600014611258578380806111ff9481945af1610f18611a3a565b8261123a575b5050505b5190847fe56e5977b732b68b6c4e6f2e2dc7332c3216577b919ca691580a29e7c31d38578980a28152a46001815580f35b8180611250948193600554165af1610f4c611a3a565b388881611205565b611265929493508b611b00565b80611272575b5050611209565b611280916005541689611b00565b388061126b565b835162461bcd60e51b8152908101869052600d60248201526c109a5b1b08191a5cdc1d5d1959609a1b6044820152606490fd5b835162461bcd60e51b81529081018690526011602482015270105b1c9958591e4818dbdb999a5c9b5959607a1b6044820152606490fd5b5091606492519162461bcd60e51b8352820152600b60248201526a139bdd0818db185a5b595960aa1b6044820152fd5b84848492602091826003193601126105075784359161133e6118fc565b6113466118de565b823411156114ea5734156114b45761135e865461184a565b80875561136b843461186f565b9162093a804201928342116114a1578493889993611478898b958a6007967ffdb4c95616fd6687bebc7ddfb5908c80b84098683db171948dd78afd7cc9f97b9b51986113b68a611889565b338a52848a0199818b5260018d808301938085526060840195865260808401968752600260a0850199828b5260c0860199838b5286019c8d42905261010087019e8f52835252209b8c92828060a01b03928380925116946001600160601b0360a01b9586825416178155019151168382541617905560028c019251169082541617905551600389015551888801556114616005880192511515839060ff801983541691151516179055565b51815461ff00191690151560081b61ff0016179055565b51600684015551910155549261148e813461186f565b9482519586528501523393a46001815580f35b634e487b7160e01b885260118952602488fd5b815162461bcd60e51b8152808701859052601060248201526f4d7573742073656e642063727970746f60801b6044820152606490fd5b815162461bcd60e51b81528087018590526016602482015275416d6f756e74206d757374206578636565642066656560501b6044820152606490fd5b8385843461024d576020908160031936011261018457611544611800565b61154c61181b565b611554611b97565b6001600160a01b0390811691821561161f5785516370a0823160e01b81523082820152938085602481875afa9485156116155786956115e2575b5084156115ad5750506115aa93945060015460081c1690611b00565b80f35b865162461bcd60e51b815291820152601060248201526f4e6f20746f6b656e2062616c616e636560801b604482015260649150fd5b9080955081813d831161160e575b6115fa81836118bc565b8101031261160a5751938761158e565b8580fd5b503d6115f0565b87513d88823e3d90fd5b606490848088519262461bcd60e51b845283015260248201527f55736520656d657267656e6379576974686472617720666f72206e61746976656044820152fd5b5050903461018457602080600319360112610507578235926116806118fc565b6116886118de565b8385526002825282852060018101805490949093916001600160a01b036116b181871615611987565b6003820154156117bd5781541633146117835760ff600582015460081c1661174e576007015442101561171e575050506001600160a01b03191633908117909155907f0b32da9354607796544422f364ca1aec8a7b6e85fdb196e204bf0ed62cb620ae8380a36001815580f35b5162461bcd60e51b815291820152600c60248201526b109a5b1b08195e1c1a5c995960a21b604482015260649150fd5b505162461bcd60e51b815291820152601060248201526f109a5b1b081a5cc8191a5cdc1d5d195960821b604482015260649150fd5b505162461bcd60e51b815291820152601560248201527410d85b9b9bdd0818db185a5b481bdddb88189a5b1b605a1b604482015260649150fd5b50505162461bcd60e51b815291820152601760248201527f42696c6c206e6f7420666f756e64206f7220656d707479000000000000000000604482015260649150fd5b600435906001600160a01b038216820361181657565b600080fd5b60015460081c6001600160a01b0316330361183257565b60405163118cdaa760e01b8152336004820152602490fd5b60001981146118595760010190565b634e487b7160e01b600052601160045260246000fd5b9190820391821161185957565b9190820180921161185957565b610120810190811067ffffffffffffffff8211176118a657604052565b634e487b7160e01b600052604160045260246000fd5b90601f8019910116810190811067ffffffffffffffff8211176118a657604052565b60ff600154166118ea57565b60405163d93c066560e01b8152600490fd5b60026000541461190d576002600055565b604051633ee5aeb560e01b8152600490fd5b906000602091828151910182855af11561197b576000513d61197257506001600160a01b0381163b155b6119505750565b604051635274afe760e01b81526001600160a01b039091166004820152602490fd5b60011415611949565b6040513d6000823e3d90fd5b1561198e57565b60405162461bcd60e51b815260206004820152600f60248201526e105b1c9958591e4818db185a5b5959608a1b6044820152606490fd5b156119cc57565b60405162461bcd60e51b815260206004820152600f60248201526e27b7363c903134b6361036b0b5b2b960891b6044820152606490fd5b15611a0a57565b60405162461bcd60e51b81526020600482015260086024820152674e6f2066756e647360c01b6044820152606490fd5b3d15611a75573d9067ffffffffffffffff82116118a65760405191611a69601f8201601f1916602001846118bc565b82523d6000602084013e565b606090565b15611a8157565b60405162461bcd60e51b815260206004820152601560248201527414185e595c881d1c985b9cd9995c8819985a5b1959605a1b6044820152606490fd5b15611ac557565b60405162461bcd60e51b8152602060048201526013602482015272119959481d1c985b9cd9995c8819985a5b1959606a1b6044820152606490fd5b60405163a9059cbb60e01b60208201526001600160a01b039092166024830152604480830193909352918152608081019167ffffffffffffffff8311828410176118a657611b509260405261191f565b565b15611b5957565b60405162461bcd60e51b81526020600482015260166024820152751499599d5b99081d1c985b9cd9995c8819985a5b195960521b6044820152606490fd5b60ff6001541615611ba457565b604051638dfc202b60e01b8152600490fdfea2646970667358221220437270d9351c828d9d93eb2e6748a5dad7337c5d031aa7fe0c9ecd6cc1344c7b64736f6c63430008140033","opcodes":"PUSH1 0x80 CALLVALUE PUSH2 0x144 JUMPI PUSH1 0x1F PUSH2 0x1D4C CODESIZE DUP2 SWAP1 SUB SWAP2 DUP3 ADD PUSH1 0x1F NOT AND DUP4 ADD SWAP2 PUSH1 0x1 PUSH1 0x1 PUSH1 0x40 SHL SUB DUP4 GT DUP5 DUP5 LT OR PUSH2 0x149 JUMPI DUP1 DUP5 SWAP3 PUSH1 0x20 SWAP5 PUSH1 0x40 MSTORE DUP4 CODECOPY DUP2 ADD SUB SLT PUSH2 0x144 JUMPI MLOAD PUSH1 0x1 PUSH1 0x1 PUSH1 0xA0 SHL SUB SWAP1 DUP2 DUP2 AND SWAP1 DUP2 SWAP1 SUB PUSH2 0x144 JUMPI PUSH1 0x0 SWAP1 PUSH1 0x1 DUP3 SSTORE CALLER ISZERO PUSH2 0x12B JUMPI PUSH1 0x1 DUP1 SLOAD PUSH2 0x100 PUSH1 0x1 PUSH1 0xA8 SHL SUB NOT DUP2 AND CALLER PUSH1 0x8 DUP2 DUP2 SHL PUSH2 0x100 PUSH1 0x1 PUSH1 0xA8 SHL SUB AND SWAP3 SWAP1 SWAP3 OR SWAP1 SWAP4 SSTORE PUSH1 0x40 MLOAD SWAP6 SWAP2 SWAP1 SHR AND PUSH32 0x8BE0079C531659141344CD1FD0A4F28419497F9722A3DAAFE3B4186F6B6457E0 DUP5 DUP1 LOG3 DUP1 ISZERO PUSH2 0xF4 JUMPI PUSH1 0x5 DUP1 SLOAD PUSH1 0x1 PUSH1 0x1 PUSH1 0xA0 SHL SUB NOT AND SWAP2 SWAP1 SWAP2 OR SWAP1 SSTORE DUP1 DUP1 MSTORE PUSH1 0x3 PUSH1 0x20 MSTORE PUSH1 0x40 SWAP1 DUP2 SWAP1 KECCAK256 DUP1 SLOAD PUSH1 0xFF NOT AND PUSH1 0x1 OR SWAP1 SSTORE MLOAD PUSH2 0x1BEC SWAP2 POP DUP2 PUSH2 0x160 DUP3 CODECOPY RETURN JUMPDEST PUSH3 0x461BCD PUSH1 0xE5 SHL DUP4 MSTORE PUSH1 0x20 PUSH1 0x4 DUP5 ADD MSTORE PUSH1 0x12 PUSH1 0x24 DUP5 ADD MSTORE PUSH18 0x125B9D985B1A5908199959481DD85B1B195D PUSH1 0x72 SHL PUSH1 0x44 DUP5 ADD MSTORE PUSH1 0x64 DUP4 REVERT JUMPDEST PUSH1 0x40 MLOAD PUSH4 0x1E4FBDF7 PUSH1 0xE0 SHL DUP2 MSTORE PUSH1 0x4 DUP2 ADD DUP4 SWAP1 MSTORE PUSH1 0x24 SWAP1 REVERT JUMPDEST PUSH1 0x0 DUP1 REVERT JUMPDEST PUSH4 0x4E487B71 PUSH1 0xE0 SHL PUSH1 0x0 MSTORE PUSH1 0x41 PUSH1 0x4 MSTORE PUSH1 0x24 PUSH1 0x0 REVERT INVALID PUSH1 0x40 PUSH1 0x80 DUP2 MSTORE PUSH1 0x4 SWAP1 DUP2 CALLDATASIZE LT ISZERO PUSH2 0x20 JUMPI JUMPDEST POP POP CALLDATASIZE ISZERO PUSH2 0x1E JUMPI PUSH1 0x0 DUP1 REVERT JUMPDEST STOP JUMPDEST PUSH1 0x0 SWAP2 PUSH1 0xE0 DUP4 CALLDATALOAD DUP2 SHR SWAP1 DUP2 PUSH4 0x1930EAE7 EQ PUSH2 0x1660 JUMPI DUP2 PUSH4 0x1AF03203 EQ PUSH2 0x1526 JUMPI DUP2 PUSH4 0x1C8F0789 EQ PUSH2 0x1321 JUMPI DUP2 PUSH4 0x2185AB6C EQ PUSH2 0x111C JUMPI DUP2 PUSH4 0x286FDA3B EQ PUSH2 0x10AF JUMPI DUP2 PUSH4 0x28BDCDE8 EQ PUSH2 0x101A JUMPI DUP2 PUSH4 0x34B25EE2 EQ PUSH2 0xE30 JUMPI DUP2 PUSH4 0x3F4BA83A EQ PUSH2 0xDD7 JUMPI DUP2 PUSH4 0x5C975ABB EQ PUSH2 0xDB2 JUMPI DUP2 PUSH4 0x67762988 EQ PUSH2 0xCC1 JUMPI DUP2 PUSH4 0x68C4AC26 EQ PUSH2 0xB6B JUMPI DUP2 PUSH4 0x6D69FCAF EQ PUSH2 0xC0E JUMPI DUP2 PUSH4 0x715018A6 EQ PUSH2 0xBAA JUMPI DUP2 PUSH4 0x75151B63 EQ PUSH2 0xB6B JUMPI DUP2 PUSH4 0x76319190 EQ PUSH2 0xABB JUMPI DUP2 PUSH4 0x8456CB59 EQ PUSH2 0xA60 JUMPI DUP2 PUSH4 0x8DA5CB5B EQ PUSH2 0xA32 JUMPI DUP2 PUSH4 0x90D49B9D EQ PUSH2 0x988 JUMPI DUP2 PUSH4 0x9C078C3A EQ PUSH2 0x860 JUMPI DUP2 PUSH4 0x9D7A0339 EQ PUSH2 0x842 JUMPI DUP2 PUSH4 0xA5C1674E EQ PUSH2 0x6F0 JUMPI DUP2 PUSH4 0xB1CD06E6 EQ PUSH2 0x5C5 JUMPI DUP2 PUSH4 0xDB2E21BC EQ PUSH2 0x50B JUMPI DUP2 PUSH4 0xEE5BDBF5 EQ PUSH2 0x251 JUMPI POP DUP1 PUSH4 0xF25F4B56 EQ PUSH2 0x224 JUMPI DUP1 PUSH4 0xF2FDE38B EQ PUSH2 0x188 JUMPI PUSH4 0xF6AACFB1 EQ PUSH2 0x159 JUMPI POP PUSH2 0x11 JUMP JUMPDEST CALLVALUE PUSH2 0x184 JUMPI PUSH1 0x20 CALLDATASIZE PUSH1 0x3 NOT ADD SLT PUSH2 0x184 JUMPI DUP2 PUSH1 0x20 SWAP4 PUSH1 0x3 SWAP3 CALLDATALOAD DUP2 MSTORE PUSH1 0x2 DUP6 MSTORE KECCAK256 ADD SLOAD ISZERO ISZERO SWAP1 MLOAD SWAP1 DUP2 MSTORE RETURN JUMPDEST DUP3 DUP1 REVERT JUMPDEST POP CALLVALUE PUSH2 0x184 JUMPI PUSH1 0x20 CALLDATASIZE PUSH1 0x3 NOT ADD SLT PUSH2 0x184 JUMPI PUSH2 0x1A2 PUSH2 0x1800 JUMP JUMPDEST PUSH2 0x1AA PUSH2 0x181B JUMP JUMPDEST PUSH1 0x1 PUSH1 0x1 PUSH1 0xA0 SHL SUB DUP2 DUP2 AND SWAP4 SWAP1 SWAP3 SWAP1 DUP5 ISZERO PUSH2 0x20E JUMPI POP POP PUSH1 0x1 DUP1 SLOAD PUSH2 0x100 PUSH1 0x1 PUSH1 0xA8 SHL SUB NOT DUP2 AND PUSH1 0x8 SWAP4 DUP5 SHL PUSH2 0x100 PUSH1 0x1 PUSH1 0xA8 SHL SUB AND OR SWAP1 SWAP2 SSTORE SWAP1 SHR AND PUSH32 0x8BE0079C531659141344CD1FD0A4F28419497F9722A3DAAFE3B4186F6B6457E0 DUP4 DUP1 LOG3 DUP1 RETURN JUMPDEST MLOAD PUSH4 0x1E4FBDF7 PUSH1 0xE0 SHL DUP2 MSTORE SWAP1 DUP2 ADD DUP6 SWAP1 MSTORE PUSH1 0x24 SWAP1 REVERT JUMPDEST POP POP CALLVALUE PUSH2 0x24D JUMPI DUP2 PUSH1 0x3 NOT CALLDATASIZE ADD SLT PUSH2 0x24D JUMPI PUSH1 0x5 SLOAD SWAP1 MLOAD PUSH1 0x1 PUSH1 0x1 PUSH1 0xA0 SHL SUB SWAP1 SWAP2 AND DUP2 MSTORE PUSH1 0x20 SWAP1 RETURN JUMPDEST POP DUP1 REVERT JUMPDEST DUP5 SWAP4 SWAP2 POP CALLVALUE PUSH2 0x507 JUMPI PUSH1 0x60 CALLDATASIZE PUSH1 0x3 NOT ADD SLT PUSH2 0x507 JUMPI PUSH2 0x26E PUSH2 0x1800 JUMP JUMPDEST SWAP3 PUSH1 0x24 DUP1 CALLDATALOAD SWAP2 PUSH1 0x44 CALLDATALOAD SWAP2 PUSH2 0x280 PUSH2 0x18FC JUMP JUMPDEST PUSH2 0x288 PUSH2 0x18DE JUMP JUMPDEST PUSH1 0x1 PUSH1 0x1 PUSH1 0xA0 SHL SUB SWAP7 DUP8 AND SWAP7 DUP8 ISZERO PUSH2 0x4C5 JUMPI DUP8 DUP10 MSTORE PUSH1 0x20 SWAP6 PUSH1 0x3 DUP8 MSTORE PUSH1 0xFF DUP9 DUP12 KECCAK256 SLOAD AND ISZERO PUSH2 0x48D JUMPI DUP6 ISZERO PUSH2 0x456 JUMPI PUSH2 0x2C0 DUP6 DUP8 PUSH2 0x187C JUMP JUMPDEST DUP9 MLOAD SWAP1 PUSH4 0x23B872DD PUSH1 0xE0 SHL DUP10 DUP4 ADD MSTORE CALLER DUP6 DUP4 ADD MSTORE ADDRESS PUSH1 0x44 DUP4 ADD MSTORE PUSH1 0x64 DUP3 ADD MSTORE PUSH1 0x64 DUP2 MSTORE PUSH1 0xA0 DUP2 ADD DUP2 DUP2 LT PUSH8 0xFFFFFFFFFFFFFFFF DUP3 GT OR PUSH2 0x444 JUMPI DUP10 MSTORE PUSH2 0x306 SWAP1 DUP11 PUSH2 0x191F JUMP JUMPDEST PUSH2 0x310 DUP5 SLOAD PUSH2 0x184A JUMP JUMPDEST SWAP2 DUP3 DUP6 SSTORE PUSH3 0x93A80 TIMESTAMP ADD SWAP4 DUP5 TIMESTAMP GT PUSH2 0x433 JUMPI POP SWAP2 DUP11 SWAP2 DUP7 DUP9 DUP13 DUP12 DUP8 DUP15 SWAP10 SWAP9 DUP11 MLOAD SWAP11 DUP12 SWAP10 PUSH2 0x33C DUP12 PUSH2 0x1889 JUMP JUMPDEST CALLER DUP12 MSTORE DUP5 DUP12 ADD SWAP5 DUP2 DUP7 MSTORE DUP3 DUP13 ADD SWAP7 DUP8 MSTORE PUSH1 0x60 DUP13 ADD SWAP8 DUP9 MSTORE PUSH1 0x80 DUP13 ADD SWAP9 DUP10 MSTORE PUSH1 0xA0 DUP13 ADD SWAP11 DUP3 DUP13 MSTORE PUSH1 0xC0 DUP14 ADD SWAP11 DUP4 DUP13 MSTORE DUP14 ADD SWAP13 DUP14 TIMESTAMP SWAP1 MSTORE PUSH2 0x100 ADD SWAP14 DUP15 MSTORE DUP3 MSTORE PUSH1 0x2 SWAP1 MSTORE KECCAK256 SWAP11 MLOAD AND SWAP2 PUSH1 0x1 PUSH1 0x1 PUSH1 0x60 SHL SUB PUSH1 0xA0 SHL SWAP3 DUP4 DUP13 SLOAD AND OR DUP12 SSTORE DUP2 PUSH1 0x1 DUP13 ADD SWAP2 MLOAD AND DUP4 DUP3 SLOAD AND OR SWAP1 SSTORE PUSH1 0x2 DUP11 ADD SWAP3 MLOAD AND SWAP1 DUP3 SLOAD AND OR SWAP1 SSTORE MLOAD PUSH1 0x3 DUP8 ADD SSTORE MLOAD DUP7 DUP7 ADD SSTORE PUSH1 0x5 DUP6 ADD SWAP2 MLOAD ISZERO ISZERO PUSH2 0x3DC SWAP1 DUP4 SWAP1 PUSH1 0xFF DUP1 NOT DUP4 SLOAD AND SWAP2 ISZERO ISZERO AND OR SWAP1 SSTORE JUMP JUMPDEST MLOAD DUP2 SLOAD PUSH2 0xFF00 NOT AND SWAP1 ISZERO ISZERO PUSH1 0x8 SHL PUSH2 0xFF00 AND OR SWAP1 SSTORE MLOAD PUSH1 0x6 DUP4 ADD SSTORE MLOAD SWAP1 PUSH1 0x7 ADD SSTORE SLOAD SWAP3 DUP5 MLOAD SWAP3 DUP4 MSTORE DUP3 ADD MSTORE CALLER SWAP3 PUSH32 0xFDB4C95616FD6687BEBC7DDFB5908C80B84098683DB171948DD78AFD7CC9F97B SWAP2 LOG4 PUSH1 0x1 DUP2 SSTORE DUP1 RETURN JUMPDEST PUSH4 0x4E487B71 PUSH1 0xE0 SHL DUP13 MSTORE PUSH1 0x11 DUP7 MSTORE DUP12 REVERT JUMPDEST PUSH4 0x4E487B71 PUSH1 0xE0 SHL DUP13 MSTORE PUSH1 0x41 DUP7 MSTORE DUP5 DUP13 REVERT JUMPDEST DUP8 MLOAD PUSH3 0x461BCD PUSH1 0xE5 SHL DUP2 MSTORE DUP1 DUP6 ADD DUP9 SWAP1 MSTORE PUSH1 0x12 DUP2 DUP6 ADD MSTORE PUSH18 0x416D6F756E74206D757374206265203E203 PUSH1 0x74 SHL PUSH1 0x44 DUP3 ADD MSTORE PUSH1 0x64 SWAP1 REVERT JUMPDEST DUP8 MLOAD PUSH3 0x461BCD PUSH1 0xE5 SHL DUP2 MSTORE DUP1 DUP6 ADD DUP9 SWAP1 MSTORE PUSH1 0x13 DUP2 DUP6 ADD MSTORE PUSH19 0x151BDAD95B881B9BDD081CDD5C1C1BDC9D1959 PUSH1 0x6A SHL PUSH1 0x44 DUP3 ADD MSTORE PUSH1 0x64 SWAP1 REVERT JUMPDEST DUP7 MLOAD PUSH3 0x461BCD PUSH1 0xE5 SHL DUP2 MSTORE PUSH1 0x20 DUP2 DUP6 ADD DUP2 SWAP1 MSTORE DUP2 DUP5 ADD MSTORE PUSH32 0x5573652063726561746542696C6C20666F72206E617469766520746F6B656E73 PUSH1 0x44 DUP3 ADD MSTORE PUSH1 0x64 SWAP1 REVERT JUMPDEST DUP4 DUP1 REVERT JUMPDEST POP POP SWAP1 CALLVALUE PUSH2 0x184 JUMPI DUP3 PUSH1 0x3 NOT CALLDATASIZE ADD SLT PUSH2 0x184 JUMPI PUSH2 0x526 PUSH2 0x181B JUMP JUMPDEST PUSH2 0x52E PUSH2 0x1B97 JUMP JUMPDEST SELFBALANCE DUP1 ISZERO PUSH2 0x595 JUMPI PUSH1 0x1 SLOAD DUP5 SWAP2 DUP3 SWAP2 DUP3 SWAP2 DUP3 SWAP2 PUSH1 0x8 SHR PUSH1 0x1 PUSH1 0x1 PUSH1 0xA0 SHL SUB AND GAS CALL PUSH2 0x556 PUSH2 0x1A3A JUMP JUMPDEST POP ISZERO PUSH2 0x560 JUMPI DUP3 DUP1 RETURN JUMPDEST SWAP1 PUSH1 0x20 PUSH1 0x64 SWAP3 MLOAD SWAP2 PUSH3 0x461BCD PUSH1 0xE5 SHL DUP4 MSTORE DUP3 ADD MSTORE PUSH1 0xF PUSH1 0x24 DUP3 ADD MSTORE PUSH15 0x15DA5D1A191C985DC819985A5B1959 PUSH1 0x8A SHL PUSH1 0x44 DUP3 ADD MSTORE REVERT JUMPDEST DUP2 MLOAD PUSH3 0x461BCD PUSH1 0xE5 SHL DUP2 MSTORE PUSH1 0x20 DUP2 DUP6 ADD MSTORE PUSH1 0xA PUSH1 0x24 DUP3 ADD MSTORE PUSH10 0x4E6F2062616C616E6365 PUSH1 0xB0 SHL PUSH1 0x44 DUP3 ADD MSTORE PUSH1 0x64 SWAP1 REVERT JUMPDEST SWAP2 SWAP1 POP CALLVALUE PUSH2 0x507 JUMPI PUSH1 0x20 CALLDATASIZE PUSH1 0x3 NOT ADD SLT PUSH2 0x507 JUMPI PUSH2 0x120 SWAP4 SWAP2 PUSH1 0xFF SWAP2 DUP5 DUP1 MLOAD SWAP5 PUSH2 0x5EE DUP7 PUSH2 0x1889 JUMP JUMPDEST DUP1 DUP7 MSTORE DUP1 PUSH1 0x20 DUP8 ADD MSTORE DUP1 DUP3 DUP8 ADD MSTORE DUP1 PUSH1 0x60 DUP8 ADD MSTORE DUP1 PUSH1 0x80 DUP8 ADD MSTORE DUP1 PUSH1 0xA0 DUP8 ADD MSTORE DUP1 PUSH1 0xC0 DUP8 ADD MSTORE DUP1 DUP5 DUP8 ADD MSTORE DUP1 PUSH2 0x100 DUP1 SWAP8 ADD MSTORE DUP3 CALLDATALOAD DUP2 MSTORE PUSH1 0x2 PUSH1 0x20 MSTORE KECCAK256 SWAP1 DUP6 MLOAD SWAP4 DUP5 SWAP3 DUP4 SWAP3 PUSH2 0x63C DUP5 PUSH2 0x1889 JUMP JUMPDEST PUSH1 0x1 DUP1 PUSH1 0xA0 SHL SUB SWAP9 DUP10 DUP4 SLOAD AND SWAP10 DUP11 DUP7 MSTORE DUP1 PUSH1 0x1 DUP6 ADD SLOAD AND PUSH1 0x20 DUP8 ADD SWAP1 DUP2 MSTORE DUP2 DUP1 PUSH1 0x2 DUP8 ADD SLOAD AND SWAP2 DUP5 DUP10 ADD SWAP3 DUP4 MSTORE DUP13 PUSH1 0x7 PUSH1 0x3 DUP10 ADD SLOAD SWAP8 PUSH1 0x60 DUP13 ADD SWAP9 DUP10 MSTORE DUP10 ADD SLOAD SWAP9 PUSH1 0x80 DUP13 ADD SWAP10 DUP11 MSTORE DUP11 PUSH1 0xC0 PUSH1 0x5 DUP4 ADD SLOAD SWAP14 DUP15 PUSH1 0xA0 DUP3 ADD SWAP15 DUP16 SWAP2 AND ISZERO ISZERO SWAP1 MSTORE ADD SWAP13 PUSH1 0x8 SHR AND ISZERO ISZERO DUP13 MSTORE DUP14 PUSH1 0x6 DUP3 ADD SLOAD SWAP14 ADD SWAP13 DUP14 MSTORE ADD SLOAD SWAP13 ADD SWAP12 DUP13 MSTORE DUP5 MLOAD SWAP14 DUP15 MSTORE MLOAD AND PUSH1 0x20 DUP14 ADD MSTORE MLOAD AND SWAP1 DUP11 ADD MSTORE MLOAD PUSH1 0x60 DUP10 ADD MSTORE MLOAD PUSH1 0x80 DUP9 ADD MSTORE MLOAD ISZERO ISZERO PUSH1 0xA0 DUP8 ADD MSTORE MLOAD ISZERO ISZERO PUSH1 0xC0 DUP7 ADD MSTORE MLOAD SWAP1 DUP5 ADD MSTORE MLOAD SWAP1 DUP3 ADD MSTORE RETURN JUMPDEST POP POP CALLVALUE PUSH2 0x184 JUMPI PUSH1 0x20 CALLDATASIZE PUSH1 0x3 NOT ADD SLT PUSH2 0x184 JUMPI DUP1 CALLDATALOAD DUP1 DUP5 MSTORE PUSH1 0x2 PUSH1 0x20 MSTORE DUP3 DUP5 KECCAK256 DUP1 SLOAD SWAP2 SWAP4 SWAP2 CALLER PUSH1 0x1 PUSH1 0x1 PUSH1 0xA0 SHL SUB SWAP2 DUP3 AND EQ SWAP1 DUP2 ISZERO PUSH2 0x832 JUMPI JUMPDEST POP ISZERO PUSH2 0x7FE JUMPI PUSH1 0x5 DUP2 ADD SWAP3 DUP4 SLOAD SWAP3 PUSH1 0xFF DUP5 AND PUSH2 0x7C7 JUMPI PUSH1 0xFF DUP5 PUSH1 0x8 SHR AND PUSH2 0x791 JUMPI POP POP SWAP1 PUSH2 0x760 PUSH1 0x3 PUSH2 0x100 SWAP4 ADD SLOAD ISZERO ISZERO PUSH2 0x1A03 JUMP JUMPDEST PUSH2 0xFF00 NOT AND OR SWAP1 SSTORE CALLER SWAP1 PUSH32 0xCDE8E21E97A7F6EC4BBF0EE44450212E0BA73BE8FDFBFB2B155E861D86756BAC DUP4 DUP1 LOG3 DUP1 RETURN JUMPDEST SWAP1 PUSH1 0x20 PUSH1 0x64 SWAP3 MLOAD SWAP2 PUSH3 0x461BCD PUSH1 0xE5 SHL DUP4 MSTORE DUP3 ADD MSTORE PUSH1 0x10 PUSH1 0x24 DUP3 ADD MSTORE PUSH16 0x105B1C9958591E48191A5CDC1D5D1959 PUSH1 0x82 SHL PUSH1 0x44 DUP3 ADD MSTORE REVERT JUMPDEST SWAP1 PUSH1 0x20 PUSH1 0x64 SWAP3 MLOAD SWAP2 PUSH3 0x461BCD PUSH1 0xE5 SHL DUP4 MSTORE DUP3 ADD MSTORE PUSH1 0x11 PUSH1 0x24 DUP3 ADD MSTORE PUSH17 0x105B1C9958591E4818DBDB5C1B195D1959 PUSH1 0x7A SHL PUSH1 0x44 DUP3 ADD MSTORE REVERT JUMPDEST DUP2 MLOAD PUSH3 0x461BCD PUSH1 0xE5 SHL DUP2 MSTORE PUSH1 0x20 DUP2 DUP6 ADD MSTORE PUSH1 0xE PUSH1 0x24 DUP3 ADD MSTORE PUSH14 0x139BDD08185D5D1A1BDC9A5E9959 PUSH1 0x92 SHL PUSH1 0x44 DUP3 ADD MSTORE PUSH1 0x64 SWAP1 REVERT JUMPDEST SWAP1 POP PUSH1 0x1 DUP3 ADD SLOAD AND CALLER EQ CODESIZE PUSH2 0x72A JUMP JUMPDEST POP POP CALLVALUE PUSH2 0x184 JUMPI DUP3 PUSH1 0x3 NOT CALLDATASIZE ADD SLT PUSH2 0x184 JUMPI PUSH1 0x20 SWAP3 POP SLOAD SWAP1 MLOAD SWAP1 DUP2 MSTORE RETURN JUMPDEST DUP4 DUP6 DUP5 CALLVALUE PUSH2 0x24D JUMPI PUSH1 0x20 CALLDATASIZE PUSH1 0x3 NOT ADD SLT PUSH2 0x24D JUMPI DUP1 CALLDATALOAD SWAP1 PUSH2 0x87F PUSH2 0x18FC JUMP JUMPDEST DUP2 DUP4 MSTORE PUSH1 0x2 PUSH1 0x20 MSTORE DUP4 DUP4 KECCAK256 SWAP1 PUSH1 0x7 DUP3 ADD SLOAD TIMESTAMP GT ISZERO PUSH2 0x957 JUMPI DUP4 SWAP3 SWAP2 DUP4 SWAP2 PUSH1 0x1 DUP1 PUSH1 0xA0 SHL SUB SWAP2 PUSH2 0x8B4 DUP4 PUSH1 0x1 DUP4 ADD SLOAD AND ISZERO PUSH2 0x1987 JUMP JUMPDEST DUP4 PUSH1 0x3 DUP3 ADD SWAP3 PUSH2 0x8DE DUP5 SLOAD SWAP2 DUP3 ISZERO DUP1 ISZERO SWAP1 PUSH2 0x94B JUMPI JUMPDEST PUSH2 0x8D3 SWAP1 PUSH2 0x1A03 JUMP JUMPDEST DUP5 ADD SWAP2 DUP3 SLOAD SWAP1 PUSH2 0x187C JUMP JUMPDEST SWAP5 DUP1 PUSH1 0x2 DUP6 ADD SLOAD AND SWAP4 SLOAD AND SWAP8 DUP9 SWAP5 SSTORE SSTORE DUP1 ISZERO PUSH1 0x0 EQ PUSH2 0x93C JUMPI POP SWAP2 DUP1 DUP1 DUP1 SWAP4 PUSH2 0x911 SWAP6 GAS CALL PUSH2 0x90B PUSH2 0x1A3A JUMP JUMPDEST POP PUSH2 0x1B52 JUMP JUMPDEST PUSH32 0x16E7A7A8FD7C51D6B4D059D6D7EEA946BFF398EEE64DD1894AF645EDD23D502B DUP4 DUP1 LOG3 PUSH1 0x1 DUP2 SSTORE DUP1 RETURN JUMPDEST PUSH2 0x946 SWAP4 POP PUSH2 0x1B00 JUMP JUMPDEST PUSH2 0x911 JUMP JUMPDEST POP DUP5 DUP2 ADD SLOAD ISZERO ISZERO PUSH2 0x8CA JUMP JUMPDEST PUSH1 0x64 SWAP1 PUSH1 0x20 DUP7 MLOAD SWAP2 PUSH3 0x461BCD PUSH1 0xE5 SHL DUP4 MSTORE DUP3 ADD MSTORE PUSH1 0xB PUSH1 0x24 DUP3 ADD MSTORE PUSH11 0x139BDD08195E1C1A5C9959 PUSH1 0xAA SHL PUSH1 0x44 DUP3 ADD MSTORE REVERT JUMPDEST POP POP CALLVALUE PUSH2 0x184 JUMPI PUSH1 0x20 CALLDATASIZE PUSH1 0x3 NOT ADD SLT PUSH2 0x184 JUMPI PUSH2 0x9A3 PUSH2 0x1800 JUMP JUMPDEST SWAP1 PUSH2 0x9AC PUSH2 0x181B JUMP JUMPDEST PUSH1 0x1 PUSH1 0x1 PUSH1 0xA0 SHL SUB SWAP2 DUP3 AND SWAP3 DUP4 ISZERO PUSH2 0x9FD JUMPI POP POP PUSH1 0x5 SLOAD DUP3 PUSH1 0x1 PUSH1 0x1 PUSH1 0x60 SHL SUB PUSH1 0xA0 SHL DUP3 AND OR PUSH1 0x5 SSTORE AND PUSH32 0x362A006325D32978B283E449D254CFCF93E2CCCC321603EAD9A74238D8DBF36E DUP4 DUP1 LOG3 DUP1 RETURN JUMPDEST SWAP1 PUSH1 0x20 PUSH1 0x64 SWAP3 MLOAD SWAP2 PUSH3 0x461BCD PUSH1 0xE5 SHL DUP4 MSTORE DUP3 ADD MSTORE PUSH1 0xF PUSH1 0x24 DUP3 ADD MSTORE PUSH15 0x496E76616C69642061646472657373 PUSH1 0x88 SHL PUSH1 0x44 DUP3 ADD MSTORE REVERT JUMPDEST POP POP POP CALLVALUE PUSH2 0x24D JUMPI DUP2 PUSH1 0x3 NOT CALLDATASIZE ADD SLT PUSH2 0x24D JUMPI PUSH1 0x1 SLOAD SWAP1 MLOAD PUSH1 0x8 SWAP2 SWAP1 SWAP2 SHR PUSH1 0x1 PUSH1 0x1 PUSH1 0xA0 SHL SUB AND DUP2 MSTORE PUSH1 0x20 SWAP1 RETURN JUMPDEST POP POP POP CALLVALUE PUSH2 0x24D JUMPI DUP2 PUSH1 0x3 NOT CALLDATASIZE ADD SLT PUSH2 0x24D JUMPI PUSH1 0x20 PUSH32 0x62E78CEA01BEE320CD4E420270B5EA74000D11B0C9F74754EBDBFC544B05A258 SWAP2 PUSH2 0xA9F PUSH2 0x181B JUMP JUMPDEST PUSH2 0xAA7 PUSH2 0x18DE JUMP JUMPDEST PUSH1 0x1 PUSH1 0xFF NOT DUP2 SLOAD AND OR PUSH1 0x1 SSTORE MLOAD CALLER DUP2 MSTORE LOG1 DUP1 RETURN JUMPDEST POP POP SWAP1 CALLVALUE PUSH2 0x184 JUMPI PUSH1 0x20 CALLDATASIZE PUSH1 0x3 NOT ADD SLT PUSH2 0x184 JUMPI PUSH2 0xAD7 PUSH2 0x1800 JUMP JUMPDEST PUSH2 0xADF PUSH2 0x181B JUMP JUMPDEST PUSH1 0x1 PUSH1 0x1 PUSH1 0xA0 SHL SUB AND SWAP2 DUP3 ISZERO PUSH2 0xB29 JUMPI POP DUP2 DUP4 MSTORE PUSH1 0x3 PUSH1 0x20 MSTORE DUP3 KECCAK256 DUP1 SLOAD PUSH1 0xFF NOT AND SWAP1 SSTORE PUSH32 0x4C910B69FE65A61F7531B9C5042B2329CA7179C77290AA7E2EB3AFA3C8511FD3 DUP3 DUP1 LOG2 DUP1 RETURN JUMPDEST PUSH1 0x20 PUSH1 0x64 SWAP3 MLOAD SWAP2 PUSH3 0x461BCD PUSH1 0xE5 SHL DUP4 MSTORE DUP3 ADD MSTORE PUSH1 0x1A PUSH1 0x24 DUP3 ADD MSTORE PUSH32 0x43616E6E6F742072656D6F7665206E617469766520746F6B656E000000000000 PUSH1 0x44 DUP3 ADD MSTORE REVERT JUMPDEST POP POP POP CALLVALUE PUSH2 0x24D JUMPI PUSH1 0x20 CALLDATASIZE PUSH1 0x3 NOT ADD SLT PUSH2 0x24D JUMPI PUSH1 0x20 SWAP2 PUSH1 0xFF SWAP1 DUP3 SWAP1 PUSH1 0x1 PUSH1 0x1 PUSH1 0xA0 SHL SUB PUSH2 0xB97 PUSH2 0x1800 JUMP JUMPDEST AND DUP2 MSTORE PUSH1 0x3 DUP6 MSTORE KECCAK256 SLOAD AND SWAP1 MLOAD SWAP1 ISZERO ISZERO DUP2 MSTORE RETURN JUMPDEST DUP5 CALLVALUE PUSH2 0xC0B JUMPI DUP1 PUSH1 0x3 NOT CALLDATASIZE ADD SLT PUSH2 0xC0B JUMPI PUSH2 0xBC3 PUSH2 0x181B JUMP JUMPDEST PUSH1 0x1 DUP1 SLOAD PUSH2 0x100 PUSH1 0x1 PUSH1 0xA8 SHL SUB NOT DUP2 AND SWAP1 SWAP2 SSTORE DUP2 SWAP1 PUSH1 0x8 SHR PUSH1 0x1 PUSH1 0x1 PUSH1 0xA0 SHL SUB AND PUSH32 0x8BE0079C531659141344CD1FD0A4F28419497F9722A3DAAFE3B4186F6B6457E0 DUP3 DUP1 LOG3 DUP1 RETURN JUMPDEST DUP1 REVERT JUMPDEST POP POP SWAP1 CALLVALUE PUSH2 0x184 JUMPI PUSH1 0x20 CALLDATASIZE PUSH1 0x3 NOT ADD SLT PUSH2 0x184 JUMPI PUSH2 0xC2A PUSH2 0x1800 JUMP JUMPDEST PUSH2 0xC32 PUSH2 0x181B JUMP JUMPDEST PUSH1 0x1 PUSH1 0x1 PUSH1 0xA0 SHL SUB AND SWAP2 DUP3 ISZERO PUSH2 0xC7F JUMPI POP DUP2 DUP4 MSTORE PUSH1 0x3 PUSH1 0x20 MSTORE DUP3 KECCAK256 DUP1 SLOAD PUSH1 0xFF NOT AND PUSH1 0x1 OR SWAP1 SSTORE PUSH32 0x784C8F4DBF0FFEDD6E72C76501C545A70F8B203B30A26CE542BF92BA87C248A4 DUP3 DUP1 LOG2 DUP1 RETURN JUMPDEST PUSH1 0x20 PUSH1 0x64 SWAP3 MLOAD SWAP2 PUSH3 0x461BCD PUSH1 0xE5 SHL DUP4 MSTORE DUP3 ADD MSTORE PUSH1 0x1C PUSH1 0x24 DUP3 ADD MSTORE PUSH32 0x557365206E617469766520746F6B656E20616464726573732030783000000000 PUSH1 0x44 DUP3 ADD MSTORE REVERT JUMPDEST POP POP CALLVALUE PUSH2 0x184 JUMPI PUSH1 0x20 CALLDATASIZE PUSH1 0x3 NOT ADD SLT PUSH2 0x184 JUMPI DUP1 CALLDATALOAD SWAP2 PUSH2 0xCDF PUSH2 0x18FC JUMP JUMPDEST DUP3 DUP5 MSTORE PUSH1 0x2 PUSH1 0x20 MSTORE DUP4 KECCAK256 DUP1 SLOAD PUSH1 0x1 PUSH1 0x1 PUSH1 0xA0 SHL SUB SWAP3 DUP6 SWAP2 DUP5 AND PUSH2 0xD03 CALLER DUP3 EQ PUSH2 0x19C5 JUMP JUMPDEST PUSH2 0xD13 DUP6 PUSH1 0x1 DUP7 ADD SLOAD AND ISZERO PUSH2 0x1987 JUMP JUMPDEST PUSH1 0x3 DUP5 ADD DUP4 PUSH2 0xD3C DUP3 SLOAD SWAP5 DUP6 ISZERO DUP1 ISZERO SWAP1 PUSH2 0xDA6 JUMPI JUMPDEST PUSH2 0xD31 SWAP1 PUSH2 0x1A03 JUMP JUMPDEST DUP8 ADD SWAP5 DUP6 SLOAD SWAP1 PUSH2 0x187C JUMP JUMPDEST SWAP4 DUP2 DUP9 PUSH1 0x2 DUP10 ADD SLOAD AND SWAP4 SSTORE SSTORE DUP1 ISZERO PUSH1 0x0 EQ PUSH2 0xD97 JUMPI POP POP SWAP1 DUP1 DUP1 DUP1 PUSH2 0xD69 SWAP5 DUP8 DUP8 SLOAD AND GAS CALL PUSH2 0x90B PUSH2 0x1A3A JUMP JUMPDEST SLOAD AND SWAP1 PUSH32 0x16E7A7A8FD7C51D6B4D059D6D7EEA946BFF398EEE64DD1894AF645EDD23D502B DUP4 DUP1 LOG3 PUSH1 0x1 DUP2 SSTORE DUP1 RETURN JUMPDEST PUSH2 0xDA1 SWAP4 POP PUSH2 0x1B00 JUMP JUMPDEST PUSH2 0xD69 JUMP JUMPDEST POP DUP8 DUP2 ADD SLOAD ISZERO ISZERO PUSH2 0xD28 JUMP JUMPDEST POP POP POP CALLVALUE PUSH2 0x24D JUMPI DUP2 PUSH1 0x3 NOT CALLDATASIZE ADD SLT PUSH2 0x24D JUMPI PUSH1 0x20 SWAP1 PUSH1 0xFF PUSH1 0x1 SLOAD AND SWAP1 MLOAD SWAP1 ISZERO ISZERO DUP2 MSTORE RETURN JUMPDEST POP POP POP CALLVALUE PUSH2 0x24D JUMPI DUP2 PUSH1 0x3 NOT CALLDATASIZE ADD SLT PUSH2 0x24D JUMPI PUSH1 0x20 PUSH32 0x5DB9EE0A495BF2E6FF9C91A7834C1BA4FDD244A5E8AA4E537BD38AEAE4B073AA SWAP2 PUSH2 0xE16 PUSH2 0x181B JUMP JUMPDEST PUSH2 0xE1E PUSH2 0x1B97 JUMP JUMPDEST PUSH1 0xFF NOT PUSH1 0x1 SLOAD AND PUSH1 0x1 SSTORE MLOAD CALLER DUP2 MSTORE LOG1 DUP1 RETURN JUMPDEST POP POP SWAP1 CALLVALUE PUSH2 0x184 JUMPI DUP1 PUSH1 0x3 NOT CALLDATASIZE ADD SLT PUSH2 0x184 JUMPI DUP2 CALLDATALOAD SWAP2 PUSH1 0x24 CALLDATALOAD DUP1 ISZERO ISZERO DUP2 SUB PUSH2 0x1016 JUMPI PUSH2 0xE5A PUSH2 0x181B JUMP JUMPDEST PUSH2 0xE62 PUSH2 0x18FC JUMP JUMPDEST DUP4 DUP6 MSTORE PUSH1 0x2 PUSH1 0x20 MSTORE DUP3 DUP6 KECCAK256 SWAP2 PUSH1 0x5 DUP4 ADD SWAP3 DUP4 SLOAD SWAP3 PUSH1 0xFF DUP5 PUSH1 0x8 SHR AND ISZERO PUSH2 0xFE4 JUMPI SWAP3 PUSH1 0x20 SWAP5 SWAP3 DUP3 PUSH32 0x5A87909BFF68CAAAAF0B3FD9C74EECCC928832F879315E5C6FB7A73612F26C0C SWAP8 SWAP6 PUSH1 0x3 DUP12 SWAP6 ADD DUP1 SLOAD SWAP4 DUP5 ISZERO DUP1 ISZERO SWAP1 PUSH2 0xFD8 JUMPI JUMPDEST PUSH2 0xEC6 SWAP1 PUSH2 0x1A03 JUMP JUMPDEST DUP4 ADD SWAP2 DUP3 SLOAD SWAP8 PUSH1 0x1 DUP1 PUSH1 0xA0 SHL SUB SWAP7 DUP9 DUP9 PUSH1 0x2 DUP9 ADD SLOAD AND SWAP6 DUP2 DUP11 DUP1 PUSH1 0x1 DUP12 ADD SLOAD AND SWAP10 SLOAD AND SWAP7 SSTORE SSTORE PUSH2 0xFF00 NOT AND SWAP1 SSTORE DUP1 PUSH2 0xFCF JUMPI JUMPDEST ISZERO PUSH2 0xF8D JUMPI POP DUP1 PUSH2 0xF5A JUMPI POP DUP4 DUP1 DUP1 PUSH2 0xF1E SWAP5 DUP2 SWAP5 GAS CALL PUSH2 0xF18 PUSH2 0x1A3A JUMP JUMPDEST POP PUSH2 0x1A7A JUMP JUMPDEST DUP3 PUSH2 0xF36 JUMPI JUMPDEST POP POP POP JUMPDEST MLOAD PUSH1 0x1 DUP2 MSTORE LOG2 JUMPDEST PUSH1 0x1 DUP2 SSTORE DUP1 RETURN JUMPDEST DUP2 DUP1 PUSH2 0xF52 SWAP5 DUP2 SWAP4 PUSH1 0x5 SLOAD AND GAS CALL PUSH2 0xF4C PUSH2 0x1A3A JUMP JUMPDEST POP PUSH2 0x1ABE JUMP JUMPDEST CODESIZE DUP6 DUP2 PUSH2 0xF24 JUMP JUMPDEST SWAP3 SWAP5 SWAP4 POP SWAP1 PUSH2 0xF69 SWAP2 DUP4 PUSH2 0x1B00 JUMP JUMPDEST DUP2 PUSH2 0xF77 JUMPI JUMPDEST POP POP POP PUSH2 0xF28 JUMP JUMPDEST PUSH2 0xF85 SWAP3 PUSH1 0x5 SLOAD AND SWAP1 PUSH2 0x1B00 JUMP JUMPDEST CODESIZE DUP1 DUP1 PUSH2 0xF6F JUMP JUMPDEST SWAP4 POP SWAP4 SWAP5 SWAP1 POP PUSH2 0xF9C SWAP2 PUSH2 0x187C JUMP JUMPDEST SWAP2 DUP1 PUSH2 0xFC0 JUMPI POP SWAP2 DUP1 DUP1 DUP1 SWAP4 PUSH2 0xFB6 SWAP6 GAS CALL PUSH2 0x90B PUSH2 0x1A3A JUMP JUMPDEST MLOAD DUP5 DUP2 MSTORE LOG2 PUSH2 0xF2F JUMP JUMPDEST PUSH2 0xFCA SWAP4 POP PUSH2 0x1B00 JUMP JUMPDEST PUSH2 0xFB6 JUMP JUMPDEST POP DUP3 ISZERO ISZERO PUSH2 0xEF9 JUMP JUMPDEST POP DUP4 DUP2 ADD SLOAD ISZERO ISZERO PUSH2 0xEBD JUMP JUMPDEST DUP6 MLOAD PUSH3 0x461BCD PUSH1 0xE5 SHL DUP2 MSTORE PUSH1 0x20 DUP2 DUP6 ADD MSTORE PUSH1 0xC PUSH1 0x24 DUP3 ADD MSTORE PUSH12 0x139BDD08191A5CDC1D5D1959 PUSH1 0xA2 SHL PUSH1 0x44 DUP3 ADD MSTORE PUSH1 0x64 SWAP1 REVERT JUMPDEST DUP5 DUP1 REVERT JUMPDEST DUP5 SWAP4 SWAP2 POP CALLVALUE PUSH2 0x507 JUMPI PUSH1 0x20 CALLDATASIZE PUSH1 0x3 NOT ADD SLT PUSH2 0x507 JUMPI DUP2 PUSH2 0x120 SWAP5 DUP5 CALLDATALOAD DUP2 MSTORE PUSH1 0x2 PUSH1 0x20 MSTORE KECCAK256 SWAP1 PUSH1 0xFF PUSH1 0x1 DUP1 PUSH1 0xA0 SHL SUB SWAP4 DUP5 DUP5 SLOAD AND SWAP6 DUP6 PUSH1 0x1 DUP7 ADD SLOAD AND SWAP6 PUSH1 0x2 DUP7 ADD SLOAD AND SWAP1 PUSH1 0x3 DUP7 ADD SLOAD SWAP1 DUP7 ADD SLOAD SWAP2 PUSH1 0x5 DUP8 ADD SLOAD SWAP4 PUSH1 0x7 PUSH1 0x6 DUP10 ADD SLOAD SWAP9 ADD SLOAD SWAP9 DUP2 MLOAD SWAP11 DUP12 MSTORE PUSH1 0x20 DUP12 ADD MSTORE DUP10 ADD MSTORE PUSH1 0x60 DUP9 ADD MSTORE PUSH1 0x80 DUP8 ADD MSTORE DUP2 DUP2 AND ISZERO ISZERO PUSH1 0xA0 DUP8 ADD MSTORE PUSH1 0x8 SHR AND ISZERO ISZERO PUSH1 0xC0 DUP6 ADD MSTORE DUP4 ADD MSTORE PUSH2 0x100 DUP3 ADD MSTORE RETURN JUMPDEST POP POP CALLVALUE PUSH2 0x184 JUMPI PUSH1 0x20 CALLDATASIZE PUSH1 0x3 NOT ADD SLT PUSH2 0x184 JUMPI PUSH1 0xA0 SWAP3 DUP3 SWAP2 CALLDATALOAD DUP2 MSTORE PUSH1 0x2 PUSH1 0x20 MSTORE KECCAK256 SWAP1 PUSH1 0xFF PUSH1 0x1 DUP1 DUP6 SHL SUB SWAP3 DUP4 DUP2 SLOAD AND ISZERO ISZERO SWAP4 PUSH1 0x1 DUP3 ADD SLOAD AND ISZERO ISZERO SWAP3 PUSH1 0x7 PUSH1 0x5 DUP4 ADD SLOAD SWAP3 ADD SLOAD TIMESTAMP GT SWAP4 DUP2 MLOAD SWAP6 DUP7 MSTORE PUSH1 0x20 DUP7 ADD MSTORE DUP3 DUP3 AND ISZERO ISZERO SWAP1 DUP6 ADD MSTORE PUSH1 0x8 SHR AND ISZERO ISZERO PUSH1 0x60 DUP4 ADD MSTORE PUSH1 0x80 DUP3 ADD MSTORE RETURN JUMPDEST POP POP CALLVALUE PUSH2 0x184 JUMPI PUSH1 0x20 DUP1 PUSH1 0x3 NOT CALLDATASIZE ADD SLT PUSH2 0x507 JUMPI DUP2 CALLDATALOAD SWAP1 PUSH2 0x113B PUSH2 0x18FC JUMP JUMPDEST PUSH2 0x1143 PUSH2 0x18DE JUMP JUMPDEST DUP2 DUP6 MSTORE PUSH1 0x2 DUP2 MSTORE DUP4 DUP6 KECCAK256 SWAP3 PUSH1 0x1 DUP1 PUSH1 0xA0 SHL SUB SWAP5 PUSH2 0x1164 DUP7 DUP7 SLOAD AND CALLER EQ PUSH2 0x19C5 JUMP JUMPDEST DUP6 PUSH1 0x1 DUP7 ADD SLOAD AND SWAP5 DUP6 ISZERO PUSH2 0x12F1 JUMPI PUSH1 0x5 DUP2 ADD SWAP7 DUP8 SLOAD SWAP4 PUSH1 0xFF DUP6 AND PUSH2 0x12BA JUMPI PUSH1 0xFF DUP6 PUSH1 0x8 SHR AND PUSH2 0x1287 JUMPI DUP3 SWAP2 DUP11 DUP1 SWAP3 PUSH1 0x3 PUSH32 0x97403CCE48BF0C83F4199E651135F4C6EAAB37F5F2ADB71672B857345A19BEF6 SWAP10 SWAP9 SWAP8 SWAP7 ADD SWAP12 PUSH1 0x1 DUP14 SLOAD SWAP9 PUSH2 0x11CB DUP11 ISZERO ISZERO PUSH2 0x1A03 JUMP JUMPDEST PUSH1 0xFF NOT AND OR SWAP1 SSTORE DUP5 ADD DUP2 DUP4 PUSH1 0x2 DUP4 SLOAD SWAP8 ADD SLOAD AND SWAP13 SSTORE SSTORE DUP5 DUP10 DUP12 ISZERO PUSH1 0x0 EQ PUSH2 0x1258 JUMPI DUP4 DUP1 DUP1 PUSH2 0x11FF SWAP5 DUP2 SWAP5 GAS CALL PUSH2 0xF18 PUSH2 0x1A3A JUMP JUMPDEST DUP3 PUSH2 0x123A JUMPI JUMPDEST POP POP POP JUMPDEST MLOAD SWAP1 DUP5 PUSH32 0xE56E5977B732B68B6C4E6F2E2DC7332C3216577B919CA691580A29E7C31D3857 DUP10 DUP1 LOG2 DUP2 MSTORE LOG4 PUSH1 0x1 DUP2 SSTORE DUP1 RETURN JUMPDEST DUP2 DUP1 PUSH2 0x1250 SWAP5 DUP2 SWAP4 PUSH1 0x5 SLOAD AND GAS CALL PUSH2 0xF4C PUSH2 0x1A3A JUMP JUMPDEST CODESIZE DUP9 DUP2 PUSH2 0x1205 JUMP JUMPDEST PUSH2 0x1265 SWAP3 SWAP5 SWAP4 POP DUP12 PUSH2 0x1B00 JUMP JUMPDEST DUP1 PUSH2 0x1272 JUMPI JUMPDEST POP POP PUSH2 0x1209 JUMP JUMPDEST PUSH2 0x1280 SWAP2 PUSH1 0x5 SLOAD AND DUP10 PUSH2 0x1B00 JUMP JUMPDEST CODESIZE DUP1 PUSH2 0x126B JUMP JUMPDEST DUP4 MLOAD PUSH3 0x461BCD PUSH1 0xE5 SHL DUP2 MSTORE SWAP1 DUP2 ADD DUP7 SWAP1 MSTORE PUSH1 0xD PUSH1 0x24 DUP3 ADD MSTORE PUSH13 0x109A5B1B08191A5CDC1D5D1959 PUSH1 0x9A SHL PUSH1 0x44 DUP3 ADD MSTORE PUSH1 0x64 SWAP1 REVERT JUMPDEST DUP4 MLOAD PUSH3 0x461BCD PUSH1 0xE5 SHL DUP2 MSTORE SWAP1 DUP2 ADD DUP7 SWAP1 MSTORE PUSH1 0x11 PUSH1 0x24 DUP3 ADD MSTORE PUSH17 0x105B1C9958591E4818DBDB999A5C9B5959 PUSH1 0x7A SHL PUSH1 0x44 DUP3 ADD MSTORE PUSH1 0x64 SWAP1 REVERT JUMPDEST POP SWAP2 PUSH1 0x64 SWAP3 MLOAD SWAP2 PUSH3 0x461BCD PUSH1 0xE5 SHL DUP4 MSTORE DUP3 ADD MSTORE PUSH1 0xB PUSH1 0x24 DUP3 ADD MSTORE PUSH11 0x139BDD0818DB185A5B5959 PUSH1 0xAA SHL PUSH1 0x44 DUP3 ADD MSTORE REVERT JUMPDEST DUP5 DUP5 DUP5 SWAP3 PUSH1 0x20 SWAP2 DUP3 PUSH1 0x3 NOT CALLDATASIZE ADD SLT PUSH2 0x507 JUMPI DUP5 CALLDATALOAD SWAP2 PUSH2 0x133E PUSH2 0x18FC JUMP JUMPDEST PUSH2 0x1346 PUSH2 0x18DE JUMP JUMPDEST DUP3 CALLVALUE GT ISZERO PUSH2 0x14EA JUMPI CALLVALUE ISZERO PUSH2 0x14B4 JUMPI PUSH2 0x135E DUP7 SLOAD PUSH2 0x184A JUMP JUMPDEST DUP1 DUP8 SSTORE PUSH2 0x136B DUP5 CALLVALUE PUSH2 0x186F JUMP JUMPDEST SWAP2 PUSH3 0x93A80 TIMESTAMP ADD SWAP3 DUP4 TIMESTAMP GT PUSH2 0x14A1 JUMPI DUP5 SWAP4 DUP9 SWAP10 SWAP4 PUSH2 0x1478 DUP10 DUP12 SWAP6 DUP11 PUSH1 0x7 SWAP7 PUSH32 0xFDB4C95616FD6687BEBC7DDFB5908C80B84098683DB171948DD78AFD7CC9F97B SWAP12 MLOAD SWAP9 PUSH2 0x13B6 DUP11 PUSH2 0x1889 JUMP JUMPDEST CALLER DUP11 MSTORE DUP5 DUP11 ADD SWAP10 DUP2 DUP12 MSTORE PUSH1 0x1 DUP14 DUP1 DUP4 ADD SWAP4 DUP1 DUP6 MSTORE PUSH1 0x60 DUP5 ADD SWAP6 DUP7 MSTORE PUSH1 0x80 DUP5 ADD SWAP7 DUP8 MSTORE PUSH1 0x2 PUSH1 0xA0 DUP6 ADD SWAP10 DUP3 DUP12 MSTORE PUSH1 0xC0 DUP7 ADD SWAP10 DUP4 DUP12 MSTORE DUP7 ADD SWAP13 DUP14 TIMESTAMP SWAP1 MSTORE PUSH2 0x100 DUP8 ADD SWAP15 DUP16 MSTORE DUP4 MSTORE MSTORE KECCAK256 SWAP12 DUP13 SWAP3 DUP3 DUP1 PUSH1 0xA0 SHL SUB SWAP3 DUP4 DUP1 SWAP3 MLOAD AND SWAP5 PUSH1 0x1 PUSH1 0x1 PUSH1 0x60 SHL SUB PUSH1 0xA0 SHL SWAP6 DUP7 DUP3 SLOAD AND OR DUP2 SSTORE ADD SWAP2 MLOAD AND DUP4 DUP3 SLOAD AND OR SWAP1 SSTORE PUSH1 0x2 DUP13 ADD SWAP3 MLOAD AND SWAP1 DUP3 SLOAD AND OR SWAP1 SSTORE MLOAD PUSH1 0x3 DUP10 ADD SSTORE MLOAD DUP9 DUP9 ADD SSTORE PUSH2 0x1461 PUSH1 0x5 DUP9 ADD SWAP3 MLOAD ISZERO ISZERO DUP4 SWAP1 PUSH1 0xFF DUP1 NOT DUP4 SLOAD AND SWAP2 ISZERO ISZERO AND OR SWAP1 SSTORE JUMP JUMPDEST MLOAD DUP2 SLOAD PUSH2 0xFF00 NOT AND SWAP1 ISZERO ISZERO PUSH1 0x8 SHL PUSH2 0xFF00 AND OR SWAP1 SSTORE JUMP JUMPDEST MLOAD PUSH1 0x6 DUP5 ADD SSTORE MLOAD SWAP2 ADD SSTORE SLOAD SWAP3 PUSH2 0x148E DUP2 CALLVALUE PUSH2 0x186F JUMP JUMPDEST SWAP5 DUP3 MLOAD SWAP6 DUP7 MSTORE DUP6 ADD MSTORE CALLER SWAP4 LOG4 PUSH1 0x1 DUP2 SSTORE DUP1 RETURN JUMPDEST PUSH4 0x4E487B71 PUSH1 0xE0 SHL DUP9 MSTORE PUSH1 0x11 DUP10 MSTORE PUSH1 0x24 DUP9 REVERT JUMPDEST DUP2 MLOAD PUSH3 0x461BCD PUSH1 0xE5 SHL DUP2 MSTORE DUP1 DUP8 ADD DUP6 SWAP1 MSTORE PUSH1 0x10 PUSH1 0x24 DUP3 ADD MSTORE PUSH16 0x4D7573742073656E642063727970746F PUSH1 0x80 SHL PUSH1 0x44 DUP3 ADD MSTORE PUSH1 0x64 SWAP1 REVERT JUMPDEST DUP2 MLOAD PUSH3 0x461BCD PUSH1 0xE5 SHL DUP2 MSTORE DUP1 DUP8 ADD DUP6 SWAP1 MSTORE PUSH1 0x16 PUSH1 0x24 DUP3 ADD MSTORE PUSH22 0x416D6F756E74206D7573742065786365656420666565 PUSH1 0x50 SHL PUSH1 0x44 DUP3 ADD MSTORE PUSH1 0x64 SWAP1 REVERT JUMPDEST DUP4 DUP6 DUP5 CALLVALUE PUSH2 0x24D JUMPI PUSH1 0x20 SWAP1 DUP2 PUSH1 0x3 NOT CALLDATASIZE ADD SLT PUSH2 0x184 JUMPI PUSH2 0x1544 PUSH2 0x1800 JUMP JUMPDEST PUSH2 0x154C PUSH2 0x181B JUMP JUMPDEST PUSH2 0x1554 PUSH2 0x1B97 JUMP JUMPDEST PUSH1 0x1 PUSH1 0x1 PUSH1 0xA0 SHL SUB SWAP1 DUP2 AND SWAP2 DUP3 ISZERO PUSH2 0x161F JUMPI DUP6 MLOAD PUSH4 0x70A08231 PUSH1 0xE0 SHL DUP2 MSTORE ADDRESS DUP3 DUP3 ADD MSTORE SWAP4 DUP1 DUP6 PUSH1 0x24 DUP2 DUP8 GAS STATICCALL SWAP5 DUP6 ISZERO PUSH2 0x1615 JUMPI DUP7 SWAP6 PUSH2 0x15E2 JUMPI JUMPDEST POP DUP5 ISZERO PUSH2 0x15AD JUMPI POP POP PUSH2 0x15AA SWAP4 SWAP5 POP PUSH1 0x1 SLOAD PUSH1 0x8 SHR AND SWAP1 PUSH2 0x1B00 JUMP JUMPDEST DUP1 RETURN JUMPDEST DUP7 MLOAD PUSH3 0x461BCD PUSH1 0xE5 SHL DUP2 MSTORE SWAP2 DUP3 ADD MSTORE PUSH1 0x10 PUSH1 0x24 DUP3 ADD MSTORE PUSH16 0x4E6F20746F6B656E2062616C616E6365 PUSH1 0x80 SHL PUSH1 0x44 DUP3 ADD MSTORE PUSH1 0x64 SWAP2 POP REVERT JUMPDEST SWAP1 DUP1 SWAP6 POP DUP2 DUP2 RETURNDATASIZE DUP4 GT PUSH2 0x160E JUMPI JUMPDEST PUSH2 0x15FA DUP2 DUP4 PUSH2 0x18BC JUMP JUMPDEST DUP2 ADD SUB SLT PUSH2 0x160A JUMPI MLOAD SWAP4 DUP8 PUSH2 0x158E JUMP JUMPDEST DUP6 DUP1 REVERT JUMPDEST POP RETURNDATASIZE PUSH2 0x15F0 JUMP JUMPDEST DUP8 MLOAD RETURNDATASIZE DUP9 DUP3 RETURNDATACOPY RETURNDATASIZE SWAP1 REVERT JUMPDEST PUSH1 0x64 SWAP1 DUP5 DUP1 DUP9 MLOAD SWAP3 PUSH3 0x461BCD PUSH1 0xE5 SHL DUP5 MSTORE DUP4 ADD MSTORE PUSH1 0x24 DUP3 ADD MSTORE PUSH32 0x55736520656D657267656E6379576974686472617720666F72206E6174697665 PUSH1 0x44 DUP3 ADD MSTORE REVERT JUMPDEST POP POP SWAP1 CALLVALUE PUSH2 0x184 JUMPI PUSH1 0x20 DUP1 PUSH1 0x3 NOT CALLDATASIZE ADD SLT PUSH2 0x507 JUMPI DUP3 CALLDATALOAD SWAP3 PUSH2 0x1680 PUSH2 0x18FC JUMP JUMPDEST PUSH2 0x1688 PUSH2 0x18DE JUMP JUMPDEST DUP4 DUP6 MSTORE PUSH1 0x2 DUP3 MSTORE DUP3 DUP6 KECCAK256 PUSH1 0x1 DUP2 ADD DUP1 SLOAD SWAP1 SWAP5 SWAP1 SWAP4 SWAP2 PUSH1 0x1 PUSH1 0x1 PUSH1 0xA0 SHL SUB PUSH2 0x16B1 DUP2 DUP8 AND ISZERO PUSH2 0x1987 JUMP JUMPDEST PUSH1 0x3 DUP3 ADD SLOAD ISZERO PUSH2 0x17BD JUMPI DUP2 SLOAD AND CALLER EQ PUSH2 0x1783 JUMPI PUSH1 0xFF PUSH1 0x5 DUP3 ADD SLOAD PUSH1 0x8 SHR AND PUSH2 0x174E JUMPI PUSH1 0x7 ADD SLOAD TIMESTAMP LT ISZERO PUSH2 0x171E JUMPI POP POP POP PUSH1 0x1 PUSH1 0x1 PUSH1 0xA0 SHL SUB NOT AND CALLER SWAP1 DUP2 OR SWAP1 SWAP2 SSTORE SWAP1 PUSH32 0xB32DA9354607796544422F364CA1AEC8A7B6E85FDB196E204BF0ED62CB620AE DUP4 DUP1 LOG3 PUSH1 0x1 DUP2 SSTORE DUP1 RETURN JUMPDEST MLOAD PUSH3 0x461BCD PUSH1 0xE5 SHL DUP2 MSTORE SWAP2 DUP3 ADD MSTORE PUSH1 0xC PUSH1 0x24 DUP3 ADD MSTORE PUSH12 0x109A5B1B08195E1C1A5C9959 PUSH1 0xA2 SHL PUSH1 0x44 DUP3 ADD MSTORE PUSH1 0x64 SWAP2 POP REVERT JUMPDEST POP MLOAD PUSH3 0x461BCD PUSH1 0xE5 SHL DUP2 MSTORE SWAP2 DUP3 ADD MSTORE PUSH1 0x10 PUSH1 0x24 DUP3 ADD MSTORE PUSH16 0x109A5B1B081A5CC8191A5CDC1D5D1959 PUSH1 0x82 SHL PUSH1 0x44 DUP3 ADD MSTORE PUSH1 0x64 SWAP2 POP REVERT JUMPDEST POP MLOAD PUSH3 0x461BCD PUSH1 0xE5 SHL DUP2 MSTORE SWAP2 DUP3 ADD MSTORE PUSH1 0x15 PUSH1 0x24 DUP3 ADD MSTORE PUSH21 0x10D85B9B9BDD0818DB185A5B481BDDDB88189A5B1B PUSH1 0x5A SHL PUSH1 0x44 DUP3 ADD MSTORE PUSH1 0x64 SWAP2 POP REVERT JUMPDEST POP POP MLOAD PUSH3 0x461BCD PUSH1 0xE5 SHL DUP2 MSTORE SWAP2 DUP3 ADD MSTORE PUSH1 0x17 PUSH1 0x24 DUP3 ADD MSTORE PUSH32 0x42696C6C206E6F7420666F756E64206F7220656D707479000000000000000000 PUSH1 0x44 DUP3 ADD MSTORE PUSH1 0x64 SWAP2 POP REVERT JUMPDEST PUSH1 0x4 CALLDATALOAD SWAP1 PUSH1 0x1 PUSH1 0x1 PUSH1 0xA0 SHL SUB DUP3 AND DUP3 SUB PUSH2 0x1816 JUMPI JUMP JUMPDEST PUSH1 0x0 DUP1 REVERT JUMPDEST PUSH1 0x1 SLOAD PUSH1 0x8 SHR PUSH1 0x1 PUSH1 0x1 PUSH1 0xA0 SHL SUB AND CALLER SUB PUSH2 0x1832 JUMPI JUMP JUMPDEST PUSH1 0x40 MLOAD PUSH4 0x118CDAA7 PUSH1 0xE0 SHL DUP2 MSTORE CALLER PUSH1 0x4 DUP3 ADD MSTORE PUSH1 0x24 SWAP1 REVERT JUMPDEST PUSH1 0x0 NOT DUP2 EQ PUSH2 0x1859 JUMPI PUSH1 0x1 ADD SWAP1 JUMP JUMPDEST PUSH4 0x4E487B71 PUSH1 0xE0 SHL PUSH1 0x0 MSTORE PUSH1 0x11 PUSH1 0x4 MSTORE PUSH1 0x24 PUSH1 0x0 REVERT JUMPDEST SWAP2 SWAP1 DUP3 SUB SWAP2 DUP3 GT PUSH2 0x1859 JUMPI JUMP JUMPDEST SWAP2 SWAP1 DUP3 ADD DUP1 SWAP3 GT PUSH2 0x1859 JUMPI JUMP JUMPDEST PUSH2 0x120 DUP2 ADD SWAP1 DUP2 LT PUSH8 0xFFFFFFFFFFFFFFFF DUP3 GT OR PUSH2 0x18A6 JUMPI PUSH1 0x40 MSTORE JUMP JUMPDEST PUSH4 0x4E487B71 PUSH1 0xE0 SHL PUSH1 0x0 MSTORE PUSH1 0x41 PUSH1 0x4 MSTORE PUSH1 0x24 PUSH1 0x0 REVERT JUMPDEST SWAP1 PUSH1 0x1F DUP1 NOT SWAP2 ADD AND DUP2 ADD SWAP1 DUP2 LT PUSH8 0xFFFFFFFFFFFFFFFF DUP3 GT OR PUSH2 0x18A6 JUMPI PUSH1 0x40 MSTORE JUMP JUMPDEST PUSH1 0xFF PUSH1 0x1 SLOAD AND PUSH2 0x18EA JUMPI JUMP JUMPDEST PUSH1 0x40 MLOAD PUSH4 0xD93C0665 PUSH1 0xE0 SHL DUP2 MSTORE PUSH1 0x4 SWAP1 REVERT JUMPDEST PUSH1 0x2 PUSH1 0x0 SLOAD EQ PUSH2 0x190D JUMPI PUSH1 0x2 PUSH1 0x0 SSTORE JUMP JUMPDEST PUSH1 0x40 MLOAD PUSH4 0x3EE5AEB5 PUSH1 0xE0 SHL DUP2 MSTORE PUSH1 0x4 SWAP1 REVERT JUMPDEST SWAP1 PUSH1 0x0 PUSH1 0x20 SWAP2 DUP3 DUP2 MLOAD SWAP2 ADD DUP3 DUP6 GAS CALL ISZERO PUSH2 0x197B JUMPI PUSH1 0x0 MLOAD RETURNDATASIZE PUSH2 0x1972 JUMPI POP PUSH1 0x1 PUSH1 0x1 PUSH1 0xA0 SHL SUB DUP2 AND EXTCODESIZE ISZERO JUMPDEST PUSH2 0x1950 JUMPI POP JUMP JUMPDEST PUSH1 0x40 MLOAD PUSH4 0x5274AFE7 PUSH1 0xE0 SHL DUP2 MSTORE PUSH1 0x1 PUSH1 0x1 PUSH1 0xA0 SHL SUB SWAP1 SWAP2 AND PUSH1 0x4 DUP3 ADD MSTORE PUSH1 0x24 SWAP1 REVERT JUMPDEST PUSH1 0x1 EQ ISZERO PUSH2 0x1949 JUMP JUMPDEST PUSH1 0x40 MLOAD RETURNDATASIZE PUSH1 0x0 DUP3 RETURNDATACOPY RETURNDATASIZE SWAP1 REVERT JUMPDEST ISZERO PUSH2 0x198E JUMPI JUMP JUMPDEST PUSH1 0x40 MLOAD PUSH3 0x461BCD PUSH1 0xE5 SHL DUP2 MSTORE PUSH1 0x20 PUSH1 0x4 DUP3 ADD MSTORE PUSH1 0xF PUSH1 0x24 DUP3 ADD MSTORE PUSH15 0x105B1C9958591E4818DB185A5B5959 PUSH1 0x8A SHL PUSH1 0x44 DUP3 ADD MSTORE PUSH1 0x64 SWAP1 REVERT JUMPDEST ISZERO PUSH2 0x19CC JUMPI JUMP JUMPDEST PUSH1 0x40 MLOAD PUSH3 0x461BCD PUSH1 0xE5 SHL DUP2 MSTORE PUSH1 0x20 PUSH1 0x4 DUP3 ADD MSTORE PUSH1 0xF PUSH1 0x24 DUP3 ADD MSTORE PUSH15 0x27B7363C903134B6361036B0B5B2B9 PUSH1 0x89 SHL PUSH1 0x44 DUP3 ADD MSTORE PUSH1 0x64 SWAP1 REVERT JUMPDEST ISZERO PUSH2 0x1A0A JUMPI JUMP JUMPDEST PUSH1 0x40 MLOAD PUSH3 0x461BCD PUSH1 0xE5 SHL DUP2 MSTORE PUSH1 0x20 PUSH1 0x4 DUP3 ADD MSTORE PUSH1 0x8 PUSH1 0x24 DUP3 ADD MSTORE PUSH8 0x4E6F2066756E6473 PUSH1 0xC0 SHL PUSH1 0x44 DUP3 ADD MSTORE PUSH1 0x64 SWAP1 REVERT JUMPDEST RETURNDATASIZE ISZERO PUSH2 0x1A75 JUMPI RETURNDATASIZE SWAP1 PUSH8 0xFFFFFFFFFFFFFFFF DUP3 GT PUSH2 0x18A6 JUMPI PUSH1 0x40 MLOAD SWAP2 PUSH2 0x1A69 PUSH1 0x1F DUP3 ADD PUSH1 0x1F NOT AND PUSH1 0x20 ADD DUP5 PUSH2 0x18BC JUMP JUMPDEST DUP3 MSTORE RETURNDATASIZE PUSH1 0x0 PUSH1 0x20 DUP5 ADD RETURNDATACOPY JUMP JUMPDEST PUSH1 0x60 SWAP1 JUMP JUMPDEST ISZERO PUSH2 0x1A81 JUMPI JUMP JUMPDEST PUSH1 0x40 MLOAD PUSH3 0x461BCD PUSH1 0xE5 SHL DUP2 MSTORE PUSH1 0x20 PUSH1 0x4 DUP3 ADD MSTORE PUSH1 0x15 PUSH1 0x24 DUP3 ADD MSTORE PUSH21 0x14185E595C881D1C985B9CD9995C8819985A5B1959 PUSH1 0x5A SHL PUSH1 0x44 DUP3 ADD MSTORE PUSH1 0x64 SWAP1 REVERT JUMPDEST ISZERO PUSH2 0x1AC5 JUMPI JUMP JUMPDEST PUSH1 0x40 MLOAD PUSH3 0x461BCD PUSH1 0xE5 SHL DUP2 MSTORE PUSH1 0x20 PUSH1 0x4 DUP3 ADD MSTORE PUSH1 0x13 PUSH1 0x24 DUP3 ADD MSTORE PUSH19 0x119959481D1C985B9CD9995C8819985A5B1959 PUSH1 0x6A SHL PUSH1 0x44 DUP3 ADD MSTORE PUSH1 0x64 SWAP1 REVERT JUMPDEST PUSH1 0x40 MLOAD PUSH4 0xA9059CBB PUSH1 0xE0 SHL PUSH1 0x20 DUP3 ADD MSTORE PUSH1 0x1 PUSH1 0x1 PUSH1 0xA0 SHL SUB SWAP1 SWAP3 AND PUSH1 0x24 DUP4 ADD MSTORE PUSH1 0x44 DUP1 DUP4 ADD SWAP4 SWAP1 SWAP4 MSTORE SWAP2 DUP2 MSTORE PUSH1 0x80 DUP2 ADD SWAP2 PUSH8 0xFFFFFFFFFFFFFFFF DUP4 GT DUP3 DUP5 LT OR PUSH2 0x18A6 JUMPI PUSH2 0x1B50 SWAP3 PUSH1 0x40 MSTORE PUSH2 0x191F JUMP JUMPDEST JUMP JUMPDEST ISZERO PUSH2 0x1B59 JUMPI JUMP JUMPDEST PUSH1 0x40 MLOAD PUSH3 0x461BCD PUSH1 0xE5 SHL DUP2 MSTORE PUSH1 0x20 PUSH1 0x4 DUP3 ADD MSTORE PUSH1 0x16 PUSH1 0x24 DUP3 ADD MSTORE PUSH22 0x1499599D5B99081D1C985B9CD9995C8819985A5B1959 PUSH1 0x52 SHL PUSH1 0x44 DUP3 ADD MSTORE PUSH1 0x64 SWAP1 REVERT JUMPDEST PUSH1 0xFF PUSH1 0x1 SLOAD AND ISZERO PUSH2 0x1BA4 JUMPI JUMP JUMPDEST PUSH1 0x40 MLOAD PUSH4 0x8DFC202B PUSH1 0xE0 SHL DUP2 MSTORE PUSH1 0x4 SWAP1 REVERT INVALID LOG2 PUSH5 0x6970667358 0x22 SLT KECCAK256 NUMBER PUSH19 0x70D9351C828D9D93EB2E6748A5DAD7337C5D03 BYTE 0xA7 INVALID 0xC SWAP15 0xCD PUSH13 0xC1344C7B64736F6C6343000814 STOP CALLER "},"methodIdentifiers":{"addSupportedToken(address)":"6d69fcaf","billCounter()":"9d7a0339","bills(uint256)":"28bdcde8","cancelBill(uint256)":"67762988","claimBill(uint256)":"1930eae7","confirmFiatPayment(uint256)":"2185ab6c","createBill(uint256)":"1c8f0789","createBillWithToken(address,uint256,uint256)":"ee5bdbf5","emergencyWithdraw()":"db2e21bc","emergencyWithdrawToken(address)":"1af03203","feeWallet()":"f25f4b56","getBill(uint256)":"b1cd06e6","getBillStatus(uint256)":"286fda3b","isLocked(uint256)":"f6aacfb1","isTokenSupported(address)":"75151b63","owner()":"8da5cb5b","pause()":"8456cb59","paused()":"5c975abb","raiseDispute(uint256)":"a5c1674e","refundExpiredBill(uint256)":"9c078c3a","removeSupportedToken(address)":"76319190","renounceOwnership()":"715018a6","resolveDispute(uint256,bool)":"34b25ee2","setFeeWallet(address)":"90d49b9d","supportedTokens(address)":"68c4ac26","transferOwnership(address)":"f2fde38b","unpause()":"3f4ba83a"}}}}}