{
  "_format": "hh-sol-artifact-1",
  "contractName": "BillHavenEscrow",
  "sourceName": "contracts/BillHavenEscrow.sol",
  "abi": [
    {
      "inputs": [
        {
          "internalType": "address",
          "name": "_feeWallet",
          "type": "address"
        }
      ],
      "stateMutability": "nonpayable",
      "type": "constructor"
    },
    {
      "inputs": [],
      "name": "EnforcedPause",
      "type": "error"
    },
    {
      "inputs": [],
      "name": "ExpectedPause",
      "type": "error"
    },
    {
      "inputs": [
        {
          "internalType": "address",
          "name": "owner",
          "type": "address"
        }
      ],
      "name": "OwnableInvalidOwner",
      "type": "error"
    },
    {
      "inputs": [
        {
          "internalType": "address",
          "name": "account",
          "type": "address"
        }
      ],
      "name": "OwnableUnauthorizedAccount",
      "type": "error"
    },
    {
      "inputs": [],
      "name": "ReentrancyGuardReentrantCall",
      "type": "error"
    },
    {
      "anonymous": false,
      "inputs": [
        {
          "indexed": true,
          "internalType": "uint256",
          "name": "billId",
          "type": "uint256"
        },
        {
          "indexed": true,
          "internalType": "address",
          "name": "payer",
          "type": "address"
        }
      ],
      "name": "BillClaimed",
      "type": "event"
    },
    {
      "anonymous": false,
      "inputs": [
        {
          "indexed": true,
          "internalType": "uint256",
          "name": "billId",
          "type": "uint256"
        },
        {
          "indexed": true,
          "internalType": "address",
          "name": "billMaker",
          "type": "address"
        },
        {
          "indexed": false,
          "internalType": "uint256",
          "name": "amount",
          "type": "uint256"
        },
        {
          "indexed": false,
          "internalType": "uint256",
          "name": "fee",
          "type": "uint256"
        }
      ],
      "name": "BillCreated",
      "type": "event"
    },
    {
      "anonymous": false,
      "inputs": [
        {
          "indexed": true,
          "internalType": "uint256",
          "name": "billId",
          "type": "uint256"
        },
        {
          "indexed": true,
          "internalType": "address",
          "name": "payer",
          "type": "address"
        },
        {
          "indexed": false,
          "internalType": "uint256",
          "name": "amount",
          "type": "uint256"
        }
      ],
      "name": "CryptoReleased",
      "type": "event"
    },
    {
      "anonymous": false,
      "inputs": [
        {
          "indexed": true,
          "internalType": "uint256",
          "name": "billId",
          "type": "uint256"
        },
        {
          "indexed": false,
          "internalType": "bool",
          "name": "releasedToPayer",
          "type": "bool"
        }
      ],
      "name": "DisputeResolved",
      "type": "event"
    },
    {
      "anonymous": false,
      "inputs": [
        {
          "indexed": true,
          "internalType": "uint256",
          "name": "billId",
          "type": "uint256"
        },
        {
          "indexed": true,
          "internalType": "address",
          "name": "by",
          "type": "address"
        }
      ],
      "name": "Disputed",
      "type": "event"
    },
    {
      "anonymous": false,
      "inputs": [
        {
          "indexed": true,
          "internalType": "address",
          "name": "oldWallet",
          "type": "address"
        },
        {
          "indexed": true,
          "internalType": "address",
          "name": "newWallet",
          "type": "address"
        }
      ],
      "name": "FeeWalletUpdated",
      "type": "event"
    },
    {
      "anonymous": false,
      "inputs": [
        {
          "indexed": true,
          "internalType": "uint256",
          "name": "billId",
          "type": "uint256"
        }
      ],
      "name": "FiatConfirmed",
      "type": "event"
    },
    {
      "anonymous": false,
      "inputs": [
        {
          "indexed": true,
          "internalType": "address",
          "name": "previousOwner",
          "type": "address"
        },
        {
          "indexed": true,
          "internalType": "address",
          "name": "newOwner",
          "type": "address"
        }
      ],
      "name": "OwnershipTransferred",
      "type": "event"
    },
    {
      "anonymous": false,
      "inputs": [
        {
          "indexed": false,
          "internalType": "address",
          "name": "account",
          "type": "address"
        }
      ],
      "name": "Paused",
      "type": "event"
    },
    {
      "anonymous": false,
      "inputs": [
        {
          "indexed": true,
          "internalType": "uint256",
          "name": "billId",
          "type": "uint256"
        },
        {
          "indexed": true,
          "internalType": "address",
          "name": "billMaker",
          "type": "address"
        }
      ],
      "name": "Refunded",
      "type": "event"
    },
    {
      "anonymous": false,
      "inputs": [
        {
          "indexed": false,
          "internalType": "address",
          "name": "account",
          "type": "address"
        }
      ],
      "name": "Unpaused",
      "type": "event"
    },
    {
      "inputs": [],
      "name": "billCounter",
      "outputs": [
        {
          "internalType": "uint256",
          "name": "",
          "type": "uint256"
        }
      ],
      "stateMutability": "view",
      "type": "function"
    },
    {
      "inputs": [
        {
          "internalType": "uint256",
          "name": "",
          "type": "uint256"
        }
      ],
      "name": "bills",
      "outputs": [
        {
          "internalType": "address",
          "name": "billMaker",
          "type": "address"
        },
        {
          "internalType": "address",
          "name": "payer",
          "type": "address"
        },
        {
          "internalType": "uint256",
          "name": "amount",
          "type": "uint256"
        },
        {
          "internalType": "uint256",
          "name": "platformFee",
          "type": "uint256"
        },
        {
          "internalType": "bool",
          "name": "fiatConfirmed",
          "type": "bool"
        },
        {
          "internalType": "bool",
          "name": "disputed",
          "type": "bool"
        },
        {
          "internalType": "uint256",
          "name": "createdAt",
          "type": "uint256"
        },
        {
          "internalType": "uint256",
          "name": "expiresAt",
          "type": "uint256"
        }
      ],
      "stateMutability": "view",
      "type": "function"
    },
    {
      "inputs": [
        {
          "internalType": "uint256",
          "name": "_billId",
          "type": "uint256"
        }
      ],
      "name": "cancelBill",
      "outputs": [],
      "stateMutability": "nonpayable",
      "type": "function"
    },
    {
      "inputs": [
        {
          "internalType": "uint256",
          "name": "_billId",
          "type": "uint256"
        }
      ],
      "name": "claimBill",
      "outputs": [],
      "stateMutability": "nonpayable",
      "type": "function"
    },
    {
      "inputs": [
        {
          "internalType": "uint256",
          "name": "_billId",
          "type": "uint256"
        }
      ],
      "name": "confirmFiatPayment",
      "outputs": [],
      "stateMutability": "nonpayable",
      "type": "function"
    },
    {
      "inputs": [
        {
          "internalType": "uint256",
          "name": "_platformFee",
          "type": "uint256"
        }
      ],
      "name": "createBill",
      "outputs": [],
      "stateMutability": "payable",
      "type": "function"
    },
    {
      "inputs": [],
      "name": "emergencyWithdraw",
      "outputs": [],
      "stateMutability": "nonpayable",
      "type": "function"
    },
    {
      "inputs": [],
      "name": "feeWallet",
      "outputs": [
        {
          "internalType": "address",
          "name": "",
          "type": "address"
        }
      ],
      "stateMutability": "view",
      "type": "function"
    },
    {
      "inputs": [
        {
          "internalType": "uint256",
          "name": "_billId",
          "type": "uint256"
        }
      ],
      "name": "getBill",
      "outputs": [
        {
          "components": [
            {
              "internalType": "address",
              "name": "billMaker",
              "type": "address"
            },
            {
              "internalType": "address",
              "name": "payer",
              "type": "address"
            },
            {
              "internalType": "uint256",
              "name": "amount",
              "type": "uint256"
            },
            {
              "internalType": "uint256",
              "name": "platformFee",
              "type": "uint256"
            },
            {
              "internalType": "bool",
              "name": "fiatConfirmed",
              "type": "bool"
            },
            {
              "internalType": "bool",
              "name": "disputed",
              "type": "bool"
            },
            {
              "internalType": "uint256",
              "name": "createdAt",
              "type": "uint256"
            },
            {
              "internalType": "uint256",
              "name": "expiresAt",
              "type": "uint256"
            }
          ],
          "internalType": "struct BillHavenEscrow.Bill",
          "name": "",
          "type": "tuple"
        }
      ],
      "stateMutability": "view",
      "type": "function"
    },
    {
      "inputs": [
        {
          "internalType": "uint256",
          "name": "_billId",
          "type": "uint256"
        }
      ],
      "name": "getBillStatus",
      "outputs": [
        {
          "internalType": "bool",
          "name": "exists",
          "type": "bool"
        },
        {
          "internalType": "bool",
          "name": "claimed",
          "type": "bool"
        },
        {
          "internalType": "bool",
          "name": "confirmed",
          "type": "bool"
        },
        {
          "internalType": "bool",
          "name": "disputed",
          "type": "bool"
        },
        {
          "internalType": "bool",
          "name": "expired",
          "type": "bool"
        }
      ],
      "stateMutability": "view",
      "type": "function"
    },
    {
      "inputs": [
        {
          "internalType": "uint256",
          "name": "_billId",
          "type": "uint256"
        }
      ],
      "name": "isLocked",
      "outputs": [
        {
          "internalType": "bool",
          "name": "",
          "type": "bool"
        }
      ],
      "stateMutability": "view",
      "type": "function"
    },
    {
      "inputs": [],
      "name": "owner",
      "outputs": [
        {
          "internalType": "address",
          "name": "",
          "type": "address"
        }
      ],
      "stateMutability": "view",
      "type": "function"
    },
    {
      "inputs": [],
      "name": "pause",
      "outputs": [],
      "stateMutability": "nonpayable",
      "type": "function"
    },
    {
      "inputs": [],
      "name": "paused",
      "outputs": [
        {
          "internalType": "bool",
          "name": "",
          "type": "bool"
        }
      ],
      "stateMutability": "view",
      "type": "function"
    },
    {
      "inputs": [
        {
          "internalType": "uint256",
          "name": "_billId",
          "type": "uint256"
        }
      ],
      "name": "raiseDispute",
      "outputs": [],
      "stateMutability": "nonpayable",
      "type": "function"
    },
    {
      "inputs": [
        {
          "internalType": "uint256",
          "name": "_billId",
          "type": "uint256"
        }
      ],
      "name": "refundExpiredBill",
      "outputs": [],
      "stateMutability": "nonpayable",
      "type": "function"
    },
    {
      "inputs": [],
      "name": "renounceOwnership",
      "outputs": [],
      "stateMutability": "nonpayable",
      "type": "function"
    },
    {
      "inputs": [
        {
          "internalType": "uint256",
          "name": "_billId",
          "type": "uint256"
        },
        {
          "internalType": "bool",
          "name": "_releaseToPayer",
          "type": "bool"
        }
      ],
      "name": "resolveDispute",
      "outputs": [],
      "stateMutability": "nonpayable",
      "type": "function"
    },
    {
      "inputs": [
        {
          "internalType": "address",
          "name": "_newFeeWallet",
          "type": "address"
        }
      ],
      "name": "setFeeWallet",
      "outputs": [],
      "stateMutability": "nonpayable",
      "type": "function"
    },
    {
      "inputs": [
        {
          "internalType": "address",
          "name": "newOwner",
          "type": "address"
        }
      ],
      "name": "transferOwnership",
      "outputs": [],
      "stateMutability": "nonpayable",
      "type": "function"
    },
    {
      "inputs": [],
      "name": "unpause",
      "outputs": [],
      "stateMutability": "nonpayable",
      "type": "function"
    },
    {
      "stateMutability": "payable",
      "type": "receive"
    }
  ],
  "bytecode": "0x60803461012b57601f61155238819003918201601f19168301916001600160401b038311848410176101305780849260209460405283398101031261012b57516001600160a01b038082169182900361012b57600160005533156101125760018054610100600160a81b0319811633600881811b610100600160a81b0316929092179093556040519391901c167f8be0079c531659141344cd1fd0a4f28419497f9722a3daafe3b4186f6b6457e0600080a381156100db5750600480546001600160a01b03191691909117905560405161140b90816101478239f35b62461bcd60e51b8152602060048201526012602482015271125b9d985b1a5908199959481dd85b1b195d60721b6044820152606490fd5b604051631e4fbdf760e01b815260006004820152602490fd5b600080fd5b634e487b7160e01b600052604160045260246000fdfe6080604052600436101561001b575b361561001957600080fd5b005b60e0600035811c9081631930eae714610f825781631c8f078914610d965781632185ab6c14610bad578163286fda3b14610b3d57816328bdcde814610ab357816334b25ee2146108f05781633f4ba83a146108995781635c975abb1461087657816367762988146107d7578163715018a6146107765781638456cb591461071d5781638da5cb5b146106f057816390d49b9d146106425781639c078c3a146105385781639d7a03391461051a578163a5c1674e146103c7578163b1cd06e6146102bf57508063db2e21bc14610204578063f25f4b56146101db578063f2fde38b146101405763f6aacfb10361000e573461013b57602036600319011261013b57600435600052600260205260206002604060002001541515604051908152f35b600080fd5b3461013b57602036600319011261013b576004356001600160a01b038181169182810361013b5761016f61112c565b82156101c25760018054610100600160a81b03198116600893841b610100600160a81b031617909155901c167f8be0079c531659141344cd1fd0a4f28419497f9722a3daafe3b4186f6b6457e0600080a3005b604051631e4fbdf760e01b815260006004820152602490fd5b3461013b57600036600319011261013b576004546040516001600160a01b039091168152602090f35b3461013b57600036600319011261013b5761021d61112c565b6102256113b6565b47801561028d5760015460009182918291829160081c6001600160a01b03165af161024e6112a0565b501561025657005b60405162461bcd60e51b815260206004820152600f60248201526e15da5d1a191c985dc819985a5b1959608a1b6044820152606490fd5b60405162461bcd60e51b815260206004820152600a6024820152694e6f2062616c616e636560b01b6044820152606490fd5b3461013b57602036600319011261013b57806000610100926102df611175565b8281528260208201528260408201528260608201528260808201528260a08201528260c082015201526004356000526002602052604060002090610321611175565b60018060a01b03928381541693848352806001830154166020840190815260028301546040850190815260038401549060608601918252600485015493608087019360ff86161515855260ff60a089019660081c161515865288600660058901549860c08b01998a5201549801978852604051998a5251166020890152516040880152516060870152511515608086015251151560a08501525160c08401525190820152f35b3461013b57602036600319011261013b5760043560008181526002602052604090208054336001600160a01b039182161490811561050a575b50156104d4576004810190815460ff811661049b5760ff8160081c166104635761043260026101009301541515611269565b61ff00191617905533907fcde8e21e97a7f6ec4bbf0ee44450212e0ba73be8fdfbfb2b155e861d86756bac600080a3005b60405162461bcd60e51b815260206004820152601060248201526f105b1c9958591e48191a5cdc1d5d195960821b6044820152606490fd5b60405162461bcd60e51b8152602060048201526011602482015270105b1c9958591e4818dbdb5c1b195d1959607a1b6044820152606490fd5b60405162461bcd60e51b815260206004820152600e60248201526d139bdd08185d5d1a1bdc9a5e995960921b6044820152606490fd5b9050600182015416331483610400565b3461013b57600036600319011261013b576020600354604051908152f35b3461013b57602036600319011261013b576004356105546111ca565b8060005260026020526040600020600681015442111561060f5760018101546001600160a01b039190610589908316156111ed565b6105d36000808080600286018181548015801590610602575b6105ab90611269565b816105bc60038b0192835490611168565b935555878754165af16105cd6112a0565b50611371565b5416907f16e7a7a8fd7c51d6b4d059d6d7eea946bff398eee64dd1894af645edd23d502b600080a36001600055005b50600389015415156105a2565b60405162461bcd60e51b815260206004820152600b60248201526a139bdd08195e1c1a5c995960aa1b6044820152606490fd5b3461013b57602036600319011261013b576004356001600160a01b038181169182900361013b5761067161112c565b81156106b957600454826bffffffffffffffffffffffff60a01b821617600455167f362a006325d32978b283e449d254cfcf93e2cccc321603ead9a74238d8dbf36e600080a3005b60405162461bcd60e51b815260206004820152600f60248201526e496e76616c6964206164647265737360881b6044820152606490fd5b3461013b57600036600319011261013b5760015460405160089190911c6001600160a01b03168152602090f35b3461013b57600036600319011261013b5761073661112c565b61073e6111ac565b600160ff19815416176001557f62e78cea01bee320cd4e420270b5ea74000d11b0c9f74754ebdbfc544b05a2586020604051338152a1005b3461013b57600036600319011261013b5761078f61112c565b60018054610100600160a81b0319811690915560009060081c6001600160a01b03167f8be0079c531659141344cd1fd0a4f28419497f9722a3daafe3b4186f6b6457e08280a3005b3461013b57602036600319011261013b576004356107f36111ca565b806000526002602052604060002060018060a01b03906105d360008080808686541661082081331461122b565b61083088600189015416156111ed565b60028701908282548015801590610869575b61084b90611269565b8161085c60038c0192835490611168565b9455555af16105cd6112a0565b5060038a01541515610842565b3461013b57600036600319011261013b57602060ff600154166040519015158152f35b3461013b57600036600319011261013b576108b261112c565b6108ba6113b6565b60ff19600154166001557f5db9ee0a495bf2e6ff9c91a7834c1ba4fdd244a5e8aa4e537bd38aeae4b073aa6020604051338152a1005b3461013b57604036600319011261013b57600435602435801515810361013b5761091861112c565b6109206111ca565b816000526002602052604060002090600482019081549060ff8260081c1615610a7f5760028401928354928315801590610a72575b61095e90611269565b60006003870181815497555561ff001916905580610a5c575b15610a045760008080806109a494600197888060a01b039889910154165af161099e6112a0565b506112eb565b806109df575b50507f5a87909bff68caaaaf0b3fd9c74eeccc928832f879315e5c6fb7a73612f26c0c602060405160018152a25b6001600055005b6000808080936109fd95600454165af16109f76112a0565b5061132f565b81806109aa565b600080610a2c94610a1782958395611168565b90546001600160a01b03165af16105cd6112a0565b7f5a87909bff68caaaaf0b3fd9c74eeccc928832f879315e5c6fb7a73612f26c0c602060405160008152a26109d8565b5060018301546001600160a01b03161515610977565b5060038601541515610955565b60405162461bcd60e51b815260206004820152600c60248201526b139bdd08191a5cdc1d5d195960a21b6044820152606490fd5b3461013b57602036600319011261013b57610100906004356000526002602052604060002060018060a01b039182825416926001830154169160ff6002820154600383015460048401549160066005860154950154966040519889526020890152604088015260608701528181161515608087015260081c16151560a085015260c0840152820152f35b3461013b57602036600319011261013b57600435600052600260205260a06040600020600180831b039060ff828254161515926001830154161515916006600482015491015442119260405194855260208501528181161515604085015260081c16151560608301526080820152f35b3461013b57602036600319011261013b57610bc66111ca565b610bce6111ac565b60043560005260026020526040600020610bf260018060a01b03825416331461122b565b60018101546001600160a01b0316908115610d635760048101549160ff8316610d2a5760ff8360081c16610cf5576001600283015493610c33851515611269565b60ff1916176004830155610c606000808080876003880196828854988160028c0155555af161099e6112a0565b80610cd1575b50604051906004357fe56e5977b732b68b6c4e6f2e2dc7332c3216577b919ca691580a29e7c31d3857600080a26001808060a01b03910154169181527ff9282af8e11684c310510cff927aec4090ac6433818b2b9331f29223a6decba2602060043592a36001600055005b6000808080610cef9460018060a01b03600454165af16109f76112a0565b82610c66565b60405162461bcd60e51b815260206004820152600d60248201526c109a5b1b08191a5cdc1d5d1959609a1b6044820152606490fd5b60405162461bcd60e51b8152602060048201526011602482015270105b1c9958591e4818dbdb999a5c9b5959607a1b6044820152606490fd5b60405162461bcd60e51b815260206004820152600b60248201526a139bdd0818db185a5b595960aa1b6044820152606490fd5b6020908160031936011261013b5760043590610db06111ca565b610db86111ac565b81341115610f44573415610f0c576003546000198114610ef6576001019081600355610de4833461115b565b9062093a80420190814211610ef657600692610dfe611175565b94338652878601916000835260408701908152606087019088825260808801936000855260a08901936000855260c08a01964288528a0197885260005260028b5260406000209860018060a01b0380915116906bffffffffffffffffffffffff60a01b91828c5416178b5560018b019251169082541617905551600288015551600387015560048601915115159060ff61ff0084549251151560081b1692169061ffff1916171790555160058401555191015560035490610ebf813461115b565b926040519384528301527fcdfdeecd9f301cb609cbfd87c3a7f1e4d3da395ff0ba5084da583d3b6deced2160403393a36001600055005b634e487b7160e01b600052601160045260246000fd5b60405162461bcd60e51b815260048101849052601060248201526f4d7573742073656e642063727970746f60801b6044820152606490fd5b60405162461bcd60e51b8152600481018490526016602482015275416d6f756e74206d757374206578636565642066656560501b6044820152606490fd5b3461013b5760208060031936011261013b5760043590610fa06111ca565b610fa86111ac565b60008281526002825260409020600181018054909290916001600160a01b03610fd3818516156111ed565b6002820154156110e75781541633146110aa5760ff600482015460081c16611072576006015442101561103f57506001600160a01b03191633908117909155907f0b32da9354607796544422f364ca1aec8a7b6e85fdb196e204bf0ed62cb620ae600080a36001600055005b6064906040519062461bcd60e51b82526004820152600c60248201526b109a5b1b08195e1c1a5c995960a21b6044820152fd5b60405162461bcd60e51b815260048101839052601060248201526f109a5b1b081a5cc8191a5cdc1d5d195960821b6044820152606490fd5b60405162461bcd60e51b815260048101839052601560248201527410d85b9b9bdd0818db185a5b481bdddb88189a5b1b605a1b6044820152606490fd5b60405162461bcd60e51b815260048101849052601760248201527f42696c6c206e6f7420666f756e64206f7220656d7074790000000000000000006044820152606490fd5b60015460081c6001600160a01b0316330361114357565b60405163118cdaa760e01b8152336004820152602490fd5b91908203918211610ef657565b91908201809211610ef657565b60405190610100820182811067ffffffffffffffff82111761119657604052565b634e487b7160e01b600052604160045260246000fd5b60ff600154166111b857565b60405163d93c066560e01b8152600490fd5b6002600054146111db576002600055565b604051633ee5aeb560e01b8152600490fd5b156111f457565b60405162461bcd60e51b815260206004820152600f60248201526e105b1c9958591e4818db185a5b5959608a1b6044820152606490fd5b1561123257565b60405162461bcd60e51b815260206004820152600f60248201526e27b7363c903134b6361036b0b5b2b960891b6044820152606490fd5b1561127057565b60405162461bcd60e51b81526020600482015260086024820152674e6f2066756e647360c01b6044820152606490fd5b3d156112e65767ffffffffffffffff903d8281116111965760405192601f8201601f19908116603f01168401908111848210176111965760405282523d6000602084013e565b606090565b156112f257565b60405162461bcd60e51b815260206004820152601560248201527414185e595c881d1c985b9cd9995c8819985a5b1959605a1b6044820152606490fd5b1561133657565b60405162461bcd60e51b8152602060048201526013602482015272119959481d1c985b9cd9995c8819985a5b1959606a1b6044820152606490fd5b1561137857565b60405162461bcd60e51b81526020600482015260166024820152751499599d5b99081d1c985b9cd9995c8819985a5b195960521b6044820152606490fd5b60ff60015416156113c357565b604051638dfc202b60e01b8152600490fdfea264697066735822122065c60dd1eb0c9d6fc234213ebe35f79f3dd5fe3388c1a5e94654865762dc0eb864736f6c63430008140033",
  "linkReferences": {},
  "deployedLinkReferences": {}
}