{
  "_format": "hh-sol-artifact-1",
  "contractName": "BillHavenEscrow",
  "sourceName": "contracts/BillHavenEscrow.sol",
  "abi": [
    {
      "inputs": [
        {
          "internalType": "address",
          "name": "_feeWallet",
          "type": "address"
        }
      ],
      "stateMutability": "nonpayable",
      "type": "constructor"
    },
    {
      "inputs": [],
      "name": "EnforcedPause",
      "type": "error"
    },
    {
      "inputs": [],
      "name": "ExpectedPause",
      "type": "error"
    },
    {
      "inputs": [
        {
          "internalType": "address",
          "name": "owner",
          "type": "address"
        }
      ],
      "name": "OwnableInvalidOwner",
      "type": "error"
    },
    {
      "inputs": [
        {
          "internalType": "address",
          "name": "account",
          "type": "address"
        }
      ],
      "name": "OwnableUnauthorizedAccount",
      "type": "error"
    },
    {
      "inputs": [],
      "name": "ReentrancyGuardReentrantCall",
      "type": "error"
    },
    {
      "anonymous": false,
      "inputs": [
        {
          "indexed": true,
          "internalType": "uint256",
          "name": "billId",
          "type": "uint256"
        },
        {
          "indexed": true,
          "internalType": "address",
          "name": "payer",
          "type": "address"
        }
      ],
      "name": "BillClaimed",
      "type": "event"
    },
    {
      "anonymous": false,
      "inputs": [
        {
          "indexed": true,
          "internalType": "uint256",
          "name": "billId",
          "type": "uint256"
        },
        {
          "indexed": true,
          "internalType": "address",
          "name": "billMaker",
          "type": "address"
        },
        {
          "indexed": false,
          "internalType": "uint256",
          "name": "amount",
          "type": "uint256"
        },
        {
          "indexed": false,
          "internalType": "uint256",
          "name": "fee",
          "type": "uint256"
        }
      ],
      "name": "BillCreated",
      "type": "event"
    },
    {
      "anonymous": false,
      "inputs": [
        {
          "indexed": true,
          "internalType": "uint256",
          "name": "billId",
          "type": "uint256"
        },
        {
          "indexed": true,
          "internalType": "address",
          "name": "payer",
          "type": "address"
        },
        {
          "indexed": false,
          "internalType": "uint256",
          "name": "amount",
          "type": "uint256"
        }
      ],
      "name": "CryptoReleased",
      "type": "event"
    },
    {
      "anonymous": false,
      "inputs": [
        {
          "indexed": true,
          "internalType": "uint256",
          "name": "billId",
          "type": "uint256"
        },
        {
          "indexed": false,
          "internalType": "bool",
          "name": "releasedToPayer",
          "type": "bool"
        }
      ],
      "name": "DisputeResolved",
      "type": "event"
    },
    {
      "anonymous": false,
      "inputs": [
        {
          "indexed": true,
          "internalType": "uint256",
          "name": "billId",
          "type": "uint256"
        },
        {
          "indexed": true,
          "internalType": "address",
          "name": "by",
          "type": "address"
        }
      ],
      "name": "Disputed",
      "type": "event"
    },
    {
      "anonymous": false,
      "inputs": [
        {
          "indexed": true,
          "internalType": "address",
          "name": "oldWallet",
          "type": "address"
        },
        {
          "indexed": true,
          "internalType": "address",
          "name": "newWallet",
          "type": "address"
        }
      ],
      "name": "FeeWalletUpdated",
      "type": "event"
    },
    {
      "anonymous": false,
      "inputs": [
        {
          "indexed": true,
          "internalType": "uint256",
          "name": "billId",
          "type": "uint256"
        }
      ],
      "name": "FiatConfirmed",
      "type": "event"
    },
    {
      "anonymous": false,
      "inputs": [
        {
          "indexed": true,
          "internalType": "address",
          "name": "previousOwner",
          "type": "address"
        },
        {
          "indexed": true,
          "internalType": "address",
          "name": "newOwner",
          "type": "address"
        }
      ],
      "name": "OwnershipTransferred",
      "type": "event"
    },
    {
      "anonymous": false,
      "inputs": [
        {
          "indexed": false,
          "internalType": "address",
          "name": "account",
          "type": "address"
        }
      ],
      "name": "Paused",
      "type": "event"
    },
    {
      "anonymous": false,
      "inputs": [
        {
          "indexed": true,
          "internalType": "uint256",
          "name": "billId",
          "type": "uint256"
        },
        {
          "indexed": true,
          "internalType": "address",
          "name": "billMaker",
          "type": "address"
        }
      ],
      "name": "Refunded",
      "type": "event"
    },
    {
      "anonymous": false,
      "inputs": [
        {
          "indexed": false,
          "internalType": "address",
          "name": "account",
          "type": "address"
        }
      ],
      "name": "Unpaused",
      "type": "event"
    },
    {
      "inputs": [],
      "name": "billCounter",
      "outputs": [
        {
          "internalType": "uint256",
          "name": "",
          "type": "uint256"
        }
      ],
      "stateMutability": "view",
      "type": "function"
    },
    {
      "inputs": [
        {
          "internalType": "uint256",
          "name": "",
          "type": "uint256"
        }
      ],
      "name": "bills",
      "outputs": [
        {
          "internalType": "address",
          "name": "billMaker",
          "type": "address"
        },
        {
          "internalType": "address",
          "name": "payer",
          "type": "address"
        },
        {
          "internalType": "uint256",
          "name": "amount",
          "type": "uint256"
        },
        {
          "internalType": "uint256",
          "name": "platformFee",
          "type": "uint256"
        },
        {
          "internalType": "bool",
          "name": "fiatConfirmed",
          "type": "bool"
        },
        {
          "internalType": "bool",
          "name": "disputed",
          "type": "bool"
        },
        {
          "internalType": "uint256",
          "name": "createdAt",
          "type": "uint256"
        },
        {
          "internalType": "uint256",
          "name": "expiresAt",
          "type": "uint256"
        }
      ],
      "stateMutability": "view",
      "type": "function"
    },
    {
      "inputs": [
        {
          "internalType": "uint256",
          "name": "_billId",
          "type": "uint256"
        }
      ],
      "name": "cancelBill",
      "outputs": [],
      "stateMutability": "nonpayable",
      "type": "function"
    },
    {
      "inputs": [
        {
          "internalType": "uint256",
          "name": "_billId",
          "type": "uint256"
        }
      ],
      "name": "claimBill",
      "outputs": [],
      "stateMutability": "nonpayable",
      "type": "function"
    },
    {
      "inputs": [
        {
          "internalType": "uint256",
          "name": "_billId",
          "type": "uint256"
        }
      ],
      "name": "confirmFiatPayment",
      "outputs": [],
      "stateMutability": "nonpayable",
      "type": "function"
    },
    {
      "inputs": [
        {
          "internalType": "uint256",
          "name": "_platformFee",
          "type": "uint256"
        }
      ],
      "name": "createBill",
      "outputs": [],
      "stateMutability": "payable",
      "type": "function"
    },
    {
      "inputs": [],
      "name": "emergencyWithdraw",
      "outputs": [],
      "stateMutability": "nonpayable",
      "type": "function"
    },
    {
      "inputs": [],
      "name": "feeWallet",
      "outputs": [
        {
          "internalType": "address",
          "name": "",
          "type": "address"
        }
      ],
      "stateMutability": "view",
      "type": "function"
    },
    {
      "inputs": [
        {
          "internalType": "uint256",
          "name": "_billId",
          "type": "uint256"
        }
      ],
      "name": "getBill",
      "outputs": [
        {
          "components": [
            {
              "internalType": "address",
              "name": "billMaker",
              "type": "address"
            },
            {
              "internalType": "address",
              "name": "payer",
              "type": "address"
            },
            {
              "internalType": "uint256",
              "name": "amount",
              "type": "uint256"
            },
            {
              "internalType": "uint256",
              "name": "platformFee",
              "type": "uint256"
            },
            {
              "internalType": "bool",
              "name": "fiatConfirmed",
              "type": "bool"
            },
            {
              "internalType": "bool",
              "name": "disputed",
              "type": "bool"
            },
            {
              "internalType": "uint256",
              "name": "createdAt",
              "type": "uint256"
            },
            {
              "internalType": "uint256",
              "name": "expiresAt",
              "type": "uint256"
            }
          ],
          "internalType": "struct BillHavenEscrow.Bill",
          "name": "",
          "type": "tuple"
        }
      ],
      "stateMutability": "view",
      "type": "function"
    },
    {
      "inputs": [
        {
          "internalType": "uint256",
          "name": "_billId",
          "type": "uint256"
        }
      ],
      "name": "getBillStatus",
      "outputs": [
        {
          "internalType": "bool",
          "name": "exists",
          "type": "bool"
        },
        {
          "internalType": "bool",
          "name": "claimed",
          "type": "bool"
        },
        {
          "internalType": "bool",
          "name": "confirmed",
          "type": "bool"
        },
        {
          "internalType": "bool",
          "name": "disputed",
          "type": "bool"
        },
        {
          "internalType": "bool",
          "name": "expired",
          "type": "bool"
        }
      ],
      "stateMutability": "view",
      "type": "function"
    },
    {
      "inputs": [
        {
          "internalType": "uint256",
          "name": "_billId",
          "type": "uint256"
        }
      ],
      "name": "isLocked",
      "outputs": [
        {
          "internalType": "bool",
          "name": "",
          "type": "bool"
        }
      ],
      "stateMutability": "view",
      "type": "function"
    },
    {
      "inputs": [],
      "name": "owner",
      "outputs": [
        {
          "internalType": "address",
          "name": "",
          "type": "address"
        }
      ],
      "stateMutability": "view",
      "type": "function"
    },
    {
      "inputs": [],
      "name": "pause",
      "outputs": [],
      "stateMutability": "nonpayable",
      "type": "function"
    },
    {
      "inputs": [],
      "name": "paused",
      "outputs": [
        {
          "internalType": "bool",
          "name": "",
          "type": "bool"
        }
      ],
      "stateMutability": "view",
      "type": "function"
    },
    {
      "inputs": [
        {
          "internalType": "uint256",
          "name": "_billId",
          "type": "uint256"
        }
      ],
      "name": "raiseDispute",
      "outputs": [],
      "stateMutability": "nonpayable",
      "type": "function"
    },
    {
      "inputs": [
        {
          "internalType": "uint256",
          "name": "_billId",
          "type": "uint256"
        }
      ],
      "name": "refundExpiredBill",
      "outputs": [],
      "stateMutability": "nonpayable",
      "type": "function"
    },
    {
      "inputs": [],
      "name": "renounceOwnership",
      "outputs": [],
      "stateMutability": "nonpayable",
      "type": "function"
    },
    {
      "inputs": [
        {
          "internalType": "uint256",
          "name": "_billId",
          "type": "uint256"
        },
        {
          "internalType": "bool",
          "name": "_releaseToPayer",
          "type": "bool"
        }
      ],
      "name": "resolveDispute",
      "outputs": [],
      "stateMutability": "nonpayable",
      "type": "function"
    },
    {
      "inputs": [
        {
          "internalType": "address",
          "name": "_newFeeWallet",
          "type": "address"
        }
      ],
      "name": "setFeeWallet",
      "outputs": [],
      "stateMutability": "nonpayable",
      "type": "function"
    },
    {
      "inputs": [
        {
          "internalType": "address",
          "name": "newOwner",
          "type": "address"
        }
      ],
      "name": "transferOwnership",
      "outputs": [],
      "stateMutability": "nonpayable",
      "type": "function"
    },
    {
      "inputs": [],
      "name": "unpause",
      "outputs": [],
      "stateMutability": "nonpayable",
      "type": "function"
    },
    {
      "stateMutability": "payable",
      "type": "receive"
    }
  ],
  "bytecode": "0x60806040523480156200001157600080fd5b5060405162001a7b38038062001a7b83398101604081905262000034916200013a565b600160005533806200006157604051631e4fbdf760e01b8152600060048201526024015b60405180910390fd5b6200006c81620000e0565b506001600160a01b038116620000ba5760405162461bcd60e51b8152602060048201526012602482015271125b9d985b1a5908199959481dd85b1b195d60721b604482015260640162000058565b600480546001600160a01b0319166001600160a01b03929092169190911790556200016c565b600180546001600160a01b03838116610100818102610100600160a81b031985161790945560405193909204169182907f8be0079c531659141344cd1fd0a4f28419497f9722a3daafe3b4186f6b6457e090600090a35050565b6000602082840312156200014d57600080fd5b81516001600160a01b03811681146200016557600080fd5b9392505050565b6118ff806200017c6000396000f3fe60806040526004361061012e5760003560e01c80638456cb59116100ab578063a5c1674e1161006f578063a5c1674e14610422578063b1cd06e614610442578063db2e21bc14610591578063f25f4b56146105a6578063f2fde38b146105c6578063f6aacfb1146105e657600080fd5b80638456cb59146103725780638da5cb5b1461038757806390d49b9d146103be5780639c078c3a146103de5780639d7a0339146103fe57600080fd5b806334b25ee2116100f257806334b25ee2146102e45780633f4ba83a146103045780635c975abb14610319578063677629881461033d578063715018a61461035d57600080fd5b80631930eae71461013a5780631c8f07891461015c5780632185ab6c1461016f578063286fda3b1461018f57806328bdcde81461022957600080fd5b3661013557005b600080fd5b34801561014657600080fd5b5061015a6101553660046117ce565b610619565b005b61015a61016a3660046117ce565b61080d565b34801561017b57600080fd5b5061015a61018a3660046117ce565b610a06565b34801561019b57600080fd5b506101f26101aa3660046117ce565b60009081526002602052604090208054600182015460048301546006909301546001600160a01b039283161515949290911615159260ff808216936101009092041691421190565b60408051951515865293151560208601529115159284019290925290151560608301521515608082015260a0015b60405180910390f35b34801561023557600080fd5b5061029a6102443660046117ce565b600260208190526000918252604090912080546001820154928201546003830154600484015460058501546006909501546001600160a01b0394851696909416949293919260ff80831693610100909304169188565b604080516001600160a01b03998a16815298909716602089015295870194909452606086019290925215156080850152151560a084015260c083015260e082015261010001610220565b3480156102f057600080fd5b5061015a6102ff3660046117e7565b610d55565b34801561031057600080fd5b5061015a61109f565b34801561032557600080fd5b5060015460ff165b6040519015158152602001610220565b34801561034957600080fd5b5061015a6103583660046117ce565b6110b1565b34801561036957600080fd5b5061015a61129d565b34801561037e57600080fd5b5061015a6112af565b34801561039357600080fd5b5060015461010090046001600160a01b03165b6040516001600160a01b039091168152602001610220565b3480156103ca57600080fd5b5061015a6103d936600461181c565b6112bf565b3480156103ea57600080fd5b5061015a6103f93660046117ce565b611361565b34801561040a57600080fd5b5061041460035481565b604051908152602001610220565b34801561042e57600080fd5b5061015a61043d3660046117ce565b6113b8565b34801561044e57600080fd5b5061052061045d3660046117ce565b6040805161010081018252600080825260208201819052918101829052606081018290526080810182905260a0810182905260c0810182905260e0810191909152506000908152600260208181526040928390208351610100808201865282546001600160a01b03908116835260018401541693820193909352928101549383019390935260038301546060830152600483015460ff8082161515608085015291900416151560a0820152600582015460c082015260069091015460e082015290565b604051610220919060006101008201905060018060a01b0380845116835280602085015116602084015250604083015160408301526060830151606083015260808301511515608083015260a0830151151560a083015260c083015160c083015260e083015160e083015292915050565b34801561059d57600080fd5b5061015a611523565b3480156105b257600080fd5b506004546103a6906001600160a01b031681565b3480156105d257600080fd5b5061015a6105e136600461181c565b611608565b3480156105f257600080fd5b5061032d6106013660046117ce565b60009081526002602081905260409091200154151590565b610621611643565b61062961166d565b600081815260026020526040902060018101546001600160a01b0316156106895760405162461bcd60e51b815260206004820152600f60248201526e105b1c9958591e4818db185a5b5959608a1b60448201526064015b60405180910390fd5b60008160020154116106dd5760405162461bcd60e51b815260206004820152601760248201527f42696c6c206e6f7420666f756e64206f7220656d7074790000000000000000006044820152606401610680565b80546001600160a01b0316330361072e5760405162461bcd60e51b815260206004820152601560248201527410d85b9b9bdd0818db185a5b481bdddb88189a5b1b605a1b6044820152606401610680565b6004810154610100900460ff161561077b5760405162461bcd60e51b815260206004820152601060248201526f109a5b1b081a5cc8191a5cdc1d5d195960821b6044820152606401610680565b806006015442106107bd5760405162461bcd60e51b815260206004820152600c60248201526b109a5b1b08195e1c1a5c995960a21b6044820152606401610680565b6001810180546001600160a01b0319163390811790915560405183907f0b32da9354607796544422f364ca1aec8a7b6e85fdb196e204bf0ed62cb620ae90600090a35061080a6001600055565b50565b610815611643565b61081d61166d565b8034116108655760405162461bcd60e51b8152602060048201526016602482015275416d6f756e74206d757374206578636565642066656560501b6044820152606401610680565b600034116108a85760405162461bcd60e51b815260206004820152601060248201526f4d7573742073656e642063727970746f60801b6044820152606401610680565b600380549060006108b883611862565b90915550506040805161010081018252338152600060208201529081016108df833461187b565b81526020018281526020016000151581526020016000151581526020014281526020014262093a806109119190611894565b905260038054600090815260026020818152604092839020855181546001600160a01b039182166001600160a01b031991821617835592870151600183018054919092169316929092179091559184015190820155606083015181830155608083015160048201805460a086015115156101000261ff00199315159390931661ffff199091161791909117905560c0830151600582015560e0909201516006909201919091555433907fcdfdeecd9f301cb609cbfd87c3a7f1e4d3da395ff0ba5084da583d3b6deced216109e5843461187b565b60408051918252602082018690520160405180910390a361080a6001600055565b610a0e611643565b610a1661166d565b600081815260026020526040902080546001600160a01b03163314610a6f5760405162461bcd60e51b815260206004820152600f60248201526e27b7363c903134b6361036b0b5b2b960891b6044820152606401610680565b60018101546001600160a01b0316610ab75760405162461bcd60e51b815260206004820152600b60248201526a139bdd0818db185a5b595960aa1b6044820152606401610680565b600481015460ff1615610b005760405162461bcd60e51b8152602060048201526011602482015270105b1c9958591e4818dbdb999a5c9b5959607a1b6044820152606401610680565b6004810154610100900460ff1615610b4a5760405162461bcd60e51b815260206004820152600d60248201526c109a5b1b08191a5cdc1d5d1959609a1b6044820152606401610680565b6000816002015411610b6e5760405162461bcd60e51b8152600401610680906118a7565b60048101805460ff191660019081179091556002820180546003840180546000938490559083905592840154604051919392916001600160a01b039091169084908381818185875af1925050503d8060008114610be7576040519150601f19603f3d011682016040523d82523d6000602084013e610bec565b606091505b5050905080610c355760405162461bcd60e51b815260206004820152601560248201527414185e595c881d1c985b9cd9995c8819985a5b1959605a1b6044820152606401610680565b8115610cd6576004546040516000916001600160a01b03169084908381818185875af1925050503d8060008114610c88576040519150601f19603f3d011682016040523d82523d6000602084013e610c8d565b606091505b5050905080610cd45760405162461bcd60e51b8152602060048201526013602482015272119959481d1c985b9cd9995c8819985a5b1959606a1b6044820152606401610680565b505b60405185907fe56e5977b732b68b6c4e6f2e2dc7332c3216577b919ca691580a29e7c31d385790600090a260018401546040518481526001600160a01b039091169086907ff9282af8e11684c310510cff927aec4090ac6433818b2b9331f29223a6decba29060200160405180910390a35050505061080a6001600055565b610d5d611691565b610d65611643565b60008281526002602052604090206004810154610100900460ff16610dbb5760405162461bcd60e51b815260206004820152600c60248201526b139bdd08191a5cdc1d5d195960a21b6044820152606401610680565b600081600201541180610dd2575060008160030154115b610dee5760405162461bcd60e51b8152600401610680906118a7565b60028101805460038301805460009384905592905560048301805461ff001916905590838015610e2a575060018301546001600160a01b031615155b15610fa95760018301546040516000916001600160a01b03169084908381818185875af1925050503d8060008114610e7e576040519150601f19603f3d011682016040523d82523d6000602084013e610e83565b606091505b5050905080610ecc5760405162461bcd60e51b815260206004820152601560248201527414185e595c881d1c985b9cd9995c8819985a5b1959605a1b6044820152606401610680565b8115610f6d576004546040516000916001600160a01b03169084908381818185875af1925050503d8060008114610f1f576040519150601f19603f3d011682016040523d82523d6000602084013e610f24565b606091505b5050905080610f6b5760405162461bcd60e51b8152602060048201526013602482015272119959481d1c985b9cd9995c8819985a5b1959606a1b6044820152606401610680565b505b6040516001815286907f5a87909bff68caaaaf0b3fd9c74eeccc928832f879315e5c6fb7a73612f26c0c9060200160405180910390a25061108e565b6000610fb58284611894565b84546040519192506000916001600160a01b039091169083908381818185875af1925050503d8060008114611006576040519150601f19603f3d011682016040523d82523d6000602084013e61100b565b606091505b50509050806110555760405162461bcd60e51b81526020600482015260166024820152751499599d5b99081d1c985b9cd9995c8819985a5b195960521b6044820152606401610680565b6040516000815287907f5a87909bff68caaaaf0b3fd9c74eeccc928832f879315e5c6fb7a73612f26c0c9060200160405180910390a250505b50505061109b6001600055565b5050565b6110a7611691565b6110af6116c4565b565b6110b9611643565b600081815260026020526040902080546001600160a01b031633146111125760405162461bcd60e51b815260206004820152600f60248201526e27b7363c903134b6361036b0b5b2b960891b6044820152606401610680565b60018101546001600160a01b03161561115f5760405162461bcd60e51b815260206004820152600f60248201526e105b1c9958591e4818db185a5b5959608a1b6044820152606401610680565b600081600201541180611176575060008160030154115b6111925760405162461bcd60e51b8152600401610680906118a7565b6000816003015482600201546111a89190611894565b60006002840181905560038401819055835460405192935090916001600160a01b039091169083908381818185875af1925050503d8060008114611208576040519150601f19603f3d011682016040523d82523d6000602084013e61120d565b606091505b50509050806112575760405162461bcd60e51b81526020600482015260166024820152751499599d5b99081d1c985b9cd9995c8819985a5b195960521b6044820152606401610680565b82546040516001600160a01b039091169085907f16e7a7a8fd7c51d6b4d059d6d7eea946bff398eee64dd1894af645edd23d502b90600090a350505061080a6001600055565b6112a5611691565b6110af6000611716565b6112b7611691565b6110af611770565b6112c7611691565b6001600160a01b03811661130f5760405162461bcd60e51b815260206004820152600f60248201526e496e76616c6964206164647265737360881b6044820152606401610680565b600480546001600160a01b038381166001600160a01b0319831681179093556040519116919082907f362a006325d32978b283e449d254cfcf93e2cccc321603ead9a74238d8dbf36e90600090a35050565b611369611643565b6000818152600260205260409020600681015442116111125760405162461bcd60e51b815260206004820152600b60248201526a139bdd08195e1c1a5c995960aa1b6044820152606401610680565b600081815260026020526040902080546001600160a01b03163314806113ea575060018101546001600160a01b031633145b6114275760405162461bcd60e51b815260206004820152600e60248201526d139bdd08185d5d1a1bdc9a5e995960921b6044820152606401610680565b600481015460ff16156114705760405162461bcd60e51b8152602060048201526011602482015270105b1c9958591e4818dbdb5c1b195d1959607a1b6044820152606401610680565b6004810154610100900460ff16156114bd5760405162461bcd60e51b815260206004820152601060248201526f105b1c9958591e48191a5cdc1d5d195960821b6044820152606401610680565b60008160020154116114e15760405162461bcd60e51b8152600401610680906118a7565b60048101805461ff001916610100179055604051339083907fcde8e21e97a7f6ec4bbf0ee44450212e0ba73be8fdfbfb2b155e861d86756bac90600090a35050565b61152b611691565b6115336117ab565b478061156e5760405162461bcd60e51b815260206004820152600a6024820152694e6f2062616c616e636560b01b6044820152606401610680565b60015460405160009161010090046001600160a01b03169083908381818185875af1925050503d80600081146115c0576040519150601f19603f3d011682016040523d82523d6000602084013e6115c5565b606091505b505090508061109b5760405162461bcd60e51b815260206004820152600f60248201526e15da5d1a191c985dc819985a5b1959608a1b6044820152606401610680565b611610611691565b6001600160a01b03811661163a57604051631e4fbdf760e01b815260006004820152602401610680565b61080a81611716565b60026000540361166657604051633ee5aeb560e01b815260040160405180910390fd5b6002600055565b60015460ff16156110af5760405163d93c066560e01b815260040160405180910390fd5b6001546001600160a01b036101009091041633146110af5760405163118cdaa760e01b8152336004820152602401610680565b6116cc6117ab565b6001805460ff191690557f5db9ee0a495bf2e6ff9c91a7834c1ba4fdd244a5e8aa4e537bd38aeae4b073aa335b6040516001600160a01b03909116815260200160405180910390a1565b600180546001600160a01b03838116610100818102610100600160a81b031985161790945560405193909204169182907f8be0079c531659141344cd1fd0a4f28419497f9722a3daafe3b4186f6b6457e090600090a35050565b61177861166d565b6001805460ff1916811790557f62e78cea01bee320cd4e420270b5ea74000d11b0c9f74754ebdbfc544b05a258336116f9565b60015460ff166110af57604051638dfc202b60e01b815260040160405180910390fd5b6000602082840312156117e057600080fd5b5035919050565b600080604083850312156117fa57600080fd5b823591506020830135801515811461181157600080fd5b809150509250929050565b60006020828403121561182e57600080fd5b81356001600160a01b038116811461184557600080fd5b9392505050565b634e487b7160e01b600052601160045260246000fd5b6000600182016118745761187461184c565b5060010190565b8181038181111561188e5761188e61184c565b92915050565b8082018082111561188e5761188e61184c565b6020808252600890820152674e6f2066756e647360c01b60408201526060019056fea2646970667358221220f6603aead58621fabc116fc646a0d851a18b68053cdd4446745b723d02818e7e64736f6c63430008140033",
  "linkReferences": {},
  "deployedLinkReferences": {}
}