{
  "_format": "hh-sol-artifact-1",
  "contractName": "BillHavenEscrowV4",
  "sourceName": "contracts/BillHavenEscrowV4.sol",
  "abi": [
    {
      "inputs": [
        {
          "internalType": "address",
          "name": "_feeWallet",
          "type": "address"
        }
      ],
      "stateMutability": "nonpayable",
      "type": "constructor"
    },
    {
      "inputs": [],
      "name": "AccessControlBadConfirmation",
      "type": "error"
    },
    {
      "inputs": [
        {
          "internalType": "address",
          "name": "account",
          "type": "address"
        },
        {
          "internalType": "bytes32",
          "name": "neededRole",
          "type": "bytes32"
        }
      ],
      "name": "AccessControlUnauthorizedAccount",
      "type": "error"
    },
    {
      "inputs": [],
      "name": "BillAlreadyClaimed",
      "type": "error"
    },
    {
      "inputs": [],
      "name": "BillExpired",
      "type": "error"
    },
    {
      "inputs": [],
      "name": "BillNotClaimed",
      "type": "error"
    },
    {
      "inputs": [],
      "name": "BillNotExpired",
      "type": "error"
    },
    {
      "inputs": [],
      "name": "BillNotFound",
      "type": "error"
    },
    {
      "inputs": [],
      "name": "ECDSAInvalidSignature",
      "type": "error"
    },
    {
      "inputs": [
        {
          "internalType": "uint256",
          "name": "length",
          "type": "uint256"
        }
      ],
      "name": "ECDSAInvalidSignatureLength",
      "type": "error"
    },
    {
      "inputs": [
        {
          "internalType": "bytes32",
          "name": "s",
          "type": "bytes32"
        }
      ],
      "name": "ECDSAInvalidSignatureS",
      "type": "error"
    },
    {
      "inputs": [],
      "name": "EnforcedPause",
      "type": "error"
    },
    {
      "inputs": [],
      "name": "ExpectedPause",
      "type": "error"
    },
    {
      "inputs": [],
      "name": "HoldPeriodNotElapsed",
      "type": "error"
    },
    {
      "inputs": [],
      "name": "InvalidAddress",
      "type": "error"
    },
    {
      "inputs": [],
      "name": "InvalidAmount",
      "type": "error"
    },
    {
      "inputs": [],
      "name": "InvalidPaymentMethod",
      "type": "error"
    },
    {
      "inputs": [],
      "name": "InvalidSignature",
      "type": "error"
    },
    {
      "inputs": [],
      "name": "InvalidState",
      "type": "error"
    },
    {
      "inputs": [],
      "name": "NotAuthorized",
      "type": "error"
    },
    {
      "inputs": [],
      "name": "NotBillMaker",
      "type": "error"
    },
    {
      "inputs": [],
      "name": "NotBillPayer",
      "type": "error"
    },
    {
      "inputs": [],
      "name": "PaymentMethodBlocked",
      "type": "error"
    },
    {
      "inputs": [],
      "name": "PaymentNotOracleVerified",
      "type": "error"
    },
    {
      "inputs": [],
      "name": "PaymentReferenceUsed",
      "type": "error"
    },
    {
      "inputs": [],
      "name": "ReentrancyGuardReentrantCall",
      "type": "error"
    },
    {
      "inputs": [
        {
          "internalType": "address",
          "name": "token",
          "type": "address"
        }
      ],
      "name": "SafeERC20FailedOperation",
      "type": "error"
    },
    {
      "inputs": [],
      "name": "SecurityDelayRequired",
      "type": "error"
    },
    {
      "inputs": [],
      "name": "SignatureAlreadyUsed",
      "type": "error"
    },
    {
      "inputs": [],
      "name": "TokenNotSupported",
      "type": "error"
    },
    {
      "inputs": [],
      "name": "UserBlacklisted",
      "type": "error"
    },
    {
      "inputs": [
        {
          "internalType": "string",
          "name": "limitType",
          "type": "string"
        }
      ],
      "name": "VelocityLimitExceededError",
      "type": "error"
    },
    {
      "anonymous": false,
      "inputs": [
        {
          "indexed": true,
          "internalType": "uint256",
          "name": "billId",
          "type": "uint256"
        },
        {
          "indexed": true,
          "internalType": "address",
          "name": "billMaker",
          "type": "address"
        }
      ],
      "name": "BillCancelled",
      "type": "event"
    },
    {
      "anonymous": false,
      "inputs": [
        {
          "indexed": true,
          "internalType": "uint256",
          "name": "billId",
          "type": "uint256"
        },
        {
          "indexed": true,
          "internalType": "address",
          "name": "payer",
          "type": "address"
        }
      ],
      "name": "BillClaimed",
      "type": "event"
    },
    {
      "anonymous": false,
      "inputs": [
        {
          "indexed": true,
          "internalType": "uint256",
          "name": "billId",
          "type": "uint256"
        },
        {
          "indexed": true,
          "internalType": "address",
          "name": "billMaker",
          "type": "address"
        },
        {
          "indexed": true,
          "internalType": "address",
          "name": "token",
          "type": "address"
        },
        {
          "indexed": false,
          "internalType": "uint256",
          "name": "amount",
          "type": "uint256"
        },
        {
          "indexed": false,
          "internalType": "uint256",
          "name": "fee",
          "type": "uint256"
        },
        {
          "indexed": false,
          "internalType": "enum BillHavenEscrowV4.PaymentMethod",
          "name": "paymentMethod",
          "type": "uint8"
        }
      ],
      "name": "BillCreated",
      "type": "event"
    },
    {
      "anonymous": false,
      "inputs": [
        {
          "indexed": true,
          "internalType": "uint256",
          "name": "billId",
          "type": "uint256"
        },
        {
          "indexed": true,
          "internalType": "address",
          "name": "by",
          "type": "address"
        }
      ],
      "name": "BillDisputed",
      "type": "event"
    },
    {
      "anonymous": false,
      "inputs": [
        {
          "indexed": true,
          "internalType": "uint256",
          "name": "billId",
          "type": "uint256"
        },
        {
          "indexed": false,
          "internalType": "uint256",
          "name": "totalAmount",
          "type": "uint256"
        }
      ],
      "name": "BillFunded",
      "type": "event"
    },
    {
      "anonymous": false,
      "inputs": [
        {
          "indexed": true,
          "internalType": "uint256",
          "name": "billId",
          "type": "uint256"
        },
        {
          "indexed": true,
          "internalType": "address",
          "name": "billMaker",
          "type": "address"
        },
        {
          "indexed": false,
          "internalType": "uint256",
          "name": "amount",
          "type": "uint256"
        }
      ],
      "name": "BillRefunded",
      "type": "event"
    },
    {
      "anonymous": false,
      "inputs": [
        {
          "indexed": true,
          "internalType": "uint256",
          "name": "billId",
          "type": "uint256"
        },
        {
          "indexed": true,
          "internalType": "address",
          "name": "payer",
          "type": "address"
        },
        {
          "indexed": false,
          "internalType": "uint256",
          "name": "amount",
          "type": "uint256"
        },
        {
          "indexed": false,
          "internalType": "uint256",
          "name": "fee",
          "type": "uint256"
        }
      ],
      "name": "CryptoReleased",
      "type": "event"
    },
    {
      "anonymous": false,
      "inputs": [
        {
          "indexed": true,
          "internalType": "uint256",
          "name": "billId",
          "type": "uint256"
        },
        {
          "indexed": false,
          "internalType": "bool",
          "name": "releasedToPayer",
          "type": "bool"
        },
        {
          "indexed": false,
          "internalType": "address",
          "name": "resolver",
          "type": "address"
        }
      ],
      "name": "DisputeResolved",
      "type": "event"
    },
    {
      "anonymous": false,
      "inputs": [
        {
          "indexed": true,
          "internalType": "uint256",
          "name": "billId",
          "type": "uint256"
        },
        {
          "indexed": false,
          "internalType": "uint256",
          "name": "releaseTime",
          "type": "uint256"
        }
      ],
      "name": "HoldPeriodComplete",
      "type": "event"
    },
    {
      "anonymous": false,
      "inputs": [
        {
          "indexed": true,
          "internalType": "address",
          "name": "oracle",
          "type": "address"
        }
      ],
      "name": "OracleAdded",
      "type": "event"
    },
    {
      "anonymous": false,
      "inputs": [
        {
          "indexed": true,
          "internalType": "address",
          "name": "oracle",
          "type": "address"
        }
      ],
      "name": "OracleRemoved",
      "type": "event"
    },
    {
      "anonymous": false,
      "inputs": [
        {
          "indexed": false,
          "internalType": "address",
          "name": "account",
          "type": "address"
        }
      ],
      "name": "Paused",
      "type": "event"
    },
    {
      "anonymous": false,
      "inputs": [
        {
          "indexed": true,
          "internalType": "uint256",
          "name": "billId",
          "type": "uint256"
        },
        {
          "indexed": true,
          "internalType": "address",
          "name": "payer",
          "type": "address"
        }
      ],
      "name": "PayerDisputeRaised",
      "type": "event"
    },
    {
      "anonymous": false,
      "inputs": [
        {
          "indexed": true,
          "internalType": "uint256",
          "name": "billId",
          "type": "uint256"
        },
        {
          "indexed": false,
          "internalType": "bytes32",
          "name": "paymentReference",
          "type": "bytes32"
        }
      ],
      "name": "PaymentMarkedSent",
      "type": "event"
    },
    {
      "anonymous": false,
      "inputs": [
        {
          "indexed": true,
          "internalType": "uint256",
          "name": "billId",
          "type": "uint256"
        },
        {
          "indexed": false,
          "internalType": "address",
          "name": "verifiedBy",
          "type": "address"
        },
        {
          "indexed": false,
          "internalType": "bool",
          "name": "isOracle",
          "type": "bool"
        }
      ],
      "name": "PaymentVerified",
      "type": "event"
    },
    {
      "anonymous": false,
      "inputs": [
        {
          "indexed": true,
          "internalType": "bytes32",
          "name": "role",
          "type": "bytes32"
        },
        {
          "indexed": true,
          "internalType": "bytes32",
          "name": "previousAdminRole",
          "type": "bytes32"
        },
        {
          "indexed": true,
          "internalType": "bytes32",
          "name": "newAdminRole",
          "type": "bytes32"
        }
      ],
      "name": "RoleAdminChanged",
      "type": "event"
    },
    {
      "anonymous": false,
      "inputs": [
        {
          "indexed": true,
          "internalType": "bytes32",
          "name": "role",
          "type": "bytes32"
        },
        {
          "indexed": true,
          "internalType": "address",
          "name": "account",
          "type": "address"
        },
        {
          "indexed": true,
          "internalType": "address",
          "name": "sender",
          "type": "address"
        }
      ],
      "name": "RoleGranted",
      "type": "event"
    },
    {
      "anonymous": false,
      "inputs": [
        {
          "indexed": true,
          "internalType": "bytes32",
          "name": "role",
          "type": "bytes32"
        },
        {
          "indexed": true,
          "internalType": "address",
          "name": "account",
          "type": "address"
        },
        {
          "indexed": true,
          "internalType": "address",
          "name": "sender",
          "type": "address"
        }
      ],
      "name": "RoleRevoked",
      "type": "event"
    },
    {
      "anonymous": false,
      "inputs": [
        {
          "indexed": false,
          "internalType": "address",
          "name": "account",
          "type": "address"
        }
      ],
      "name": "Unpaused",
      "type": "event"
    },
    {
      "anonymous": false,
      "inputs": [
        {
          "indexed": true,
          "internalType": "address",
          "name": "user",
          "type": "address"
        },
        {
          "indexed": false,
          "internalType": "enum BillHavenEscrowV4.TrustLevel",
          "name": "newLevel",
          "type": "uint8"
        }
      ],
      "name": "UserUpgraded",
      "type": "event"
    },
    {
      "anonymous": false,
      "inputs": [
        {
          "indexed": true,
          "internalType": "address",
          "name": "user",
          "type": "address"
        },
        {
          "indexed": false,
          "internalType": "string",
          "name": "limitType",
          "type": "string"
        }
      ],
      "name": "VelocityLimitExceeded",
      "type": "event"
    },
    {
      "inputs": [],
      "name": "ADMIN_ROLE",
      "outputs": [
        {
          "internalType": "bytes32",
          "name": "",
          "type": "bytes32"
        }
      ],
      "stateMutability": "view",
      "type": "function"
    },
    {
      "inputs": [],
      "name": "ARBITRATOR_ROLE",
      "outputs": [
        {
          "internalType": "bytes32",
          "name": "",
          "type": "bytes32"
        }
      ],
      "stateMutability": "view",
      "type": "function"
    },
    {
      "inputs": [],
      "name": "BASIS_POINTS",
      "outputs": [
        {
          "internalType": "uint256",
          "name": "",
          "type": "uint256"
        }
      ],
      "stateMutability": "view",
      "type": "function"
    },
    {
      "inputs": [],
      "name": "DEFAULT_ADMIN_ROLE",
      "outputs": [
        {
          "internalType": "bytes32",
          "name": "",
          "type": "bytes32"
        }
      ],
      "stateMutability": "view",
      "type": "function"
    },
    {
      "inputs": [],
      "name": "MAX_FEE",
      "outputs": [
        {
          "internalType": "uint256",
          "name": "",
          "type": "uint256"
        }
      ],
      "stateMutability": "view",
      "type": "function"
    },
    {
      "inputs": [],
      "name": "MIN_SECURITY_DELAY",
      "outputs": [
        {
          "internalType": "uint256",
          "name": "",
          "type": "uint256"
        }
      ],
      "stateMutability": "view",
      "type": "function"
    },
    {
      "inputs": [],
      "name": "ORACLE_ROLE",
      "outputs": [
        {
          "internalType": "bytes32",
          "name": "",
          "type": "bytes32"
        }
      ],
      "stateMutability": "view",
      "type": "function"
    },
    {
      "inputs": [
        {
          "internalType": "address",
          "name": "_oracle",
          "type": "address"
        }
      ],
      "name": "addOracle",
      "outputs": [],
      "stateMutability": "nonpayable",
      "type": "function"
    },
    {
      "inputs": [
        {
          "internalType": "address",
          "name": "_token",
          "type": "address"
        }
      ],
      "name": "addSupportedToken",
      "outputs": [],
      "stateMutability": "nonpayable",
      "type": "function"
    },
    {
      "inputs": [
        {
          "internalType": "uint256",
          "name": "_billId",
          "type": "uint256"
        }
      ],
      "name": "autoRelease",
      "outputs": [],
      "stateMutability": "nonpayable",
      "type": "function"
    },
    {
      "inputs": [
        {
          "internalType": "uint256",
          "name": "_billId",
          "type": "uint256"
        }
      ],
      "name": "autoReleaseAfterHoldPeriod",
      "outputs": [],
      "stateMutability": "nonpayable",
      "type": "function"
    },
    {
      "inputs": [],
      "name": "billCounter",
      "outputs": [
        {
          "internalType": "uint256",
          "name": "",
          "type": "uint256"
        }
      ],
      "stateMutability": "view",
      "type": "function"
    },
    {
      "inputs": [
        {
          "internalType": "uint256",
          "name": "",
          "type": "uint256"
        }
      ],
      "name": "bills",
      "outputs": [
        {
          "internalType": "address",
          "name": "billMaker",
          "type": "address"
        },
        {
          "internalType": "address",
          "name": "payer",
          "type": "address"
        },
        {
          "internalType": "address",
          "name": "token",
          "type": "address"
        },
        {
          "internalType": "uint256",
          "name": "amount",
          "type": "uint256"
        },
        {
          "internalType": "uint256",
          "name": "platformFee",
          "type": "uint256"
        },
        {
          "internalType": "uint256",
          "name": "fiatAmount",
          "type": "uint256"
        },
        {
          "internalType": "enum BillHavenEscrowV4.ConfirmationStatus",
          "name": "status",
          "type": "uint8"
        },
        {
          "internalType": "enum BillHavenEscrowV4.PaymentMethod",
          "name": "paymentMethod",
          "type": "uint8"
        },
        {
          "internalType": "bool",
          "name": "payerConfirmed",
          "type": "bool"
        },
        {
          "internalType": "bool",
          "name": "oracleVerified",
          "type": "bool"
        },
        {
          "internalType": "bool",
          "name": "makerConfirmed",
          "type": "bool"
        },
        {
          "internalType": "uint256",
          "name": "createdAt",
          "type": "uint256"
        },
        {
          "internalType": "uint256",
          "name": "fundedAt",
          "type": "uint256"
        },
        {
          "internalType": "uint256",
          "name": "paymentSentAt",
          "type": "uint256"
        },
        {
          "internalType": "uint256",
          "name": "verifiedAt",
          "type": "uint256"
        },
        {
          "internalType": "uint256",
          "name": "releaseTime",
          "type": "uint256"
        },
        {
          "internalType": "uint256",
          "name": "expiresAt",
          "type": "uint256"
        },
        {
          "internalType": "bytes32",
          "name": "paymentReference",
          "type": "bytes32"
        }
      ],
      "stateMutability": "view",
      "type": "function"
    },
    {
      "inputs": [
        {
          "internalType": "enum BillHavenEscrowV4.PaymentMethod",
          "name": "",
          "type": "uint8"
        }
      ],
      "name": "blockedMethods",
      "outputs": [
        {
          "internalType": "bool",
          "name": "",
          "type": "bool"
        }
      ],
      "stateMutability": "view",
      "type": "function"
    },
    {
      "inputs": [
        {
          "internalType": "uint256",
          "name": "_fiatAmount",
          "type": "uint256"
        },
        {
          "internalType": "bool",
          "name": "_hasAffiliateDiscount",
          "type": "bool"
        }
      ],
      "name": "calculateTieredFee",
      "outputs": [
        {
          "internalType": "uint256",
          "name": "feeInBasisPoints",
          "type": "uint256"
        },
        {
          "internalType": "uint256",
          "name": "feeAmount",
          "type": "uint256"
        }
      ],
      "stateMutability": "pure",
      "type": "function"
    },
    {
      "inputs": [
        {
          "internalType": "uint256",
          "name": "_billId",
          "type": "uint256"
        }
      ],
      "name": "canRelease",
      "outputs": [
        {
          "internalType": "bool",
          "name": "",
          "type": "bool"
        },
        {
          "internalType": "string",
          "name": "",
          "type": "string"
        }
      ],
      "stateMutability": "view",
      "type": "function"
    },
    {
      "inputs": [
        {
          "internalType": "uint256",
          "name": "_billId",
          "type": "uint256"
        }
      ],
      "name": "cancelBill",
      "outputs": [],
      "stateMutability": "nonpayable",
      "type": "function"
    },
    {
      "inputs": [
        {
          "internalType": "uint256",
          "name": "_billId",
          "type": "uint256"
        }
      ],
      "name": "claimBill",
      "outputs": [],
      "stateMutability": "nonpayable",
      "type": "function"
    },
    {
      "inputs": [
        {
          "internalType": "uint256",
          "name": "_billId",
          "type": "uint256"
        },
        {
          "internalType": "bytes32",
          "name": "_paymentReference",
          "type": "bytes32"
        }
      ],
      "name": "confirmPaymentSent",
      "outputs": [],
      "stateMutability": "nonpayable",
      "type": "function"
    },
    {
      "inputs": [
        {
          "internalType": "uint256",
          "name": "_fiatAmount",
          "type": "uint256"
        },
        {
          "internalType": "enum BillHavenEscrowV4.PaymentMethod",
          "name": "_paymentMethod",
          "type": "uint8"
        }
      ],
      "name": "createBill",
      "outputs": [
        {
          "internalType": "uint256",
          "name": "",
          "type": "uint256"
        }
      ],
      "stateMutability": "payable",
      "type": "function"
    },
    {
      "inputs": [
        {
          "internalType": "address",
          "name": "_token",
          "type": "address"
        },
        {
          "internalType": "uint256",
          "name": "_amount",
          "type": "uint256"
        },
        {
          "internalType": "uint256",
          "name": "_fiatAmount",
          "type": "uint256"
        },
        {
          "internalType": "enum BillHavenEscrowV4.PaymentMethod",
          "name": "_paymentMethod",
          "type": "uint8"
        }
      ],
      "name": "createBillWithToken",
      "outputs": [
        {
          "internalType": "uint256",
          "name": "",
          "type": "uint256"
        }
      ],
      "stateMutability": "nonpayable",
      "type": "function"
    },
    {
      "inputs": [],
      "name": "emergencyWithdraw",
      "outputs": [],
      "stateMutability": "view",
      "type": "function"
    },
    {
      "inputs": [
        {
          "internalType": "address",
          "name": "",
          "type": "address"
        }
      ],
      "name": "emergencyWithdrawToken",
      "outputs": [],
      "stateMutability": "view",
      "type": "function"
    },
    {
      "inputs": [],
      "name": "feeWallet",
      "outputs": [
        {
          "internalType": "address",
          "name": "",
          "type": "address"
        }
      ],
      "stateMutability": "view",
      "type": "function"
    },
    {
      "inputs": [
        {
          "internalType": "uint256",
          "name": "_billId",
          "type": "uint256"
        }
      ],
      "name": "getBill",
      "outputs": [
        {
          "components": [
            {
              "internalType": "address",
              "name": "billMaker",
              "type": "address"
            },
            {
              "internalType": "address",
              "name": "payer",
              "type": "address"
            },
            {
              "internalType": "address",
              "name": "token",
              "type": "address"
            },
            {
              "internalType": "uint256",
              "name": "amount",
              "type": "uint256"
            },
            {
              "internalType": "uint256",
              "name": "platformFee",
              "type": "uint256"
            },
            {
              "internalType": "uint256",
              "name": "fiatAmount",
              "type": "uint256"
            },
            {
              "internalType": "enum BillHavenEscrowV4.ConfirmationStatus",
              "name": "status",
              "type": "uint8"
            },
            {
              "internalType": "enum BillHavenEscrowV4.PaymentMethod",
              "name": "paymentMethod",
              "type": "uint8"
            },
            {
              "internalType": "bool",
              "name": "payerConfirmed",
              "type": "bool"
            },
            {
              "internalType": "bool",
              "name": "oracleVerified",
              "type": "bool"
            },
            {
              "internalType": "bool",
              "name": "makerConfirmed",
              "type": "bool"
            },
            {
              "internalType": "uint256",
              "name": "createdAt",
              "type": "uint256"
            },
            {
              "internalType": "uint256",
              "name": "fundedAt",
              "type": "uint256"
            },
            {
              "internalType": "uint256",
              "name": "paymentSentAt",
              "type": "uint256"
            },
            {
              "internalType": "uint256",
              "name": "verifiedAt",
              "type": "uint256"
            },
            {
              "internalType": "uint256",
              "name": "releaseTime",
              "type": "uint256"
            },
            {
              "internalType": "uint256",
              "name": "expiresAt",
              "type": "uint256"
            },
            {
              "internalType": "bytes32",
              "name": "paymentReference",
              "type": "bytes32"
            }
          ],
          "internalType": "struct BillHavenEscrowV4.Bill",
          "name": "",
          "type": "tuple"
        }
      ],
      "stateMutability": "view",
      "type": "function"
    },
    {
      "inputs": [
        {
          "internalType": "enum BillHavenEscrowV4.PaymentMethod",
          "name": "_method",
          "type": "uint8"
        }
      ],
      "name": "getHoldPeriod",
      "outputs": [
        {
          "internalType": "uint256",
          "name": "",
          "type": "uint256"
        }
      ],
      "stateMutability": "view",
      "type": "function"
    },
    {
      "inputs": [],
      "name": "getMinSecurityDelay",
      "outputs": [
        {
          "internalType": "uint256",
          "name": "",
          "type": "uint256"
        }
      ],
      "stateMutability": "pure",
      "type": "function"
    },
    {
      "inputs": [
        {
          "internalType": "bytes32",
          "name": "role",
          "type": "bytes32"
        }
      ],
      "name": "getRoleAdmin",
      "outputs": [
        {
          "internalType": "bytes32",
          "name": "",
          "type": "bytes32"
        }
      ],
      "stateMutability": "view",
      "type": "function"
    },
    {
      "inputs": [
        {
          "internalType": "address",
          "name": "_user",
          "type": "address"
        }
      ],
      "name": "getUserLimits",
      "outputs": [
        {
          "components": [
            {
              "internalType": "uint256",
              "name": "maxDailyVolume",
              "type": "uint256"
            },
            {
              "internalType": "uint256",
              "name": "maxWeeklyVolume",
              "type": "uint256"
            },
            {
              "internalType": "uint256",
              "name": "maxTradeSize",
              "type": "uint256"
            },
            {
              "internalType": "uint256",
              "name": "maxDailyTrades",
              "type": "uint256"
            }
          ],
          "internalType": "struct BillHavenEscrowV4.VelocityLimits",
          "name": "",
          "type": "tuple"
        }
      ],
      "stateMutability": "view",
      "type": "function"
    },
    {
      "inputs": [
        {
          "internalType": "address",
          "name": "_user",
          "type": "address"
        }
      ],
      "name": "getUserStats",
      "outputs": [
        {
          "components": [
            {
              "internalType": "uint256",
              "name": "totalTrades",
              "type": "uint256"
            },
            {
              "internalType": "uint256",
              "name": "successfulTrades",
              "type": "uint256"
            },
            {
              "internalType": "uint256",
              "name": "disputedTrades",
              "type": "uint256"
            },
            {
              "internalType": "uint256",
              "name": "dailyVolume",
              "type": "uint256"
            },
            {
              "internalType": "uint256",
              "name": "weeklyVolume",
              "type": "uint256"
            },
            {
              "internalType": "uint256",
              "name": "lastTradeDate",
              "type": "uint256"
            },
            {
              "internalType": "uint256",
              "name": "lastWeekStart",
              "type": "uint256"
            },
            {
              "internalType": "enum BillHavenEscrowV4.TrustLevel",
              "name": "trustLevel",
              "type": "uint8"
            },
            {
              "internalType": "bool",
              "name": "isBlacklisted",
              "type": "bool"
            }
          ],
          "internalType": "struct BillHavenEscrowV4.UserStats",
          "name": "",
          "type": "tuple"
        }
      ],
      "stateMutability": "view",
      "type": "function"
    },
    {
      "inputs": [
        {
          "internalType": "bytes32",
          "name": "role",
          "type": "bytes32"
        },
        {
          "internalType": "address",
          "name": "account",
          "type": "address"
        }
      ],
      "name": "grantRole",
      "outputs": [],
      "stateMutability": "nonpayable",
      "type": "function"
    },
    {
      "inputs": [
        {
          "internalType": "bytes32",
          "name": "role",
          "type": "bytes32"
        },
        {
          "internalType": "address",
          "name": "account",
          "type": "address"
        }
      ],
      "name": "hasRole",
      "outputs": [
        {
          "internalType": "bool",
          "name": "",
          "type": "bool"
        }
      ],
      "stateMutability": "view",
      "type": "function"
    },
    {
      "inputs": [
        {
          "internalType": "enum BillHavenEscrowV4.PaymentMethod",
          "name": "",
          "type": "uint8"
        }
      ],
      "name": "holdPeriods",
      "outputs": [
        {
          "internalType": "uint256",
          "name": "",
          "type": "uint256"
        }
      ],
      "stateMutability": "view",
      "type": "function"
    },
    {
      "inputs": [
        {
          "internalType": "enum BillHavenEscrowV4.PaymentMethod",
          "name": "_method",
          "type": "uint8"
        }
      ],
      "name": "isMethodBlocked",
      "outputs": [
        {
          "internalType": "bool",
          "name": "",
          "type": "bool"
        }
      ],
      "stateMutability": "view",
      "type": "function"
    },
    {
      "inputs": [
        {
          "internalType": "uint256",
          "name": "_billId",
          "type": "uint256"
        }
      ],
      "name": "makerConfirmAndRelease",
      "outputs": [],
      "stateMutability": "view",
      "type": "function"
    },
    {
      "inputs": [
        {
          "internalType": "uint256",
          "name": "_billId",
          "type": "uint256"
        }
      ],
      "name": "makerConfirmPayment",
      "outputs": [],
      "stateMutability": "nonpayable",
      "type": "function"
    },
    {
      "inputs": [],
      "name": "minConfirmations",
      "outputs": [
        {
          "internalType": "uint256",
          "name": "",
          "type": "uint256"
        }
      ],
      "stateMutability": "view",
      "type": "function"
    },
    {
      "inputs": [],
      "name": "pause",
      "outputs": [],
      "stateMutability": "nonpayable",
      "type": "function"
    },
    {
      "inputs": [],
      "name": "paused",
      "outputs": [
        {
          "internalType": "bool",
          "name": "",
          "type": "bool"
        }
      ],
      "stateMutability": "view",
      "type": "function"
    },
    {
      "inputs": [
        {
          "internalType": "uint256",
          "name": "_billId",
          "type": "uint256"
        }
      ],
      "name": "payerDisputeBeforeRelease",
      "outputs": [],
      "stateMutability": "nonpayable",
      "type": "function"
    },
    {
      "inputs": [],
      "name": "platformFeePercent",
      "outputs": [
        {
          "internalType": "uint256",
          "name": "",
          "type": "uint256"
        }
      ],
      "stateMutability": "view",
      "type": "function"
    },
    {
      "inputs": [
        {
          "internalType": "uint256",
          "name": "_billId",
          "type": "uint256"
        }
      ],
      "name": "raiseDispute",
      "outputs": [],
      "stateMutability": "nonpayable",
      "type": "function"
    },
    {
      "inputs": [
        {
          "internalType": "uint256",
          "name": "_billId",
          "type": "uint256"
        }
      ],
      "name": "refundExpiredBill",
      "outputs": [],
      "stateMutability": "nonpayable",
      "type": "function"
    },
    {
      "inputs": [
        {
          "internalType": "uint256",
          "name": "_billId",
          "type": "uint256"
        }
      ],
      "name": "releaseFunds",
      "outputs": [],
      "stateMutability": "nonpayable",
      "type": "function"
    },
    {
      "inputs": [
        {
          "internalType": "address",
          "name": "_oracle",
          "type": "address"
        }
      ],
      "name": "removeOracle",
      "outputs": [],
      "stateMutability": "nonpayable",
      "type": "function"
    },
    {
      "inputs": [
        {
          "internalType": "address",
          "name": "_token",
          "type": "address"
        }
      ],
      "name": "removeSupportedToken",
      "outputs": [],
      "stateMutability": "nonpayable",
      "type": "function"
    },
    {
      "inputs": [
        {
          "internalType": "bytes32",
          "name": "role",
          "type": "bytes32"
        },
        {
          "internalType": "address",
          "name": "callerConfirmation",
          "type": "address"
        }
      ],
      "name": "renounceRole",
      "outputs": [],
      "stateMutability": "nonpayable",
      "type": "function"
    },
    {
      "inputs": [],
      "name": "rescueStuckFunds",
      "outputs": [],
      "stateMutability": "nonpayable",
      "type": "function"
    },
    {
      "inputs": [
        {
          "internalType": "address",
          "name": "_token",
          "type": "address"
        }
      ],
      "name": "rescueStuckTokens",
      "outputs": [],
      "stateMutability": "nonpayable",
      "type": "function"
    },
    {
      "inputs": [
        {
          "internalType": "uint256",
          "name": "_billId",
          "type": "uint256"
        },
        {
          "internalType": "bool",
          "name": "_releaseToPayer",
          "type": "bool"
        }
      ],
      "name": "resolveDispute",
      "outputs": [],
      "stateMutability": "nonpayable",
      "type": "function"
    },
    {
      "inputs": [
        {
          "internalType": "bytes32",
          "name": "role",
          "type": "bytes32"
        },
        {
          "internalType": "address",
          "name": "account",
          "type": "address"
        }
      ],
      "name": "revokeRole",
      "outputs": [],
      "stateMutability": "nonpayable",
      "type": "function"
    },
    {
      "inputs": [
        {
          "internalType": "enum BillHavenEscrowV4.PaymentMethod",
          "name": "_method",
          "type": "uint8"
        },
        {
          "internalType": "bool",
          "name": "_blocked",
          "type": "bool"
        }
      ],
      "name": "setMethodBlocked",
      "outputs": [],
      "stateMutability": "nonpayable",
      "type": "function"
    },
    {
      "inputs": [
        {
          "internalType": "address",
          "name": "_user",
          "type": "address"
        },
        {
          "internalType": "bool",
          "name": "_blacklisted",
          "type": "bool"
        }
      ],
      "name": "setUserBlacklist",
      "outputs": [],
      "stateMutability": "nonpayable",
      "type": "function"
    },
    {
      "inputs": [
        {
          "internalType": "address",
          "name": "_user",
          "type": "address"
        },
        {
          "internalType": "enum BillHavenEscrowV4.TrustLevel",
          "name": "_level",
          "type": "uint8"
        }
      ],
      "name": "setUserTrustLevel",
      "outputs": [],
      "stateMutability": "nonpayable",
      "type": "function"
    },
    {
      "inputs": [
        {
          "internalType": "address",
          "name": "",
          "type": "address"
        }
      ],
      "name": "supportedTokens",
      "outputs": [
        {
          "internalType": "bool",
          "name": "",
          "type": "bool"
        }
      ],
      "stateMutability": "view",
      "type": "function"
    },
    {
      "inputs": [
        {
          "internalType": "bytes4",
          "name": "interfaceId",
          "type": "bytes4"
        }
      ],
      "name": "supportsInterface",
      "outputs": [
        {
          "internalType": "bool",
          "name": "",
          "type": "bool"
        }
      ],
      "stateMutability": "view",
      "type": "function"
    },
    {
      "inputs": [
        {
          "internalType": "address",
          "name": "",
          "type": "address"
        }
      ],
      "name": "trustedOracles",
      "outputs": [
        {
          "internalType": "bool",
          "name": "",
          "type": "bool"
        }
      ],
      "stateMutability": "view",
      "type": "function"
    },
    {
      "inputs": [],
      "name": "unpause",
      "outputs": [],
      "stateMutability": "nonpayable",
      "type": "function"
    },
    {
      "inputs": [
        {
          "internalType": "address",
          "name": "_newWallet",
          "type": "address"
        }
      ],
      "name": "updateFeeWallet",
      "outputs": [],
      "stateMutability": "nonpayable",
      "type": "function"
    },
    {
      "inputs": [
        {
          "internalType": "enum BillHavenEscrowV4.PaymentMethod",
          "name": "_method",
          "type": "uint8"
        },
        {
          "internalType": "uint256",
          "name": "_period",
          "type": "uint256"
        }
      ],
      "name": "updateHoldPeriod",
      "outputs": [],
      "stateMutability": "nonpayable",
      "type": "function"
    },
    {
      "inputs": [
        {
          "internalType": "uint256",
          "name": "_newFeePercent",
          "type": "uint256"
        }
      ],
      "name": "updatePlatformFee",
      "outputs": [],
      "stateMutability": "nonpayable",
      "type": "function"
    },
    {
      "inputs": [
        {
          "internalType": "enum BillHavenEscrowV4.TrustLevel",
          "name": "_level",
          "type": "uint8"
        },
        {
          "internalType": "uint256",
          "name": "_maxDaily",
          "type": "uint256"
        },
        {
          "internalType": "uint256",
          "name": "_maxWeekly",
          "type": "uint256"
        },
        {
          "internalType": "uint256",
          "name": "_maxTrade",
          "type": "uint256"
        },
        {
          "internalType": "uint256",
          "name": "_maxDailyTrades",
          "type": "uint256"
        }
      ],
      "name": "updateVelocityLimits",
      "outputs": [],
      "stateMutability": "nonpayable",
      "type": "function"
    },
    {
      "inputs": [
        {
          "internalType": "bytes32",
          "name": "",
          "type": "bytes32"
        }
      ],
      "name": "usedPaymentReferences",
      "outputs": [
        {
          "internalType": "bool",
          "name": "",
          "type": "bool"
        }
      ],
      "stateMutability": "view",
      "type": "function"
    },
    {
      "inputs": [
        {
          "internalType": "bytes32",
          "name": "",
          "type": "bytes32"
        }
      ],
      "name": "usedSignatures",
      "outputs": [
        {
          "internalType": "bool",
          "name": "",
          "type": "bool"
        }
      ],
      "stateMutability": "view",
      "type": "function"
    },
    {
      "inputs": [
        {
          "internalType": "address",
          "name": "",
          "type": "address"
        }
      ],
      "name": "userStats",
      "outputs": [
        {
          "internalType": "uint256",
          "name": "totalTrades",
          "type": "uint256"
        },
        {
          "internalType": "uint256",
          "name": "successfulTrades",
          "type": "uint256"
        },
        {
          "internalType": "uint256",
          "name": "disputedTrades",
          "type": "uint256"
        },
        {
          "internalType": "uint256",
          "name": "dailyVolume",
          "type": "uint256"
        },
        {
          "internalType": "uint256",
          "name": "weeklyVolume",
          "type": "uint256"
        },
        {
          "internalType": "uint256",
          "name": "lastTradeDate",
          "type": "uint256"
        },
        {
          "internalType": "uint256",
          "name": "lastWeekStart",
          "type": "uint256"
        },
        {
          "internalType": "enum BillHavenEscrowV4.TrustLevel",
          "name": "trustLevel",
          "type": "uint8"
        },
        {
          "internalType": "bool",
          "name": "isBlacklisted",
          "type": "bool"
        }
      ],
      "stateMutability": "view",
      "type": "function"
    },
    {
      "inputs": [
        {
          "internalType": "enum BillHavenEscrowV4.TrustLevel",
          "name": "",
          "type": "uint8"
        }
      ],
      "name": "velocityLimits",
      "outputs": [
        {
          "internalType": "uint256",
          "name": "maxDailyVolume",
          "type": "uint256"
        },
        {
          "internalType": "uint256",
          "name": "maxWeeklyVolume",
          "type": "uint256"
        },
        {
          "internalType": "uint256",
          "name": "maxTradeSize",
          "type": "uint256"
        },
        {
          "internalType": "uint256",
          "name": "maxDailyTrades",
          "type": "uint256"
        }
      ],
      "stateMutability": "view",
      "type": "function"
    },
    {
      "inputs": [
        {
          "internalType": "uint256",
          "name": "_billId",
          "type": "uint256"
        },
        {
          "internalType": "bytes32",
          "name": "_paymentReference",
          "type": "bytes32"
        },
        {
          "internalType": "uint256",
          "name": "_fiatAmount",
          "type": "uint256"
        },
        {
          "internalType": "uint256",
          "name": "_timestamp",
          "type": "uint256"
        },
        {
          "internalType": "bytes",
          "name": "_signature",
          "type": "bytes"
        }
      ],
      "name": "verifyPaymentReceived",
      "outputs": [],
      "stateMutability": "nonpayable",
      "type": "function"
    },
    {
      "stateMutability": "payable",
      "type": "receive"
    }
  ],
  "bytecode": "0x6080346200027d57601f6200420138819003918201601f1916830192916001600160401b038411838510176200028257808392604095865283396020928391810103126200027d57516001600160a01b038116908190036200027d576001916000918383556101b8600e5583600f5580156200026c57600d80546001600160a01b0319169190911790556200009433620002b8565b50620000a03362000339565b50620000ac33620003dc565b508180526005815283822060ff19908482825416179055600a82528285812055838352620151809283868220556002918282526202a3008783205560039485835287832055600482526203f480808884205560058352620697808884205560068352878320556009825262093a808783205560078252600b845286822086828254161790556008825285878320918254161790556200014a62000298565b94620186a0865283860195856207a1209788815289830161c35081526060840191838352868052600989528b87209451855551858501555186840155519101556200019462000298565b9586528386019585621e84809788815289830162030d4081526060840191600a8352858752600989528b8720945185555185850155518684015551910155620001dc62000298565b95865283860195856298968097888152898301620f42408152606084019160148352878752600989528b87209451855551858501555186840155519101556200022462000298565b9586528386016302faf08081528780880193624c4b408552600960608a019760328952898352522096518755519086015551908401555191015551613d6690816200047b8239f35b845163e6c4247b60e01b8152600490fd5b600080fd5b634e487b7160e01b600052604160045260246000fd5b60405190608082016001600160401b038111838210176200028257604052565b6001600160a01b031660008181527fac33ff75c19e70fe83507db0d683fd3465c996598dc972688b7ace676c89077b602052604081205490919060ff16620003355781805260026020526040822081835260205260408220600160ff198254161790553391600080516020620041e18339815191528180a4600190565b5090565b6001600160a01b031660008181527fe5ebfa64fca8d502a8e50c1edffd2c31ef4dad5b396e65d9f397fb028f74abc560205260408120549091907fa49807205ce4d355092ef5a8a18f56e8913cf4a201fbe287825b095693c217759060ff16620003d75780835260026020526040832082845260205260408320600160ff19825416179055600080516020620041e1833981519152339380a4600190565b505090565b6001600160a01b031660008181527f824854fce2b26a685510a23e94ce095a99e4d883af92f3bad8a69b2ed000be4160205260408120549091907f16ceee8289685dd2a02b9c8ae81d2df373176ce53519e6284e2a2950d6546ffa9060ff16620003d75780835260026020526040832082845260205260408320600160ff19825416179055600080516020620041e1833981519152339380a460019056fe608080604052600436101561001d575b50361561001b57600080fd5b005b60003560e01c90816301ffc9a714612c475750806302e9264e14612c0357806307e2cea514612bc85780630a5c722f14612a3b5780630b86fb0f146129b65780630c1fe80c146127f357806312df27fd14611f065780631930eae7146126f85780631af032031461266b5780631fbee6c5146105fb578063248a9ca31461263c57806328bdcde8146125205780632b3b47521461248a5780632f2ff15d1461244b57806334b25ee21461221257806336568abe146121cb57806338dd40c0146108e55780633f4ba83a14612174578063459b860e146114855780634d68282f146120685780634e43603a14611f2457806353b20eb414611f065780635c975abb14611ee35780636179862414611e0657806362e87b8c14611b155780636671852414611acd5780636776298814611a2b57806368c4ac26146119ec5780636d69fcaf146119a157806372baa6381461173057806374ee23e61461164c57806375b238fc1461161157806376319190146115c95780638456cb59146115705780638a65d874146114cf5780638c639a85146114b1578063911d50e31461148557806391d14854146114385780639c078c3a146113a45780639cea0787146113695780639d7a03391461134b578063a217fddf1461132f578063a5c1674e146111fd578063a73222fb1461119d578063a81ea0e514610dc3578063aa0b598814610d87578063b1cd06e614610afb578063b2f70e9614610a84578063bc063e1a14610a67578063c5c8010a14610980578063ca440b9f14610928578063cc73bab4146108e5578063ccddf0b014610888578063cd2cb46d14610834578063d547741f146107f5578063db296602146107b6578063db2e21bc14610732578063df5dd1a5146106a5578063e1d239db14610674578063e1f1c4a714610657578063e7c4393e14610639578063f06edf29146105fb578063f25f4b56146105d2578063f562e12214610516578063f978fd61146104e5578063fb06d054146103835763fdc85fc41461030b573861000f565b3461037e57602036600319011261037e57610324612c9a565b61032c612cff565b6001600160a01b0381166000818152600660205260409020805460ff191690559061035690612eaf565b507f9c8e7d83025bef8a04c664b2f753f64b8814bdb7e27291d7e50935f18cc3c712600080a2005b600080fd5b3461037e57602036600319011261037e5760043561039f6130d9565b60008181526003602052604090206001810180546001600160a01b0391908216338190036104d357600684019081549060ff82166103dc81612cc6565b600681149081156104be575b81156104a9575b8115610495575b506104835715610471576104219461041a926007869360ff19161790555416613a79565b5416613a79565b33817fe7eb6a6fb2b73c9784947455dd1734b8d84e989960efe8bec18ca1e40fef3182600080a333907f5af9d49f4a6a457555195a3b1d151b29d9708c5cc9074c9b3b08ec68d17f8cde600080a3005b604051630af3399f60e01b8152600490fd5b60405163baf3f0f760e01b8152600490fd5b600791506104a281612cc6565b14886103f6565b90506104b481612cc6565b60098114906103ef565b90506104c981612cc6565b60088114906103e8565b60405163ed6f48a160e01b8152600490fd5b3461037e57602036600319011261037e576004356000526008602052602060ff604060002054166040519015158152f35b3461037e5760208060031936011261037e57608090610533612c9a565b600060606040516105438161300e565b8281528285820152826040820152015260018060a01b03166000526004815260ff6007604060002001541661057781612cf5565b600052600981526040600020604051906105908261300e565b80549283835260018201548184019081526060600360028501549460408701958652015494019384526040519485525190840152516040830152516060820152f35b3461037e57600036600319011261037e57600d546040516001600160a01b039091168152602090f35b3461037e57602036600319011261037e57600435600a81101561037e5761062181612cc6565b600052600a6020526020604060002054604051908152f35b3461037e57600036600319011261037e576020600f54604051908152f35b3461037e57600036600319011261037e5760206040516127108152f35b3461037e57602036600319011261037e576004356000526007602052602060ff604060002054166040519015158152f35b3461037e57602036600319011261037e576106be612c9a565b6106c6612cff565b6001600160a01b038116908115610720576106f9908260005260066020526040600020600160ff19825416179055612d81565b507e47706786c922d17b39285dc59d696bafea72c0b003d3841ae1202076f4c2e4600080a2005b60405163e6c4247b60e01b8152600490fd5b3461037e57600036600319011261037e5761074b612cff565b60405162461bcd60e51b815260206004820152603760248201527f52454d4f5645443a2055736520726573637565537475636b46756e647328292060448201527f2d2070726f7465637473207573657220657363726f77730000000000000000006064820152608490fd5b3461037e57602036600319011261037e576001600160a01b036107d7612c9a565b166000526006602052602060ff604060002054166040519015158152f35b3461037e57604036600319011261037e5761001b600435610814612cb0565b9080600052600260205261082f600160406000200154612d5b565b612f5b565b3461037e57602036600319011261037e576004356000908152600360205260409020546001600160a01b03166108765760405163cf897cfb60e01b8152600490fd5b6040516383abb4fb60e01b8152600490fd5b3461037e57604036600319011261037e576108a1612c9a565b6108a9612ce6565b906108b2612cff565b6001600160a01b03166000908152600460205260409020600701805461ff00191691151560081b61ff0016919091179055005b3461037e57602036600319011261037e57600435600a81101561037e5761090b81612cc6565b600052600b602052602060ff604060002054166040519015158152f35b3461037e57604036600319011261037e57600435600a81101561037e5761094d612ce6565b90610956612cff565b61095f81612cc6565b600052600b60205260406000209060ff801983541691151516179055600080f35b3461037e57602036600319011261037e5760043561099c6130d9565b600081815260036020526040902080546001600160a01b03163303610a5557600601805460ff8160181c1615610a435760ff81166109d981612cc6565b60048114159081610a2e575b50610483576401000000009064ff0000000019161790557ff6290085419aef756daab446f349a2b978fb567dcfc918f5d5dac67d2021076d6040805133815260006020820152a2005b60059150610a3b81612cc6565b1415846109e5565b604051630ebc5acd60e41b8152600490fd5b6040516337ac59f760e11b8152600490fd5b3461037e57600036600319011261037e5760206040516103e88152f35b3461037e5760208060031936011261037e57610aa1600435613bad565b90604051928391151582526040818301528251908160408401526000935b828510610ae2575050606092506000838284010152601f80199101168101030190f35b8481018201518686016060015293810193859350610abf565b3461037e57602036600319011261037e576000610220604051610b1d81613047565b8281528260208201528260408201528260608201528260808201528260a08201528260c08201528260e08201528261010082015282610120820152826101408201528261016082015282610180820152826101a0820152826101c0820152826101e082015282610200820152015260043560005260036020526102406040600020600d60405191610bad83613047565b80546001600160a01b03908116845260018201548116602085015260028201541660408401526003810154606084015260048101546080840152600581015460a0840152600681015460ff90808216610c0581612cc6565b60c0860152818160081c16610c1981612cc6565b60e0860152818160101c161515610100860152818160181c16151561012086015260201c1615156101408401526007810154610160840152600881015461018084015260098101546101a0840152600a8101546101c0840152600b8101546101e0840152600c81015461020084015201546102208201526102206040519160018060a01b03815116835260018060a01b03602082015116602084015260018060a01b036040820151166040840152606081015160608401526080810151608084015260a081015160a084015260c0810151610cf381612cc6565b60c084015260e0810151610d0681612cc6565b60e08401526101008101511515610100840152610120810151151561012084015261014081015115156101408401526101608101516101608401526101808101516101808401526101a08101516101a08401526101c08101516101c08401526101e08101516101e08401526102008101516102008401520151610220820152f35b3461037e57602036600319011261037e57600435610da3612cff565b6103e88111610db157600e55005b60405163162908e360e11b8152600490fd5b3461037e57608036600319011261037e57610ddc612c9a565b602435906044359060643590600a82101561037e57610df96130f7565b610e016130d9565b6001600160a01b03169182156107205782600052600560205260ff604060002054161561118b578315610db157610e3782612cc6565b81600052600b60205260ff6040600020541661117957610e578133613696565b612710610e66600e5486612fd2565b0492610e728486612fe5565b946040516323b872dd60e01b60208201523360248201523060448201528160648201526064815260a081019080821067ffffffffffffffff83111761116357610ebe916040528361311a565b610ec9600c54612ff2565b9182600c5562093a804201421161114d576020967f2469925ccefb03acd27c12d788551eb22b1874ded2deb93e787464c9a3f3d83c967f2f7de55139de6fc244276fea13cfd810747cea11cb889582d3966aef80cc6f6095899560405191610f3083613047565b33835260008884015285604084015284606084015283608084015260a0830152600160c0830152610f6089612cc6565b8860e0830152600061010083015260006101208301526000610140830152426101608301524261018083015260006101a083015260006101c083015260006101e083015262093a804201610200830152600061022083015260005260038652600d61022060406000209260018060a01b038151166001600160601b0360a01b90818654161785556001850160018060a01b038b8401511682825416179055600285019060018060a01b0360408401511690825416179055606081015160038501556080810151600485015560a081015160058501556110d66006850161105360c084015161104d81612cc6565b826130a2565b60e083015161106181612cc6565b61106a81612cc6565b815461010085015162ffff001990911660089290921b61ff00169190911790151560101b62ff000016178155610120830151815463ff000000191690151560181b63ff00000016178155610140830151815464ff00000000191690151560201b64ff0000000016179055565b610160810151600785015561018081015160088501556101a081015160098501556101c0810151600a8501556101e0810151600b850155610200810151600c8501550151910155600c5497889788926111366040519283923397846130ba565b0390a4604051908152a26001600055604051908152f35b634e487b7160e01b600052601160045260246000fd5b634e487b7160e01b600052604160045260246000fd5b60405163176fa74160e21b8152600490fd5b604051633dd1b30560e01b8152600490fd5b3461037e57602036600319011261037e57600435600481101561037e576111c381612cf5565b6000526009602052608060406000208054906001810154906003600282015491015491604051938452602084015260408301526060820152f35b3461037e57602036600319011261037e576004356112196130d9565b600081815260036020526040902080546001600160a01b039190821690338214158061131f575b61130d57600681019182549060ff821661125981612cc6565b600681149081156112f8575b81156112e3575b81156112cf575b5061048357600193600761128d9360ff1916179055613a79565b015416806112c0575b5033907f5af9d49f4a6a457555195a3b1d151b29d9708c5cc9074c9b3b08ec68d17f8cde600080a3005b6112c990613a79565b81611296565b600791506112dc81612cc6565b1487611273565b90506112ee81612cc6565b600981149061126c565b905061130381612cc6565b6008811490611265565b60405163ea8e4eb560e01b8152600490fd5b5082600182015416331415611240565b3461037e57600036600319011261037e57602060405160008152f35b3461037e57600036600319011261037e576020600c54604051908152f35b3461037e57600036600319011261037e5760206040517f16ceee8289685dd2a02b9c8ae81d2df373176ce53519e6284e2a2950d6546ffa8152f35b3461037e57602036600319011261037e576004356113c06130f7565b8060005260036020526040600020600c8101544211156114265760018101546001600160a01b03166114145760ff60066001920154166113ff81612cc6565b036104835761140d9061358e565b6001600055005b6040516322e36a8760e21b8152600490fd5b604051631c1a054b60e01b8152600490fd5b3461037e57604036600319011261037e57611451612cb0565b600435600052600260205260406000209060018060a01b0316600052602052602060ff604060002054166040519015158152f35b3461037e57602036600319011261037e5761149e6130f7565b6114a66130d9565b61140d600435613320565b3461037e57600036600319011261037e576020600e54604051908152f35b3461037e57602036600319011261037e576001600160a01b036114f0612c9a565b166000526004602052610120604060002060ff815491600181015460028201549160038101546004820154600583015491600760068501549401549587871695604051998a5260208a015260408901526060880152608087015260a086015260c085015261155d81612cf5565b60e084015260081c161515610100820152f35b3461037e57600036600319011261037e57611589612cff565b6115916130d9565b600160ff19815416176001557f62e78cea01bee320cd4e420270b5ea74000d11b0c9f74754ebdbfc544b05a2586020604051338152a1005b3461037e57602036600319011261037e576115e2612c9a565b6115ea612cff565b6001600160a01b03168015610720576000908152600560205260409020805460ff19169055005b3461037e57600036600319011261037e5760206040517fa49807205ce4d355092ef5a8a18f56e8913cf4a201fbe287825b095693c217758152f35b3461037e57604036600319011261037e5760043560243561166b6130d9565b600082815260036020526040902060018101546001600160a01b031633036104d3576006810191825492600260ff85166116a481612cc6565b036104835781600052600760205260ff6040600020541661171e57600d6020938392620100037fec2ddc8c49b05b6a2c186d6f1481d3167f08de1c5a5de04f94a9f6e800b335529762ff00ff1916179055426009820155015580600052600782526040600020600160ff19825416179055604051908152a2005b6040516304f6343d60e21b8152600490fd5b604036600319011261037e57600435600a602435101561037e576117526130f7565b61175a6130d9565b3415610db15761176b602435612cc6565b602435600052600b60205260ff604060002054166111795761178d8133613696565b61271061179c600e5434612fd2565b04906117a88234612fe5565b916117b4600c54612ff2565b9081600c5562093a804201421161114d5760209361196793600093604051916117dc83613047565b338352858884015285604084015283606084015284608084015260a0830152600160c083015261180d602435612cc6565b60243560e08301528461010083015284610120830152846101408301524261016083015242610180830152846101a0830152846101c0830152846101e083015262093a80420161020083015284610220830152845260038652600d610220604086209260018060a01b03808251166001600160601b0360a01b908187541617865560018601828c8501511682825416179055600286019160408401511690825416179055606081015160038501556080810151600485015560a081015160058501556118e76006850161105360c084015161104d81612cc6565b610160810151600785015561018081015160088501556101a081015160098501556101c0810151600a8501556101e0810151600b850155610200810151600c85015501519101557f2469925ccefb03acd27c12d788551eb22b1874ded2deb93e787464c9a3f3d83c600c54948592604051918291339660243591846130ba565b0390a4807f2f7de55139de6fc244276fea13cfd810747cea11cb889582d3966aef80cc6f6083604051348152a26001600055604051908152f35b3461037e57602036600319011261037e576119ba612c9a565b6119c2612cff565b6001600160a01b03168015610720576000908152600560205260409020805460ff19166001179055005b3461037e57602036600319011261037e576001600160a01b03611a0d612c9a565b166000526005602052602060ff604060002054166040519015158152f35b3461037e57602036600319011261037e57600435611a476130f7565b600081815260036020526040902080546001600160a01b039081163303610a55576006820191600160ff845416611a7d81612cc6565b0361048357600101541661141457611a948261358e565b805460ff1916600917905533907f041d0e14dd8abcd72311b1c9267065414e8c2c246ad9914a60cc99ccea19446d600080a36001600055005b3461037e57602036600319011261037e57611ae6612c9a565b611aee612cff565b6001600160a01b03168015610720576001600160601b0360a01b600d541617600d55600080f35b3461037e5760a036600319011261037e5760043560843560243567ffffffffffffffff60643560443582851161037e573660238601121561037e5784600401359083821161037e576024860195602483369201011161037e57611b766130f7565b611b7e6130d9565b86600052602094600386526040600020946006860194600360ff875416611ba481612cc6565b036104835782600d88015403611df45783600588015403610db157428111611df45761012b19420142811161114d578110611df457600187015492875494604051948a8601964688523060601b60408801528d60548801526001600160601b0319809260601b16607488015260601b166088860152609c85015260bc84015260dc83015260dc825261010082019082821090821117611163576040525190207f19457468657265756d205369676e6564204d6573736167653a0a333200000000600052601c52611c8f611c86603c600020611c8036858a613192565b906131c9565b90929192613295565b6001600160a01b0316600081815260068652604090205490959060ff1615611df457611cbc913691613192565b83815191012091826000526008845260ff60406000205416611de257600b92600052600884526040600020600160ff198254161790558563ff0000ff198354169560ff6301000004881780865542600a86015560081c1692611d1d84612cc6565b83600052600a875260406000205462015180808211600014611ddb57505b93611d4581612cc6565b15611dd2575b7ff6290085419aef756daab446f349a2b978fb567dcfc918f5d5dac67d2021076d91604091611d7a8642613001565b97889101558151908152600188820152a215611d97576001600055005b63010000057fb3712c80285d461d18d6dd4780227a6b6f17bf80b7064d9055d932bb28b18fc794179055604051908152a2808080808061140d565b60009350611d4b565b9050611d3b565b60405163900bb2c960e01b8152600490fd5b604051638baa579f60e01b8152600490fd5b3461037e57604036600319011261037e576040600435611e24612ce6565b60648204620f42408110611e50575050612710611e4360508093612fd2565b0482519182526020820152f35b6207a1208110611e6b575050612710611e4360788093612fd2565b61c3508110611e85575050612710611e4360aa8093612fd2565b614e208110611ea0575050612710611e436101188093612fd2565b61271011611eb95750612710611e4361015e8093612fd2565b15611ed257612710611e4361ffff60dc5b168093612fd2565b612710611e4361ffff6101b8611eca565b3461037e57600036600319011261037e57602060ff600154166040519015158152f35b3461037e57600036600319011261037e576020604051620151808152f35b3461037e57602036600319011261037e57610120611f40612c9a565b60405190611f4d8261302a565b6000825260006020830152600060408301526000606083015260006080830152600060a0830152600060c0830152600060e083015260006101008093015260018060a01b0316600052600460205260406000209060405191611fae8361302a565b805483526001810154602084019081526002820154916040850192835260038101546060860190815260048201546080870190815260058301549160a08801928352600760068501549460c08a0195865201549560ff87169560e08a019661201581612cf5565b875260ff898b019860081c161515885260405199518a525160208a01525160408901525160608801525160808701525160a08601525160c08501525161205a81612cf5565b60e084015251151590820152f35b3461037e57602036600319011261037e576004356120846130f7565b61208c6130d9565b8060005260036020526040600020600681015460ff8160181c1615610a435760ff166120b781612cc6565b6004811415908161215f575b5061048357600b810154421061214a578054336001600160a01b0391821614159182612138575b5050806120ff575b61130d5761140d9061343c565b503360009081527fe5ebfa64fca8d502a8e50c1edffd2c31ef4dad5b396e65d9f397fb028f74abc5602052604090205460ff16156120f2565b600191925001541633141582806120ea565b604051600162a6d88760e01b03198152600490fd5b6005915061216c81612cc6565b1415836120c3565b3461037e57600036600319011261037e5761218d612cff565b612195613d11565b60ff19600154166001557f5db9ee0a495bf2e6ff9c91a7834c1ba4fdd244a5e8aa4e537bd38aeae4b073aa6020604051338152a1005b3461037e57604036600319011261037e576121e4612cb0565b336001600160a01b038216036122005761001b90600435612f5b565b60405163334bd91960e11b8152600490fd5b3461037e57604036600319011261037e5760043561222e612ce6565b3360009081527f824854fce2b26a685510a23e94ce095a99e4d883af92f3bad8a69b2ed000be4160209081526040909120549091907f16ceee8289685dd2a02b9c8ae81d2df373176ce53519e6284e2a2950d6546ffa9060ff161561242d57506122966130f7565b8260005260038252604060002090600760ff6006840154166122b781612cc6565b03610483577fe4869990df273a675df63cd0acf961e8cac9e8c47748a9d71c02c21e510e850c928160409381612416575b50156124085784600052600381526000857fb95bf48b1faeba00e56c6b81df0ae8e0d8f9c79da9364726f8dcc38687927aa2858084206003810161238e81549260048101908482549460018060a01b03938b8560028601541691866001870154169d8e94555560068401600660ff1982541617905580156000146123d95750600080806123819481945af161237b613386565b506133b6565b836123b6575b5416613997565b61239786613997565b825191825286820152a35b825191151582523390820152a26001600055005b6123d460008080808887600d54165af16123ce613386565b506133fa565b612387565b916123e49183613550565b84806123f2575b5050612387565b6124019184600d541690613550565b8e846123eb565b6124118561358e565b6123a2565b600101546001600160a01b031615159050866122e8565b6044906040519063e2517d3f60e01b82523360048301526024820152fd5b3461037e57604036600319011261037e5761001b60043561246a612cb0565b90806000526002602052612485600160406000200154612d5b565b612e34565b3461037e57604036600319011261037e576124a3612c9a565b60243590600482101561037e5760207f506ec58ef84fdef2d0f37be02d5a6bfce019136479212ed8425b4d4910fcb5de916124dc612cff565b6001600160a01b03166000818152600483526040902090939060070161250182612cf5565b60ff1981541660ff83161790556040519061251b81612cf5565b8152a2005b3461037e57602036600319011261037e5760043560005260036020526040600020600160a01b60019003808254169181600182015416916002820154166003820154600483015460058401546006850154600786015490600887015492600988015494600a89015496600b8a015498600c8b01549a600d01549b604051809e81526020015260408d015260608c015260808b015260a08a015260ff81166125c681612cc6565b60c08a01528060081c60ff166125db81612cc6565b60e08a01528060101c60ff1615156101008a01528060181c60ff1615156101208a015260201c60ff1615156101408901526101608801526101808701526101a08601526101c08501526101e084015261020083015261022082015261024090f35b3461037e57602036600319011261037e5760043560005260026020526020600160406000200154604051908152f35b3461037e57602036600319011261037e57612684612c9a565b5061268d612cff565b60405162461bcd60e51b815260206004820152603860248201527f52454d4f5645443a2055736520726573637565537475636b546f6b656e73282960448201527f202d2070726f7465637473207573657220657363726f777300000000000000006064820152608490fd5b3461037e57602036600319011261037e576004356127146130f7565b61271c6130d9565b600081815260036020526040902080546001600160a01b039081169182156127e1576006810192600160ff85541661275381612cc6565b0361048357600182019283541661141457331461130d57600c8101544210156127cf57600561278491015433613696565b336001600160601b0360a01b825416179055600260ff1982541617905533907f0b32da9354607796544422f364ca1aec8a7b6e85fdb196e204bf0ed62cb620ae600080a36001600055005b604051631390df2960e01b8152600490fd5b60405163cf897cfb60e01b8152600490fd5b3461037e5760208060031936011261037e5761280d612c9a565b612815612cff565b61281d613d11565b6001600160a01b0390811680156107205760006001600c54905b818111156128fe5750506040516370a0823160e01b8152306004820152908482602481865afa80156128f2576000906128c3575b6128759250612fe5565b91821561288b5761001b9350600d541690613550565b60405162461bcd60e51b815260048101859052601060248201526f4e6f2065786365737320746f6b656e7360801b6044820152606490fd5b508482813d83116128eb575b6128d98183613080565b8101031261037e57612875915161286b565b503d6128cf565b6040513d6000823e3d90fd5b8060005260038087526040600020908587600284015416148061299c575b80612981575b80612966575b61293d575b505061293890612ff2565b612837565b93612958826004612938959761295e95015491015490613001565b90613001565b92908761292d565b50600960ff60068401541661297a81612cc6565b1415612928565b50600860ff60068401541661299581612cc6565b1415612922565b50600660ff81840154166129af81612cc6565b141561291c565b3461037e5760a036600319011261037e57600435600481101561037e576129db612cff565b6003604051916129ea8361300e565b60243583526020830160443581526040840190606435825260608501926084358452612a1581612cf5565b600052600960205260406000209451855551600185015551600284015551910155600080f35b3461037e57600036600319011261037e57612a54612cff565b612a5c613d11565b60006001600c54905b81811115612b1057612a778347612fe5565b8015612ad957600d546000918291829182916001600160a01b03165af1612a9c613386565b5015612aa457005b60405162461bcd60e51b815260206004820152600d60248201526c14995cd8dd594819985a5b1959609a1b6044820152606490fd5b60405162461bcd60e51b815260206004820152600f60248201526e4e6f206578636573732066756e647360881b6044820152606490fd5b8060005260038060205260406000209060018060a01b036002830154161580612bae575b80612b93575b80612b78575b612b55575b5050612b5090612ff2565b612a65565b93612958826004612b509597612b7095015491015490613001565b929084612b45565b50600960ff600684015416612b8c81612cc6565b1415612b40565b50600860ff600684015416612ba781612cc6565b1415612b3a565b50600660ff8184015416612bc181612cc6565b1415612b34565b3461037e57600036600319011261037e5760206040517f68e79a7bf1e0bc45d0a330c573bc367f9cf464fd326078812f301165fbda4ef18152f35b3461037e57604036600319011261037e57600435600a81101561037e57612c28612cff565b612c3181612cc6565b600052600a602052602435604060002055600080f35b3461037e57602036600319011261037e576004359063ffffffff60e01b821680920361037e57602091637965db0b60e01b8114908115612c89575b5015158152f35b6301ffc9a760e01b14905083612c82565b600435906001600160a01b038216820361037e57565b602435906001600160a01b038216820361037e57565b600a1115612cd057565b634e487b7160e01b600052602160045260246000fd5b60243590811515820361037e57565b60041115612cd057565b3360009081527fe5ebfa64fca8d502a8e50c1edffd2c31ef4dad5b396e65d9f397fb028f74abc560205260409020547fa49807205ce4d355092ef5a8a18f56e8913cf4a201fbe287825b095693c217759060ff161561242d5750565b80600052600260205260406000203360005260205260ff604060002054161561242d5750565b6001600160a01b031660008181527f4c5dd14cc36ac74df3f3035fa8453ebdbc47c888eb74d355b623b33097c65a4b60205260408120549091907f68e79a7bf1e0bc45d0a330c573bc367f9cf464fd326078812f301165fbda4ef19060ff16612e2f5780835260026020526040832082845260205260408320600160ff198254161790557f2f8788117e7eff1d82e926ec794901d17c78024a50270940304540a733656f0d339380a4600190565b505090565b906000918083526002602052604083209160018060a01b03169182845260205260ff60408420541615600014612e2f5780835260026020526040832082845260205260408320600160ff198254161790557f2f8788117e7eff1d82e926ec794901d17c78024a50270940304540a733656f0d339380a4600190565b6001600160a01b031660008181527f4c5dd14cc36ac74df3f3035fa8453ebdbc47c888eb74d355b623b33097c65a4b60205260408120549091907f68e79a7bf1e0bc45d0a330c573bc367f9cf464fd326078812f301165fbda4ef19060ff1615612e2f578083526002602052604083208284526020526040832060ff1981541690557ff6391f5c32d9c69d2a47ea670b442974b53935d1edc7fd64eb21e047a839171b339380a4600190565b906000918083526002602052604083209160018060a01b03169182845260205260ff604084205416600014612e2f578083526002602052604083208284526020526040832060ff1981541690557ff6391f5c32d9c69d2a47ea670b442974b53935d1edc7fd64eb21e047a839171b339380a4600190565b8181029291811591840414171561114d57565b9190820391821161114d57565b600019811461114d5760010190565b9190820180921161114d57565b6080810190811067ffffffffffffffff82111761116357604052565b610120810190811067ffffffffffffffff82111761116357604052565b610240810190811067ffffffffffffffff82111761116357604052565b6040810190811067ffffffffffffffff82111761116357604052565b90601f8019910116810190811067ffffffffffffffff82111761116357604052565b906130ac81612cc6565b60ff80198354169116179055565b6040919493926060820195825260208201526130d583612cc6565b0152565b60ff600154166130e557565b60405163d93c066560e01b8152600490fd5b600260005414613108576002600055565b604051633ee5aeb560e01b8152600490fd5b906000602091828151910182855af1156128f2576000513d61316d57506001600160a01b0381163b155b61314b5750565b604051635274afe760e01b81526001600160a01b039091166004820152602490fd5b60011415613144565b67ffffffffffffffff811161116357601f01601f191660200190565b92919261319e82613176565b916131ac6040519384613080565b82948184528183011161037e578281602093846000960137010152565b81519190604183036131fa576131f392506020820151906060604084015193015160001a90613205565b9192909190565b505060009160029190565b91907f7fffffffffffffffffffffffffffffff5d576e7357a4501ddfe92f46681b20a0841161328957926020929160ff608095604051948552168484015260408301526060820152600092839182805260015afa1561327d5780516001600160a01b0381161561327457918190565b50809160019190565b604051903d90823e3d90fd5b50505060009160039190565b61329e81612cf5565b806132a7575050565b6132b081612cf5565b600181036132ca5760405163f645eedf60e01b8152600490fd5b6132d381612cf5565b600281036132f45760405163fce698f760e01b815260048101839052602490fd5b80613300600392612cf5565b146133085750565b602490604051906335e2f38360e21b82526004820152fd5b8060005260036020526040600020600681015460ff8160181c1615610a435760ff1661334b81612cc6565b60048114159081613371575b5061048357600b0154421061214a5761336f9061343c565b565b6005915061337e81612cc6565b141538613357565b3d156133b1573d9061339782613176565b916133a56040519384613080565b82523d6000602084013e565b606090565b156133bd57565b60405162461bcd60e51b815260206004820152601560248201527414185e595c881d1c985b9cd9995c8819985a5b1959605a1b6044820152606490fd5b1561340157565b60405162461bcd60e51b8152602060048201526013602482015272119959481d1c985b9cd9995c8819985a5b1959606a1b6044820152606490fd5b60009080825260036020526040822060068101805460ff8160181c1615610a435760038301918254938492600482019188835494600160a01b6001900393828560028601541696866001870154169d8e9b555560ff191660061790558315600014976040976134ed957fb95bf48b1faeba00e56c6b81df0ae8e0d8f9c79da9364726f8dcc38687927aa29a61352057508280806134df9481945af161237b613386565b84613503575b505416613997565b6134f686613997565b82519182526020820152a3565b80808061351a938887600d54165af16123ce613386565b386134e5565b92509061352d9183613550565b848061353a575050612387565b6135499184600d541690613550565b38846123eb565b60405163a9059cbb60e01b60208201526001600160a01b03909216602483015260448083019390935291815261336f916135898261300e565b61311a565b6000908082526003602052604082208260038201805460066135b66004860192835490613001565b600286015486549890945591849055909301805460ff191660081790556001600160a01b039485169485911680613660575081808481935af16135f7613386565b501561362b5760207fa518f3c62f75851a21351fe44dbc9092bd179acc1461cb6bb1a10243ff55c433915b604051908152a3565b60405162461bcd60e51b815260206004820152600d60248201526c1499599d5b990819985a5b1959609a1b6044820152606490fd5b60209250837fa518f3c62f75851a21351fe44dbc9092bd179acc1461cb6bb1a10243ff55c433949261369192613550565b613622565b6001600160a01b031660008181526004602081905260408083206007810154919695939091600881901c60ff166139875760058301805462015180810180911161396557421015613978575b5060068301805462093a808101809111613965579160ff918a9493421015613957575b501661371081612cf5565b8152600960205220918651966137258861300e565b8354885260018401549360208901948552600360028201549182848c0152015460608a015285116138c8576003830192835498613762878b613001565b905110613835578201958654946137798787613001565b90511061379d5750505061379283613799959697613001565b9055613001565b9055565b61383193507f74867b7aa517ebee563b6c06d367476d8bfe46339d59015b0b075bee2b478dee8251806137f48160609060208152600f60208201526e6d61785765656b6c79566f6c756d6560881b60408201520190565b0390a251918291631fa036e760e01b8352820160609060208152600f60208201526e6d61785765656b6c79566f6c756d6560881b60408201520190565b0390fd5b6138318383897f74867b7aa517ebee563b6c06d367476d8bfe46339d59015b0b075bee2b478dee82518061388c8160609060208152600e60208201526d6d61784461696c79566f6c756d6560901b60408201520190565b0390a251918291631fa036e760e01b8352820160609060208152600e60208201526d6d61784461696c79566f6c756d6560901b60408201520190565b6138319250857f74867b7aa517ebee563b6c06d367476d8bfe46339d59015b0b075bee2b478dee82518061391d8160609060208152600c60208201526b6d6178547261646553697a6560a01b60408201520190565b0390a251918291631fa036e760e01b8352820160609060208152600c60208201526b6d6178547261646553697a6560a01b60408201520190565b838787015542905538613705565b634e487b7160e01b845260118652602484fd5b826003850155429055386136e2565b875163473250af60e01b81528490fd5b6001600160a01b0316600081815260046020526040902080546139b990612ff2565b815560ff600760018301926139ce8454612ff2565b938490550180548281169360328110613a43575050600382198254161781555b5416906139fa81612cf5565b613a0382612cf5565b8103613a0d575050565b60207f506ec58ef84fdef2d0f37be02d5a6bfce019136479212ed8425b4d4910fcb5de9160405190613a3e81612cf5565b8152a2565b60158110613a5c575050600282198254161781556139ee565b60061115613a6b575b506139ee565b821916600117815538613a65565b6001600160a01b031660009081526004602052604081208054909190613a9e90612ff2565b908183556002830190613ab18254612ff2565b80925560058311613ac3575b50505050565b606482029180830460641490151715613b99578215613b855750906032910460148111613b0f575b11613af9575b808080613abd565b600701805461ff00191661010017905538613af1565b60078301805460ff8116613b2281612cf5565b60038103613b3c575050805460ff19166002179055613aeb565b613b4581612cf5565b60028103613b5f575050805460ff19166001179055613aeb565b80613b6b600192612cf5565b14613b78575b5050613aeb565b60ff191690553880613b71565b634e487b7160e01b81526012600452602490fd5b634e487b7160e01b81526011600452602490fd5b906000918252602060038152604092838120600681015460ff811690613bd282612cc6565b60068214613ced5760181c60ff1615613cb357613bee81612cc6565b60048114159081613c9e575b50613c6e57600b01544210613c3657506f526561647920746f2072656c6561736560801b6001935191613c2c83613064565b6010835282015290565b7f486f6c6420706572696f64206e6f7420656c617073656400000000000000000090935191613c6483613064565b6017835282015290565b507314185e5b595b9d081b9bdd081d995c9a599a595960621b90935191613c9483613064565b6014835282015290565b60059150613cab81612cc6565b141538613bfa565b50507f4f7261636c6520766572696669636174696f6e2072657175697265640000000090935191613ce383613064565b601c835282015290565b5050506f105b1c9958591e481c995b19585cd95960821b90935191613c2c83613064565b60ff6001541615613d1e57565b604051638dfc202b60e01b8152600490fdfea264697066735822122067b8122365dd35c23a7f24aef852e6fe561c87276e5a8adf018e9421b721c32664736f6c634300081400332f8788117e7eff1d82e926ec794901d17c78024a50270940304540a733656f0d",
  "linkReferences": {},
  "deployedLinkReferences": {}
}