{
  "_format": "hh-sol-artifact-1",
  "contractName": "BillHavenEscrowV4",
  "sourceName": "contracts/BillHavenEscrowV4.sol",
  "abi": [
    {
      "inputs": [
        {
          "internalType": "address",
          "name": "_feeWallet",
          "type": "address"
        }
      ],
      "stateMutability": "nonpayable",
      "type": "constructor"
    },
    {
      "inputs": [],
      "name": "AccessControlBadConfirmation",
      "type": "error"
    },
    {
      "inputs": [
        {
          "internalType": "address",
          "name": "account",
          "type": "address"
        },
        {
          "internalType": "bytes32",
          "name": "neededRole",
          "type": "bytes32"
        }
      ],
      "name": "AccessControlUnauthorizedAccount",
      "type": "error"
    },
    {
      "inputs": [],
      "name": "BillAlreadyClaimed",
      "type": "error"
    },
    {
      "inputs": [],
      "name": "BillExpired",
      "type": "error"
    },
    {
      "inputs": [],
      "name": "BillNotClaimed",
      "type": "error"
    },
    {
      "inputs": [],
      "name": "BillNotExpired",
      "type": "error"
    },
    {
      "inputs": [],
      "name": "BillNotFound",
      "type": "error"
    },
    {
      "inputs": [],
      "name": "ECDSAInvalidSignature",
      "type": "error"
    },
    {
      "inputs": [
        {
          "internalType": "uint256",
          "name": "length",
          "type": "uint256"
        }
      ],
      "name": "ECDSAInvalidSignatureLength",
      "type": "error"
    },
    {
      "inputs": [
        {
          "internalType": "bytes32",
          "name": "s",
          "type": "bytes32"
        }
      ],
      "name": "ECDSAInvalidSignatureS",
      "type": "error"
    },
    {
      "inputs": [],
      "name": "EnforcedPause",
      "type": "error"
    },
    {
      "inputs": [],
      "name": "ExpectedPause",
      "type": "error"
    },
    {
      "inputs": [],
      "name": "HoldPeriodNotElapsed",
      "type": "error"
    },
    {
      "inputs": [],
      "name": "InvalidAddress",
      "type": "error"
    },
    {
      "inputs": [],
      "name": "InvalidAmount",
      "type": "error"
    },
    {
      "inputs": [],
      "name": "InvalidPaymentMethod",
      "type": "error"
    },
    {
      "inputs": [],
      "name": "InvalidSignature",
      "type": "error"
    },
    {
      "inputs": [],
      "name": "InvalidState",
      "type": "error"
    },
    {
      "inputs": [],
      "name": "NotAuthorized",
      "type": "error"
    },
    {
      "inputs": [],
      "name": "NotBillMaker",
      "type": "error"
    },
    {
      "inputs": [],
      "name": "NotBillPayer",
      "type": "error"
    },
    {
      "inputs": [],
      "name": "PaymentMethodBlocked",
      "type": "error"
    },
    {
      "inputs": [],
      "name": "PaymentNotOracleVerified",
      "type": "error"
    },
    {
      "inputs": [],
      "name": "PaymentReferenceUsed",
      "type": "error"
    },
    {
      "inputs": [],
      "name": "ReentrancyGuardReentrantCall",
      "type": "error"
    },
    {
      "inputs": [
        {
          "internalType": "address",
          "name": "token",
          "type": "address"
        }
      ],
      "name": "SafeERC20FailedOperation",
      "type": "error"
    },
    {
      "inputs": [],
      "name": "SecurityDelayRequired",
      "type": "error"
    },
    {
      "inputs": [],
      "name": "SignatureAlreadyUsed",
      "type": "error"
    },
    {
      "inputs": [],
      "name": "TokenNotSupported",
      "type": "error"
    },
    {
      "inputs": [],
      "name": "UserBlacklisted",
      "type": "error"
    },
    {
      "inputs": [
        {
          "internalType": "string",
          "name": "limitType",
          "type": "string"
        }
      ],
      "name": "VelocityLimitExceededError",
      "type": "error"
    },
    {
      "anonymous": false,
      "inputs": [
        {
          "indexed": true,
          "internalType": "uint256",
          "name": "billId",
          "type": "uint256"
        },
        {
          "indexed": true,
          "internalType": "address",
          "name": "billMaker",
          "type": "address"
        }
      ],
      "name": "BillCancelled",
      "type": "event"
    },
    {
      "anonymous": false,
      "inputs": [
        {
          "indexed": true,
          "internalType": "uint256",
          "name": "billId",
          "type": "uint256"
        },
        {
          "indexed": true,
          "internalType": "address",
          "name": "payer",
          "type": "address"
        }
      ],
      "name": "BillClaimed",
      "type": "event"
    },
    {
      "anonymous": false,
      "inputs": [
        {
          "indexed": true,
          "internalType": "uint256",
          "name": "billId",
          "type": "uint256"
        },
        {
          "indexed": true,
          "internalType": "address",
          "name": "billMaker",
          "type": "address"
        },
        {
          "indexed": true,
          "internalType": "address",
          "name": "token",
          "type": "address"
        },
        {
          "indexed": false,
          "internalType": "uint256",
          "name": "amount",
          "type": "uint256"
        },
        {
          "indexed": false,
          "internalType": "uint256",
          "name": "fee",
          "type": "uint256"
        },
        {
          "indexed": false,
          "internalType": "enum BillHavenEscrowV4.PaymentMethod",
          "name": "paymentMethod",
          "type": "uint8"
        }
      ],
      "name": "BillCreated",
      "type": "event"
    },
    {
      "anonymous": false,
      "inputs": [
        {
          "indexed": true,
          "internalType": "uint256",
          "name": "billId",
          "type": "uint256"
        },
        {
          "indexed": true,
          "internalType": "address",
          "name": "by",
          "type": "address"
        }
      ],
      "name": "BillDisputed",
      "type": "event"
    },
    {
      "anonymous": false,
      "inputs": [
        {
          "indexed": true,
          "internalType": "uint256",
          "name": "billId",
          "type": "uint256"
        },
        {
          "indexed": false,
          "internalType": "uint256",
          "name": "totalAmount",
          "type": "uint256"
        }
      ],
      "name": "BillFunded",
      "type": "event"
    },
    {
      "anonymous": false,
      "inputs": [
        {
          "indexed": true,
          "internalType": "uint256",
          "name": "billId",
          "type": "uint256"
        },
        {
          "indexed": true,
          "internalType": "address",
          "name": "billMaker",
          "type": "address"
        },
        {
          "indexed": false,
          "internalType": "uint256",
          "name": "amount",
          "type": "uint256"
        }
      ],
      "name": "BillRefunded",
      "type": "event"
    },
    {
      "anonymous": false,
      "inputs": [
        {
          "indexed": true,
          "internalType": "uint256",
          "name": "billId",
          "type": "uint256"
        },
        {
          "indexed": true,
          "internalType": "address",
          "name": "payer",
          "type": "address"
        },
        {
          "indexed": false,
          "internalType": "uint256",
          "name": "amount",
          "type": "uint256"
        },
        {
          "indexed": false,
          "internalType": "uint256",
          "name": "fee",
          "type": "uint256"
        }
      ],
      "name": "CryptoReleased",
      "type": "event"
    },
    {
      "anonymous": false,
      "inputs": [
        {
          "indexed": true,
          "internalType": "uint256",
          "name": "billId",
          "type": "uint256"
        },
        {
          "indexed": false,
          "internalType": "bool",
          "name": "releasedToPayer",
          "type": "bool"
        },
        {
          "indexed": false,
          "internalType": "address",
          "name": "resolver",
          "type": "address"
        }
      ],
      "name": "DisputeResolved",
      "type": "event"
    },
    {
      "anonymous": false,
      "inputs": [
        {
          "indexed": true,
          "internalType": "uint256",
          "name": "billId",
          "type": "uint256"
        },
        {
          "indexed": false,
          "internalType": "uint256",
          "name": "releaseTime",
          "type": "uint256"
        }
      ],
      "name": "HoldPeriodComplete",
      "type": "event"
    },
    {
      "anonymous": false,
      "inputs": [
        {
          "indexed": true,
          "internalType": "address",
          "name": "oracle",
          "type": "address"
        }
      ],
      "name": "OracleAdded",
      "type": "event"
    },
    {
      "anonymous": false,
      "inputs": [
        {
          "indexed": true,
          "internalType": "address",
          "name": "oracle",
          "type": "address"
        }
      ],
      "name": "OracleRemoved",
      "type": "event"
    },
    {
      "anonymous": false,
      "inputs": [
        {
          "indexed": false,
          "internalType": "address",
          "name": "account",
          "type": "address"
        }
      ],
      "name": "Paused",
      "type": "event"
    },
    {
      "anonymous": false,
      "inputs": [
        {
          "indexed": true,
          "internalType": "uint256",
          "name": "billId",
          "type": "uint256"
        },
        {
          "indexed": true,
          "internalType": "address",
          "name": "payer",
          "type": "address"
        }
      ],
      "name": "PayerDisputeRaised",
      "type": "event"
    },
    {
      "anonymous": false,
      "inputs": [
        {
          "indexed": true,
          "internalType": "uint256",
          "name": "billId",
          "type": "uint256"
        },
        {
          "indexed": false,
          "internalType": "bytes32",
          "name": "paymentReference",
          "type": "bytes32"
        }
      ],
      "name": "PaymentMarkedSent",
      "type": "event"
    },
    {
      "anonymous": false,
      "inputs": [
        {
          "indexed": true,
          "internalType": "uint256",
          "name": "billId",
          "type": "uint256"
        },
        {
          "indexed": false,
          "internalType": "address",
          "name": "verifiedBy",
          "type": "address"
        },
        {
          "indexed": false,
          "internalType": "bool",
          "name": "isOracle",
          "type": "bool"
        }
      ],
      "name": "PaymentVerified",
      "type": "event"
    },
    {
      "anonymous": false,
      "inputs": [
        {
          "indexed": true,
          "internalType": "bytes32",
          "name": "role",
          "type": "bytes32"
        },
        {
          "indexed": true,
          "internalType": "bytes32",
          "name": "previousAdminRole",
          "type": "bytes32"
        },
        {
          "indexed": true,
          "internalType": "bytes32",
          "name": "newAdminRole",
          "type": "bytes32"
        }
      ],
      "name": "RoleAdminChanged",
      "type": "event"
    },
    {
      "anonymous": false,
      "inputs": [
        {
          "indexed": true,
          "internalType": "bytes32",
          "name": "role",
          "type": "bytes32"
        },
        {
          "indexed": true,
          "internalType": "address",
          "name": "account",
          "type": "address"
        },
        {
          "indexed": true,
          "internalType": "address",
          "name": "sender",
          "type": "address"
        }
      ],
      "name": "RoleGranted",
      "type": "event"
    },
    {
      "anonymous": false,
      "inputs": [
        {
          "indexed": true,
          "internalType": "bytes32",
          "name": "role",
          "type": "bytes32"
        },
        {
          "indexed": true,
          "internalType": "address",
          "name": "account",
          "type": "address"
        },
        {
          "indexed": true,
          "internalType": "address",
          "name": "sender",
          "type": "address"
        }
      ],
      "name": "RoleRevoked",
      "type": "event"
    },
    {
      "anonymous": false,
      "inputs": [
        {
          "indexed": false,
          "internalType": "address",
          "name": "account",
          "type": "address"
        }
      ],
      "name": "Unpaused",
      "type": "event"
    },
    {
      "anonymous": false,
      "inputs": [
        {
          "indexed": true,
          "internalType": "address",
          "name": "user",
          "type": "address"
        },
        {
          "indexed": false,
          "internalType": "enum BillHavenEscrowV4.TrustLevel",
          "name": "newLevel",
          "type": "uint8"
        }
      ],
      "name": "UserUpgraded",
      "type": "event"
    },
    {
      "anonymous": false,
      "inputs": [
        {
          "indexed": true,
          "internalType": "address",
          "name": "user",
          "type": "address"
        },
        {
          "indexed": false,
          "internalType": "string",
          "name": "limitType",
          "type": "string"
        }
      ],
      "name": "VelocityLimitExceeded",
      "type": "event"
    },
    {
      "inputs": [],
      "name": "ADMIN_ROLE",
      "outputs": [
        {
          "internalType": "bytes32",
          "name": "",
          "type": "bytes32"
        }
      ],
      "stateMutability": "view",
      "type": "function"
    },
    {
      "inputs": [],
      "name": "ARBITRATOR_ROLE",
      "outputs": [
        {
          "internalType": "bytes32",
          "name": "",
          "type": "bytes32"
        }
      ],
      "stateMutability": "view",
      "type": "function"
    },
    {
      "inputs": [],
      "name": "BASIS_POINTS",
      "outputs": [
        {
          "internalType": "uint256",
          "name": "",
          "type": "uint256"
        }
      ],
      "stateMutability": "view",
      "type": "function"
    },
    {
      "inputs": [],
      "name": "DEFAULT_ADMIN_ROLE",
      "outputs": [
        {
          "internalType": "bytes32",
          "name": "",
          "type": "bytes32"
        }
      ],
      "stateMutability": "view",
      "type": "function"
    },
    {
      "inputs": [],
      "name": "MAX_FEE",
      "outputs": [
        {
          "internalType": "uint256",
          "name": "",
          "type": "uint256"
        }
      ],
      "stateMutability": "view",
      "type": "function"
    },
    {
      "inputs": [],
      "name": "MIN_SECURITY_DELAY",
      "outputs": [
        {
          "internalType": "uint256",
          "name": "",
          "type": "uint256"
        }
      ],
      "stateMutability": "view",
      "type": "function"
    },
    {
      "inputs": [],
      "name": "ORACLE_ROLE",
      "outputs": [
        {
          "internalType": "bytes32",
          "name": "",
          "type": "bytes32"
        }
      ],
      "stateMutability": "view",
      "type": "function"
    },
    {
      "inputs": [
        {
          "internalType": "address",
          "name": "_oracle",
          "type": "address"
        }
      ],
      "name": "addOracle",
      "outputs": [],
      "stateMutability": "nonpayable",
      "type": "function"
    },
    {
      "inputs": [
        {
          "internalType": "address",
          "name": "_token",
          "type": "address"
        }
      ],
      "name": "addSupportedToken",
      "outputs": [],
      "stateMutability": "nonpayable",
      "type": "function"
    },
    {
      "inputs": [
        {
          "internalType": "uint256",
          "name": "_billId",
          "type": "uint256"
        }
      ],
      "name": "autoRelease",
      "outputs": [],
      "stateMutability": "nonpayable",
      "type": "function"
    },
    {
      "inputs": [
        {
          "internalType": "uint256",
          "name": "_billId",
          "type": "uint256"
        }
      ],
      "name": "autoReleaseAfterHoldPeriod",
      "outputs": [],
      "stateMutability": "nonpayable",
      "type": "function"
    },
    {
      "inputs": [],
      "name": "billCounter",
      "outputs": [
        {
          "internalType": "uint256",
          "name": "",
          "type": "uint256"
        }
      ],
      "stateMutability": "view",
      "type": "function"
    },
    {
      "inputs": [
        {
          "internalType": "uint256",
          "name": "",
          "type": "uint256"
        }
      ],
      "name": "bills",
      "outputs": [
        {
          "internalType": "address",
          "name": "billMaker",
          "type": "address"
        },
        {
          "internalType": "address",
          "name": "payer",
          "type": "address"
        },
        {
          "internalType": "address",
          "name": "token",
          "type": "address"
        },
        {
          "internalType": "uint256",
          "name": "amount",
          "type": "uint256"
        },
        {
          "internalType": "uint256",
          "name": "platformFee",
          "type": "uint256"
        },
        {
          "internalType": "uint256",
          "name": "fiatAmount",
          "type": "uint256"
        },
        {
          "internalType": "enum BillHavenEscrowV4.ConfirmationStatus",
          "name": "status",
          "type": "uint8"
        },
        {
          "internalType": "enum BillHavenEscrowV4.PaymentMethod",
          "name": "paymentMethod",
          "type": "uint8"
        },
        {
          "internalType": "bool",
          "name": "payerConfirmed",
          "type": "bool"
        },
        {
          "internalType": "bool",
          "name": "oracleVerified",
          "type": "bool"
        },
        {
          "internalType": "bool",
          "name": "makerConfirmed",
          "type": "bool"
        },
        {
          "internalType": "uint256",
          "name": "createdAt",
          "type": "uint256"
        },
        {
          "internalType": "uint256",
          "name": "fundedAt",
          "type": "uint256"
        },
        {
          "internalType": "uint256",
          "name": "paymentSentAt",
          "type": "uint256"
        },
        {
          "internalType": "uint256",
          "name": "verifiedAt",
          "type": "uint256"
        },
        {
          "internalType": "uint256",
          "name": "releaseTime",
          "type": "uint256"
        },
        {
          "internalType": "uint256",
          "name": "expiresAt",
          "type": "uint256"
        },
        {
          "internalType": "bytes32",
          "name": "paymentReference",
          "type": "bytes32"
        }
      ],
      "stateMutability": "view",
      "type": "function"
    },
    {
      "inputs": [
        {
          "internalType": "enum BillHavenEscrowV4.PaymentMethod",
          "name": "",
          "type": "uint8"
        }
      ],
      "name": "blockedMethods",
      "outputs": [
        {
          "internalType": "bool",
          "name": "",
          "type": "bool"
        }
      ],
      "stateMutability": "view",
      "type": "function"
    },
    {
      "inputs": [
        {
          "internalType": "uint256",
          "name": "_fiatAmount",
          "type": "uint256"
        },
        {
          "internalType": "bool",
          "name": "_hasAffiliateDiscount",
          "type": "bool"
        }
      ],
      "name": "calculateTieredFee",
      "outputs": [
        {
          "internalType": "uint256",
          "name": "feeInBasisPoints",
          "type": "uint256"
        },
        {
          "internalType": "uint256",
          "name": "feeAmount",
          "type": "uint256"
        }
      ],
      "stateMutability": "pure",
      "type": "function"
    },
    {
      "inputs": [
        {
          "internalType": "uint256",
          "name": "_billId",
          "type": "uint256"
        }
      ],
      "name": "canRelease",
      "outputs": [
        {
          "internalType": "bool",
          "name": "",
          "type": "bool"
        },
        {
          "internalType": "string",
          "name": "",
          "type": "string"
        }
      ],
      "stateMutability": "view",
      "type": "function"
    },
    {
      "inputs": [
        {
          "internalType": "uint256",
          "name": "_billId",
          "type": "uint256"
        }
      ],
      "name": "cancelBill",
      "outputs": [],
      "stateMutability": "nonpayable",
      "type": "function"
    },
    {
      "inputs": [
        {
          "internalType": "uint256",
          "name": "_billId",
          "type": "uint256"
        }
      ],
      "name": "claimBill",
      "outputs": [],
      "stateMutability": "nonpayable",
      "type": "function"
    },
    {
      "inputs": [
        {
          "internalType": "uint256",
          "name": "_billId",
          "type": "uint256"
        },
        {
          "internalType": "bytes32",
          "name": "_paymentReference",
          "type": "bytes32"
        }
      ],
      "name": "confirmPaymentSent",
      "outputs": [],
      "stateMutability": "nonpayable",
      "type": "function"
    },
    {
      "inputs": [
        {
          "internalType": "uint256",
          "name": "_fiatAmount",
          "type": "uint256"
        },
        {
          "internalType": "enum BillHavenEscrowV4.PaymentMethod",
          "name": "_paymentMethod",
          "type": "uint8"
        }
      ],
      "name": "createBill",
      "outputs": [
        {
          "internalType": "uint256",
          "name": "",
          "type": "uint256"
        }
      ],
      "stateMutability": "payable",
      "type": "function"
    },
    {
      "inputs": [
        {
          "internalType": "address",
          "name": "_token",
          "type": "address"
        },
        {
          "internalType": "uint256",
          "name": "_amount",
          "type": "uint256"
        },
        {
          "internalType": "uint256",
          "name": "_fiatAmount",
          "type": "uint256"
        },
        {
          "internalType": "enum BillHavenEscrowV4.PaymentMethod",
          "name": "_paymentMethod",
          "type": "uint8"
        }
      ],
      "name": "createBillWithToken",
      "outputs": [
        {
          "internalType": "uint256",
          "name": "",
          "type": "uint256"
        }
      ],
      "stateMutability": "nonpayable",
      "type": "function"
    },
    {
      "inputs": [],
      "name": "emergencyWithdraw",
      "outputs": [],
      "stateMutability": "nonpayable",
      "type": "function"
    },
    {
      "inputs": [
        {
          "internalType": "address",
          "name": "_token",
          "type": "address"
        }
      ],
      "name": "emergencyWithdrawToken",
      "outputs": [],
      "stateMutability": "nonpayable",
      "type": "function"
    },
    {
      "inputs": [],
      "name": "feeWallet",
      "outputs": [
        {
          "internalType": "address",
          "name": "",
          "type": "address"
        }
      ],
      "stateMutability": "view",
      "type": "function"
    },
    {
      "inputs": [
        {
          "internalType": "uint256",
          "name": "_billId",
          "type": "uint256"
        }
      ],
      "name": "getBill",
      "outputs": [
        {
          "components": [
            {
              "internalType": "address",
              "name": "billMaker",
              "type": "address"
            },
            {
              "internalType": "address",
              "name": "payer",
              "type": "address"
            },
            {
              "internalType": "address",
              "name": "token",
              "type": "address"
            },
            {
              "internalType": "uint256",
              "name": "amount",
              "type": "uint256"
            },
            {
              "internalType": "uint256",
              "name": "platformFee",
              "type": "uint256"
            },
            {
              "internalType": "uint256",
              "name": "fiatAmount",
              "type": "uint256"
            },
            {
              "internalType": "enum BillHavenEscrowV4.ConfirmationStatus",
              "name": "status",
              "type": "uint8"
            },
            {
              "internalType": "enum BillHavenEscrowV4.PaymentMethod",
              "name": "paymentMethod",
              "type": "uint8"
            },
            {
              "internalType": "bool",
              "name": "payerConfirmed",
              "type": "bool"
            },
            {
              "internalType": "bool",
              "name": "oracleVerified",
              "type": "bool"
            },
            {
              "internalType": "bool",
              "name": "makerConfirmed",
              "type": "bool"
            },
            {
              "internalType": "uint256",
              "name": "createdAt",
              "type": "uint256"
            },
            {
              "internalType": "uint256",
              "name": "fundedAt",
              "type": "uint256"
            },
            {
              "internalType": "uint256",
              "name": "paymentSentAt",
              "type": "uint256"
            },
            {
              "internalType": "uint256",
              "name": "verifiedAt",
              "type": "uint256"
            },
            {
              "internalType": "uint256",
              "name": "releaseTime",
              "type": "uint256"
            },
            {
              "internalType": "uint256",
              "name": "expiresAt",
              "type": "uint256"
            },
            {
              "internalType": "bytes32",
              "name": "paymentReference",
              "type": "bytes32"
            }
          ],
          "internalType": "struct BillHavenEscrowV4.Bill",
          "name": "",
          "type": "tuple"
        }
      ],
      "stateMutability": "view",
      "type": "function"
    },
    {
      "inputs": [
        {
          "internalType": "enum BillHavenEscrowV4.PaymentMethod",
          "name": "_method",
          "type": "uint8"
        }
      ],
      "name": "getHoldPeriod",
      "outputs": [
        {
          "internalType": "uint256",
          "name": "",
          "type": "uint256"
        }
      ],
      "stateMutability": "view",
      "type": "function"
    },
    {
      "inputs": [],
      "name": "getMinSecurityDelay",
      "outputs": [
        {
          "internalType": "uint256",
          "name": "",
          "type": "uint256"
        }
      ],
      "stateMutability": "pure",
      "type": "function"
    },
    {
      "inputs": [
        {
          "internalType": "bytes32",
          "name": "role",
          "type": "bytes32"
        }
      ],
      "name": "getRoleAdmin",
      "outputs": [
        {
          "internalType": "bytes32",
          "name": "",
          "type": "bytes32"
        }
      ],
      "stateMutability": "view",
      "type": "function"
    },
    {
      "inputs": [
        {
          "internalType": "address",
          "name": "_user",
          "type": "address"
        }
      ],
      "name": "getUserLimits",
      "outputs": [
        {
          "components": [
            {
              "internalType": "uint256",
              "name": "maxDailyVolume",
              "type": "uint256"
            },
            {
              "internalType": "uint256",
              "name": "maxWeeklyVolume",
              "type": "uint256"
            },
            {
              "internalType": "uint256",
              "name": "maxTradeSize",
              "type": "uint256"
            },
            {
              "internalType": "uint256",
              "name": "maxDailyTrades",
              "type": "uint256"
            }
          ],
          "internalType": "struct BillHavenEscrowV4.VelocityLimits",
          "name": "",
          "type": "tuple"
        }
      ],
      "stateMutability": "view",
      "type": "function"
    },
    {
      "inputs": [
        {
          "internalType": "address",
          "name": "_user",
          "type": "address"
        }
      ],
      "name": "getUserStats",
      "outputs": [
        {
          "components": [
            {
              "internalType": "uint256",
              "name": "totalTrades",
              "type": "uint256"
            },
            {
              "internalType": "uint256",
              "name": "successfulTrades",
              "type": "uint256"
            },
            {
              "internalType": "uint256",
              "name": "disputedTrades",
              "type": "uint256"
            },
            {
              "internalType": "uint256",
              "name": "dailyVolume",
              "type": "uint256"
            },
            {
              "internalType": "uint256",
              "name": "weeklyVolume",
              "type": "uint256"
            },
            {
              "internalType": "uint256",
              "name": "lastTradeDate",
              "type": "uint256"
            },
            {
              "internalType": "uint256",
              "name": "lastWeekStart",
              "type": "uint256"
            },
            {
              "internalType": "enum BillHavenEscrowV4.TrustLevel",
              "name": "trustLevel",
              "type": "uint8"
            },
            {
              "internalType": "bool",
              "name": "isBlacklisted",
              "type": "bool"
            }
          ],
          "internalType": "struct BillHavenEscrowV4.UserStats",
          "name": "",
          "type": "tuple"
        }
      ],
      "stateMutability": "view",
      "type": "function"
    },
    {
      "inputs": [
        {
          "internalType": "bytes32",
          "name": "role",
          "type": "bytes32"
        },
        {
          "internalType": "address",
          "name": "account",
          "type": "address"
        }
      ],
      "name": "grantRole",
      "outputs": [],
      "stateMutability": "nonpayable",
      "type": "function"
    },
    {
      "inputs": [
        {
          "internalType": "bytes32",
          "name": "role",
          "type": "bytes32"
        },
        {
          "internalType": "address",
          "name": "account",
          "type": "address"
        }
      ],
      "name": "hasRole",
      "outputs": [
        {
          "internalType": "bool",
          "name": "",
          "type": "bool"
        }
      ],
      "stateMutability": "view",
      "type": "function"
    },
    {
      "inputs": [
        {
          "internalType": "enum BillHavenEscrowV4.PaymentMethod",
          "name": "",
          "type": "uint8"
        }
      ],
      "name": "holdPeriods",
      "outputs": [
        {
          "internalType": "uint256",
          "name": "",
          "type": "uint256"
        }
      ],
      "stateMutability": "view",
      "type": "function"
    },
    {
      "inputs": [
        {
          "internalType": "enum BillHavenEscrowV4.PaymentMethod",
          "name": "_method",
          "type": "uint8"
        }
      ],
      "name": "isMethodBlocked",
      "outputs": [
        {
          "internalType": "bool",
          "name": "",
          "type": "bool"
        }
      ],
      "stateMutability": "view",
      "type": "function"
    },
    {
      "inputs": [
        {
          "internalType": "uint256",
          "name": "_billId",
          "type": "uint256"
        }
      ],
      "name": "makerConfirmAndRelease",
      "outputs": [],
      "stateMutability": "view",
      "type": "function"
    },
    {
      "inputs": [
        {
          "internalType": "uint256",
          "name": "_billId",
          "type": "uint256"
        }
      ],
      "name": "makerConfirmPayment",
      "outputs": [],
      "stateMutability": "nonpayable",
      "type": "function"
    },
    {
      "inputs": [],
      "name": "minConfirmations",
      "outputs": [
        {
          "internalType": "uint256",
          "name": "",
          "type": "uint256"
        }
      ],
      "stateMutability": "view",
      "type": "function"
    },
    {
      "inputs": [],
      "name": "pause",
      "outputs": [],
      "stateMutability": "nonpayable",
      "type": "function"
    },
    {
      "inputs": [],
      "name": "paused",
      "outputs": [
        {
          "internalType": "bool",
          "name": "",
          "type": "bool"
        }
      ],
      "stateMutability": "view",
      "type": "function"
    },
    {
      "inputs": [
        {
          "internalType": "uint256",
          "name": "_billId",
          "type": "uint256"
        }
      ],
      "name": "payerDisputeBeforeRelease",
      "outputs": [],
      "stateMutability": "nonpayable",
      "type": "function"
    },
    {
      "inputs": [],
      "name": "platformFeePercent",
      "outputs": [
        {
          "internalType": "uint256",
          "name": "",
          "type": "uint256"
        }
      ],
      "stateMutability": "view",
      "type": "function"
    },
    {
      "inputs": [
        {
          "internalType": "uint256",
          "name": "_billId",
          "type": "uint256"
        }
      ],
      "name": "raiseDispute",
      "outputs": [],
      "stateMutability": "nonpayable",
      "type": "function"
    },
    {
      "inputs": [
        {
          "internalType": "uint256",
          "name": "_billId",
          "type": "uint256"
        }
      ],
      "name": "refundExpiredBill",
      "outputs": [],
      "stateMutability": "nonpayable",
      "type": "function"
    },
    {
      "inputs": [
        {
          "internalType": "uint256",
          "name": "_billId",
          "type": "uint256"
        }
      ],
      "name": "releaseFunds",
      "outputs": [],
      "stateMutability": "nonpayable",
      "type": "function"
    },
    {
      "inputs": [
        {
          "internalType": "address",
          "name": "_oracle",
          "type": "address"
        }
      ],
      "name": "removeOracle",
      "outputs": [],
      "stateMutability": "nonpayable",
      "type": "function"
    },
    {
      "inputs": [
        {
          "internalType": "address",
          "name": "_token",
          "type": "address"
        }
      ],
      "name": "removeSupportedToken",
      "outputs": [],
      "stateMutability": "nonpayable",
      "type": "function"
    },
    {
      "inputs": [
        {
          "internalType": "bytes32",
          "name": "role",
          "type": "bytes32"
        },
        {
          "internalType": "address",
          "name": "callerConfirmation",
          "type": "address"
        }
      ],
      "name": "renounceRole",
      "outputs": [],
      "stateMutability": "nonpayable",
      "type": "function"
    },
    {
      "inputs": [
        {
          "internalType": "uint256",
          "name": "_billId",
          "type": "uint256"
        },
        {
          "internalType": "bool",
          "name": "_releaseToPayer",
          "type": "bool"
        }
      ],
      "name": "resolveDispute",
      "outputs": [],
      "stateMutability": "nonpayable",
      "type": "function"
    },
    {
      "inputs": [
        {
          "internalType": "bytes32",
          "name": "role",
          "type": "bytes32"
        },
        {
          "internalType": "address",
          "name": "account",
          "type": "address"
        }
      ],
      "name": "revokeRole",
      "outputs": [],
      "stateMutability": "nonpayable",
      "type": "function"
    },
    {
      "inputs": [
        {
          "internalType": "enum BillHavenEscrowV4.PaymentMethod",
          "name": "_method",
          "type": "uint8"
        },
        {
          "internalType": "bool",
          "name": "_blocked",
          "type": "bool"
        }
      ],
      "name": "setMethodBlocked",
      "outputs": [],
      "stateMutability": "nonpayable",
      "type": "function"
    },
    {
      "inputs": [
        {
          "internalType": "address",
          "name": "_user",
          "type": "address"
        },
        {
          "internalType": "bool",
          "name": "_blacklisted",
          "type": "bool"
        }
      ],
      "name": "setUserBlacklist",
      "outputs": [],
      "stateMutability": "nonpayable",
      "type": "function"
    },
    {
      "inputs": [
        {
          "internalType": "address",
          "name": "_user",
          "type": "address"
        },
        {
          "internalType": "enum BillHavenEscrowV4.TrustLevel",
          "name": "_level",
          "type": "uint8"
        }
      ],
      "name": "setUserTrustLevel",
      "outputs": [],
      "stateMutability": "nonpayable",
      "type": "function"
    },
    {
      "inputs": [
        {
          "internalType": "address",
          "name": "",
          "type": "address"
        }
      ],
      "name": "supportedTokens",
      "outputs": [
        {
          "internalType": "bool",
          "name": "",
          "type": "bool"
        }
      ],
      "stateMutability": "view",
      "type": "function"
    },
    {
      "inputs": [
        {
          "internalType": "bytes4",
          "name": "interfaceId",
          "type": "bytes4"
        }
      ],
      "name": "supportsInterface",
      "outputs": [
        {
          "internalType": "bool",
          "name": "",
          "type": "bool"
        }
      ],
      "stateMutability": "view",
      "type": "function"
    },
    {
      "inputs": [
        {
          "internalType": "address",
          "name": "",
          "type": "address"
        }
      ],
      "name": "trustedOracles",
      "outputs": [
        {
          "internalType": "bool",
          "name": "",
          "type": "bool"
        }
      ],
      "stateMutability": "view",
      "type": "function"
    },
    {
      "inputs": [],
      "name": "unpause",
      "outputs": [],
      "stateMutability": "nonpayable",
      "type": "function"
    },
    {
      "inputs": [
        {
          "internalType": "address",
          "name": "_newWallet",
          "type": "address"
        }
      ],
      "name": "updateFeeWallet",
      "outputs": [],
      "stateMutability": "nonpayable",
      "type": "function"
    },
    {
      "inputs": [
        {
          "internalType": "enum BillHavenEscrowV4.PaymentMethod",
          "name": "_method",
          "type": "uint8"
        },
        {
          "internalType": "uint256",
          "name": "_period",
          "type": "uint256"
        }
      ],
      "name": "updateHoldPeriod",
      "outputs": [],
      "stateMutability": "nonpayable",
      "type": "function"
    },
    {
      "inputs": [
        {
          "internalType": "uint256",
          "name": "_newFeePercent",
          "type": "uint256"
        }
      ],
      "name": "updatePlatformFee",
      "outputs": [],
      "stateMutability": "nonpayable",
      "type": "function"
    },
    {
      "inputs": [
        {
          "internalType": "enum BillHavenEscrowV4.TrustLevel",
          "name": "_level",
          "type": "uint8"
        },
        {
          "internalType": "uint256",
          "name": "_maxDaily",
          "type": "uint256"
        },
        {
          "internalType": "uint256",
          "name": "_maxWeekly",
          "type": "uint256"
        },
        {
          "internalType": "uint256",
          "name": "_maxTrade",
          "type": "uint256"
        },
        {
          "internalType": "uint256",
          "name": "_maxDailyTrades",
          "type": "uint256"
        }
      ],
      "name": "updateVelocityLimits",
      "outputs": [],
      "stateMutability": "nonpayable",
      "type": "function"
    },
    {
      "inputs": [
        {
          "internalType": "bytes32",
          "name": "",
          "type": "bytes32"
        }
      ],
      "name": "usedPaymentReferences",
      "outputs": [
        {
          "internalType": "bool",
          "name": "",
          "type": "bool"
        }
      ],
      "stateMutability": "view",
      "type": "function"
    },
    {
      "inputs": [
        {
          "internalType": "bytes32",
          "name": "",
          "type": "bytes32"
        }
      ],
      "name": "usedSignatures",
      "outputs": [
        {
          "internalType": "bool",
          "name": "",
          "type": "bool"
        }
      ],
      "stateMutability": "view",
      "type": "function"
    },
    {
      "inputs": [
        {
          "internalType": "address",
          "name": "",
          "type": "address"
        }
      ],
      "name": "userStats",
      "outputs": [
        {
          "internalType": "uint256",
          "name": "totalTrades",
          "type": "uint256"
        },
        {
          "internalType": "uint256",
          "name": "successfulTrades",
          "type": "uint256"
        },
        {
          "internalType": "uint256",
          "name": "disputedTrades",
          "type": "uint256"
        },
        {
          "internalType": "uint256",
          "name": "dailyVolume",
          "type": "uint256"
        },
        {
          "internalType": "uint256",
          "name": "weeklyVolume",
          "type": "uint256"
        },
        {
          "internalType": "uint256",
          "name": "lastTradeDate",
          "type": "uint256"
        },
        {
          "internalType": "uint256",
          "name": "lastWeekStart",
          "type": "uint256"
        },
        {
          "internalType": "enum BillHavenEscrowV4.TrustLevel",
          "name": "trustLevel",
          "type": "uint8"
        },
        {
          "internalType": "bool",
          "name": "isBlacklisted",
          "type": "bool"
        }
      ],
      "stateMutability": "view",
      "type": "function"
    },
    {
      "inputs": [
        {
          "internalType": "enum BillHavenEscrowV4.TrustLevel",
          "name": "",
          "type": "uint8"
        }
      ],
      "name": "velocityLimits",
      "outputs": [
        {
          "internalType": "uint256",
          "name": "maxDailyVolume",
          "type": "uint256"
        },
        {
          "internalType": "uint256",
          "name": "maxWeeklyVolume",
          "type": "uint256"
        },
        {
          "internalType": "uint256",
          "name": "maxTradeSize",
          "type": "uint256"
        },
        {
          "internalType": "uint256",
          "name": "maxDailyTrades",
          "type": "uint256"
        }
      ],
      "stateMutability": "view",
      "type": "function"
    },
    {
      "inputs": [
        {
          "internalType": "uint256",
          "name": "_billId",
          "type": "uint256"
        },
        {
          "internalType": "bytes32",
          "name": "_paymentReference",
          "type": "bytes32"
        },
        {
          "internalType": "uint256",
          "name": "_fiatAmount",
          "type": "uint256"
        },
        {
          "internalType": "uint256",
          "name": "_timestamp",
          "type": "uint256"
        },
        {
          "internalType": "bytes",
          "name": "_signature",
          "type": "bytes"
        }
      ],
      "name": "verifyPaymentReceived",
      "outputs": [],
      "stateMutability": "nonpayable",
      "type": "function"
    },
    {
      "stateMutability": "payable",
      "type": "receive"
    }
  ],
  "bytecode": "0x6080346200027d57601f62003f1e38819003918201601f1916830192916001600160401b038411838510176200028257808392604095865283396020928391810103126200027d57516001600160a01b038116908190036200027d576001916000918383556101b8600e5583600f5580156200026c57600d80546001600160a01b0319169190911790556200009433620002b8565b50620000a03362000339565b50620000ac33620003dc565b508180526005815283822060ff19908482825416179055600a82528285812055838352620151809283868220556002918282526202a3008783205560039485835287832055600482526203f480808884205560058352620697808884205560068352878320556009825262093a808783205560078252600b845286822086828254161790556008825285878320918254161790556200014a62000298565b94620186a0865283860195856207a1209788815289830161c35081526060840191838352868052600989528b87209451855551858501555186840155519101556200019462000298565b9586528386019585621e84809788815289830162030d4081526060840191600a8352858752600989528b8720945185555185850155518684015551910155620001dc62000298565b95865283860195856298968097888152898301620f42408152606084019160148352878752600989528b87209451855551858501555186840155519101556200022462000298565b9586528386016302faf08081528780880193624c4b408552600960608a019760328952898352522096518755519086015551908401555191015551613a8390816200047b8239f35b845163e6c4247b60e01b8152600490fd5b600080fd5b634e487b7160e01b600052604160045260246000fd5b60405190608082016001600160401b038111838210176200028257604052565b6001600160a01b031660008181527fac33ff75c19e70fe83507db0d683fd3465c996598dc972688b7ace676c89077b602052604081205490919060ff16620003355781805260026020526040822081835260205260408220600160ff19825416179055339160008051602062003efe8339815191528180a4600190565b5090565b6001600160a01b031660008181527fe5ebfa64fca8d502a8e50c1edffd2c31ef4dad5b396e65d9f397fb028f74abc560205260408120549091907fa49807205ce4d355092ef5a8a18f56e8913cf4a201fbe287825b095693c217759060ff16620003d75780835260026020526040832082845260205260408320600160ff1982541617905560008051602062003efe833981519152339380a4600190565b505090565b6001600160a01b031660008181527f824854fce2b26a685510a23e94ce095a99e4d883af92f3bad8a69b2ed000be4160205260408120549091907f16ceee8289685dd2a02b9c8ae81d2df373176ce53519e6284e2a2950d6546ffa9060ff16620003d75780835260026020526040832082845260205260408320600160ff1982541617905560008051602062003efe833981519152339380a460019056fe608080604052600436101561001d575b50361561001b57600080fd5b005b60003560e01c90816301ffc9a7146129645750806302e9264e1461292057806307e2cea5146128e55780630b86fb0f1461286057806312df27fd14611f165780631930eae7146127655780631af032031461267b5780631fbee6c5146105e5578063248a9ca31461264c57806328bdcde8146125305780632b3b47521461249a5780632f2ff15d1461245b57806334b25ee21461222257806336568abe146121db57806338dd40c0146108f55780633f4ba83a14612184578063459b860e146114955780634d68282f146120785780634e43603a14611f3457806353b20eb414611f165780635c975abb14611ef35780636179862414611e1657806362e87b8c14611b255780636671852414611add5780636776298814611a3b57806368c4ac26146119fc5780636d69fcaf146119b157806372baa6381461174057806374ee23e61461165c57806375b238fc1461162157806376319190146115d95780638456cb59146115805780638a65d874146114df5780638c639a85146114c1578063911d50e31461149557806391d14854146114485780639c078c3a146113b45780639cea0787146113795780639d7a03391461135b578063a217fddf1461133f578063a5c1674e1461120d578063a73222fb146111ad578063a81ea0e514610dd3578063aa0b598814610d97578063b1cd06e614610b0b578063b2f70e9614610a94578063bc063e1a14610a77578063c5c8010a14610990578063ca440b9f14610938578063cc73bab4146108f5578063ccddf0b014610898578063cd2cb46d14610844578063d547741f14610805578063db296602146107c6578063db2e21bc1461071c578063df5dd1a51461068f578063e1d239db1461065e578063e1f1c4a714610641578063e7c4393e14610623578063f06edf29146105e5578063f25f4b56146105bc578063f562e12214610500578063f978fd61146104cf578063fb06d0541461036d5763fdc85fc4146102f5573861000f565b346103685760203660031901126103685761030e6129b7565b610316612a1c565b6001600160a01b0381166000818152600660205260409020805460ff191690559061034090612bcc565b507f9c8e7d83025bef8a04c664b2f753f64b8814bdb7e27291d7e50935f18cc3c712600080a2005b600080fd5b3461036857602036600319011261036857600435610389612df6565b60008181526003602052604090206001810180546001600160a01b0391908216338190036104bd57600684019081549060ff82166103c6816129e3565b600681149081156104a8575b8115610493575b811561047f575b5061046d571561045b5761040b94610404926007869360ff19161790555416613796565b5416613796565b33817fe7eb6a6fb2b73c9784947455dd1734b8d84e989960efe8bec18ca1e40fef3182600080a333907f5af9d49f4a6a457555195a3b1d151b29d9708c5cc9074c9b3b08ec68d17f8cde600080a3005b604051630af3399f60e01b8152600490fd5b60405163baf3f0f760e01b8152600490fd5b6007915061048c816129e3565b14886103e0565b905061049e816129e3565b60098114906103d9565b90506104b3816129e3565b60088114906103d2565b60405163ed6f48a160e01b8152600490fd5b34610368576020366003190112610368576004356000526008602052602060ff604060002054166040519015158152f35b34610368576020806003193601126103685760809061051d6129b7565b6000606060405161052d81612d2b565b8281528285820152826040820152015260018060a01b03166000526004815260ff6007604060002001541661056181612a12565b6000526009815260406000206040519061057a82612d2b565b80549283835260018201548184019081526060600360028501549460408701958652015494019384526040519485525190840152516040830152516060820152f35b3461036857600036600319011261036857600d546040516001600160a01b039091168152602090f35b3461036857602036600319011261036857600435600a8110156103685761060b816129e3565b600052600a6020526020604060002054604051908152f35b34610368576000366003190112610368576020600f54604051908152f35b346103685760003660031901126103685760206040516127108152f35b34610368576020366003190112610368576004356000526007602052602060ff604060002054166040519015158152f35b34610368576020366003190112610368576106a86129b7565b6106b0612a1c565b6001600160a01b03811690811561070a576106e3908260005260066020526040600020600160ff19825416179055612a9e565b507e47706786c922d17b39285dc59d696bafea72c0b003d3841ae1202076f4c2e4600080a2005b60405163e6c4247b60e01b8152600490fd5b3461036857600036600319011261036857610735612a1c565b61073d613a2e565b47801561079457600080808093335af16107556130a3565b501561075d57005b60405162461bcd60e51b815260206004820152600f60248201526e15da5d1a191c985dc819985a5b1959608a1b6044820152606490fd5b60405162461bcd60e51b815260206004820152600a6024820152694e6f2062616c616e636560b01b6044820152606490fd5b34610368576020366003190112610368576001600160a01b036107e76129b7565b166000526006602052602060ff604060002054166040519015158152f35b346103685760403660031901126103685761001b6004356108246129cd565b9080600052600260205261083f600160406000200154612a78565b612c78565b34610368576020366003190112610368576004356000908152600360205260409020546001600160a01b03166108865760405163cf897cfb60e01b8152600490fd5b6040516383abb4fb60e01b8152600490fd5b34610368576040366003190112610368576108b16129b7565b6108b9612a03565b906108c2612a1c565b6001600160a01b03166000908152600460205260409020600701805461ff00191691151560081b61ff0016919091179055005b3461036857602036600319011261036857600435600a8110156103685761091b816129e3565b600052600b602052602060ff604060002054166040519015158152f35b3461036857604036600319011261036857600435600a8110156103685761095d612a03565b90610966612a1c565b61096f816129e3565b600052600b60205260406000209060ff801983541691151516179055600080f35b34610368576020366003190112610368576004356109ac612df6565b600081815260036020526040902080546001600160a01b03163303610a6557600601805460ff8160181c1615610a535760ff81166109e9816129e3565b60048114159081610a3e575b5061046d576401000000009064ff0000000019161790557ff6290085419aef756daab446f349a2b978fb567dcfc918f5d5dac67d2021076d6040805133815260006020820152a2005b60059150610a4b816129e3565b1415846109f5565b604051630ebc5acd60e41b8152600490fd5b6040516337ac59f760e11b8152600490fd5b346103685760003660031901126103685760206040516103e88152f35b346103685760208060031936011261036857610ab16004356138ca565b90604051928391151582526040818301528251908160408401526000935b828510610af2575050606092506000838284010152601f80199101168101030190f35b8481018201518686016060015293810193859350610acf565b34610368576020366003190112610368576000610220604051610b2d81612d64565b8281528260208201528260408201528260608201528260808201528260a08201528260c08201528260e08201528261010082015282610120820152826101408201528261016082015282610180820152826101a0820152826101c0820152826101e082015282610200820152015260043560005260036020526102406040600020600d60405191610bbd83612d64565b80546001600160a01b03908116845260018201548116602085015260028201541660408401526003810154606084015260048101546080840152600581015460a0840152600681015460ff90808216610c15816129e3565b60c0860152818160081c16610c29816129e3565b60e0860152818160101c161515610100860152818160181c16151561012086015260201c1615156101408401526007810154610160840152600881015461018084015260098101546101a0840152600a8101546101c0840152600b8101546101e0840152600c81015461020084015201546102208201526102206040519160018060a01b03815116835260018060a01b03602082015116602084015260018060a01b036040820151166040840152606081015160608401526080810151608084015260a081015160a084015260c0810151610d03816129e3565b60c084015260e0810151610d16816129e3565b60e08401526101008101511515610100840152610120810151151561012084015261014081015115156101408401526101608101516101608401526101808101516101808401526101a08101516101a08401526101c08101516101c08401526101e08101516101e08401526102008101516102008401520151610220820152f35b3461036857602036600319011261036857600435610db3612a1c565b6103e88111610dc157600e55005b60405163162908e360e11b8152600490fd5b3461036857608036600319011261036857610dec6129b7565b602435906044359060643590600a82101561036857610e09612e14565b610e11612df6565b6001600160a01b031691821561070a5782600052600560205260ff604060002054161561119b578315610dc157610e47826129e3565b81600052600b60205260ff6040600020541661118957610e6781336133b3565b612710610e76600e5486612cef565b0492610e828486612d02565b946040516323b872dd60e01b60208201523360248201523060448201528160648201526064815260a081019080821067ffffffffffffffff83111761117357610ece9160405283612e37565b610ed9600c54612d0f565b9182600c5562093a804201421161115d576020967f2469925ccefb03acd27c12d788551eb22b1874ded2deb93e787464c9a3f3d83c967f2f7de55139de6fc244276fea13cfd810747cea11cb889582d3966aef80cc6f6095899560405191610f4083612d64565b33835260008884015285604084015284606084015283608084015260a0830152600160c0830152610f70896129e3565b8860e0830152600061010083015260006101208301526000610140830152426101608301524261018083015260006101a083015260006101c083015260006101e083015262093a804201610200830152600061022083015260005260038652600d61022060406000209260018060a01b038151166001600160601b0360a01b90818654161785556001850160018060a01b038b8401511682825416179055600285019060018060a01b0360408401511690825416179055606081015160038501556080810151600485015560a081015160058501556110e66006850161106360c084015161105d816129e3565b82612dbf565b60e0830151611071816129e3565b61107a816129e3565b815461010085015162ffff001990911660089290921b61ff00169190911790151560101b62ff000016178155610120830151815463ff000000191690151560181b63ff00000016178155610140830151815464ff00000000191690151560201b64ff0000000016179055565b610160810151600785015561018081015160088501556101a081015160098501556101c0810151600a8501556101e0810151600b850155610200810151600c8501550151910155600c549788978892611146604051928392339784612dd7565b0390a4604051908152a26001600055604051908152f35b634e487b7160e01b600052601160045260246000fd5b634e487b7160e01b600052604160045260246000fd5b60405163176fa74160e21b8152600490fd5b604051633dd1b30560e01b8152600490fd5b34610368576020366003190112610368576004356004811015610368576111d381612a12565b6000526009602052608060406000208054906001810154906003600282015491015491604051938452602084015260408301526060820152f35b3461036857602036600319011261036857600435611229612df6565b600081815260036020526040902080546001600160a01b039190821690338214158061132f575b61131d57600681019182549060ff8216611269816129e3565b60068114908115611308575b81156112f3575b81156112df575b5061046d57600193600761129d9360ff1916179055613796565b015416806112d0575b5033907f5af9d49f4a6a457555195a3b1d151b29d9708c5cc9074c9b3b08ec68d17f8cde600080a3005b6112d990613796565b816112a6565b600791506112ec816129e3565b1487611283565b90506112fe816129e3565b600981149061127c565b9050611313816129e3565b6008811490611275565b60405163ea8e4eb560e01b8152600490fd5b5082600182015416331415611250565b3461036857600036600319011261036857602060405160008152f35b34610368576000366003190112610368576020600c54604051908152f35b346103685760003660031901126103685760206040517f16ceee8289685dd2a02b9c8ae81d2df373176ce53519e6284e2a2950d6546ffa8152f35b34610368576020366003190112610368576004356113d0612e14565b8060005260036020526040600020600c8101544211156114365760018101546001600160a01b03166114245760ff600660019201541661140f816129e3565b0361046d5761141d906132ab565b6001600055005b6040516322e36a8760e21b8152600490fd5b604051631c1a054b60e01b8152600490fd5b34610368576040366003190112610368576114616129cd565b600435600052600260205260406000209060018060a01b0316600052602052602060ff604060002054166040519015158152f35b34610368576020366003190112610368576114ae612e14565b6114b6612df6565b61141d60043561303d565b34610368576000366003190112610368576020600e54604051908152f35b34610368576020366003190112610368576001600160a01b036115006129b7565b166000526004602052610120604060002060ff815491600181015460028201549160038101546004820154600583015491600760068501549401549587871695604051998a5260208a015260408901526060880152608087015260a086015260c085015261156d81612a12565b60e084015260081c161515610100820152f35b3461036857600036600319011261036857611599612a1c565b6115a1612df6565b600160ff19815416176001557f62e78cea01bee320cd4e420270b5ea74000d11b0c9f74754ebdbfc544b05a2586020604051338152a1005b34610368576020366003190112610368576115f26129b7565b6115fa612a1c565b6001600160a01b0316801561070a576000908152600560205260409020805460ff19169055005b346103685760003660031901126103685760206040517fa49807205ce4d355092ef5a8a18f56e8913cf4a201fbe287825b095693c217758152f35b346103685760403660031901126103685760043560243561167b612df6565b600082815260036020526040902060018101546001600160a01b031633036104bd576006810191825492600260ff85166116b4816129e3565b0361046d5781600052600760205260ff6040600020541661172e57600d6020938392620100037fec2ddc8c49b05b6a2c186d6f1481d3167f08de1c5a5de04f94a9f6e800b335529762ff00ff1916179055426009820155015580600052600782526040600020600160ff19825416179055604051908152a2005b6040516304f6343d60e21b8152600490fd5b604036600319011261036857600435600a602435101561036857611762612e14565b61176a612df6565b3415610dc15761177b6024356129e3565b602435600052600b60205260ff604060002054166111895761179d81336133b3565b6127106117ac600e5434612cef565b04906117b88234612d02565b916117c4600c54612d0f565b9081600c5562093a804201421161115d5760209361197793600093604051916117ec83612d64565b338352858884015285604084015283606084015284608084015260a0830152600160c083015261181d6024356129e3565b60243560e08301528461010083015284610120830152846101408301524261016083015242610180830152846101a0830152846101c0830152846101e083015262093a80420161020083015284610220830152845260038652600d610220604086209260018060a01b03808251166001600160601b0360a01b908187541617865560018601828c8501511682825416179055600286019160408401511690825416179055606081015160038501556080810151600485015560a081015160058501556118f76006850161106360c084015161105d816129e3565b610160810151600785015561018081015160088501556101a081015160098501556101c0810151600a8501556101e0810151600b850155610200810151600c85015501519101557f2469925ccefb03acd27c12d788551eb22b1874ded2deb93e787464c9a3f3d83c600c5494859260405191829133966024359184612dd7565b0390a4807f2f7de55139de6fc244276fea13cfd810747cea11cb889582d3966aef80cc6f6083604051348152a26001600055604051908152f35b34610368576020366003190112610368576119ca6129b7565b6119d2612a1c565b6001600160a01b0316801561070a576000908152600560205260409020805460ff19166001179055005b34610368576020366003190112610368576001600160a01b03611a1d6129b7565b166000526005602052602060ff604060002054166040519015158152f35b3461036857602036600319011261036857600435611a57612e14565b600081815260036020526040902080546001600160a01b039081163303610a65576006820191600160ff845416611a8d816129e3565b0361046d57600101541661142457611aa4826132ab565b805460ff1916600917905533907f041d0e14dd8abcd72311b1c9267065414e8c2c246ad9914a60cc99ccea19446d600080a36001600055005b3461036857602036600319011261036857611af66129b7565b611afe612a1c565b6001600160a01b0316801561070a576001600160601b0360a01b600d541617600d55600080f35b346103685760a03660031901126103685760043560843560243567ffffffffffffffff606435604435828511610368573660238601121561036857846004013590838211610368576024860195602483369201011161036857611b86612e14565b611b8e612df6565b86600052602094600386526040600020946006860194600360ff875416611bb4816129e3565b0361046d5782600d88015403611e045783600588015403610dc157428111611e045761012b19420142811161115d578110611e0457600187015492875494604051948a8601964688523060601b60408801528d60548801526001600160601b0319809260601b16607488015260601b166088860152609c85015260bc84015260dc83015260dc825261010082019082821090821117611173576040525190207f19457468657265756d205369676e6564204d6573736167653a0a333200000000600052601c52611c9f611c96603c600020611c9036858a612eaf565b90612ee6565b90929192612fb2565b6001600160a01b0316600081815260068652604090205490959060ff1615611e0457611ccc913691612eaf565b83815191012091826000526008845260ff60406000205416611df257600b92600052600884526040600020600160ff198254161790558563ff0000ff198354169560ff6301000004881780865542600a86015560081c1692611d2d846129e3565b83600052600a875260406000205462015180808211600014611deb57505b93611d55816129e3565b15611de2575b7ff6290085419aef756daab446f349a2b978fb567dcfc918f5d5dac67d2021076d91604091611d8a8642612d1e565b97889101558151908152600188820152a215611da7576001600055005b63010000057fb3712c80285d461d18d6dd4780227a6b6f17bf80b7064d9055d932bb28b18fc794179055604051908152a2808080808061141d565b60009350611d5b565b9050611d4b565b60405163900bb2c960e01b8152600490fd5b604051638baa579f60e01b8152600490fd5b34610368576040366003190112610368576040600435611e34612a03565b60648204620f42408110611e60575050612710611e5360508093612cef565b0482519182526020820152f35b6207a1208110611e7b575050612710611e5360788093612cef565b61c3508110611e95575050612710611e5360aa8093612cef565b614e208110611eb0575050612710611e536101188093612cef565b61271011611ec95750612710611e5361015e8093612cef565b15611ee257612710611e5361ffff60dc5b168093612cef565b612710611e5361ffff6101b8611eda565b3461036857600036600319011261036857602060ff600154166040519015158152f35b34610368576000366003190112610368576020604051620151808152f35b3461036857602036600319011261036857610120611f506129b7565b60405190611f5d82612d47565b6000825260006020830152600060408301526000606083015260006080830152600060a0830152600060c0830152600060e083015260006101008093015260018060a01b0316600052600460205260406000209060405191611fbe83612d47565b805483526001810154602084019081526002820154916040850192835260038101546060860190815260048201546080870190815260058301549160a08801928352600760068501549460c08a0195865201549560ff87169560e08a019661202581612a12565b875260ff898b019860081c161515885260405199518a525160208a01525160408901525160608801525160808701525160a08601525160c08501525161206a81612a12565b60e084015251151590820152f35b3461036857602036600319011261036857600435612094612e14565b61209c612df6565b8060005260036020526040600020600681015460ff8160181c1615610a535760ff166120c7816129e3565b6004811415908161216f575b5061046d57600b810154421061215a578054336001600160a01b0391821614159182612148575b50508061210f575b61131d5761141d90613159565b503360009081527fe5ebfa64fca8d502a8e50c1edffd2c31ef4dad5b396e65d9f397fb028f74abc5602052604090205460ff1615612102565b600191925001541633141582806120fa565b604051600162a6d88760e01b03198152600490fd5b6005915061217c816129e3565b1415836120d3565b346103685760003660031901126103685761219d612a1c565b6121a5613a2e565b60ff19600154166001557f5db9ee0a495bf2e6ff9c91a7834c1ba4fdd244a5e8aa4e537bd38aeae4b073aa6020604051338152a1005b34610368576040366003190112610368576121f46129cd565b336001600160a01b038216036122105761001b90600435612c78565b60405163334bd91960e11b8152600490fd5b346103685760403660031901126103685760043561223e612a03565b3360009081527f824854fce2b26a685510a23e94ce095a99e4d883af92f3bad8a69b2ed000be4160209081526040909120549091907f16ceee8289685dd2a02b9c8ae81d2df373176ce53519e6284e2a2950d6546ffa9060ff161561243d57506122a6612e14565b8260005260038252604060002090600760ff6006840154166122c7816129e3565b0361046d577fe4869990df273a675df63cd0acf961e8cac9e8c47748a9d71c02c21e510e850c928160409381612426575b50156124185784600052600381526000857fb95bf48b1faeba00e56c6b81df0ae8e0d8f9c79da9364726f8dcc38687927aa2858084206003810161239e81549260048101908482549460018060a01b03938b8560028601541691866001870154169d8e94555560068401600660ff1982541617905580156000146123e95750600080806123919481945af161238b6130a3565b506130d3565b836123c6575b54166136b4565b6123a7866136b4565b825191825286820152a35b825191151582523390820152a26001600055005b6123e460008080808887600d54165af16123de6130a3565b50613117565b612397565b916123f4918361326d565b8480612402575b5050612397565b6124119184600d54169061326d565b8e846123fb565b612421856132ab565b6123b2565b600101546001600160a01b031615159050866122f8565b6044906040519063e2517d3f60e01b82523360048301526024820152fd5b346103685760403660031901126103685761001b60043561247a6129cd565b90806000526002602052612495600160406000200154612a78565b612b51565b34610368576040366003190112610368576124b36129b7565b6024359060048210156103685760207f506ec58ef84fdef2d0f37be02d5a6bfce019136479212ed8425b4d4910fcb5de916124ec612a1c565b6001600160a01b03166000818152600483526040902090939060070161251182612a12565b60ff1981541660ff83161790556040519061252b81612a12565b8152a2005b346103685760203660031901126103685760043560005260036020526040600020600160a01b60019003808254169181600182015416916002820154166003820154600483015460058401546006850154600786015490600887015492600988015494600a89015496600b8a015498600c8b01549a600d01549b604051809e81526020015260408d015260608c015260808b015260a08a015260ff81166125d6816129e3565b60c08a01528060081c60ff166125eb816129e3565b60e08a01528060101c60ff1615156101008a01528060181c60ff1615156101208a015260201c60ff1615156101408901526101608801526101808701526101a08601526101c08501526101e084015261020083015261022082015261024090f35b346103685760203660031901126103685760043560005260026020526020600160406000200154604051908152f35b3461036857602080600319360112610368576126956129b7565b61269d612a1c565b6126a5613a2e565b6001600160a01b0316801561070a576040516370a0823160e01b8152306004820152908282602481845afa9182156127595760009261272a575b5081156126f25761001b9250339061326d565b60405162461bcd60e51b815260048101849052601060248201526f4e6f20746f6b656e2062616c616e636560801b6044820152606490fd5b9091508281813d8311612752575b6127428183612d9d565b81010312610368575190836126df565b503d612738565b6040513d6000823e3d90fd5b3461036857602036600319011261036857600435612781612e14565b612789612df6565b600081815260036020526040902080546001600160a01b0390811691821561284e576006810192600160ff8554166127c0816129e3565b0361046d57600182019283541661142457331461131d57600c81015442101561283c5760056127f1910154336133b3565b336001600160601b0360a01b825416179055600260ff1982541617905533907f0b32da9354607796544422f364ca1aec8a7b6e85fdb196e204bf0ed62cb620ae600080a36001600055005b604051631390df2960e01b8152600490fd5b60405163cf897cfb60e01b8152600490fd5b346103685760a036600319011261036857600435600481101561036857612885612a1c565b60036040519161289483612d2b565b602435835260208301604435815260408401906064358252606085019260843584526128bf81612a12565b600052600960205260406000209451855551600185015551600284015551910155600080f35b346103685760003660031901126103685760206040517f68e79a7bf1e0bc45d0a330c573bc367f9cf464fd326078812f301165fbda4ef18152f35b3461036857604036600319011261036857600435600a81101561036857612945612a1c565b61294e816129e3565b600052600a602052602435604060002055600080f35b34610368576020366003190112610368576004359063ffffffff60e01b821680920361036857602091637965db0b60e01b81149081156129a6575b5015158152f35b6301ffc9a760e01b1490508361299f565b600435906001600160a01b038216820361036857565b602435906001600160a01b038216820361036857565b600a11156129ed57565b634e487b7160e01b600052602160045260246000fd5b60243590811515820361036857565b600411156129ed57565b3360009081527fe5ebfa64fca8d502a8e50c1edffd2c31ef4dad5b396e65d9f397fb028f74abc560205260409020547fa49807205ce4d355092ef5a8a18f56e8913cf4a201fbe287825b095693c217759060ff161561243d5750565b80600052600260205260406000203360005260205260ff604060002054161561243d5750565b6001600160a01b031660008181527f4c5dd14cc36ac74df3f3035fa8453ebdbc47c888eb74d355b623b33097c65a4b60205260408120549091907f68e79a7bf1e0bc45d0a330c573bc367f9cf464fd326078812f301165fbda4ef19060ff16612b4c5780835260026020526040832082845260205260408320600160ff198254161790557f2f8788117e7eff1d82e926ec794901d17c78024a50270940304540a733656f0d339380a4600190565b505090565b906000918083526002602052604083209160018060a01b03169182845260205260ff60408420541615600014612b4c5780835260026020526040832082845260205260408320600160ff198254161790557f2f8788117e7eff1d82e926ec794901d17c78024a50270940304540a733656f0d339380a4600190565b6001600160a01b031660008181527f4c5dd14cc36ac74df3f3035fa8453ebdbc47c888eb74d355b623b33097c65a4b60205260408120549091907f68e79a7bf1e0bc45d0a330c573bc367f9cf464fd326078812f301165fbda4ef19060ff1615612b4c578083526002602052604083208284526020526040832060ff1981541690557ff6391f5c32d9c69d2a47ea670b442974b53935d1edc7fd64eb21e047a839171b339380a4600190565b906000918083526002602052604083209160018060a01b03169182845260205260ff604084205416600014612b4c578083526002602052604083208284526020526040832060ff1981541690557ff6391f5c32d9c69d2a47ea670b442974b53935d1edc7fd64eb21e047a839171b339380a4600190565b8181029291811591840414171561115d57565b9190820391821161115d57565b600019811461115d5760010190565b9190820180921161115d57565b6080810190811067ffffffffffffffff82111761117357604052565b610120810190811067ffffffffffffffff82111761117357604052565b610240810190811067ffffffffffffffff82111761117357604052565b6040810190811067ffffffffffffffff82111761117357604052565b90601f8019910116810190811067ffffffffffffffff82111761117357604052565b90612dc9816129e3565b60ff80198354169116179055565b604091949392606082019582526020820152612df2836129e3565b0152565b60ff60015416612e0257565b60405163d93c066560e01b8152600490fd5b600260005414612e25576002600055565b604051633ee5aeb560e01b8152600490fd5b906000602091828151910182855af115612759576000513d612e8a57506001600160a01b0381163b155b612e685750565b604051635274afe760e01b81526001600160a01b039091166004820152602490fd5b60011415612e61565b67ffffffffffffffff811161117357601f01601f191660200190565b929192612ebb82612e93565b91612ec96040519384612d9d565b829481845281830111610368578281602093846000960137010152565b8151919060418303612f1757612f1092506020820151906060604084015193015160001a90612f22565b9192909190565b505060009160029190565b91907f7fffffffffffffffffffffffffffffff5d576e7357a4501ddfe92f46681b20a08411612fa657926020929160ff608095604051948552168484015260408301526060820152600092839182805260015afa15612f9a5780516001600160a01b03811615612f9157918190565b50809160019190565b604051903d90823e3d90fd5b50505060009160039190565b612fbb81612a12565b80612fc4575050565b612fcd81612a12565b60018103612fe75760405163f645eedf60e01b8152600490fd5b612ff081612a12565b600281036130115760405163fce698f760e01b815260048101839052602490fd5b8061301d600392612a12565b146130255750565b602490604051906335e2f38360e21b82526004820152fd5b8060005260036020526040600020600681015460ff8160181c1615610a535760ff16613068816129e3565b6004811415908161308e575b5061046d57600b0154421061215a5761308c90613159565b565b6005915061309b816129e3565b141538613074565b3d156130ce573d906130b482612e93565b916130c26040519384612d9d565b82523d6000602084013e565b606090565b156130da57565b60405162461bcd60e51b815260206004820152601560248201527414185e595c881d1c985b9cd9995c8819985a5b1959605a1b6044820152606490fd5b1561311e57565b60405162461bcd60e51b8152602060048201526013602482015272119959481d1c985b9cd9995c8819985a5b1959606a1b6044820152606490fd5b60009080825260036020526040822060068101805460ff8160181c1615610a535760038301918254938492600482019188835494600160a01b6001900393828560028601541696866001870154169d8e9b555560ff1916600617905583156000149760409761320a957fb95bf48b1faeba00e56c6b81df0ae8e0d8f9c79da9364726f8dcc38687927aa29a61323d57508280806131fc9481945af161238b6130a3565b84613220575b5054166136b4565b613213866136b4565b82519182526020820152a3565b808080613237938887600d54165af16123de6130a3565b38613202565b92509061324a918361326d565b8480613257575050612397565b6132669184600d54169061326d565b38846123fb565b60405163a9059cbb60e01b60208201526001600160a01b03909216602483015260448083019390935291815261308c916132a682612d2b565b612e37565b6000908082526003602052604082208260038201805460066132d36004860192835490612d1e565b600286015486549890945591849055909301805460ff191660081790556001600160a01b03948516948591168061337d575081808481935af16133146130a3565b50156133485760207fa518f3c62f75851a21351fe44dbc9092bd179acc1461cb6bb1a10243ff55c433915b604051908152a3565b60405162461bcd60e51b815260206004820152600d60248201526c1499599d5b990819985a5b1959609a1b6044820152606490fd5b60209250837fa518f3c62f75851a21351fe44dbc9092bd179acc1461cb6bb1a10243ff55c43394926133ae9261326d565b61333f565b6001600160a01b031660008181526004602081905260408083206007810154919695939091600881901c60ff166136a45760058301805462015180810180911161368257421015613695575b5060068301805462093a808101809111613682579160ff918a9493421015613674575b501661342d81612a12565b81526009602052209186519661344288612d2b565b8354885260018401549360208901948552600360028201549182848c0152015460608a015285116135e557600383019283549861347f878b612d1e565b905110613552578201958654946134968787612d1e565b9051106134ba575050506134af836134b6959697612d1e565b9055612d1e565b9055565b61354e93507f74867b7aa517ebee563b6c06d367476d8bfe46339d59015b0b075bee2b478dee8251806135118160609060208152600f60208201526e6d61785765656b6c79566f6c756d6560881b60408201520190565b0390a251918291631fa036e760e01b8352820160609060208152600f60208201526e6d61785765656b6c79566f6c756d6560881b60408201520190565b0390fd5b61354e8383897f74867b7aa517ebee563b6c06d367476d8bfe46339d59015b0b075bee2b478dee8251806135a98160609060208152600e60208201526d6d61784461696c79566f6c756d6560901b60408201520190565b0390a251918291631fa036e760e01b8352820160609060208152600e60208201526d6d61784461696c79566f6c756d6560901b60408201520190565b61354e9250857f74867b7aa517ebee563b6c06d367476d8bfe46339d59015b0b075bee2b478dee82518061363a8160609060208152600c60208201526b6d6178547261646553697a6560a01b60408201520190565b0390a251918291631fa036e760e01b8352820160609060208152600c60208201526b6d6178547261646553697a6560a01b60408201520190565b838787015542905538613422565b634e487b7160e01b845260118652602484fd5b826003850155429055386133ff565b875163473250af60e01b81528490fd5b6001600160a01b0316600081815260046020526040902080546136d690612d0f565b815560ff600760018301926136eb8454612d0f565b938490550180548281169360328110613760575050600382198254161781555b54169061371781612a12565b61372082612a12565b810361372a575050565b60207f506ec58ef84fdef2d0f37be02d5a6bfce019136479212ed8425b4d4910fcb5de916040519061375b81612a12565b8152a2565b601581106137795750506002821982541617815561370b565b60061115613788575b5061370b565b821916600117815538613782565b6001600160a01b0316600090815260046020526040812080549091906137bb90612d0f565b9081835560028301906137ce8254612d0f565b809255600583116137e0575b50505050565b6064820291808304606414901517156138b65782156138a2575090603291046014811161382c575b11613816575b8080806137da565b600701805461ff0019166101001790553861380e565b60078301805460ff811661383f81612a12565b60038103613859575050805460ff19166002179055613808565b61386281612a12565b6002810361387c575050805460ff19166001179055613808565b80613888600192612a12565b14613895575b5050613808565b60ff19169055388061388e565b634e487b7160e01b81526012600452602490fd5b634e487b7160e01b81526011600452602490fd5b906000918252602060038152604092838120600681015460ff8116906138ef826129e3565b60068214613a0a5760181c60ff16156139d05761390b816129e3565b600481141590816139bb575b5061398b57600b0154421061395357506f526561647920746f2072656c6561736560801b600193519161394983612d81565b6010835282015290565b7f486f6c6420706572696f64206e6f7420656c61707365640000000000000000009093519161398183612d81565b6017835282015290565b507314185e5b595b9d081b9bdd081d995c9a599a595960621b909351916139b183612d81565b6014835282015290565b600591506139c8816129e3565b141538613917565b50507f4f7261636c6520766572696669636174696f6e2072657175697265640000000090935191613a0083612d81565b601c835282015290565b5050506f105b1c9958591e481c995b19585cd95960821b9093519161394983612d81565b60ff6001541615613a3b57565b604051638dfc202b60e01b8152600490fdfea26469706673582212201c7bbb7a6c4630f1cb6b6cca04644c7e81b60aaf32b9e2dde72689cbbd24256364736f6c634300081400332f8788117e7eff1d82e926ec794901d17c78024a50270940304540a733656f0d",
  "linkReferences": {},
  "deployedLinkReferences": {}
}