{
  "_format": "hh-sol-artifact-1",
  "contractName": "BillHavenEscrowV3",
  "sourceName": "contracts/BillHavenEscrowV3.sol",
  "abi": [
    {
      "inputs": [
        {
          "internalType": "address",
          "name": "_feeWallet",
          "type": "address"
        }
      ],
      "stateMutability": "nonpayable",
      "type": "constructor"
    },
    {
      "inputs": [],
      "name": "AccessControlBadConfirmation",
      "type": "error"
    },
    {
      "inputs": [
        {
          "internalType": "address",
          "name": "account",
          "type": "address"
        },
        {
          "internalType": "bytes32",
          "name": "neededRole",
          "type": "bytes32"
        }
      ],
      "name": "AccessControlUnauthorizedAccount",
      "type": "error"
    },
    {
      "inputs": [],
      "name": "BillAlreadyClaimed",
      "type": "error"
    },
    {
      "inputs": [],
      "name": "BillExpired",
      "type": "error"
    },
    {
      "inputs": [],
      "name": "BillNotClaimed",
      "type": "error"
    },
    {
      "inputs": [],
      "name": "BillNotExpired",
      "type": "error"
    },
    {
      "inputs": [],
      "name": "BillNotFound",
      "type": "error"
    },
    {
      "inputs": [],
      "name": "ECDSAInvalidSignature",
      "type": "error"
    },
    {
      "inputs": [
        {
          "internalType": "uint256",
          "name": "length",
          "type": "uint256"
        }
      ],
      "name": "ECDSAInvalidSignatureLength",
      "type": "error"
    },
    {
      "inputs": [
        {
          "internalType": "bytes32",
          "name": "s",
          "type": "bytes32"
        }
      ],
      "name": "ECDSAInvalidSignatureS",
      "type": "error"
    },
    {
      "inputs": [],
      "name": "EnforcedPause",
      "type": "error"
    },
    {
      "inputs": [],
      "name": "ExpectedPause",
      "type": "error"
    },
    {
      "inputs": [],
      "name": "HoldPeriodNotElapsed",
      "type": "error"
    },
    {
      "inputs": [],
      "name": "InvalidAddress",
      "type": "error"
    },
    {
      "inputs": [],
      "name": "InvalidAmount",
      "type": "error"
    },
    {
      "inputs": [],
      "name": "InvalidPaymentMethod",
      "type": "error"
    },
    {
      "inputs": [],
      "name": "InvalidSignature",
      "type": "error"
    },
    {
      "inputs": [],
      "name": "InvalidState",
      "type": "error"
    },
    {
      "inputs": [],
      "name": "NotAuthorized",
      "type": "error"
    },
    {
      "inputs": [],
      "name": "NotBillMaker",
      "type": "error"
    },
    {
      "inputs": [],
      "name": "NotBillPayer",
      "type": "error"
    },
    {
      "inputs": [],
      "name": "PaymentMethodBlocked",
      "type": "error"
    },
    {
      "inputs": [],
      "name": "PaymentReferenceUsed",
      "type": "error"
    },
    {
      "inputs": [],
      "name": "ReentrancyGuardReentrantCall",
      "type": "error"
    },
    {
      "inputs": [
        {
          "internalType": "address",
          "name": "token",
          "type": "address"
        }
      ],
      "name": "SafeERC20FailedOperation",
      "type": "error"
    },
    {
      "inputs": [],
      "name": "TokenNotSupported",
      "type": "error"
    },
    {
      "inputs": [],
      "name": "UserBlacklisted",
      "type": "error"
    },
    {
      "inputs": [
        {
          "internalType": "string",
          "name": "limitType",
          "type": "string"
        }
      ],
      "name": "VelocityLimitExceededError",
      "type": "error"
    },
    {
      "anonymous": false,
      "inputs": [
        {
          "indexed": true,
          "internalType": "uint256",
          "name": "billId",
          "type": "uint256"
        },
        {
          "indexed": true,
          "internalType": "address",
          "name": "billMaker",
          "type": "address"
        }
      ],
      "name": "BillCancelled",
      "type": "event"
    },
    {
      "anonymous": false,
      "inputs": [
        {
          "indexed": true,
          "internalType": "uint256",
          "name": "billId",
          "type": "uint256"
        },
        {
          "indexed": true,
          "internalType": "address",
          "name": "payer",
          "type": "address"
        }
      ],
      "name": "BillClaimed",
      "type": "event"
    },
    {
      "anonymous": false,
      "inputs": [
        {
          "indexed": true,
          "internalType": "uint256",
          "name": "billId",
          "type": "uint256"
        },
        {
          "indexed": true,
          "internalType": "address",
          "name": "billMaker",
          "type": "address"
        },
        {
          "indexed": true,
          "internalType": "address",
          "name": "token",
          "type": "address"
        },
        {
          "indexed": false,
          "internalType": "uint256",
          "name": "amount",
          "type": "uint256"
        },
        {
          "indexed": false,
          "internalType": "uint256",
          "name": "fee",
          "type": "uint256"
        },
        {
          "indexed": false,
          "internalType": "enum BillHavenEscrowV3.PaymentMethod",
          "name": "paymentMethod",
          "type": "uint8"
        }
      ],
      "name": "BillCreated",
      "type": "event"
    },
    {
      "anonymous": false,
      "inputs": [
        {
          "indexed": true,
          "internalType": "uint256",
          "name": "billId",
          "type": "uint256"
        },
        {
          "indexed": true,
          "internalType": "address",
          "name": "by",
          "type": "address"
        }
      ],
      "name": "BillDisputed",
      "type": "event"
    },
    {
      "anonymous": false,
      "inputs": [
        {
          "indexed": true,
          "internalType": "uint256",
          "name": "billId",
          "type": "uint256"
        },
        {
          "indexed": false,
          "internalType": "uint256",
          "name": "totalAmount",
          "type": "uint256"
        }
      ],
      "name": "BillFunded",
      "type": "event"
    },
    {
      "anonymous": false,
      "inputs": [
        {
          "indexed": true,
          "internalType": "uint256",
          "name": "billId",
          "type": "uint256"
        },
        {
          "indexed": true,
          "internalType": "address",
          "name": "billMaker",
          "type": "address"
        },
        {
          "indexed": false,
          "internalType": "uint256",
          "name": "amount",
          "type": "uint256"
        }
      ],
      "name": "BillRefunded",
      "type": "event"
    },
    {
      "anonymous": false,
      "inputs": [
        {
          "indexed": true,
          "internalType": "uint256",
          "name": "billId",
          "type": "uint256"
        },
        {
          "indexed": true,
          "internalType": "address",
          "name": "payer",
          "type": "address"
        },
        {
          "indexed": false,
          "internalType": "uint256",
          "name": "amount",
          "type": "uint256"
        },
        {
          "indexed": false,
          "internalType": "uint256",
          "name": "fee",
          "type": "uint256"
        }
      ],
      "name": "CryptoReleased",
      "type": "event"
    },
    {
      "anonymous": false,
      "inputs": [
        {
          "indexed": true,
          "internalType": "uint256",
          "name": "billId",
          "type": "uint256"
        },
        {
          "indexed": false,
          "internalType": "bool",
          "name": "releasedToPayer",
          "type": "bool"
        },
        {
          "indexed": false,
          "internalType": "address",
          "name": "resolver",
          "type": "address"
        }
      ],
      "name": "DisputeResolved",
      "type": "event"
    },
    {
      "anonymous": false,
      "inputs": [
        {
          "indexed": true,
          "internalType": "uint256",
          "name": "billId",
          "type": "uint256"
        },
        {
          "indexed": false,
          "internalType": "uint256",
          "name": "releaseTime",
          "type": "uint256"
        }
      ],
      "name": "HoldPeriodComplete",
      "type": "event"
    },
    {
      "anonymous": false,
      "inputs": [
        {
          "indexed": true,
          "internalType": "address",
          "name": "oracle",
          "type": "address"
        }
      ],
      "name": "OracleAdded",
      "type": "event"
    },
    {
      "anonymous": false,
      "inputs": [
        {
          "indexed": true,
          "internalType": "address",
          "name": "oracle",
          "type": "address"
        }
      ],
      "name": "OracleRemoved",
      "type": "event"
    },
    {
      "anonymous": false,
      "inputs": [
        {
          "indexed": false,
          "internalType": "address",
          "name": "account",
          "type": "address"
        }
      ],
      "name": "Paused",
      "type": "event"
    },
    {
      "anonymous": false,
      "inputs": [
        {
          "indexed": true,
          "internalType": "uint256",
          "name": "billId",
          "type": "uint256"
        },
        {
          "indexed": false,
          "internalType": "bytes32",
          "name": "paymentReference",
          "type": "bytes32"
        }
      ],
      "name": "PaymentMarkedSent",
      "type": "event"
    },
    {
      "anonymous": false,
      "inputs": [
        {
          "indexed": true,
          "internalType": "uint256",
          "name": "billId",
          "type": "uint256"
        },
        {
          "indexed": false,
          "internalType": "address",
          "name": "verifiedBy",
          "type": "address"
        },
        {
          "indexed": false,
          "internalType": "bool",
          "name": "isOracle",
          "type": "bool"
        }
      ],
      "name": "PaymentVerified",
      "type": "event"
    },
    {
      "anonymous": false,
      "inputs": [
        {
          "indexed": true,
          "internalType": "bytes32",
          "name": "role",
          "type": "bytes32"
        },
        {
          "indexed": true,
          "internalType": "bytes32",
          "name": "previousAdminRole",
          "type": "bytes32"
        },
        {
          "indexed": true,
          "internalType": "bytes32",
          "name": "newAdminRole",
          "type": "bytes32"
        }
      ],
      "name": "RoleAdminChanged",
      "type": "event"
    },
    {
      "anonymous": false,
      "inputs": [
        {
          "indexed": true,
          "internalType": "bytes32",
          "name": "role",
          "type": "bytes32"
        },
        {
          "indexed": true,
          "internalType": "address",
          "name": "account",
          "type": "address"
        },
        {
          "indexed": true,
          "internalType": "address",
          "name": "sender",
          "type": "address"
        }
      ],
      "name": "RoleGranted",
      "type": "event"
    },
    {
      "anonymous": false,
      "inputs": [
        {
          "indexed": true,
          "internalType": "bytes32",
          "name": "role",
          "type": "bytes32"
        },
        {
          "indexed": true,
          "internalType": "address",
          "name": "account",
          "type": "address"
        },
        {
          "indexed": true,
          "internalType": "address",
          "name": "sender",
          "type": "address"
        }
      ],
      "name": "RoleRevoked",
      "type": "event"
    },
    {
      "anonymous": false,
      "inputs": [
        {
          "indexed": false,
          "internalType": "address",
          "name": "account",
          "type": "address"
        }
      ],
      "name": "Unpaused",
      "type": "event"
    },
    {
      "anonymous": false,
      "inputs": [
        {
          "indexed": true,
          "internalType": "address",
          "name": "user",
          "type": "address"
        },
        {
          "indexed": false,
          "internalType": "enum BillHavenEscrowV3.TrustLevel",
          "name": "newLevel",
          "type": "uint8"
        }
      ],
      "name": "UserUpgraded",
      "type": "event"
    },
    {
      "anonymous": false,
      "inputs": [
        {
          "indexed": true,
          "internalType": "address",
          "name": "user",
          "type": "address"
        },
        {
          "indexed": false,
          "internalType": "string",
          "name": "limitType",
          "type": "string"
        }
      ],
      "name": "VelocityLimitExceeded",
      "type": "event"
    },
    {
      "inputs": [],
      "name": "ADMIN_ROLE",
      "outputs": [
        {
          "internalType": "bytes32",
          "name": "",
          "type": "bytes32"
        }
      ],
      "stateMutability": "view",
      "type": "function"
    },
    {
      "inputs": [],
      "name": "ARBITRATOR_ROLE",
      "outputs": [
        {
          "internalType": "bytes32",
          "name": "",
          "type": "bytes32"
        }
      ],
      "stateMutability": "view",
      "type": "function"
    },
    {
      "inputs": [],
      "name": "BASIS_POINTS",
      "outputs": [
        {
          "internalType": "uint256",
          "name": "",
          "type": "uint256"
        }
      ],
      "stateMutability": "view",
      "type": "function"
    },
    {
      "inputs": [],
      "name": "DEFAULT_ADMIN_ROLE",
      "outputs": [
        {
          "internalType": "bytes32",
          "name": "",
          "type": "bytes32"
        }
      ],
      "stateMutability": "view",
      "type": "function"
    },
    {
      "inputs": [],
      "name": "MAX_FEE",
      "outputs": [
        {
          "internalType": "uint256",
          "name": "",
          "type": "uint256"
        }
      ],
      "stateMutability": "view",
      "type": "function"
    },
    {
      "inputs": [],
      "name": "ORACLE_ROLE",
      "outputs": [
        {
          "internalType": "bytes32",
          "name": "",
          "type": "bytes32"
        }
      ],
      "stateMutability": "view",
      "type": "function"
    },
    {
      "inputs": [
        {
          "internalType": "address",
          "name": "_oracle",
          "type": "address"
        }
      ],
      "name": "addOracle",
      "outputs": [],
      "stateMutability": "nonpayable",
      "type": "function"
    },
    {
      "inputs": [
        {
          "internalType": "address",
          "name": "_token",
          "type": "address"
        }
      ],
      "name": "addSupportedToken",
      "outputs": [],
      "stateMutability": "nonpayable",
      "type": "function"
    },
    {
      "inputs": [
        {
          "internalType": "uint256",
          "name": "_billId",
          "type": "uint256"
        }
      ],
      "name": "autoRelease",
      "outputs": [],
      "stateMutability": "nonpayable",
      "type": "function"
    },
    {
      "inputs": [],
      "name": "billCounter",
      "outputs": [
        {
          "internalType": "uint256",
          "name": "",
          "type": "uint256"
        }
      ],
      "stateMutability": "view",
      "type": "function"
    },
    {
      "inputs": [
        {
          "internalType": "uint256",
          "name": "",
          "type": "uint256"
        }
      ],
      "name": "bills",
      "outputs": [
        {
          "internalType": "address",
          "name": "billMaker",
          "type": "address"
        },
        {
          "internalType": "address",
          "name": "payer",
          "type": "address"
        },
        {
          "internalType": "address",
          "name": "token",
          "type": "address"
        },
        {
          "internalType": "uint256",
          "name": "amount",
          "type": "uint256"
        },
        {
          "internalType": "uint256",
          "name": "platformFee",
          "type": "uint256"
        },
        {
          "internalType": "uint256",
          "name": "fiatAmount",
          "type": "uint256"
        },
        {
          "internalType": "enum BillHavenEscrowV3.ConfirmationStatus",
          "name": "status",
          "type": "uint8"
        },
        {
          "internalType": "enum BillHavenEscrowV3.PaymentMethod",
          "name": "paymentMethod",
          "type": "uint8"
        },
        {
          "internalType": "bool",
          "name": "payerConfirmed",
          "type": "bool"
        },
        {
          "internalType": "bool",
          "name": "oracleVerified",
          "type": "bool"
        },
        {
          "internalType": "bool",
          "name": "makerConfirmed",
          "type": "bool"
        },
        {
          "internalType": "uint256",
          "name": "createdAt",
          "type": "uint256"
        },
        {
          "internalType": "uint256",
          "name": "fundedAt",
          "type": "uint256"
        },
        {
          "internalType": "uint256",
          "name": "paymentSentAt",
          "type": "uint256"
        },
        {
          "internalType": "uint256",
          "name": "verifiedAt",
          "type": "uint256"
        },
        {
          "internalType": "uint256",
          "name": "releaseTime",
          "type": "uint256"
        },
        {
          "internalType": "uint256",
          "name": "expiresAt",
          "type": "uint256"
        },
        {
          "internalType": "bytes32",
          "name": "paymentReference",
          "type": "bytes32"
        }
      ],
      "stateMutability": "view",
      "type": "function"
    },
    {
      "inputs": [
        {
          "internalType": "enum BillHavenEscrowV3.PaymentMethod",
          "name": "",
          "type": "uint8"
        }
      ],
      "name": "blockedMethods",
      "outputs": [
        {
          "internalType": "bool",
          "name": "",
          "type": "bool"
        }
      ],
      "stateMutability": "view",
      "type": "function"
    },
    {
      "inputs": [
        {
          "internalType": "uint256",
          "name": "_fiatAmount",
          "type": "uint256"
        },
        {
          "internalType": "bool",
          "name": "_hasAffiliateDiscount",
          "type": "bool"
        }
      ],
      "name": "calculateTieredFee",
      "outputs": [
        {
          "internalType": "uint256",
          "name": "feeInBasisPoints",
          "type": "uint256"
        },
        {
          "internalType": "uint256",
          "name": "feeAmount",
          "type": "uint256"
        }
      ],
      "stateMutability": "pure",
      "type": "function"
    },
    {
      "inputs": [
        {
          "internalType": "uint256",
          "name": "_billId",
          "type": "uint256"
        }
      ],
      "name": "canRelease",
      "outputs": [
        {
          "internalType": "bool",
          "name": "",
          "type": "bool"
        },
        {
          "internalType": "string",
          "name": "",
          "type": "string"
        }
      ],
      "stateMutability": "view",
      "type": "function"
    },
    {
      "inputs": [
        {
          "internalType": "uint256",
          "name": "_billId",
          "type": "uint256"
        }
      ],
      "name": "cancelBill",
      "outputs": [],
      "stateMutability": "nonpayable",
      "type": "function"
    },
    {
      "inputs": [
        {
          "internalType": "uint256",
          "name": "_billId",
          "type": "uint256"
        }
      ],
      "name": "claimBill",
      "outputs": [],
      "stateMutability": "nonpayable",
      "type": "function"
    },
    {
      "inputs": [
        {
          "internalType": "uint256",
          "name": "_billId",
          "type": "uint256"
        },
        {
          "internalType": "bytes32",
          "name": "_paymentReference",
          "type": "bytes32"
        }
      ],
      "name": "confirmPaymentSent",
      "outputs": [],
      "stateMutability": "nonpayable",
      "type": "function"
    },
    {
      "inputs": [
        {
          "internalType": "uint256",
          "name": "_fiatAmount",
          "type": "uint256"
        },
        {
          "internalType": "enum BillHavenEscrowV3.PaymentMethod",
          "name": "_paymentMethod",
          "type": "uint8"
        }
      ],
      "name": "createBill",
      "outputs": [
        {
          "internalType": "uint256",
          "name": "",
          "type": "uint256"
        }
      ],
      "stateMutability": "payable",
      "type": "function"
    },
    {
      "inputs": [
        {
          "internalType": "address",
          "name": "_token",
          "type": "address"
        },
        {
          "internalType": "uint256",
          "name": "_amount",
          "type": "uint256"
        },
        {
          "internalType": "uint256",
          "name": "_fiatAmount",
          "type": "uint256"
        },
        {
          "internalType": "enum BillHavenEscrowV3.PaymentMethod",
          "name": "_paymentMethod",
          "type": "uint8"
        }
      ],
      "name": "createBillWithToken",
      "outputs": [
        {
          "internalType": "uint256",
          "name": "",
          "type": "uint256"
        }
      ],
      "stateMutability": "nonpayable",
      "type": "function"
    },
    {
      "inputs": [],
      "name": "feeWallet",
      "outputs": [
        {
          "internalType": "address",
          "name": "",
          "type": "address"
        }
      ],
      "stateMutability": "view",
      "type": "function"
    },
    {
      "inputs": [
        {
          "internalType": "uint256",
          "name": "_billId",
          "type": "uint256"
        }
      ],
      "name": "getBill",
      "outputs": [
        {
          "components": [
            {
              "internalType": "address",
              "name": "billMaker",
              "type": "address"
            },
            {
              "internalType": "address",
              "name": "payer",
              "type": "address"
            },
            {
              "internalType": "address",
              "name": "token",
              "type": "address"
            },
            {
              "internalType": "uint256",
              "name": "amount",
              "type": "uint256"
            },
            {
              "internalType": "uint256",
              "name": "platformFee",
              "type": "uint256"
            },
            {
              "internalType": "uint256",
              "name": "fiatAmount",
              "type": "uint256"
            },
            {
              "internalType": "enum BillHavenEscrowV3.ConfirmationStatus",
              "name": "status",
              "type": "uint8"
            },
            {
              "internalType": "enum BillHavenEscrowV3.PaymentMethod",
              "name": "paymentMethod",
              "type": "uint8"
            },
            {
              "internalType": "bool",
              "name": "payerConfirmed",
              "type": "bool"
            },
            {
              "internalType": "bool",
              "name": "oracleVerified",
              "type": "bool"
            },
            {
              "internalType": "bool",
              "name": "makerConfirmed",
              "type": "bool"
            },
            {
              "internalType": "uint256",
              "name": "createdAt",
              "type": "uint256"
            },
            {
              "internalType": "uint256",
              "name": "fundedAt",
              "type": "uint256"
            },
            {
              "internalType": "uint256",
              "name": "paymentSentAt",
              "type": "uint256"
            },
            {
              "internalType": "uint256",
              "name": "verifiedAt",
              "type": "uint256"
            },
            {
              "internalType": "uint256",
              "name": "releaseTime",
              "type": "uint256"
            },
            {
              "internalType": "uint256",
              "name": "expiresAt",
              "type": "uint256"
            },
            {
              "internalType": "bytes32",
              "name": "paymentReference",
              "type": "bytes32"
            }
          ],
          "internalType": "struct BillHavenEscrowV3.Bill",
          "name": "",
          "type": "tuple"
        }
      ],
      "stateMutability": "view",
      "type": "function"
    },
    {
      "inputs": [
        {
          "internalType": "enum BillHavenEscrowV3.PaymentMethod",
          "name": "_method",
          "type": "uint8"
        }
      ],
      "name": "getHoldPeriod",
      "outputs": [
        {
          "internalType": "uint256",
          "name": "",
          "type": "uint256"
        }
      ],
      "stateMutability": "view",
      "type": "function"
    },
    {
      "inputs": [
        {
          "internalType": "bytes32",
          "name": "role",
          "type": "bytes32"
        }
      ],
      "name": "getRoleAdmin",
      "outputs": [
        {
          "internalType": "bytes32",
          "name": "",
          "type": "bytes32"
        }
      ],
      "stateMutability": "view",
      "type": "function"
    },
    {
      "inputs": [
        {
          "internalType": "address",
          "name": "_user",
          "type": "address"
        }
      ],
      "name": "getUserLimits",
      "outputs": [
        {
          "components": [
            {
              "internalType": "uint256",
              "name": "maxDailyVolume",
              "type": "uint256"
            },
            {
              "internalType": "uint256",
              "name": "maxWeeklyVolume",
              "type": "uint256"
            },
            {
              "internalType": "uint256",
              "name": "maxTradeSize",
              "type": "uint256"
            },
            {
              "internalType": "uint256",
              "name": "maxDailyTrades",
              "type": "uint256"
            }
          ],
          "internalType": "struct BillHavenEscrowV3.VelocityLimits",
          "name": "",
          "type": "tuple"
        }
      ],
      "stateMutability": "view",
      "type": "function"
    },
    {
      "inputs": [
        {
          "internalType": "address",
          "name": "_user",
          "type": "address"
        }
      ],
      "name": "getUserStats",
      "outputs": [
        {
          "components": [
            {
              "internalType": "uint256",
              "name": "totalTrades",
              "type": "uint256"
            },
            {
              "internalType": "uint256",
              "name": "successfulTrades",
              "type": "uint256"
            },
            {
              "internalType": "uint256",
              "name": "disputedTrades",
              "type": "uint256"
            },
            {
              "internalType": "uint256",
              "name": "dailyVolume",
              "type": "uint256"
            },
            {
              "internalType": "uint256",
              "name": "weeklyVolume",
              "type": "uint256"
            },
            {
              "internalType": "uint256",
              "name": "lastTradeDate",
              "type": "uint256"
            },
            {
              "internalType": "uint256",
              "name": "lastWeekStart",
              "type": "uint256"
            },
            {
              "internalType": "enum BillHavenEscrowV3.TrustLevel",
              "name": "trustLevel",
              "type": "uint8"
            },
            {
              "internalType": "bool",
              "name": "isBlacklisted",
              "type": "bool"
            }
          ],
          "internalType": "struct BillHavenEscrowV3.UserStats",
          "name": "",
          "type": "tuple"
        }
      ],
      "stateMutability": "view",
      "type": "function"
    },
    {
      "inputs": [
        {
          "internalType": "bytes32",
          "name": "role",
          "type": "bytes32"
        },
        {
          "internalType": "address",
          "name": "account",
          "type": "address"
        }
      ],
      "name": "grantRole",
      "outputs": [],
      "stateMutability": "nonpayable",
      "type": "function"
    },
    {
      "inputs": [
        {
          "internalType": "bytes32",
          "name": "role",
          "type": "bytes32"
        },
        {
          "internalType": "address",
          "name": "account",
          "type": "address"
        }
      ],
      "name": "hasRole",
      "outputs": [
        {
          "internalType": "bool",
          "name": "",
          "type": "bool"
        }
      ],
      "stateMutability": "view",
      "type": "function"
    },
    {
      "inputs": [
        {
          "internalType": "enum BillHavenEscrowV3.PaymentMethod",
          "name": "",
          "type": "uint8"
        }
      ],
      "name": "holdPeriods",
      "outputs": [
        {
          "internalType": "uint256",
          "name": "",
          "type": "uint256"
        }
      ],
      "stateMutability": "view",
      "type": "function"
    },
    {
      "inputs": [
        {
          "internalType": "enum BillHavenEscrowV3.PaymentMethod",
          "name": "_method",
          "type": "uint8"
        }
      ],
      "name": "isMethodBlocked",
      "outputs": [
        {
          "internalType": "bool",
          "name": "",
          "type": "bool"
        }
      ],
      "stateMutability": "view",
      "type": "function"
    },
    {
      "inputs": [
        {
          "internalType": "uint256",
          "name": "_billId",
          "type": "uint256"
        }
      ],
      "name": "makerConfirmAndRelease",
      "outputs": [],
      "stateMutability": "nonpayable",
      "type": "function"
    },
    {
      "inputs": [
        {
          "internalType": "uint256",
          "name": "_billId",
          "type": "uint256"
        }
      ],
      "name": "makerConfirmPayment",
      "outputs": [],
      "stateMutability": "nonpayable",
      "type": "function"
    },
    {
      "inputs": [],
      "name": "minConfirmations",
      "outputs": [
        {
          "internalType": "uint256",
          "name": "",
          "type": "uint256"
        }
      ],
      "stateMutability": "view",
      "type": "function"
    },
    {
      "inputs": [],
      "name": "pause",
      "outputs": [],
      "stateMutability": "nonpayable",
      "type": "function"
    },
    {
      "inputs": [],
      "name": "paused",
      "outputs": [
        {
          "internalType": "bool",
          "name": "",
          "type": "bool"
        }
      ],
      "stateMutability": "view",
      "type": "function"
    },
    {
      "inputs": [],
      "name": "platformFeePercent",
      "outputs": [
        {
          "internalType": "uint256",
          "name": "",
          "type": "uint256"
        }
      ],
      "stateMutability": "view",
      "type": "function"
    },
    {
      "inputs": [
        {
          "internalType": "uint256",
          "name": "_billId",
          "type": "uint256"
        }
      ],
      "name": "raiseDispute",
      "outputs": [],
      "stateMutability": "nonpayable",
      "type": "function"
    },
    {
      "inputs": [
        {
          "internalType": "uint256",
          "name": "_billId",
          "type": "uint256"
        }
      ],
      "name": "refundExpiredBill",
      "outputs": [],
      "stateMutability": "nonpayable",
      "type": "function"
    },
    {
      "inputs": [
        {
          "internalType": "uint256",
          "name": "_billId",
          "type": "uint256"
        }
      ],
      "name": "releaseFunds",
      "outputs": [],
      "stateMutability": "nonpayable",
      "type": "function"
    },
    {
      "inputs": [
        {
          "internalType": "address",
          "name": "_oracle",
          "type": "address"
        }
      ],
      "name": "removeOracle",
      "outputs": [],
      "stateMutability": "nonpayable",
      "type": "function"
    },
    {
      "inputs": [
        {
          "internalType": "address",
          "name": "_token",
          "type": "address"
        }
      ],
      "name": "removeSupportedToken",
      "outputs": [],
      "stateMutability": "nonpayable",
      "type": "function"
    },
    {
      "inputs": [
        {
          "internalType": "bytes32",
          "name": "role",
          "type": "bytes32"
        },
        {
          "internalType": "address",
          "name": "callerConfirmation",
          "type": "address"
        }
      ],
      "name": "renounceRole",
      "outputs": [],
      "stateMutability": "nonpayable",
      "type": "function"
    },
    {
      "inputs": [],
      "name": "rescueStuckFunds",
      "outputs": [],
      "stateMutability": "nonpayable",
      "type": "function"
    },
    {
      "inputs": [
        {
          "internalType": "address",
          "name": "_token",
          "type": "address"
        }
      ],
      "name": "rescueStuckTokens",
      "outputs": [],
      "stateMutability": "nonpayable",
      "type": "function"
    },
    {
      "inputs": [
        {
          "internalType": "uint256",
          "name": "_billId",
          "type": "uint256"
        },
        {
          "internalType": "bool",
          "name": "_releaseToPayer",
          "type": "bool"
        }
      ],
      "name": "resolveDispute",
      "outputs": [],
      "stateMutability": "nonpayable",
      "type": "function"
    },
    {
      "inputs": [
        {
          "internalType": "bytes32",
          "name": "role",
          "type": "bytes32"
        },
        {
          "internalType": "address",
          "name": "account",
          "type": "address"
        }
      ],
      "name": "revokeRole",
      "outputs": [],
      "stateMutability": "nonpayable",
      "type": "function"
    },
    {
      "inputs": [
        {
          "internalType": "enum BillHavenEscrowV3.PaymentMethod",
          "name": "_method",
          "type": "uint8"
        },
        {
          "internalType": "bool",
          "name": "_blocked",
          "type": "bool"
        }
      ],
      "name": "setMethodBlocked",
      "outputs": [],
      "stateMutability": "nonpayable",
      "type": "function"
    },
    {
      "inputs": [
        {
          "internalType": "address",
          "name": "_user",
          "type": "address"
        },
        {
          "internalType": "bool",
          "name": "_blacklisted",
          "type": "bool"
        }
      ],
      "name": "setUserBlacklist",
      "outputs": [],
      "stateMutability": "nonpayable",
      "type": "function"
    },
    {
      "inputs": [
        {
          "internalType": "address",
          "name": "_user",
          "type": "address"
        },
        {
          "internalType": "enum BillHavenEscrowV3.TrustLevel",
          "name": "_level",
          "type": "uint8"
        }
      ],
      "name": "setUserTrustLevel",
      "outputs": [],
      "stateMutability": "nonpayable",
      "type": "function"
    },
    {
      "inputs": [
        {
          "internalType": "address",
          "name": "",
          "type": "address"
        }
      ],
      "name": "supportedTokens",
      "outputs": [
        {
          "internalType": "bool",
          "name": "",
          "type": "bool"
        }
      ],
      "stateMutability": "view",
      "type": "function"
    },
    {
      "inputs": [
        {
          "internalType": "bytes4",
          "name": "interfaceId",
          "type": "bytes4"
        }
      ],
      "name": "supportsInterface",
      "outputs": [
        {
          "internalType": "bool",
          "name": "",
          "type": "bool"
        }
      ],
      "stateMutability": "view",
      "type": "function"
    },
    {
      "inputs": [
        {
          "internalType": "address",
          "name": "",
          "type": "address"
        }
      ],
      "name": "trustedOracles",
      "outputs": [
        {
          "internalType": "bool",
          "name": "",
          "type": "bool"
        }
      ],
      "stateMutability": "view",
      "type": "function"
    },
    {
      "inputs": [],
      "name": "unpause",
      "outputs": [],
      "stateMutability": "nonpayable",
      "type": "function"
    },
    {
      "inputs": [
        {
          "internalType": "address",
          "name": "_newWallet",
          "type": "address"
        }
      ],
      "name": "updateFeeWallet",
      "outputs": [],
      "stateMutability": "nonpayable",
      "type": "function"
    },
    {
      "inputs": [
        {
          "internalType": "enum BillHavenEscrowV3.PaymentMethod",
          "name": "_method",
          "type": "uint8"
        },
        {
          "internalType": "uint256",
          "name": "_period",
          "type": "uint256"
        }
      ],
      "name": "updateHoldPeriod",
      "outputs": [],
      "stateMutability": "nonpayable",
      "type": "function"
    },
    {
      "inputs": [
        {
          "internalType": "uint256",
          "name": "_newFeePercent",
          "type": "uint256"
        }
      ],
      "name": "updatePlatformFee",
      "outputs": [],
      "stateMutability": "nonpayable",
      "type": "function"
    },
    {
      "inputs": [
        {
          "internalType": "enum BillHavenEscrowV3.TrustLevel",
          "name": "_level",
          "type": "uint8"
        },
        {
          "internalType": "uint256",
          "name": "_maxDaily",
          "type": "uint256"
        },
        {
          "internalType": "uint256",
          "name": "_maxWeekly",
          "type": "uint256"
        },
        {
          "internalType": "uint256",
          "name": "_maxTrade",
          "type": "uint256"
        },
        {
          "internalType": "uint256",
          "name": "_maxDailyTrades",
          "type": "uint256"
        }
      ],
      "name": "updateVelocityLimits",
      "outputs": [],
      "stateMutability": "nonpayable",
      "type": "function"
    },
    {
      "inputs": [
        {
          "internalType": "bytes32",
          "name": "",
          "type": "bytes32"
        }
      ],
      "name": "usedPaymentReferences",
      "outputs": [
        {
          "internalType": "bool",
          "name": "",
          "type": "bool"
        }
      ],
      "stateMutability": "view",
      "type": "function"
    },
    {
      "inputs": [
        {
          "internalType": "address",
          "name": "",
          "type": "address"
        }
      ],
      "name": "userStats",
      "outputs": [
        {
          "internalType": "uint256",
          "name": "totalTrades",
          "type": "uint256"
        },
        {
          "internalType": "uint256",
          "name": "successfulTrades",
          "type": "uint256"
        },
        {
          "internalType": "uint256",
          "name": "disputedTrades",
          "type": "uint256"
        },
        {
          "internalType": "uint256",
          "name": "dailyVolume",
          "type": "uint256"
        },
        {
          "internalType": "uint256",
          "name": "weeklyVolume",
          "type": "uint256"
        },
        {
          "internalType": "uint256",
          "name": "lastTradeDate",
          "type": "uint256"
        },
        {
          "internalType": "uint256",
          "name": "lastWeekStart",
          "type": "uint256"
        },
        {
          "internalType": "enum BillHavenEscrowV3.TrustLevel",
          "name": "trustLevel",
          "type": "uint8"
        },
        {
          "internalType": "bool",
          "name": "isBlacklisted",
          "type": "bool"
        }
      ],
      "stateMutability": "view",
      "type": "function"
    },
    {
      "inputs": [
        {
          "internalType": "enum BillHavenEscrowV3.TrustLevel",
          "name": "",
          "type": "uint8"
        }
      ],
      "name": "velocityLimits",
      "outputs": [
        {
          "internalType": "uint256",
          "name": "maxDailyVolume",
          "type": "uint256"
        },
        {
          "internalType": "uint256",
          "name": "maxWeeklyVolume",
          "type": "uint256"
        },
        {
          "internalType": "uint256",
          "name": "maxTradeSize",
          "type": "uint256"
        },
        {
          "internalType": "uint256",
          "name": "maxDailyTrades",
          "type": "uint256"
        }
      ],
      "stateMutability": "view",
      "type": "function"
    },
    {
      "inputs": [
        {
          "internalType": "uint256",
          "name": "_billId",
          "type": "uint256"
        },
        {
          "internalType": "bytes32",
          "name": "_paymentReference",
          "type": "bytes32"
        },
        {
          "internalType": "uint256",
          "name": "_fiatAmount",
          "type": "uint256"
        },
        {
          "internalType": "uint256",
          "name": "_timestamp",
          "type": "uint256"
        },
        {
          "internalType": "bytes",
          "name": "_signature",
          "type": "bytes"
        }
      ],
      "name": "verifyPaymentReceived",
      "outputs": [],
      "stateMutability": "nonpayable",
      "type": "function"
    },
    {
      "stateMutability": "payable",
      "type": "receive"
    }
  ],
  "bytecode": "0x6080346200027f57601f62003ddc38819003918201601f1916830192916001600160401b038411838510176200028457808392604095865283396020928391810103126200027f57516001600160a01b038116908190036200027f576001916000918383556101b8600d5583600e5580156200026e57600c80546001600160a01b0319169190911790556200009433620002ba565b50620000a0336200033b565b50620000ac33620003de565b50818052600581528382209160ff19928484825416179055600982528085812055838152610e10858220556002908181526202a300868220556003938482526201518087832055600482526203f480808884205560058352620697808884205560068352878320556009825262093a808783205560078252600a845286822086828254161790556008825285878320918254161790556200014c6200029a565b94620186a0865283860195856207a1209788815289830161c35081526060840191838352868052600889528b8720945185555185850155518684015551910155620001966200029a565b9586528386019585621e84809788815289830162030d4081526060840191600a8352858752600889528b8720945185555185850155518684015551910155620001de6200029a565b95865283860195856298968097888152898301620f42408152606084019160148352878752600889528b8720945185555185850155518684015551910155620002266200029a565b9586528386016302faf08081528780880193624c4b408552600860608a01976032895289835252209651875551908601555190840155519101555161393f90816200047d8239f35b845163e6c4247b60e01b8152600490fd5b600080fd5b634e487b7160e01b600052604160045260246000fd5b60405190608082016001600160401b038111838210176200028457604052565b6001600160a01b031660008181527fac33ff75c19e70fe83507db0d683fd3465c996598dc972688b7ace676c89077b602052604081205490919060ff16620003375781805260026020526040822081835260205260408220600160ff19825416179055339160008051602062003dbc8339815191528180a4600190565b5090565b6001600160a01b031660008181527fe5ebfa64fca8d502a8e50c1edffd2c31ef4dad5b396e65d9f397fb028f74abc560205260408120549091907fa49807205ce4d355092ef5a8a18f56e8913cf4a201fbe287825b095693c217759060ff16620003d95780835260026020526040832082845260205260408320600160ff1982541617905560008051602062003dbc833981519152339380a4600190565b505090565b6001600160a01b031660008181527f824854fce2b26a685510a23e94ce095a99e4d883af92f3bad8a69b2ed000be4160205260408120549091907f16ceee8289685dd2a02b9c8ae81d2df373176ce53519e6284e2a2950d6546ffa9060ff16620003d95780835260026020526040832082845260205260408320600160ff1982541617905560008051602062003dbc833981519152339380a460019056fe608080604052600436101561001d575b50361561001b57600080fd5b005b60003560e01c90816301ffc9a7146128d95750806302e9264e1461289557806307e2cea51461285a5780630a5c722f146126cd5780630b86fb0f146126485780630c1fe80c146124855780631930eae71461238a5780631fbee6c51461041b578063248a9ca31461235b57806328bdcde81461223f5780632b3b4752146121a95780632f2ff15d1461216a57806334b25ee21461203257806336568abe14611feb57806338dd40c01461070b5780633f4ba83a14611f94578063459b860e14611f185780634d68282f14611e185780634e43603a14611cd45780635c975abb14611cb15780636179862414611bd457806362e87b8c1461194657806366718524146118fe578063677629881461185c57806368c4ac261461181d5780636d69fcaf146117d257806372baa6381461156157806374ee23e61461146b57806375b238fc1461143057806376319190146113e85780638456cb591461138f5780638a65d874146112ee5780638c639a85146112d057806391d14854146112835780639c078c3a146111f65780639cea0787146111bb5780639d7a03391461119d578063a217fddf14611181578063a5c1674e1461104f578063a73222fb14610fef578063a81ea0e514610c15578063aa0b598814610bd9578063b1cd06e61461094d578063b2f70e96146108d6578063bc063e1a146108b9578063c5c8010a146107a6578063ca440b9f1461074e578063cc73bab41461070b578063ccddf0b0146106ae578063cd2cb46d146105d0578063d547741f14610591578063db29660214610552578063df5dd1a5146104c5578063e1d239db14610494578063e1f1c4a714610477578063e7c4393e14610459578063f06edf291461041b578063f25f4b56146103f2578063f562e122146103365763fdc85fc4146102be573861000f565b34610331576020366003190112610331576102d761292c565b6102df612991565b6001600160a01b0381166000818152600660205260409020805460ff191690559061030990612b41565b507f9c8e7d83025bef8a04c664b2f753f64b8814bdb7e27291d7e50935f18cc3c712600080a2005b600080fd5b34610331576020806003193601126103315760809061035361292c565b6000606060405161036381612ca0565b8281528285820152826040820152015260018060a01b03166000526004815260ff6007604060002001541661039781612987565b600052600881526040600020604051906103b082612ca0565b80549283835260018201548184019081526060600360028501549460408701958652015494019384526040519485525190840152516040830152516060820152f35b3461033157600036600319011261033157600c546040516001600160a01b039091168152602090f35b3461033157602036600319011261033157600435600a8110156103315761044181612958565b60005260096020526020604060002054604051908152f35b34610331576000366003190112610331576020600e54604051908152f35b346103315760003660031901126103315760206040516127108152f35b34610331576020366003190112610331576004356000526007602052602060ff604060002054166040519015158152f35b34610331576020366003190112610331576104de61292c565b6104e6612991565b6001600160a01b03811690811561054057610519908260005260066020526040600020600160ff19825416179055612a13565b507e47706786c922d17b39285dc59d696bafea72c0b003d3841ae1202076f4c2e4600080a2005b60405163e6c4247b60e01b8152600490fd5b34610331576020366003190112610331576001600160a01b0361057361292c565b166000526006602052602060ff604060002054166040519015158152f35b346103315760403660031901126103315761001b6004356105b0612942565b908060005260026020526105cb6001604060002001546129ed565b612bed565b34610331576020366003190112610331576004356105ec612d89565b6105f4612d6b565b600081815260036020526040902080546001600160a01b0316330361069c576006019081549160ff831661062781612958565b60038114159081610686575b81610671575b5061065f576401000000006106589364ff000000001916179055612fab565b6001600055005b60405163baf3f0f760e01b8152600490fd5b6005915061067e81612958565b141584610639565b905061069181612958565b600481141590610633565b6040516337ac59f760e11b8152600490fd5b34610331576040366003190112610331576106c761292c565b6106cf612978565b906106d8612991565b6001600160a01b03166000908152600460205260409020600701805461ff00191691151560081b61ff0016919091179055005b3461033157602036600319011261033157600435600a8110156103315761073181612958565b600052600a602052602060ff604060002054166040519015158152f35b3461033157604036600319011261033157600435600a81101561033157610773612978565b9061077c612991565b61078581612958565b600052600a60205260406000209060ff801983541691151516179055600080f35b34610331576020366003190112610331576004356107c2612d6b565b600081815260036020526040902080546001600160a01b0316330361069c576006810180549060ff82166107f581612958565b60038114908115806108a5575b61065f5764ff0000000019841664010000000017835561082190612958565b610859575b837ff6290085419aef756daab446f349a2b978fb567dcfc918f5d5dac67d2021076d6040805133815260006020820152a2005b64010000000460ff9264ff000000ff19161780915542600a84015560081c1661088181612958565b6000526009602052600b61089a60406000205442612c93565b910155818080610826565b506108af81612958565b6004811415610802565b346103315760003660031901126103315760206040516103e88152f35b3461033157602080600319360112610331576108f36004356137bb565b90604051928391151582526040818301528251908160408401526000935b828510610934575050606092506000838284010152601f80199101168101030190f35b8481018201518686016060015293810193859350610911565b3461033157602036600319011261033157600061022060405161096f81612cd9565b8281528260208201528260408201528260608201528260808201528260a08201528260c08201528260e08201528261010082015282610120820152826101408201528261016082015282610180820152826101a0820152826101c0820152826101e082015282610200820152015260043560005260036020526102406040600020600d604051916109ff83612cd9565b80546001600160a01b03908116845260018201548116602085015260028201541660408401526003810154606084015260048101546080840152600581015460a0840152600681015460ff90808216610a5781612958565b60c0860152818160081c16610a6b81612958565b60e0860152818160101c161515610100860152818160181c16151561012086015260201c1615156101408401526007810154610160840152600881015461018084015260098101546101a0840152600a8101546101c0840152600b8101546101e0840152600c81015461020084015201546102208201526102206040519160018060a01b03815116835260018060a01b03602082015116602084015260018060a01b036040820151166040840152606081015160608401526080810151608084015260a081015160a084015260c0810151610b4581612958565b60c084015260e0810151610b5881612958565b60e08401526101008101511515610100840152610120810151151561012084015261014081015115156101408401526101608101516101608401526101808101516101808401526101a08101516101a08401526101c08101516101c08401526101e08101516101e08401526102008101516102008401520151610220820152f35b3461033157602036600319011261033157600435610bf5612991565b6103e88111610c0357600d55005b60405163162908e360e11b8152600490fd5b3461033157608036600319011261033157610c2e61292c565b602435906044359060643590600a82101561033157610c4b612d89565b610c53612d6b565b6001600160a01b03169182156105405782600052600560205260ff6040600020541615610fdd578315610c0357610c8982612958565b81600052600a60205260ff60406000205416610fcb57610ca981336132a4565b612710610cb8600d5486612c64565b0492610cc48486612c77565b946040516323b872dd60e01b60208201523360248201523060448201528160648201526064815260a081019080821067ffffffffffffffff831117610fb557610d109160405283612dac565b610d1b600b54612c84565b9182600b5562093a8042014211610f9f576020967f2469925ccefb03acd27c12d788551eb22b1874ded2deb93e787464c9a3f3d83c967f2f7de55139de6fc244276fea13cfd810747cea11cb889582d3966aef80cc6f6095899560405191610d8283612cd9565b33835260008884015285604084015284606084015283608084015260a0830152600160c0830152610db289612958565b8860e0830152600061010083015260006101208301526000610140830152426101608301524261018083015260006101a083015260006101c083015260006101e083015262093a804201610200830152600061022083015260005260038652600d61022060406000209260018060a01b038151166001600160601b0360a01b90818654161785556001850160018060a01b038b8401511682825416179055600285019060018060a01b0360408401511690825416179055606081015160038501556080810151600485015560a08101516005850155610f2860068501610ea560c0840151610e9f81612958565b82612d34565b60e0830151610eb381612958565b610ebc81612958565b815461010085015162ffff001990911660089290921b61ff00169190911790151560101b62ff000016178155610120830151815463ff000000191690151560181b63ff00000016178155610140830151815464ff00000000191690151560201b64ff0000000016179055565b610160810151600785015561018081015160088501556101a081015160098501556101c0810151600a8501556101e0810151600b850155610200810151600c8501550151910155600b549788978892610f88604051928392339784612d4c565b0390a4604051908152a26001600055604051908152f35b634e487b7160e01b600052601160045260246000fd5b634e487b7160e01b600052604160045260246000fd5b60405163176fa74160e21b8152600490fd5b604051633dd1b30560e01b8152600490fd5b346103315760203660031901126103315760043560048110156103315761101581612987565b6000526008602052608060406000208054906001810154906003600282015491015491604051938452602084015260408301526060820152f35b346103315760203660031901126103315760043561106b612d6b565b600081815260036020526040902080546001600160a01b0391908216903382141580611171575b61115f57600681019182549060ff82166110ab81612958565b6006811490811561114a575b8115611135575b8115611121575b5061065f5760019360076110df9360ff1916179055613687565b01541680611112575b5033907f5af9d49f4a6a457555195a3b1d151b29d9708c5cc9074c9b3b08ec68d17f8cde600080a3005b61111b90613687565b816110e8565b6007915061112e81612958565b14876110c5565b905061114081612958565b60098114906110be565b905061115581612958565b60088114906110b7565b60405163ea8e4eb560e01b8152600490fd5b5082600182015416331415611092565b3461033157600036600319011261033157602060405160008152f35b34610331576000366003190112610331576020600b54604051908152f35b346103315760003660031901126103315760206040517f16ceee8289685dd2a02b9c8ae81d2df373176ce53519e6284e2a2950d6546ffa8152f35b3461033157602036600319011261033157600435611212612d89565b8060005260036020526040600020600c8101544211156112715760018101546001600160a01b031661125f5760ff600660019201541661125181612958565b0361065f576106589061319c565b6040516322e36a8760e21b8152600490fd5b604051631c1a054b60e01b8152600490fd5b346103315760403660031901126103315761129c612942565b600435600052600260205260406000209060018060a01b0316600052602052602060ff604060002054166040519015158152f35b34610331576000366003190112610331576020600d54604051908152f35b34610331576020366003190112610331576001600160a01b0361130f61292c565b166000526004602052610120604060002060ff815491600181015460028201549160038101546004820154600583015491600760068501549401549587871695604051998a5260208a015260408901526060880152608087015260a086015260c085015261137c81612987565b60e084015260081c161515610100820152f35b34610331576000366003190112610331576113a8612991565b6113b0612d6b565b600160ff19815416176001557f62e78cea01bee320cd4e420270b5ea74000d11b0c9f74754ebdbfc544b05a2586020604051338152a1005b346103315760203660031901126103315761140161292c565b611409612991565b6001600160a01b03168015610540576000908152600560205260409020805460ff19169055005b346103315760003660031901126103315760206040517fa49807205ce4d355092ef5a8a18f56e8913cf4a201fbe287825b095693c217758152f35b346103315760403660031901126103315760043560243561148a612d6b565b600082815260036020526040902060018101546001600160a01b0316330361154f576006810191825492600260ff85166114c381612958565b0361065f5781600052600760205260ff6040600020541661153d57600d6020938392620100037fec2ddc8c49b05b6a2c186d6f1481d3167f08de1c5a5de04f94a9f6e800b335529762ff00ff1916179055426009820155015580600052600782526040600020600160ff19825416179055604051908152a2005b6040516304f6343d60e21b8152600490fd5b60405163ed6f48a160e01b8152600490fd5b604036600319011261033157600435600a602435101561033157611583612d89565b61158b612d6b565b3415610c035761159c602435612958565b602435600052600a60205260ff60406000205416610fcb576115be81336132a4565b6127106115cd600d5434612c64565b04906115d98234612c77565b916115e5600b54612c84565b9081600b5562093a8042014211610f9f57602093611798936000936040519161160d83612cd9565b338352858884015285604084015283606084015284608084015260a0830152600160c083015261163e602435612958565b60243560e08301528461010083015284610120830152846101408301524261016083015242610180830152846101a0830152846101c0830152846101e083015262093a80420161020083015284610220830152845260038652600d610220604086209260018060a01b03808251166001600160601b0360a01b908187541617865560018601828c8501511682825416179055600286019160408401511690825416179055606081015160038501556080810151600485015560a0810151600585015561171860068501610ea560c0840151610e9f81612958565b610160810151600785015561018081015160088501556101a081015160098501556101c0810151600a8501556101e0810151600b850155610200810151600c85015501519101557f2469925ccefb03acd27c12d788551eb22b1874ded2deb93e787464c9a3f3d83c600b5494859260405191829133966024359184612d4c565b0390a4807f2f7de55139de6fc244276fea13cfd810747cea11cb889582d3966aef80cc6f6083604051348152a26001600055604051908152f35b34610331576020366003190112610331576117eb61292c565b6117f3612991565b6001600160a01b03168015610540576000908152600560205260409020805460ff19166001179055005b34610331576020366003190112610331576001600160a01b0361183e61292c565b166000526005602052602060ff604060002054166040519015158152f35b3461033157602036600319011261033157600435611878612d89565b600081815260036020526040902080546001600160a01b03908116330361069c576006820191600160ff8454166118ae81612958565b0361065f57600101541661125f576118c58261319c565b805460ff1916600917905533907f041d0e14dd8abcd72311b1c9267065414e8c2c246ad9914a60cc99ccea19446d600080a36001600055005b346103315760203660031901126103315761191761292c565b61191f612991565b6001600160a01b03168015610540576001600160601b0360a01b600c541617600c55600080f35b346103315760a03660031901126103315760043567ffffffffffffffff608435606435602435604435848411610331573660238501121561033157836004013594808611610331573660248787010111610331576119a2612d89565b6119aa612d6b565b86600052602094600386526040600020966006880194855496600360ff89166119d281612958565b0361065f5781600d8b015403611bc2578560058b015403610c0357428111611bc257610e0f194201428111610f9f578110611bc2578a9160018b0154968b5497604051988c8a019586526001600160601b0319809260601b1660408b015260601b1660548901526068880152608887015260a886015260a8855260e085019385851090851117610fb557611acd94611ac4946040525190207f19457468657265756d205369676e6564204d6573736167653a0a333200000000600052601c52600087603c822092806024611aa582612e08565b96611ab36040519889612d12565b828852018387013784010152612e24565b90929192612ef0565b6001600160a01b0316600081815260068552604090205490949060ff1615611bc257857ff6290085419aef756daab446f349a2b978fb567dcfc918f5d5dac67d2021076d6040600b9563ff0000ff19169760ff63010000048a1780885542600a88015560081c1694611b3e86612958565b8560005260098952611b54836000205442612c93565b97889101558151908152600188820152a2611b6e81612958565b6000526009835260406000205415611b87576001600055005b63010000057fb3712c80285d461d18d6dd4780227a6b6f17bf80b7064d9055d932bb28b18fc794179055604051908152a28080808080610658565b604051638baa579f60e01b8152600490fd5b34610331576040366003190112610331576040600435611bf2612978565b60648204620f42408110611c1e575050612710611c1160508093612c64565b0482519182526020820152f35b6207a1208110611c39575050612710611c1160788093612c64565b61c3508110611c53575050612710611c1160aa8093612c64565b614e208110611c6e575050612710611c116101188093612c64565b61271011611c875750612710611c1161015e8093612c64565b15611ca057612710611c1161ffff60dc5b168093612c64565b612710611c1161ffff6101b8611c98565b3461033157600036600319011261033157602060ff600154166040519015158152f35b3461033157602036600319011261033157610120611cf061292c565b60405190611cfd82612cbc565b6000825260006020830152600060408301526000606083015260006080830152600060a0830152600060c0830152600060e083015260006101008093015260018060a01b0316600052600460205260406000209060405191611d5e83612cbc565b805483526001810154602084019081526002820154916040850192835260038101546060860190815260048201546080870190815260058301549160a08801928352600760068501549460c08a0195865201549560ff87169560e08a0196611dc581612987565b875260ff898b019860081c161515885260405199518a525160208a01525160408901525160608801525160808701525160a08601525160c085015251611e0a81612987565b60e084015251151590820152f35b3461033157602036600319011261033157600435611e34612d89565b611e3c612d6b565b806000526003602052604060002060ff600682015416611e5b81612958565b60048114159081611f03575b5061065f57600b8101544210611eee578054336001600160a01b0391821614159182611edc575b505080611ea3575b61115f5761065890612fab565b503360009081527fe5ebfa64fca8d502a8e50c1edffd2c31ef4dad5b396e65d9f397fb028f74abc5602052604090205460ff1615611e96565b60019192500154163314158280611e8e565b604051600162a6d88760e01b03198152600490fd5b60059150611f1081612958565b141583611e67565b3461033157602036600319011261033157600435611f34612d89565b611f3c612d6b565b806000526003602052604060002060ff600682015416611f5b81612958565b60048114159081611f7f575b5061065f57600b01544210611eee5761065890612fab565b60059150611f8c81612958565b141583611f67565b3461033157600036600319011261033157611fad612991565b611fb56138ea565b60ff19600154166001557f5db9ee0a495bf2e6ff9c91a7834c1ba4fdd244a5e8aa4e537bd38aeae4b073aa6020604051338152a1005b3461033157604036600319011261033157612004612942565b336001600160a01b038216036120205761001b90600435612bed565b60405163334bd91960e11b8152600490fd5b346103315760403660031901126103315760043561204e612978565b3360009081527f824854fce2b26a685510a23e94ce095a99e4d883af92f3bad8a69b2ed000be4160205260409020547f16ceee8289685dd2a02b9c8ae81d2df373176ce53519e6284e2a2950d6546ffa9060ff161561214c57506120b0612d89565b8160005260036020526040600020600760ff6006830154166120d181612958565b0361065f5781806040927fe4869990df273a675df63cd0acf961e8cac9e8c47748a9d71c02c21e510e850c9491612135575b50156121275761211284612fab565b81519015158152336020820152a26001600055005b6121308461319c565b612112565b600101546001600160a01b03161515905085612103565b6044906040519063e2517d3f60e01b82523360048301526024820152fd5b346103315760403660031901126103315761001b600435612189612942565b908060005260026020526121a46001604060002001546129ed565b612ac6565b34610331576040366003190112610331576121c261292c565b6024359060048210156103315760207f506ec58ef84fdef2d0f37be02d5a6bfce019136479212ed8425b4d4910fcb5de916121fb612991565b6001600160a01b03166000818152600483526040902090939060070161222082612987565b60ff1981541660ff83161790556040519061223a81612987565b8152a2005b346103315760203660031901126103315760043560005260036020526040600020600160a01b60019003808254169181600182015416916002820154166003820154600483015460058401546006850154600786015490600887015492600988015494600a89015496600b8a015498600c8b01549a600d01549b604051809e81526020015260408d015260608c015260808b015260a08a015260ff81166122e581612958565b60c08a01528060081c60ff166122fa81612958565b60e08a01528060101c60ff1615156101008a01528060181c60ff1615156101208a015260201c60ff1615156101408901526101608801526101808701526101a08601526101c08501526101e084015261020083015261022082015261024090f35b346103315760203660031901126103315760043560005260026020526020600160406000200154604051908152f35b34610331576020366003190112610331576004356123a6612d89565b6123ae612d6b565b600081815260036020526040902080546001600160a01b03908116918215612473576006810192600160ff8554166123e581612958565b0361065f57600182019283541661125f57331461115f57600c810154421015612461576005612416910154336132a4565b336001600160601b0360a01b825416179055600260ff1982541617905533907f0b32da9354607796544422f364ca1aec8a7b6e85fdb196e204bf0ed62cb620ae600080a36001600055005b604051631390df2960e01b8152600490fd5b60405163cf897cfb60e01b8152600490fd5b34610331576020806003193601126103315761249f61292c565b6124a7612991565b6124af6138ea565b6001600160a01b0390811680156105405760006001600b54905b818111156125905750506040516370a0823160e01b8152306004820152908482602481865afa801561258457600090612555575b6125079250612c77565b91821561251d5761001b9350600c54169061315c565b60405162461bcd60e51b815260048101859052601060248201526f4e6f2065786365737320746f6b656e7360801b6044820152606490fd5b508482813d831161257d575b61256b8183612d12565b810103126103315761250791516124fd565b503d612561565b6040513d6000823e3d90fd5b8060005260038087526040600020908587600284015416148061262e575b80612613575b806125f8575b6125cf575b50506125ca90612c84565b6124c9565b936125ea8260046125ca95976125f095015491015490612c93565b90612c93565b9290876125bf565b50600960ff60068401541661260c81612958565b14156125ba565b50600860ff60068401541661262781612958565b14156125b4565b50600660ff818401541661264181612958565b14156125ae565b346103315760a03660031901126103315760043560048110156103315761266d612991565b60036040519161267c83612ca0565b602435835260208301604435815260408401906064358252606085019260843584526126a781612987565b600052600860205260406000209451855551600185015551600284015551910155600080f35b34610331576000366003190112610331576126e6612991565b6126ee6138ea565b60006001600b54905b818111156127a2576127098347612c77565b801561276b57600c546000918291829182916001600160a01b03165af161272e612f7b565b501561273657005b60405162461bcd60e51b815260206004820152600d60248201526c14995cd8dd594819985a5b1959609a1b6044820152606490fd5b60405162461bcd60e51b815260206004820152600f60248201526e4e6f206578636573732066756e647360881b6044820152606490fd5b8060005260038060205260406000209060018060a01b036002830154161580612840575b80612825575b8061280a575b6127e7575b50506127e290612c84565b6126f7565b936125ea8260046127e2959761280295015491015490612c93565b9290846127d7565b50600960ff60068401541661281e81612958565b14156127d2565b50600860ff60068401541661283981612958565b14156127cc565b50600660ff818401541661285381612958565b14156127c6565b346103315760003660031901126103315760206040517f68e79a7bf1e0bc45d0a330c573bc367f9cf464fd326078812f301165fbda4ef18152f35b3461033157604036600319011261033157600435600a811015610331576128ba612991565b6128c381612958565b6000526009602052602435604060002055600080f35b34610331576020366003190112610331576004359063ffffffff60e01b821680920361033157602091637965db0b60e01b811490811561291b575b5015158152f35b6301ffc9a760e01b14905083612914565b600435906001600160a01b038216820361033157565b602435906001600160a01b038216820361033157565b600a111561296257565b634e487b7160e01b600052602160045260246000fd5b60243590811515820361033157565b6004111561296257565b3360009081527fe5ebfa64fca8d502a8e50c1edffd2c31ef4dad5b396e65d9f397fb028f74abc560205260409020547fa49807205ce4d355092ef5a8a18f56e8913cf4a201fbe287825b095693c217759060ff161561214c5750565b80600052600260205260406000203360005260205260ff604060002054161561214c5750565b6001600160a01b031660008181527f4c5dd14cc36ac74df3f3035fa8453ebdbc47c888eb74d355b623b33097c65a4b60205260408120549091907f68e79a7bf1e0bc45d0a330c573bc367f9cf464fd326078812f301165fbda4ef19060ff16612ac15780835260026020526040832082845260205260408320600160ff198254161790557f2f8788117e7eff1d82e926ec794901d17c78024a50270940304540a733656f0d339380a4600190565b505090565b906000918083526002602052604083209160018060a01b03169182845260205260ff60408420541615600014612ac15780835260026020526040832082845260205260408320600160ff198254161790557f2f8788117e7eff1d82e926ec794901d17c78024a50270940304540a733656f0d339380a4600190565b6001600160a01b031660008181527f4c5dd14cc36ac74df3f3035fa8453ebdbc47c888eb74d355b623b33097c65a4b60205260408120549091907f68e79a7bf1e0bc45d0a330c573bc367f9cf464fd326078812f301165fbda4ef19060ff1615612ac1578083526002602052604083208284526020526040832060ff1981541690557ff6391f5c32d9c69d2a47ea670b442974b53935d1edc7fd64eb21e047a839171b339380a4600190565b906000918083526002602052604083209160018060a01b03169182845260205260ff604084205416600014612ac1578083526002602052604083208284526020526040832060ff1981541690557ff6391f5c32d9c69d2a47ea670b442974b53935d1edc7fd64eb21e047a839171b339380a4600190565b81810292918115918404141715610f9f57565b91908203918211610f9f57565b6000198114610f9f5760010190565b91908201809211610f9f57565b6080810190811067ffffffffffffffff821117610fb557604052565b610120810190811067ffffffffffffffff821117610fb557604052565b610240810190811067ffffffffffffffff821117610fb557604052565b6040810190811067ffffffffffffffff821117610fb557604052565b90601f8019910116810190811067ffffffffffffffff821117610fb557604052565b90612d3e81612958565b60ff80198354169116179055565b604091949392606082019582526020820152612d6783612958565b0152565b60ff60015416612d7757565b60405163d93c066560e01b8152600490fd5b600260005414612d9a576002600055565b604051633ee5aeb560e01b8152600490fd5b906000602091828151910182855af115612584576000513d612dff57506001600160a01b0381163b155b612ddd5750565b604051635274afe760e01b81526001600160a01b039091166004820152602490fd5b60011415612dd6565b67ffffffffffffffff8111610fb557601f01601f191660200190565b8151919060418303612e5557612e4e92506020820151906060604084015193015160001a90612e60565b9192909190565b505060009160029190565b91907f7fffffffffffffffffffffffffffffff5d576e7357a4501ddfe92f46681b20a08411612ee457926020929160ff608095604051948552168484015260408301526060820152600092839182805260015afa15612ed85780516001600160a01b03811615612ecf57918190565b50809160019190565b604051903d90823e3d90fd5b50505060009160039190565b612ef981612987565b80612f02575050565b612f0b81612987565b60018103612f255760405163f645eedf60e01b8152600490fd5b612f2e81612987565b60028103612f4f5760405163fce698f760e01b815260048101839052602490fd5b80612f5b600392612987565b14612f635750565b602490604051906335e2f38360e21b82526004820152fd5b3d15612fa6573d90612f8c82612e08565b91612f9a6040519384612d12565b82523d6000602084013e565b606090565b60009080825260036020526040822060038101928354906004830180549160018060a01b0391818360028801541691818560018a0154169a555560068601600660ff198254161790558015600014613100575080808080878b5af161300e612f7b565b50156130c35782613063575b509061304d604093927fb95bf48b1faeba00e56c6b81df0ae8e0d8f9c79da9364726f8dcc38687927aa2955b54166135a5565b613056866135a5565b82519182526020820152a3565b8080808585600c9897969854165af161307a612f7b565b50156130885790913861301a565b60405162461bcd60e51b8152602060048201526013602482015272119959481d1c985b9cd9995c8819985a5b1959606a1b6044820152606490fd5b60405162461bcd60e51b815260206004820152601560248201527414185e595c881d1c985b9cd9995c8819985a5b1959605a1b6044820152606490fd5b61304d9150917fb95bf48b1faeba00e56c6b81df0ae8e0d8f9c79da9364726f8dcc38687927aa29583613138878b604099989761315c565b8480613146575b5050613046565b6131559184600c54169061315c565b388461313f565b60405163a9059cbb60e01b60208201526001600160a01b03909216602483015260448083019390935291815261319a9161319582612ca0565b612dac565b565b6000908082526003602052604082208260038201805460066131c46004860192835490612c93565b600286015486549890945591849055909301805460ff191660081790556001600160a01b03948516948591168061326e575081808481935af1613205612f7b565b50156132395760207fa518f3c62f75851a21351fe44dbc9092bd179acc1461cb6bb1a10243ff55c433915b604051908152a3565b60405162461bcd60e51b815260206004820152600d60248201526c1499599d5b990819985a5b1959609a1b6044820152606490fd5b60209250837fa518f3c62f75851a21351fe44dbc9092bd179acc1461cb6bb1a10243ff55c433949261329f9261315c565b613230565b6001600160a01b031660008181526004602081905260408083206007810154919695939091600881901c60ff166135955760058301805462015180810180911161357357421015613586575b5060068301805462093a808101809111613573579160ff918a9493421015613565575b501661331e81612987565b81526008602052209186519661333388612ca0565b8354885260018401549360208901948552600360028201549182848c0152015460608a015285116134d6576003830192835498613370878b612c93565b905110613443578201958654946133878787612c93565b9051106133ab575050506133a0836133a7959697612c93565b9055612c93565b9055565b61343f93507f74867b7aa517ebee563b6c06d367476d8bfe46339d59015b0b075bee2b478dee8251806134028160609060208152600f60208201526e6d61785765656b6c79566f6c756d6560881b60408201520190565b0390a251918291631fa036e760e01b8352820160609060208152600f60208201526e6d61785765656b6c79566f6c756d6560881b60408201520190565b0390fd5b61343f8383897f74867b7aa517ebee563b6c06d367476d8bfe46339d59015b0b075bee2b478dee82518061349a8160609060208152600e60208201526d6d61784461696c79566f6c756d6560901b60408201520190565b0390a251918291631fa036e760e01b8352820160609060208152600e60208201526d6d61784461696c79566f6c756d6560901b60408201520190565b61343f9250857f74867b7aa517ebee563b6c06d367476d8bfe46339d59015b0b075bee2b478dee82518061352b8160609060208152600c60208201526b6d6178547261646553697a6560a01b60408201520190565b0390a251918291631fa036e760e01b8352820160609060208152600c60208201526b6d6178547261646553697a6560a01b60408201520190565b838787015542905538613313565b634e487b7160e01b845260118652602484fd5b826003850155429055386132f0565b875163473250af60e01b81528490fd5b6001600160a01b0316600081815260046020526040902080546135c790612c84565b815560ff600760018301926135dc8454612c84565b938490550180548281169360328110613651575050600382198254161781555b54169061360881612987565b61361182612987565b810361361b575050565b60207f506ec58ef84fdef2d0f37be02d5a6bfce019136479212ed8425b4d4910fcb5de916040519061364c81612987565b8152a2565b6015811061366a575050600282198254161781556135fc565b60061115613679575b506135fc565b821916600117815538613673565b6001600160a01b0316600090815260046020526040812080549091906136ac90612c84565b9081835560028301906136bf8254612c84565b809255600583116136d1575b50505050565b6064820291808304606414901517156137a7578215613793575090603291046014811161371d575b11613707575b8080806136cb565b600701805461ff001916610100179055386136ff565b60078301805460ff811661373081612987565b6003810361374a575050805460ff191660021790556136f9565b61375381612987565b6002810361376d575050805460ff191660011790556136f9565b80613779600192612987565b14613786575b50506136f9565b60ff19169055388061377f565b634e487b7160e01b81526012600452602490fd5b634e487b7160e01b81526011600452602490fd5b6000526003602052604060002060ff6006820154166137d981612958565b600681146138b9576137ea81612958565b600481141590816138a4575b5061387057600b015442106138345760019060405161381481612cf6565b601081526f526561647920746f2072656c6561736560801b602082015290565b60009060405161384381612cf6565b601781527f486f6c6420706572696f64206e6f7420656c6170736564000000000000000000602082015290565b5060009060405161388081612cf6565b601481527314185e5b595b9d081b9bdd081d995c9a599a595960621b602082015290565b600591506138b181612958565b1415386137f6565b50506000906040516138ca81612cf6565b601081526f105b1c9958591e481c995b19585cd95960821b602082015290565b60ff60015416156138f757565b604051638dfc202b60e01b8152600490fdfea2646970667358221220c05b756b082005f39b38328553de32b8c049a5466fc22cf45aa851577d2349ba64736f6c634300081400332f8788117e7eff1d82e926ec794901d17c78024a50270940304540a733656f0d",
  "linkReferences": {},
  "deployedLinkReferences": {}
}