{
  "_format": "hh-sol-artifact-1",
  "contractName": "BillHavenEscrowV2",
  "sourceName": "contracts/BillHavenEscrowV2.sol",
  "abi": [
    {
      "inputs": [
        {
          "internalType": "address",
          "name": "_feeWallet",
          "type": "address"
        }
      ],
      "stateMutability": "nonpayable",
      "type": "constructor"
    },
    {
      "inputs": [],
      "name": "EnforcedPause",
      "type": "error"
    },
    {
      "inputs": [],
      "name": "ExpectedPause",
      "type": "error"
    },
    {
      "inputs": [
        {
          "internalType": "address",
          "name": "owner",
          "type": "address"
        }
      ],
      "name": "OwnableInvalidOwner",
      "type": "error"
    },
    {
      "inputs": [
        {
          "internalType": "address",
          "name": "account",
          "type": "address"
        }
      ],
      "name": "OwnableUnauthorizedAccount",
      "type": "error"
    },
    {
      "inputs": [],
      "name": "ReentrancyGuardReentrantCall",
      "type": "error"
    },
    {
      "inputs": [
        {
          "internalType": "address",
          "name": "token",
          "type": "address"
        }
      ],
      "name": "SafeERC20FailedOperation",
      "type": "error"
    },
    {
      "anonymous": false,
      "inputs": [
        {
          "indexed": true,
          "internalType": "uint256",
          "name": "billId",
          "type": "uint256"
        },
        {
          "indexed": true,
          "internalType": "address",
          "name": "payer",
          "type": "address"
        }
      ],
      "name": "BillClaimed",
      "type": "event"
    },
    {
      "anonymous": false,
      "inputs": [
        {
          "indexed": true,
          "internalType": "uint256",
          "name": "billId",
          "type": "uint256"
        },
        {
          "indexed": true,
          "internalType": "address",
          "name": "billMaker",
          "type": "address"
        },
        {
          "indexed": true,
          "internalType": "address",
          "name": "token",
          "type": "address"
        },
        {
          "indexed": false,
          "internalType": "uint256",
          "name": "amount",
          "type": "uint256"
        },
        {
          "indexed": false,
          "internalType": "uint256",
          "name": "fee",
          "type": "uint256"
        }
      ],
      "name": "BillCreated",
      "type": "event"
    },
    {
      "anonymous": false,
      "inputs": [
        {
          "indexed": true,
          "internalType": "uint256",
          "name": "billId",
          "type": "uint256"
        },
        {
          "indexed": true,
          "internalType": "address",
          "name": "payer",
          "type": "address"
        },
        {
          "indexed": true,
          "internalType": "address",
          "name": "token",
          "type": "address"
        },
        {
          "indexed": false,
          "internalType": "uint256",
          "name": "amount",
          "type": "uint256"
        }
      ],
      "name": "CryptoReleased",
      "type": "event"
    },
    {
      "anonymous": false,
      "inputs": [
        {
          "indexed": true,
          "internalType": "uint256",
          "name": "billId",
          "type": "uint256"
        },
        {
          "indexed": false,
          "internalType": "bool",
          "name": "releasedToPayer",
          "type": "bool"
        }
      ],
      "name": "DisputeResolved",
      "type": "event"
    },
    {
      "anonymous": false,
      "inputs": [
        {
          "indexed": true,
          "internalType": "uint256",
          "name": "billId",
          "type": "uint256"
        },
        {
          "indexed": true,
          "internalType": "address",
          "name": "by",
          "type": "address"
        }
      ],
      "name": "Disputed",
      "type": "event"
    },
    {
      "anonymous": false,
      "inputs": [
        {
          "indexed": true,
          "internalType": "address",
          "name": "oldWallet",
          "type": "address"
        },
        {
          "indexed": true,
          "internalType": "address",
          "name": "newWallet",
          "type": "address"
        }
      ],
      "name": "FeeWalletUpdated",
      "type": "event"
    },
    {
      "anonymous": false,
      "inputs": [
        {
          "indexed": true,
          "internalType": "uint256",
          "name": "billId",
          "type": "uint256"
        }
      ],
      "name": "FiatConfirmed",
      "type": "event"
    },
    {
      "anonymous": false,
      "inputs": [
        {
          "indexed": true,
          "internalType": "address",
          "name": "previousOwner",
          "type": "address"
        },
        {
          "indexed": true,
          "internalType": "address",
          "name": "newOwner",
          "type": "address"
        }
      ],
      "name": "OwnershipTransferred",
      "type": "event"
    },
    {
      "anonymous": false,
      "inputs": [
        {
          "indexed": false,
          "internalType": "address",
          "name": "account",
          "type": "address"
        }
      ],
      "name": "Paused",
      "type": "event"
    },
    {
      "anonymous": false,
      "inputs": [
        {
          "indexed": true,
          "internalType": "uint256",
          "name": "billId",
          "type": "uint256"
        },
        {
          "indexed": true,
          "internalType": "address",
          "name": "billMaker",
          "type": "address"
        }
      ],
      "name": "Refunded",
      "type": "event"
    },
    {
      "anonymous": false,
      "inputs": [
        {
          "indexed": true,
          "internalType": "address",
          "name": "token",
          "type": "address"
        }
      ],
      "name": "TokenAdded",
      "type": "event"
    },
    {
      "anonymous": false,
      "inputs": [
        {
          "indexed": true,
          "internalType": "address",
          "name": "token",
          "type": "address"
        }
      ],
      "name": "TokenRemoved",
      "type": "event"
    },
    {
      "anonymous": false,
      "inputs": [
        {
          "indexed": false,
          "internalType": "address",
          "name": "account",
          "type": "address"
        }
      ],
      "name": "Unpaused",
      "type": "event"
    },
    {
      "inputs": [
        {
          "internalType": "address",
          "name": "_token",
          "type": "address"
        }
      ],
      "name": "addSupportedToken",
      "outputs": [],
      "stateMutability": "nonpayable",
      "type": "function"
    },
    {
      "inputs": [],
      "name": "billCounter",
      "outputs": [
        {
          "internalType": "uint256",
          "name": "",
          "type": "uint256"
        }
      ],
      "stateMutability": "view",
      "type": "function"
    },
    {
      "inputs": [
        {
          "internalType": "uint256",
          "name": "",
          "type": "uint256"
        }
      ],
      "name": "bills",
      "outputs": [
        {
          "internalType": "address",
          "name": "billMaker",
          "type": "address"
        },
        {
          "internalType": "address",
          "name": "payer",
          "type": "address"
        },
        {
          "internalType": "address",
          "name": "token",
          "type": "address"
        },
        {
          "internalType": "uint256",
          "name": "amount",
          "type": "uint256"
        },
        {
          "internalType": "uint256",
          "name": "platformFee",
          "type": "uint256"
        },
        {
          "internalType": "bool",
          "name": "fiatConfirmed",
          "type": "bool"
        },
        {
          "internalType": "bool",
          "name": "disputed",
          "type": "bool"
        },
        {
          "internalType": "uint256",
          "name": "createdAt",
          "type": "uint256"
        },
        {
          "internalType": "uint256",
          "name": "expiresAt",
          "type": "uint256"
        }
      ],
      "stateMutability": "view",
      "type": "function"
    },
    {
      "inputs": [
        {
          "internalType": "uint256",
          "name": "_billId",
          "type": "uint256"
        }
      ],
      "name": "cancelBill",
      "outputs": [],
      "stateMutability": "nonpayable",
      "type": "function"
    },
    {
      "inputs": [
        {
          "internalType": "uint256",
          "name": "_billId",
          "type": "uint256"
        }
      ],
      "name": "claimBill",
      "outputs": [],
      "stateMutability": "nonpayable",
      "type": "function"
    },
    {
      "inputs": [
        {
          "internalType": "uint256",
          "name": "_billId",
          "type": "uint256"
        }
      ],
      "name": "confirmFiatPayment",
      "outputs": [],
      "stateMutability": "nonpayable",
      "type": "function"
    },
    {
      "inputs": [
        {
          "internalType": "uint256",
          "name": "_platformFee",
          "type": "uint256"
        }
      ],
      "name": "createBill",
      "outputs": [],
      "stateMutability": "payable",
      "type": "function"
    },
    {
      "inputs": [
        {
          "internalType": "address",
          "name": "_token",
          "type": "address"
        },
        {
          "internalType": "uint256",
          "name": "_amount",
          "type": "uint256"
        },
        {
          "internalType": "uint256",
          "name": "_platformFee",
          "type": "uint256"
        }
      ],
      "name": "createBillWithToken",
      "outputs": [],
      "stateMutability": "nonpayable",
      "type": "function"
    },
    {
      "inputs": [],
      "name": "emergencyWithdraw",
      "outputs": [],
      "stateMutability": "nonpayable",
      "type": "function"
    },
    {
      "inputs": [
        {
          "internalType": "address",
          "name": "_token",
          "type": "address"
        }
      ],
      "name": "emergencyWithdrawToken",
      "outputs": [],
      "stateMutability": "nonpayable",
      "type": "function"
    },
    {
      "inputs": [],
      "name": "feeWallet",
      "outputs": [
        {
          "internalType": "address",
          "name": "",
          "type": "address"
        }
      ],
      "stateMutability": "view",
      "type": "function"
    },
    {
      "inputs": [
        {
          "internalType": "uint256",
          "name": "_billId",
          "type": "uint256"
        }
      ],
      "name": "getBill",
      "outputs": [
        {
          "components": [
            {
              "internalType": "address",
              "name": "billMaker",
              "type": "address"
            },
            {
              "internalType": "address",
              "name": "payer",
              "type": "address"
            },
            {
              "internalType": "address",
              "name": "token",
              "type": "address"
            },
            {
              "internalType": "uint256",
              "name": "amount",
              "type": "uint256"
            },
            {
              "internalType": "uint256",
              "name": "platformFee",
              "type": "uint256"
            },
            {
              "internalType": "bool",
              "name": "fiatConfirmed",
              "type": "bool"
            },
            {
              "internalType": "bool",
              "name": "disputed",
              "type": "bool"
            },
            {
              "internalType": "uint256",
              "name": "createdAt",
              "type": "uint256"
            },
            {
              "internalType": "uint256",
              "name": "expiresAt",
              "type": "uint256"
            }
          ],
          "internalType": "struct BillHavenEscrowV2.Bill",
          "name": "",
          "type": "tuple"
        }
      ],
      "stateMutability": "view",
      "type": "function"
    },
    {
      "inputs": [
        {
          "internalType": "uint256",
          "name": "_billId",
          "type": "uint256"
        }
      ],
      "name": "getBillStatus",
      "outputs": [
        {
          "internalType": "bool",
          "name": "exists",
          "type": "bool"
        },
        {
          "internalType": "bool",
          "name": "claimed",
          "type": "bool"
        },
        {
          "internalType": "bool",
          "name": "confirmed",
          "type": "bool"
        },
        {
          "internalType": "bool",
          "name": "disputed",
          "type": "bool"
        },
        {
          "internalType": "bool",
          "name": "expired",
          "type": "bool"
        }
      ],
      "stateMutability": "view",
      "type": "function"
    },
    {
      "inputs": [
        {
          "internalType": "uint256",
          "name": "_billId",
          "type": "uint256"
        }
      ],
      "name": "isLocked",
      "outputs": [
        {
          "internalType": "bool",
          "name": "",
          "type": "bool"
        }
      ],
      "stateMutability": "view",
      "type": "function"
    },
    {
      "inputs": [
        {
          "internalType": "address",
          "name": "_token",
          "type": "address"
        }
      ],
      "name": "isTokenSupported",
      "outputs": [
        {
          "internalType": "bool",
          "name": "",
          "type": "bool"
        }
      ],
      "stateMutability": "view",
      "type": "function"
    },
    {
      "inputs": [],
      "name": "owner",
      "outputs": [
        {
          "internalType": "address",
          "name": "",
          "type": "address"
        }
      ],
      "stateMutability": "view",
      "type": "function"
    },
    {
      "inputs": [],
      "name": "pause",
      "outputs": [],
      "stateMutability": "nonpayable",
      "type": "function"
    },
    {
      "inputs": [],
      "name": "paused",
      "outputs": [
        {
          "internalType": "bool",
          "name": "",
          "type": "bool"
        }
      ],
      "stateMutability": "view",
      "type": "function"
    },
    {
      "inputs": [
        {
          "internalType": "uint256",
          "name": "_billId",
          "type": "uint256"
        }
      ],
      "name": "raiseDispute",
      "outputs": [],
      "stateMutability": "nonpayable",
      "type": "function"
    },
    {
      "inputs": [
        {
          "internalType": "uint256",
          "name": "_billId",
          "type": "uint256"
        }
      ],
      "name": "refundExpiredBill",
      "outputs": [],
      "stateMutability": "nonpayable",
      "type": "function"
    },
    {
      "inputs": [
        {
          "internalType": "address",
          "name": "_token",
          "type": "address"
        }
      ],
      "name": "removeSupportedToken",
      "outputs": [],
      "stateMutability": "nonpayable",
      "type": "function"
    },
    {
      "inputs": [],
      "name": "renounceOwnership",
      "outputs": [],
      "stateMutability": "nonpayable",
      "type": "function"
    },
    {
      "inputs": [
        {
          "internalType": "uint256",
          "name": "_billId",
          "type": "uint256"
        },
        {
          "internalType": "bool",
          "name": "_releaseToPayer",
          "type": "bool"
        }
      ],
      "name": "resolveDispute",
      "outputs": [],
      "stateMutability": "nonpayable",
      "type": "function"
    },
    {
      "inputs": [
        {
          "internalType": "address",
          "name": "_newFeeWallet",
          "type": "address"
        }
      ],
      "name": "setFeeWallet",
      "outputs": [],
      "stateMutability": "nonpayable",
      "type": "function"
    },
    {
      "inputs": [
        {
          "internalType": "address",
          "name": "",
          "type": "address"
        }
      ],
      "name": "supportedTokens",
      "outputs": [
        {
          "internalType": "bool",
          "name": "",
          "type": "bool"
        }
      ],
      "stateMutability": "view",
      "type": "function"
    },
    {
      "inputs": [
        {
          "internalType": "address",
          "name": "newOwner",
          "type": "address"
        }
      ],
      "name": "transferOwnership",
      "outputs": [],
      "stateMutability": "nonpayable",
      "type": "function"
    },
    {
      "inputs": [],
      "name": "unpause",
      "outputs": [],
      "stateMutability": "nonpayable",
      "type": "function"
    },
    {
      "stateMutability": "payable",
      "type": "receive"
    }
  ],
  "bytecode": "0x60803461014457601f611d4c38819003918201601f19168301916001600160401b038311848410176101495780849260209460405283398101031261014457516001600160a01b0390818116908190036101445760009060018255331561012b5760018054610100600160a81b0319811633600881811b610100600160a81b0316929092179093556040519591901c167f8be0079c531659141344cd1fd0a4f28419497f9722a3daafe3b4186f6b6457e08480a380156100f457600580546001600160a01b0319169190911790558080526003602052604090819020805460ff1916600117905551611bec9150816101608239f35b62461bcd60e51b8352602060048401526012602484015271125b9d985b1a5908199959481dd85b1b195d60721b6044840152606483fd5b604051631e4fbdf760e01b815260048101839052602490fd5b600080fd5b634e487b7160e01b600052604160045260246000fdfe60406080815260049081361015610020575b5050361561001e57600080fd5b005b60009160e08335811c9081631930eae7146116605781631af03203146115265781631c8f0789146113215781632185ab6c1461111c578163286fda3b146110af57816328bdcde81461101a57816334b25ee214610e305781633f4ba83a14610dd75781635c975abb14610db25781636776298814610cc157816368c4ac2614610b6b5781636d69fcaf14610c0e578163715018a614610baa57816375151b6314610b6b5781637631919014610abb5781638456cb5914610a605781638da5cb5b14610a3257816390d49b9d146109885781639c078c3a146108605781639d7a033914610842578163a5c1674e146106f0578163b1cd06e6146105c5578163db2e21bc1461050b578163ee5bdbf51461025157508063f25f4b5614610224578063f2fde38b146101885763f6aacfb1146101595750610011565b3461018457602036600319011261018457816020936003923581526002855220015415159051908152f35b8280fd5b5034610184576020366003190112610184576101a2611800565b6101aa61181b565b6001600160a01b0381811693909290841561020e57505060018054610100600160a81b03198116600893841b610100600160a81b031617909155901c167f8be0079c531659141344cd1fd0a4f28419497f9722a3daafe3b4186f6b6457e08380a380f35b51631e4fbdf760e01b8152908101859052602490fd5b50503461024d578160031936011261024d5760055490516001600160a01b039091168152602090f35b5080fd5b84939150346105075760603660031901126105075761026e611800565b926024803591604435916102806118fc565b6102886118de565b6001600160a01b039687169687156104c5578789526020956003875260ff888b2054161561048d578515610456576102c0858761187c565b8851906323b872dd60e01b89830152338583015230604483015260648201526064815260a0810181811067ffffffffffffffff821117610444578952610306908a61191f565b610310845461184a565b9182855562093a804201938442116104335750918a9186888c8b878e99988a519a8b9961033c8b611889565b338b52848b0194818652828c0196875260608c0197885260808c0198895260a08c019a828c5260c08d019a838c528d019c8d429052610100019d8e52825260029052209a5116916001600160601b0360a01b92838c5416178b558160018c019151168382541617905560028a0192511690825416179055516003870155518686015560058501915115156103dc90839060ff801983541691151516179055565b51815461ff00191690151560081b61ff00161790555160068301555190600701555492845192835282015233927ffdb4c95616fd6687bebc7ddfb5908c80b84098683db171948dd78afd7cc9f97b91a46001815580f35b634e487b7160e01b8c52601186528bfd5b634e487b7160e01b8c5260418652848cfd5b875162461bcd60e51b8152808501889052601281850152710416d6f756e74206d757374206265203e20360741b6044820152606490fd5b875162461bcd60e51b815280850188905260138185015272151bdad95b881b9bdd081cdd5c1c1bdc9d1959606a1b6044820152606490fd5b865162461bcd60e51b81526020818501819052818401527f5573652063726561746542696c6c20666f72206e617469766520746f6b656e736044820152606490fd5b8380fd5b5050903461018457826003193601126101845761052661181b565b61052e611b97565b47801561059557600154849182918291829160081c6001600160a01b03165af1610556611a3a565b5015610560578280f35b906020606492519162461bcd60e51b8352820152600f60248201526e15da5d1a191c985dc819985a5b1959608a1b6044820152fd5b815162461bcd60e51b8152602081850152600a6024820152694e6f2062616c616e636560b01b6044820152606490fd5b9190503461050757602036600319011261050757610120939160ff91848051946105ee86611889565b80865280602087015280828701528060608701528060808701528060a08701528060c08701528084870152806101008097015282358152600260205220908551938492839261063c84611889565b60018060a01b039889835416998a865280600185015416602087019081528180600287015416918489019283528c600760038901549760608c019889528901549860808c01998a528a60c060058301549d8e60a082019e8f911615159052019c60081c1615158c528d60068201549d019c8d5201549c019b8c5284519d8e52511660208d01525116908a015251606089015251608088015251151560a087015251151560c086015251908401525190820152f35b50503461018457602036600319011261018457803580845260026020528284208054919391336001600160a01b0391821614908115610832575b50156107fe57600581019283549260ff84166107c75760ff8460081c166107915750509061076060036101009301541515611a03565b61ff00191617905533907fcde8e21e97a7f6ec4bbf0ee44450212e0ba73be8fdfbfb2b155e861d86756bac8380a380f35b906020606492519162461bcd60e51b8352820152601060248201526f105b1c9958591e48191a5cdc1d5d195960821b6044820152fd5b906020606492519162461bcd60e51b83528201526011602482015270105b1c9958591e4818dbdb5c1b195d1959607a1b6044820152fd5b815162461bcd60e51b8152602081850152600e60248201526d139bdd08185d5d1a1bdc9a5e995960921b6044820152606490fd5b905060018201541633143861072a565b50503461018457826003193601126101845760209250549051908152f35b8385843461024d57602036600319011261024d5780359061087f6118fc565b818352600260205283832090600782015442111561095757839291839160018060a01b03916108b48360018301541615611987565b8360038201926108de845491821580159061094b575b6108d390611a03565b84019182549061187c565b94806002850154169354169788945555801560001461093c57509180808093610911955af161090b611a3a565b50611b52565b7f16e7a7a8fd7c51d6b4d059d6d7eea946bff398eee64dd1894af645edd23d502b8380a36001815580f35b6109469350611b00565b610911565b508481015415156108ca565b606490602086519162461bcd60e51b8352820152600b60248201526a139bdd08195e1c1a5c995960aa1b6044820152fd5b505034610184576020366003190112610184576109a3611800565b906109ac61181b565b6001600160a01b039182169283156109fd575050600554826001600160601b0360a01b821617600555167f362a006325d32978b283e449d254cfcf93e2cccc321603ead9a74238d8dbf36e8380a380f35b906020606492519162461bcd60e51b8352820152600f60248201526e496e76616c6964206164647265737360881b6044820152fd5b5050503461024d578160031936011261024d57600154905160089190911c6001600160a01b03168152602090f35b5050503461024d578160031936011261024d5760207f62e78cea01bee320cd4e420270b5ea74000d11b0c9f74754ebdbfc544b05a25891610a9f61181b565b610aa76118de565b600160ff198154161760015551338152a180f35b5050903461018457602036600319011261018457610ad7611800565b610adf61181b565b6001600160a01b0316918215610b29575081835260036020528220805460ff191690557f4c910b69fe65a61f7531b9c5042b2329ca7179c77290aa7e2eb3afa3c8511fd38280a280f35b6020606492519162461bcd60e51b8352820152601a60248201527f43616e6e6f742072656d6f7665206e617469766520746f6b656e0000000000006044820152fd5b5050503461024d57602036600319011261024d5760209160ff9082906001600160a01b03610b97611800565b1681526003855220541690519015158152f35b8434610c0b5780600319360112610c0b57610bc361181b565b60018054610100600160a81b03198116909155819060081c6001600160a01b03167f8be0079c531659141344cd1fd0a4f28419497f9722a3daafe3b4186f6b6457e08280a380f35b80fd5b5050903461018457602036600319011261018457610c2a611800565b610c3261181b565b6001600160a01b0316918215610c7f575081835260036020528220805460ff191660011790557f784c8f4dbf0ffedd6e72c76501c545a70f8b203b30a26ce542bf92ba87c248a48280a280f35b6020606492519162461bcd60e51b8352820152601c60248201527f557365206e617469766520746f6b656e206164647265737320307830000000006044820152fd5b50503461018457602036600319011261018457803591610cdf6118fc565b8284526002602052832080546001600160a01b039285918416610d033382146119c5565b610d138560018601541615611987565b6003840183610d3c8254948515801590610da6575b610d3190611a03565b87019485549061187c565b9381886002890154169355558015600014610d9757505090808080610d6994878754165af161090b611a3a565b5416907f16e7a7a8fd7c51d6b4d059d6d7eea946bff398eee64dd1894af645edd23d502b8380a36001815580f35b610da19350611b00565b610d69565b50878101541515610d28565b5050503461024d578160031936011261024d5760209060ff6001541690519015158152f35b5050503461024d578160031936011261024d5760207f5db9ee0a495bf2e6ff9c91a7834c1ba4fdd244a5e8aa4e537bd38aeae4b073aa91610e1661181b565b610e1e611b97565b60ff196001541660015551338152a180f35b50509034610184578060031936011261018457813591602435801515810361101657610e5a61181b565b610e626118fc565b838552600260205282852091600583019283549260ff8460081c1615610fe4579260209492827f5a87909bff68caaaaf0b3fd9c74eeccc928832f879315e5c6fb7a73612f26c0c979560038b95018054938415801590610fd8575b610ec690611a03565b83019182549760018060a01b0396888860028801541695818a8060018b01541699541696555561ff001916905580610fcf575b15610f8d575080610f5a5750838080610f1e9481945af1610f18611a3a565b50611a7a565b82610f36575b5050505b5160018152a25b6001815580f35b8180610f52948193600554165af1610f4c611a3a565b50611abe565b388581610f24565b9294935090610f699183611b00565b81610f77575b505050610f28565b610f85926005541690611b00565b388080610f6f565b935093949050610f9c9161187c565b9180610fc057509180808093610fb6955af161090b611a3a565b51848152a2610f2f565b610fca9350611b00565b610fb6565b50821515610ef9565b50838101541515610ebd565b855162461bcd60e51b8152602081850152600c60248201526b139bdd08191a5cdc1d5d195960a21b6044820152606490fd5b8480fd5b8493915034610507576020366003190112610507578161012094843581526002602052209060ff60018060a01b0393848454169585600186015416956002860154169060038601549086015491600587015493600760068901549801549881519a8b5260208b015289015260608801526080870152818116151560a087015260081c16151560c0850152830152610100820152f35b5050346101845760203660031901126101845760a09282913581526002602052209060ff600180851b039283815416151593600182015416151592600760058301549201544211938151958652602086015282821615159085015260081c16151560608301526080820152f35b505034610184576020806003193601126105075781359061113b6118fc565b6111436118de565b818552600281528385209260018060a01b03946111648686541633146119c5565b856001860154169485156112f157600581019687549360ff85166112ba5760ff8560081c166112875782918a809260037f97403cce48bf0c83f4199e651135f4c6eaab37f5f2adb71672b857345a19bef699989796019b60018d54986111cb8a1515611a03565b60ff19161790558401818360028354970154169c555584898b15600014611258578380806111ff9481945af1610f18611a3a565b8261123a575b5050505b5190847fe56e5977b732b68b6c4e6f2e2dc7332c3216577b919ca691580a29e7c31d38578980a28152a46001815580f35b8180611250948193600554165af1610f4c611a3a565b388881611205565b611265929493508b611b00565b80611272575b5050611209565b611280916005541689611b00565b388061126b565b835162461bcd60e51b8152908101869052600d60248201526c109a5b1b08191a5cdc1d5d1959609a1b6044820152606490fd5b835162461bcd60e51b81529081018690526011602482015270105b1c9958591e4818dbdb999a5c9b5959607a1b6044820152606490fd5b5091606492519162461bcd60e51b8352820152600b60248201526a139bdd0818db185a5b595960aa1b6044820152fd5b84848492602091826003193601126105075784359161133e6118fc565b6113466118de565b823411156114ea5734156114b45761135e865461184a565b80875561136b843461186f565b9162093a804201928342116114a1578493889993611478898b958a6007967ffdb4c95616fd6687bebc7ddfb5908c80b84098683db171948dd78afd7cc9f97b9b51986113b68a611889565b338a52848a0199818b5260018d808301938085526060840195865260808401968752600260a0850199828b5260c0860199838b5286019c8d42905261010087019e8f52835252209b8c92828060a01b03928380925116946001600160601b0360a01b9586825416178155019151168382541617905560028c019251169082541617905551600389015551888801556114616005880192511515839060ff801983541691151516179055565b51815461ff00191690151560081b61ff0016179055565b51600684015551910155549261148e813461186f565b9482519586528501523393a46001815580f35b634e487b7160e01b885260118952602488fd5b815162461bcd60e51b8152808701859052601060248201526f4d7573742073656e642063727970746f60801b6044820152606490fd5b815162461bcd60e51b81528087018590526016602482015275416d6f756e74206d757374206578636565642066656560501b6044820152606490fd5b8385843461024d576020908160031936011261018457611544611800565b61154c61181b565b611554611b97565b6001600160a01b0390811691821561161f5785516370a0823160e01b81523082820152938085602481875afa9485156116155786956115e2575b5084156115ad5750506115aa93945060015460081c1690611b00565b80f35b865162461bcd60e51b815291820152601060248201526f4e6f20746f6b656e2062616c616e636560801b604482015260649150fd5b9080955081813d831161160e575b6115fa81836118bc565b8101031261160a5751938761158e565b8580fd5b503d6115f0565b87513d88823e3d90fd5b606490848088519262461bcd60e51b845283015260248201527f55736520656d657267656e6379576974686472617720666f72206e61746976656044820152fd5b5050903461018457602080600319360112610507578235926116806118fc565b6116886118de565b8385526002825282852060018101805490949093916001600160a01b036116b181871615611987565b6003820154156117bd5781541633146117835760ff600582015460081c1661174e576007015442101561171e575050506001600160a01b03191633908117909155907f0b32da9354607796544422f364ca1aec8a7b6e85fdb196e204bf0ed62cb620ae8380a36001815580f35b5162461bcd60e51b815291820152600c60248201526b109a5b1b08195e1c1a5c995960a21b604482015260649150fd5b505162461bcd60e51b815291820152601060248201526f109a5b1b081a5cc8191a5cdc1d5d195960821b604482015260649150fd5b505162461bcd60e51b815291820152601560248201527410d85b9b9bdd0818db185a5b481bdddb88189a5b1b605a1b604482015260649150fd5b50505162461bcd60e51b815291820152601760248201527f42696c6c206e6f7420666f756e64206f7220656d707479000000000000000000604482015260649150fd5b600435906001600160a01b038216820361181657565b600080fd5b60015460081c6001600160a01b0316330361183257565b60405163118cdaa760e01b8152336004820152602490fd5b60001981146118595760010190565b634e487b7160e01b600052601160045260246000fd5b9190820391821161185957565b9190820180921161185957565b610120810190811067ffffffffffffffff8211176118a657604052565b634e487b7160e01b600052604160045260246000fd5b90601f8019910116810190811067ffffffffffffffff8211176118a657604052565b60ff600154166118ea57565b60405163d93c066560e01b8152600490fd5b60026000541461190d576002600055565b604051633ee5aeb560e01b8152600490fd5b906000602091828151910182855af11561197b576000513d61197257506001600160a01b0381163b155b6119505750565b604051635274afe760e01b81526001600160a01b039091166004820152602490fd5b60011415611949565b6040513d6000823e3d90fd5b1561198e57565b60405162461bcd60e51b815260206004820152600f60248201526e105b1c9958591e4818db185a5b5959608a1b6044820152606490fd5b156119cc57565b60405162461bcd60e51b815260206004820152600f60248201526e27b7363c903134b6361036b0b5b2b960891b6044820152606490fd5b15611a0a57565b60405162461bcd60e51b81526020600482015260086024820152674e6f2066756e647360c01b6044820152606490fd5b3d15611a75573d9067ffffffffffffffff82116118a65760405191611a69601f8201601f1916602001846118bc565b82523d6000602084013e565b606090565b15611a8157565b60405162461bcd60e51b815260206004820152601560248201527414185e595c881d1c985b9cd9995c8819985a5b1959605a1b6044820152606490fd5b15611ac557565b60405162461bcd60e51b8152602060048201526013602482015272119959481d1c985b9cd9995c8819985a5b1959606a1b6044820152606490fd5b60405163a9059cbb60e01b60208201526001600160a01b039092166024830152604480830193909352918152608081019167ffffffffffffffff8311828410176118a657611b509260405261191f565b565b15611b5957565b60405162461bcd60e51b81526020600482015260166024820152751499599d5b99081d1c985b9cd9995c8819985a5b195960521b6044820152606490fd5b60ff6001541615611ba457565b604051638dfc202b60e01b8152600490fdfea2646970667358221220437270d9351c828d9d93eb2e6748a5dad7337c5d031aa7fe0c9ecd6cc1344c7b64736f6c63430008140033",
  "linkReferences": {},
  "deployedLinkReferences": {}
}