{
  "_format": "hh-sol-artifact-1",
  "contractName": "BillHavenEscrowV2",
  "sourceName": "contracts/BillHavenEscrowV2.sol",
  "abi": [
    {
      "inputs": [
        {
          "internalType": "address",
          "name": "_feeWallet",
          "type": "address"
        }
      ],
      "stateMutability": "nonpayable",
      "type": "constructor"
    },
    {
      "inputs": [],
      "name": "EnforcedPause",
      "type": "error"
    },
    {
      "inputs": [],
      "name": "ExpectedPause",
      "type": "error"
    },
    {
      "inputs": [
        {
          "internalType": "address",
          "name": "owner",
          "type": "address"
        }
      ],
      "name": "OwnableInvalidOwner",
      "type": "error"
    },
    {
      "inputs": [
        {
          "internalType": "address",
          "name": "account",
          "type": "address"
        }
      ],
      "name": "OwnableUnauthorizedAccount",
      "type": "error"
    },
    {
      "inputs": [],
      "name": "ReentrancyGuardReentrantCall",
      "type": "error"
    },
    {
      "inputs": [
        {
          "internalType": "address",
          "name": "token",
          "type": "address"
        }
      ],
      "name": "SafeERC20FailedOperation",
      "type": "error"
    },
    {
      "anonymous": false,
      "inputs": [
        {
          "indexed": true,
          "internalType": "uint256",
          "name": "billId",
          "type": "uint256"
        },
        {
          "indexed": true,
          "internalType": "address",
          "name": "payer",
          "type": "address"
        }
      ],
      "name": "BillClaimed",
      "type": "event"
    },
    {
      "anonymous": false,
      "inputs": [
        {
          "indexed": true,
          "internalType": "uint256",
          "name": "billId",
          "type": "uint256"
        },
        {
          "indexed": true,
          "internalType": "address",
          "name": "billMaker",
          "type": "address"
        },
        {
          "indexed": true,
          "internalType": "address",
          "name": "token",
          "type": "address"
        },
        {
          "indexed": false,
          "internalType": "uint256",
          "name": "amount",
          "type": "uint256"
        },
        {
          "indexed": false,
          "internalType": "uint256",
          "name": "fee",
          "type": "uint256"
        }
      ],
      "name": "BillCreated",
      "type": "event"
    },
    {
      "anonymous": false,
      "inputs": [
        {
          "indexed": true,
          "internalType": "uint256",
          "name": "billId",
          "type": "uint256"
        },
        {
          "indexed": true,
          "internalType": "address",
          "name": "payer",
          "type": "address"
        },
        {
          "indexed": true,
          "internalType": "address",
          "name": "token",
          "type": "address"
        },
        {
          "indexed": false,
          "internalType": "uint256",
          "name": "amount",
          "type": "uint256"
        }
      ],
      "name": "CryptoReleased",
      "type": "event"
    },
    {
      "anonymous": false,
      "inputs": [
        {
          "indexed": true,
          "internalType": "uint256",
          "name": "billId",
          "type": "uint256"
        },
        {
          "indexed": false,
          "internalType": "bool",
          "name": "releasedToPayer",
          "type": "bool"
        }
      ],
      "name": "DisputeResolved",
      "type": "event"
    },
    {
      "anonymous": false,
      "inputs": [
        {
          "indexed": true,
          "internalType": "uint256",
          "name": "billId",
          "type": "uint256"
        },
        {
          "indexed": true,
          "internalType": "address",
          "name": "by",
          "type": "address"
        }
      ],
      "name": "Disputed",
      "type": "event"
    },
    {
      "anonymous": false,
      "inputs": [
        {
          "indexed": true,
          "internalType": "address",
          "name": "oldWallet",
          "type": "address"
        },
        {
          "indexed": true,
          "internalType": "address",
          "name": "newWallet",
          "type": "address"
        }
      ],
      "name": "FeeWalletUpdated",
      "type": "event"
    },
    {
      "anonymous": false,
      "inputs": [
        {
          "indexed": true,
          "internalType": "uint256",
          "name": "billId",
          "type": "uint256"
        }
      ],
      "name": "FiatConfirmed",
      "type": "event"
    },
    {
      "anonymous": false,
      "inputs": [
        {
          "indexed": true,
          "internalType": "address",
          "name": "previousOwner",
          "type": "address"
        },
        {
          "indexed": true,
          "internalType": "address",
          "name": "newOwner",
          "type": "address"
        }
      ],
      "name": "OwnershipTransferred",
      "type": "event"
    },
    {
      "anonymous": false,
      "inputs": [
        {
          "indexed": false,
          "internalType": "address",
          "name": "account",
          "type": "address"
        }
      ],
      "name": "Paused",
      "type": "event"
    },
    {
      "anonymous": false,
      "inputs": [
        {
          "indexed": true,
          "internalType": "uint256",
          "name": "billId",
          "type": "uint256"
        },
        {
          "indexed": true,
          "internalType": "address",
          "name": "billMaker",
          "type": "address"
        }
      ],
      "name": "Refunded",
      "type": "event"
    },
    {
      "anonymous": false,
      "inputs": [
        {
          "indexed": true,
          "internalType": "address",
          "name": "token",
          "type": "address"
        }
      ],
      "name": "TokenAdded",
      "type": "event"
    },
    {
      "anonymous": false,
      "inputs": [
        {
          "indexed": true,
          "internalType": "address",
          "name": "token",
          "type": "address"
        }
      ],
      "name": "TokenRemoved",
      "type": "event"
    },
    {
      "anonymous": false,
      "inputs": [
        {
          "indexed": false,
          "internalType": "address",
          "name": "account",
          "type": "address"
        }
      ],
      "name": "Unpaused",
      "type": "event"
    },
    {
      "inputs": [
        {
          "internalType": "address",
          "name": "_token",
          "type": "address"
        }
      ],
      "name": "addSupportedToken",
      "outputs": [],
      "stateMutability": "nonpayable",
      "type": "function"
    },
    {
      "inputs": [],
      "name": "billCounter",
      "outputs": [
        {
          "internalType": "uint256",
          "name": "",
          "type": "uint256"
        }
      ],
      "stateMutability": "view",
      "type": "function"
    },
    {
      "inputs": [
        {
          "internalType": "uint256",
          "name": "",
          "type": "uint256"
        }
      ],
      "name": "bills",
      "outputs": [
        {
          "internalType": "address",
          "name": "billMaker",
          "type": "address"
        },
        {
          "internalType": "address",
          "name": "payer",
          "type": "address"
        },
        {
          "internalType": "address",
          "name": "token",
          "type": "address"
        },
        {
          "internalType": "uint256",
          "name": "amount",
          "type": "uint256"
        },
        {
          "internalType": "uint256",
          "name": "platformFee",
          "type": "uint256"
        },
        {
          "internalType": "bool",
          "name": "fiatConfirmed",
          "type": "bool"
        },
        {
          "internalType": "bool",
          "name": "disputed",
          "type": "bool"
        },
        {
          "internalType": "uint256",
          "name": "createdAt",
          "type": "uint256"
        },
        {
          "internalType": "uint256",
          "name": "expiresAt",
          "type": "uint256"
        }
      ],
      "stateMutability": "view",
      "type": "function"
    },
    {
      "inputs": [
        {
          "internalType": "uint256",
          "name": "_billId",
          "type": "uint256"
        }
      ],
      "name": "cancelBill",
      "outputs": [],
      "stateMutability": "nonpayable",
      "type": "function"
    },
    {
      "inputs": [
        {
          "internalType": "uint256",
          "name": "_billId",
          "type": "uint256"
        }
      ],
      "name": "claimBill",
      "outputs": [],
      "stateMutability": "nonpayable",
      "type": "function"
    },
    {
      "inputs": [
        {
          "internalType": "uint256",
          "name": "_billId",
          "type": "uint256"
        }
      ],
      "name": "confirmFiatPayment",
      "outputs": [],
      "stateMutability": "nonpayable",
      "type": "function"
    },
    {
      "inputs": [
        {
          "internalType": "uint256",
          "name": "_platformFee",
          "type": "uint256"
        }
      ],
      "name": "createBill",
      "outputs": [],
      "stateMutability": "payable",
      "type": "function"
    },
    {
      "inputs": [
        {
          "internalType": "address",
          "name": "_token",
          "type": "address"
        },
        {
          "internalType": "uint256",
          "name": "_amount",
          "type": "uint256"
        },
        {
          "internalType": "uint256",
          "name": "_platformFee",
          "type": "uint256"
        }
      ],
      "name": "createBillWithToken",
      "outputs": [],
      "stateMutability": "nonpayable",
      "type": "function"
    },
    {
      "inputs": [],
      "name": "emergencyWithdraw",
      "outputs": [],
      "stateMutability": "nonpayable",
      "type": "function"
    },
    {
      "inputs": [
        {
          "internalType": "address",
          "name": "_token",
          "type": "address"
        }
      ],
      "name": "emergencyWithdrawToken",
      "outputs": [],
      "stateMutability": "nonpayable",
      "type": "function"
    },
    {
      "inputs": [],
      "name": "feeWallet",
      "outputs": [
        {
          "internalType": "address",
          "name": "",
          "type": "address"
        }
      ],
      "stateMutability": "view",
      "type": "function"
    },
    {
      "inputs": [
        {
          "internalType": "uint256",
          "name": "_billId",
          "type": "uint256"
        }
      ],
      "name": "getBill",
      "outputs": [
        {
          "components": [
            {
              "internalType": "address",
              "name": "billMaker",
              "type": "address"
            },
            {
              "internalType": "address",
              "name": "payer",
              "type": "address"
            },
            {
              "internalType": "address",
              "name": "token",
              "type": "address"
            },
            {
              "internalType": "uint256",
              "name": "amount",
              "type": "uint256"
            },
            {
              "internalType": "uint256",
              "name": "platformFee",
              "type": "uint256"
            },
            {
              "internalType": "bool",
              "name": "fiatConfirmed",
              "type": "bool"
            },
            {
              "internalType": "bool",
              "name": "disputed",
              "type": "bool"
            },
            {
              "internalType": "uint256",
              "name": "createdAt",
              "type": "uint256"
            },
            {
              "internalType": "uint256",
              "name": "expiresAt",
              "type": "uint256"
            }
          ],
          "internalType": "struct BillHavenEscrowV2.Bill",
          "name": "",
          "type": "tuple"
        }
      ],
      "stateMutability": "view",
      "type": "function"
    },
    {
      "inputs": [
        {
          "internalType": "uint256",
          "name": "_billId",
          "type": "uint256"
        }
      ],
      "name": "getBillStatus",
      "outputs": [
        {
          "internalType": "bool",
          "name": "exists",
          "type": "bool"
        },
        {
          "internalType": "bool",
          "name": "claimed",
          "type": "bool"
        },
        {
          "internalType": "bool",
          "name": "confirmed",
          "type": "bool"
        },
        {
          "internalType": "bool",
          "name": "disputed",
          "type": "bool"
        },
        {
          "internalType": "bool",
          "name": "expired",
          "type": "bool"
        }
      ],
      "stateMutability": "view",
      "type": "function"
    },
    {
      "inputs": [
        {
          "internalType": "uint256",
          "name": "_billId",
          "type": "uint256"
        }
      ],
      "name": "isLocked",
      "outputs": [
        {
          "internalType": "bool",
          "name": "",
          "type": "bool"
        }
      ],
      "stateMutability": "view",
      "type": "function"
    },
    {
      "inputs": [
        {
          "internalType": "address",
          "name": "_token",
          "type": "address"
        }
      ],
      "name": "isTokenSupported",
      "outputs": [
        {
          "internalType": "bool",
          "name": "",
          "type": "bool"
        }
      ],
      "stateMutability": "view",
      "type": "function"
    },
    {
      "inputs": [],
      "name": "owner",
      "outputs": [
        {
          "internalType": "address",
          "name": "",
          "type": "address"
        }
      ],
      "stateMutability": "view",
      "type": "function"
    },
    {
      "inputs": [],
      "name": "pause",
      "outputs": [],
      "stateMutability": "nonpayable",
      "type": "function"
    },
    {
      "inputs": [],
      "name": "paused",
      "outputs": [
        {
          "internalType": "bool",
          "name": "",
          "type": "bool"
        }
      ],
      "stateMutability": "view",
      "type": "function"
    },
    {
      "inputs": [
        {
          "internalType": "uint256",
          "name": "_billId",
          "type": "uint256"
        }
      ],
      "name": "raiseDispute",
      "outputs": [],
      "stateMutability": "nonpayable",
      "type": "function"
    },
    {
      "inputs": [
        {
          "internalType": "uint256",
          "name": "_billId",
          "type": "uint256"
        }
      ],
      "name": "refundExpiredBill",
      "outputs": [],
      "stateMutability": "nonpayable",
      "type": "function"
    },
    {
      "inputs": [
        {
          "internalType": "address",
          "name": "_token",
          "type": "address"
        }
      ],
      "name": "removeSupportedToken",
      "outputs": [],
      "stateMutability": "nonpayable",
      "type": "function"
    },
    {
      "inputs": [],
      "name": "renounceOwnership",
      "outputs": [],
      "stateMutability": "nonpayable",
      "type": "function"
    },
    {
      "inputs": [
        {
          "internalType": "uint256",
          "name": "_billId",
          "type": "uint256"
        },
        {
          "internalType": "bool",
          "name": "_releaseToPayer",
          "type": "bool"
        }
      ],
      "name": "resolveDispute",
      "outputs": [],
      "stateMutability": "nonpayable",
      "type": "function"
    },
    {
      "inputs": [
        {
          "internalType": "address",
          "name": "_newFeeWallet",
          "type": "address"
        }
      ],
      "name": "setFeeWallet",
      "outputs": [],
      "stateMutability": "nonpayable",
      "type": "function"
    },
    {
      "inputs": [
        {
          "internalType": "address",
          "name": "",
          "type": "address"
        }
      ],
      "name": "supportedTokens",
      "outputs": [
        {
          "internalType": "bool",
          "name": "",
          "type": "bool"
        }
      ],
      "stateMutability": "view",
      "type": "function"
    },
    {
      "inputs": [
        {
          "internalType": "address",
          "name": "newOwner",
          "type": "address"
        }
      ],
      "name": "transferOwnership",
      "outputs": [],
      "stateMutability": "nonpayable",
      "type": "function"
    },
    {
      "inputs": [],
      "name": "unpause",
      "outputs": [],
      "stateMutability": "nonpayable",
      "type": "function"
    },
    {
      "stateMutability": "payable",
      "type": "receive"
    }
  ],
  "bytecode": "0x60806040523480156200001157600080fd5b50604051620025743803806200257483398101604081905262000034916200016f565b600160005533806200006157604051631e4fbdf760e01b8152600060048201526024015b60405180910390fd5b6200006c8162000115565b506001600160a01b038116620000ba5760405162461bcd60e51b8152602060048201526012602482015271125b9d985b1a5908199959481dd85b1b195d60721b604482015260640162000058565b600580546001600160a01b0319166001600160a01b03929092169190911790556000805260036020527f3617319a054d772f909f7c479a2cebe5066e836a939412e32403c99029b92eff805460ff19166001179055620001a1565b600180546001600160a01b03838116610100818102610100600160a81b031985161790945560405193909204169182907f8be0079c531659141344cd1fd0a4f28419497f9722a3daafe3b4186f6b6457e090600090a35050565b6000602082840312156200018257600080fd5b81516001600160a01b03811681146200019a57600080fd5b9392505050565b6123c380620001b16000396000f3fe6080604052600436106101a05760003560e01c806375151b63116100ec578063a5c1674e1161008a578063ee5bdbf511610064578063ee5bdbf5146106b0578063f25f4b56146106d0578063f2fde38b146106f0578063f6aacfb11461071057600080fd5b8063a5c1674e14610575578063b1cd06e614610595578063db2e21bc1461069b57600080fd5b80638da5cb5b116100c65780638da5cb5b146104da57806390d49b9d146105115780639c078c3a146105315780639d7a03391461055157600080fd5b806375151b631461046c57806376319190146104a55780638456cb59146104c557600080fd5b806334b25ee211610159578063677629881161013357806367762988146103e757806368c4ac26146104075780636d69fcaf14610437578063715018a61461045757600080fd5b806334b25ee21461038e5780633f4ba83a146103ae5780635c975abb146103c357600080fd5b80631930eae7146101ac5780631af03203146101ce5780631c8f0789146101ee5780632185ab6c14610201578063286fda3b1461022157806328bdcde8146102bb57600080fd5b366101a757005b600080fd5b3480156101b857600080fd5b506101cc6101c7366004612158565b610742565b005b3480156101da57600080fd5b506101cc6101e936600461218d565b610918565b6101cc6101fc366004612158565b610a58565b34801561020d57600080fd5b506101cc61021c366004612158565b610c6d565b34801561022d57600080fd5b5061028461023c366004612158565b60009081526002602052604090208054600182015460058301546007909301546001600160a01b039283161515949290911615159260ff808216936101009092041691421190565b60408051951515865293151560208601529115159284019290925290151560608301521515608082015260a0015b60405180910390f35b3480156102c757600080fd5b506103356102d6366004612158565b6002602081905260009182526040909120805460018201549282015460038301546004840154600585015460068601546007909601546001600160a01b039586169786169695909416949293919260ff80831693610100909304169189565b604080516001600160a01b039a8b168152988a1660208a0152969098169587019590955260608601939093526080850191909152151560a0840152151560c083015260e0820152610100810191909152610120016102b2565b34801561039a57600080fd5b506101cc6103a93660046121af565b61101a565b3480156103ba57600080fd5b506101cc6113c0565b3480156103cf57600080fd5b5060015460ff165b60405190151581526020016102b2565b3480156103f357600080fd5b506101cc610402366004612158565b6113d2565b34801561041357600080fd5b506103d761042236600461218d565b60036020526000908152604090205460ff1681565b34801561044357600080fd5b506101cc61045236600461218d565b6115a2565b34801561046357600080fd5b506101cc61164c565b34801561047857600080fd5b506103d761048736600461218d565b6001600160a01b031660009081526003602052604090205460ff1690565b3480156104b157600080fd5b506101cc6104c036600461218d565b61165e565b3480156104d157600080fd5b506101cc611705565b3480156104e657600080fd5b5060015461010090046001600160a01b03165b6040516001600160a01b0390911681526020016102b2565b34801561051d57600080fd5b506101cc61052c36600461218d565b611715565b34801561053d57600080fd5b506101cc61054c366004612158565b6117b7565b34801561055d57600080fd5b5061056760045481565b6040519081526020016102b2565b34801561058157600080fd5b506101cc610590366004612158565b61197d565b3480156105a157600080fd5b5061068e6105b0366004612158565b6040805161012081018252600080825260208201819052918101829052606081018290526080810182905260a0810182905260c0810182905260e081018290526101008101919091525060009081526002602081815260409283902083516101208101855281546001600160a01b039081168252600183015481169382019390935292810154909116928201929092526003820154606082015260048201546080820152600582015460ff808216151560a08401526101009182900416151560c0830152600683015460e08301526007909201549181019190915290565b6040516102b291906121e4565b3480156106a757600080fd5b506101cc611ae8565b3480156106bc57600080fd5b506101cc6106cb36600461226b565b611bcd565b3480156106dc57600080fd5b506005546104f9906001600160a01b031681565b3480156106fc57600080fd5b506101cc61070b36600461218d565b611e83565b34801561071c57600080fd5b506103d761072b366004612158565b600090815260026020526040902060030154151590565b61074a611ebe565b610752611ee8565b600081815260026020526040902060018101546001600160a01b0316156107945760405162461bcd60e51b815260040161078b9061229e565b60405180910390fd5b60008160030154116107e85760405162461bcd60e51b815260206004820152601760248201527f42696c6c206e6f7420666f756e64206f7220656d707479000000000000000000604482015260640161078b565b80546001600160a01b031633036108395760405162461bcd60e51b815260206004820152601560248201527410d85b9b9bdd0818db185a5b481bdddb88189a5b1b605a1b604482015260640161078b565b6005810154610100900460ff16156108865760405162461bcd60e51b815260206004820152601060248201526f109a5b1b081a5cc8191a5cdc1d5d195960821b604482015260640161078b565b806007015442106108c85760405162461bcd60e51b815260206004820152600c60248201526b109a5b1b08195e1c1a5c995960a21b604482015260640161078b565b6001810180546001600160a01b0319163390811790915560405183907f0b32da9354607796544422f364ca1aec8a7b6e85fdb196e204bf0ed62cb620ae90600090a3506109156001600055565b50565b610920611f0c565b610928611f3f565b6001600160a01b03811661097e5760405162461bcd60e51b815260206004820181905260248201527f55736520656d657267656e6379576974686472617720666f72206e6174697665604482015260640161078b565b6040516370a0823160e01b81523060048201526000906001600160a01b038316906370a0823190602401602060405180830381865afa1580156109c5573d6000803e3d6000fd5b505050506040513d601f19601f820116820180604052508101906109e991906122c7565b905060008111610a2e5760405162461bcd60e51b815260206004820152601060248201526f4e6f20746f6b656e2062616c616e636560801b604482015260640161078b565b600154610a549061010090046001600160a01b03166001600160a01b0384169083611f62565b5050565b610a60611ebe565b610a68611ee8565b803411610ab05760405162461bcd60e51b8152602060048201526016602482015275416d6f756e74206d757374206578636565642066656560501b604482015260640161078b565b60003411610af35760405162461bcd60e51b815260206004820152601060248201526f4d7573742073656e642063727970746f60801b604482015260640161078b565b60048054906000610b03836122f6565b909155505060408051610120810182523381526000602082018190529181019190915260608101610b34833461230f565b81526020018281526020016000151581526020016000151581526020014281526020014262093a80610b669190612328565b9052600480546000908152600260208181526040808420865181546001600160a01b03199081166001600160a01b03928316178355938801516001830180548616918316919091179055918701519381018054909316939091169290921790556060840151600382015560808401518184015560a084015160058201805460c087015161ffff1990911692151561ff00191692909217610100921515830217905560e08501516006830155909301516007909301929092555433907ffdb4c95616fd6687bebc7ddfb5908c80b84098683db171948dd78afd7cc9f97b610c4c853461230f565b60408051918252602082018790520160405180910390a46109156001600055565b610c75611ebe565b610c7d611ee8565b600081815260026020526040902080546001600160a01b03163314610cd65760405162461bcd60e51b815260206004820152600f60248201526e27b7363c903134b6361036b0b5b2b960891b604482015260640161078b565b60018101546001600160a01b0316610d1e5760405162461bcd60e51b815260206004820152600b60248201526a139bdd0818db185a5b595960aa1b604482015260640161078b565b600581015460ff1615610d675760405162461bcd60e51b8152602060048201526011602482015270105b1c9958591e4818dbdb999a5c9b5959607a1b604482015260640161078b565b6005810154610100900460ff1615610db15760405162461bcd60e51b815260206004820152600d60248201526c109a5b1b08191a5cdc1d5d1959609a1b604482015260640161078b565b6000816003015411610dd55760405162461bcd60e51b815260040161078b9061233b565b60058101805460ff1916600190811790915560038201805460048401805460028601549486015460009485905593909155909290916001600160a01b03918216911681610f5e576000816001600160a01b03168560405160006040518083038185875af1925050503d8060008114610e69576040519150601f19603f3d011682016040523d82523d6000602084013e610e6e565b606091505b5050905080610eb75760405162461bcd60e51b815260206004820152601560248201527414185e595c881d1c985b9cd9995c8819985a5b1959605a1b604482015260640161078b565b8315610f58576005546040516000916001600160a01b03169086908381818185875af1925050503d8060008114610f0a576040519150601f19603f3d011682016040523d82523d6000602084013e610f0f565b606091505b5050905080610f565760405162461bcd60e51b8152602060048201526013602482015272119959481d1c985b9cd9995c8819985a5b1959606a1b604482015260640161078b565b505b50610f92565b610f726001600160a01b0383168286611f62565b8215610f9257600554610f92906001600160a01b03848116911685611f62565b60405186907fe56e5977b732b68b6c4e6f2e2dc7332c3216577b919ca691580a29e7c31d385790600090a2816001600160a01b0316816001600160a01b0316877f97403cce48bf0c83f4199e651135f4c6eaab37f5f2adb71672b857345a19bef68760405161100391815260200190565b60405180910390a450505050506109156001600055565b611022611f0c565b61102a611ebe565b60008281526002602052604090206005810154610100900460ff166110805760405162461bcd60e51b815260206004820152600c60248201526b139bdd08191a5cdc1d5d195960a21b604482015260640161078b565b600081600301541180611097575060008160040154115b6110b35760405162461bcd60e51b815260040161078b9061233b565b6003810180546004830180546002850154600186015486546000968790559590935560058601805461ff0019169055929390926001600160a01b03908116928116911686801561110b57506001600160a01b03821615155b156112cf576001600160a01b038316611260576000826001600160a01b03168660405160006040518083038185875af1925050503d806000811461116b576040519150601f19603f3d011682016040523d82523d6000602084013e611170565b606091505b50509050806111b95760405162461bcd60e51b815260206004820152601560248201527414185e595c881d1c985b9cd9995c8819985a5b1959605a1b604482015260640161078b565b841561125a576005546040516000916001600160a01b03169087908381818185875af1925050503d806000811461120c576040519150601f19603f3d011682016040523d82523d6000602084013e611211565b606091505b50509050806112585760405162461bcd60e51b8152602060048201526013602482015272119959481d1c985b9cd9995c8819985a5b1959606a1b604482015260640161078b565b505b50611294565b6112746001600160a01b0384168387611f62565b831561129457600554611294906001600160a01b03858116911686611f62565b6040516001815288907f5a87909bff68caaaaf0b3fd9c74eeccc928832f879315e5c6fb7a73612f26c0c9060200160405180910390a26113b0565b60006112db8587612328565b90506001600160a01b038416611364576000826001600160a01b03168260405160006040518083038185875af1925050503d8060008114611338576040519150601f19603f3d011682016040523d82523d6000602084013e61133d565b606091505b505090508061135e5760405162461bcd60e51b815260040161078b9061235d565b50611378565b6113786001600160a01b0385168383611f62565b6040516000815289907f5a87909bff68caaaaf0b3fd9c74eeccc928832f879315e5c6fb7a73612f26c0c9060200160405180910390a2505b505050505050610a546001600055565b6113c8611f0c565b6113d0611fc1565b565b6113da611ebe565b600081815260026020526040902080546001600160a01b031633146114335760405162461bcd60e51b815260206004820152600f60248201526e27b7363c903134b6361036b0b5b2b960891b604482015260640161078b565b60018101546001600160a01b03161561145e5760405162461bcd60e51b815260040161078b9061229e565b600081600301541180611475575060008160040154115b6114915760405162461bcd60e51b815260040161078b9061233b565b6000816004015482600301546114a79190612328565b600283015460006003850181905560048501559091506001600160a01b0316806115435782546040516000916001600160a01b03169084908381818185875af1925050503d8060008114611517576040519150601f19603f3d011682016040523d82523d6000602084013e61151c565b606091505b505090508061153d5760405162461bcd60e51b815260040161078b9061235d565b5061155c565b825461155c906001600160a01b03838116911684611f62565b82546040516001600160a01b039091169085907f16e7a7a8fd7c51d6b4d059d6d7eea946bff398eee64dd1894af645edd23d502b90600090a35050506109156001600055565b6115aa611f0c565b6001600160a01b0381166116005760405162461bcd60e51b815260206004820152601c60248201527f557365206e617469766520746f6b656e20616464726573732030783000000000604482015260640161078b565b6001600160a01b038116600081815260036020526040808220805460ff19166001179055517f784c8f4dbf0ffedd6e72c76501c545a70f8b203b30a26ce542bf92ba87c248a49190a250565b611654611f0c565b6113d06000612013565b611666611f0c565b6001600160a01b0381166116bc5760405162461bcd60e51b815260206004820152601a60248201527f43616e6e6f742072656d6f7665206e617469766520746f6b656e000000000000604482015260640161078b565b6001600160a01b038116600081815260036020526040808220805460ff19169055517f4c910b69fe65a61f7531b9c5042b2329ca7179c77290aa7e2eb3afa3c8511fd39190a250565b61170d611f0c565b6113d061206d565b61171d611f0c565b6001600160a01b0381166117655760405162461bcd60e51b815260206004820152600f60248201526e496e76616c6964206164647265737360881b604482015260640161078b565b600580546001600160a01b038381166001600160a01b0319831681179093556040519116919082907f362a006325d32978b283e449d254cfcf93e2cccc321603ead9a74238d8dbf36e90600090a35050565b6117bf611ebe565b60008181526002602052604090206007810154421161180e5760405162461bcd60e51b815260206004820152600b60248201526a139bdd08195e1c1a5c995960aa1b604482015260640161078b565b60018101546001600160a01b0316156118395760405162461bcd60e51b815260040161078b9061229e565b600081600301541180611850575060008160040154115b61186c5760405162461bcd60e51b815260040161078b9061233b565b6000816004015482600301546118829190612328565b6002830154835460006003860181905560048601559192506001600160a01b03908116911681611925576000816001600160a01b03168460405160006040518083038185875af1925050503d80600081146118f9576040519150601f19603f3d011682016040523d82523d6000602084013e6118fe565b606091505b505090508061191f5760405162461bcd60e51b815260040161078b9061235d565b50611939565b6119396001600160a01b0383168285611f62565b6040516001600160a01b0382169086907f16e7a7a8fd7c51d6b4d059d6d7eea946bff398eee64dd1894af645edd23d502b90600090a3505050506109156001600055565b600081815260026020526040902080546001600160a01b03163314806119af575060018101546001600160a01b031633145b6119ec5760405162461bcd60e51b815260206004820152600e60248201526d139bdd08185d5d1a1bdc9a5e995960921b604482015260640161078b565b600581015460ff1615611a355760405162461bcd60e51b8152602060048201526011602482015270105b1c9958591e4818dbdb5c1b195d1959607a1b604482015260640161078b565b6005810154610100900460ff1615611a825760405162461bcd60e51b815260206004820152601060248201526f105b1c9958591e48191a5cdc1d5d195960821b604482015260640161078b565b6000816003015411611aa65760405162461bcd60e51b815260040161078b9061233b565b60058101805461ff001916610100179055604051339083907fcde8e21e97a7f6ec4bbf0ee44450212e0ba73be8fdfbfb2b155e861d86756bac90600090a35050565b611af0611f0c565b611af8611f3f565b4780611b335760405162461bcd60e51b815260206004820152600a6024820152694e6f2062616c616e636560b01b604482015260640161078b565b60015460405160009161010090046001600160a01b03169083908381818185875af1925050503d8060008114611b85576040519150601f19603f3d011682016040523d82523d6000602084013e611b8a565b606091505b5050905080610a545760405162461bcd60e51b815260206004820152600f60248201526e15da5d1a191c985dc819985a5b1959608a1b604482015260640161078b565b611bd5611ebe565b611bdd611ee8565b6001600160a01b038316611c335760405162461bcd60e51b815260206004820181905260248201527f5573652063726561746542696c6c20666f72206e617469766520746f6b656e73604482015260640161078b565b6001600160a01b03831660009081526003602052604090205460ff16611c915760405162461bcd60e51b8152602060048201526013602482015272151bdad95b881b9bdd081cdd5c1c1bdc9d1959606a1b604482015260640161078b565b60008211611cd65760405162461bcd60e51b81526020600482015260126024820152710416d6f756e74206d757374206265203e20360741b604482015260640161078b565b6000611ce28284612328565b9050611cf96001600160a01b0385163330846120a8565b60048054906000611d09836122f6565b9190505550604051806101200160405280336001600160a01b0316815260200160006001600160a01b03168152602001856001600160a01b031681526020018481526020018381526020016000151581526020016000151581526020014281526020014262093a80611d7b9190612328565b905260048054600090815260026020818152604092839020855181546001600160a01b03199081166001600160a01b03928316178355878401516001840180548316918416919091179055878601519483018054909116948216949094179093556060860151600382015560808601518186015560a086015160058201805460c089015161ffff1990911692151561ff00191692909217610100921515830217905560e087015160068301559095015160079095019490945591548151878152938401869052918716923392917ffdb4c95616fd6687bebc7ddfb5908c80b84098683db171948dd78afd7cc9f97b910160405180910390a450611e7e6001600055565b505050565b611e8b611f0c565b6001600160a01b038116611eb557604051631e4fbdf760e01b81526000600482015260240161078b565b61091581612013565b600260005403611ee157604051633ee5aeb560e01b815260040160405180910390fd5b6002600055565b60015460ff16156113d05760405163d93c066560e01b815260040160405180910390fd5b6001546001600160a01b036101009091041633146113d05760405163118cdaa760e01b815233600482015260240161078b565b60015460ff166113d057604051638dfc202b60e01b815260040160405180910390fd5b6040516001600160a01b03838116602483015260448201839052611e7e91859182169063a9059cbb906064015b604051602081830303815290604052915060e01b6020820180516001600160e01b0383818316178352505050506120e7565b611fc9611f3f565b6001805460ff191690557f5db9ee0a495bf2e6ff9c91a7834c1ba4fdd244a5e8aa4e537bd38aeae4b073aa335b6040516001600160a01b03909116815260200160405180910390a1565b600180546001600160a01b03838116610100818102610100600160a81b031985161790945560405193909204169182907f8be0079c531659141344cd1fd0a4f28419497f9722a3daafe3b4186f6b6457e090600090a35050565b612075611ee8565b6001805460ff1916811790557f62e78cea01bee320cd4e420270b5ea74000d11b0c9f74754ebdbfc544b05a25833611ff6565b6040516001600160a01b0384811660248301528381166044830152606482018390526120e19186918216906323b872dd90608401611f8f565b50505050565b600080602060008451602086016000885af18061210a576040513d6000823e3d81fd5b50506000513d9150811561212257806001141561212f565b6001600160a01b0384163b155b156120e157604051635274afe760e01b81526001600160a01b038516600482015260240161078b565b60006020828403121561216a57600080fd5b5035919050565b80356001600160a01b038116811461218857600080fd5b919050565b60006020828403121561219f57600080fd5b6121a882612171565b9392505050565b600080604083850312156121c257600080fd5b82359150602083013580151581146121d957600080fd5b809150509250929050565b81516001600160a01b0390811682526020808401518216908301526040808401519182169083015261012082019050606083015160608301526080830151608083015260a083015161223a60a084018215159052565b5060c083015161224e60c084018215159052565b5060e083015160e083015261010080840151818401525092915050565b60008060006060848603121561228057600080fd5b61228984612171565b95602085013595506040909401359392505050565b6020808252600f908201526e105b1c9958591e4818db185a5b5959608a1b604082015260600190565b6000602082840312156122d957600080fd5b5051919050565b634e487b7160e01b600052601160045260246000fd5b600060018201612308576123086122e0565b5060010190565b81810381811115612322576123226122e0565b92915050565b80820180821115612322576123226122e0565b6020808252600890820152674e6f2066756e647360c01b604082015260600190565b6020808252601690820152751499599d5b99081d1c985b9cd9995c8819985a5b195960521b60408201526060019056fea26469706673582212200732acd96643cbca67f1c8d14dc2460d22b9f2fec0f3cc786450f91391d7937564736f6c63430008140033",
  "linkReferences": {},
  "deployedLinkReferences": {}
}